:020000040800F2
:10000000000002202D580008CD560008D5560008E3
:10001000DD560008E5560008ED5600080000000017
:10002000000000000000000000000000F55600087D
:100030000357000800000000115700081F57000870
:100040007D5800087D5800087D5800087D5800083C
:100050007D5800087D5800087D5800082B5700087F
:100060007D580008495700087D5800087D58000851
:100070007D5800087D5800087D5800087D5800080C
:100080007D5800087D580008675700087D58000813
:100090007D5800087D5800087D5800087D580008EC
:1000A0007D5800087D5800087D5800087D580008DC
:1000B0007D5800087D5800087D5800087D580008CC
:1000C0007D5800087D5800087D5800087D580008BC
:1000D0007D580008755700087D5800087D580008B5
:1000E0007D5800087D5800087D5800087D5800089C
:1000F0007D5800087D5800087D5800087D5800088C
:100100007D5800087D5800087D5800087D5800087B
:100110007D5800087D5800087D5800087D5800086B
:100120007D5800087D5800087D5800087D5800085B
:100130007D58000800000000000000007D58000805
:100140007D5800087D5800087D5800087D5800083B
:100150007D5800087D5800087D5800088957000820
:100160007D5800087D5800087D5800087D5800081B
:100170007D5800087D5800080000000000000000C5
:080180007D5800087D580008BD
:1001900010B5054C237833B9044B13B10448AFF3C1
:1001A00000800123237010BD4002002000000000E9
:1001B0004CC4000808B5034B1BB103490348AFF317
:1001C000008008BD00000000440200204CC400086C
:1001D00010F8012B11F8013B012A28BF9A42F7D0F1
:1001E000D01A7047034613F8012B002AFBD1181AC6
:1001F000013870470000000000000000000000000F
:1002000001F0FF01102A2BDB10F0070F08D010F8C7
:10021000013B013A8B422DD010F0070F42B3F6D1CB
:10022000F0B441EA012141EA014122F007047FF0E4
:1002300000070023F0E80256083C85EA010586EA3B
:10024000010685FA47F5A3FA87F586FA47F6A5FA77
:1002500087F68EB9EED1F0BC01F0FF0102F0070283
:1002600032B110F8013B013A83EA010313B1F8D12E
:100270000020704701387047002D06BF354603380F
:10028000073815F0010F07D1013015F4807F02BF48
:10029000013015F4C03F0130F0BC0138704700BF99
:1002A00081F0004102E000BF83F0004330B54FEA27
:1002B00041044FEA430594EA050F08BF90EA020F94
:1002C0001FBF54EA000C55EA020C7FEA645C7FEA27
:1002D000655C00F0E2804FEA5454D4EB5555B8BF4A
:1002E0006D420CDD2C4480EA020281EA030382EABB
:1002F000000083EA010180EA020281EA0303362D4D
:1003000088BF30BD11F0004F4FEA01314FF4801C1F
:100310004CEA113102D0404261EB410113F0004F31
:100320004FEA03334CEA133302D0524263EB4303E8
:1003300094EA050F00F0A780A4F10104D5F1200E86
:100340000DDB02FA0EFC22FA05F2801841F10001E1
:1003500003FA0EF2801843FA05F359410EE0A5F1B5
:1003600020050EF1200E012A03FA0EFC28BF4CF0E6
:10037000020C43FA05F3C01851EBE37101F000459C
:1003800007D54FF0000EDCF1000C7EEB00006EEBA9
:100390000101B1F5801F1BD3B1F5001F0CD3490833
:1003A0005FEA30004FEA3C0C04F101044FEA44528A
:1003B00012F5800F80F09A80BCF1004F08BF5FEA11
:1003C000500C50F1000041EB045141EA050130BDF1
:1003D0005FEA4C0C404141EB0101013C28BFB1F503
:1003E000801FE9D291F0000F04BF01460020B1FA4E
:1003F00081F308BF2033A3F10B03B3F120020CDA21
:100400000C3208DD02F1140CC2F10C0201FA0CF0FE
:1004100021FA02F10CE002F11402D8BFC2F1200C63
:1004200001FA02F120FA0CFCDCBF41EA0C01904019
:10043000E41AA2BF01EB0451294330BD6FEA040462
:100440001F3C1CDA0C340EDC04F11404C4F120024D
:1004500020FA04F001FA02F340EA030021FA04F35F
:1004600045EA030130BDC4F10C04C4F1200220FAB6
:1004700002F001FA04F340EA0300294630BD21FAF4
:1004800004F0294630BD94F0000F83F4801306BFBA
:1004900081F480110134013D4EE77FEA645C18BFAE
:1004A0007FEA655C29D094EA050F08BF90EA020F45
:1004B00005D054EA000C04BF1946104630BD91EA3D
:1004C000030F1EBF0021002030BD5FEA545C05D140
:1004D0004000494128BF41F0004130BD14F580047F
:1004E0003CBF01F5801130BD01F0004545F0FE41F3
:1004F00041F470014FF0000030BD7FEA645C1ABF28
:10050000194610467FEA655C1CBF0B46024650EA5E
:10051000013406BF52EA033591EA030F41F400218A
:1005200030BD00BF90F0000F04BF0021704730B510
:100530004FF4806404F132044FF000054FF00001E5
:1005400050E700BF90F0000F04BF0021704730B5A6
:100550004FF4806404F1320410F0004548BF40427B
:100560004FF000013EE700BF42004FEAE2014FEAD0
:1005700031014FEA02701FBF12F07F4393F07F4FAB
:1005800081F06051704732F07F4208BF704793F0AE
:100590007F4F04BF41F40021704730B54FF46074C1
:1005A00001F0004521F000411CE700BF50EA0102C4
:1005B00008BF704730B54FF000050AE050EA01026D
:1005C00008BF704730B511F0004502D5404261EBDD
:1005D00041014FF4806404F132045FEA915C3FF41E
:1005E000D8AE4FF003025FEADC0C18BF03325FEABB
:1005F000DC0C18BF033202EBDC02C2F1200300FA6C
:1006000003FC20FA02F001FA03FE40EA0E0021FA90
:1006100002F11444BDE600BF70B54FF0FF0C4CF47E
:10062000E06C1CEA11541DBF1CEA135594EA0C0F30
:1006300095EA0C0F00F0DEF82C4481EA030621EA6B
:100640004C5123EA4C5350EA013518BF52EA0335A6
:1006500041F4801143F4801338D0A0FB02CE4FF058
:100660000005E1FB02E506F00042E0FB03E54FF088
:100670000006E1FB03569CF0000F18BF4EF0010E80
:10068000A4F1FF04B6F5007F64F5407404D25FEA7C
:100690004E0E6D4146EB060642EAC62141EA55512F
:1006A0004FEAC52040EA5E504FEACE2EB4F1FD0C71
:1006B00088BFBCF5E06F1ED8BEF1004F08BF5FEAEF
:1006C000500E50F1000041EB045170BD06F00046A1
:1006D00046EA010140EA020081EA0301B4EB5C044E
:1006E000C2BFD4EB0C0541EA045170BD41F4801146
:1006F0004FF0000E013C00F3AB8014F1360FDEBF6B
:10070000002001F0004170BDC4F10004203C35DA46
:100710000C341BDC04F11404C4F1200500FA05F3C9
:1007200020FA04F001FA05F240EA020001F000426A
:1007300021F0004110EBD37021FA04F642EB0601E0
:100740005EEA430E08BF20EAD37070BDC4F10C040A
:10075000C4F1200500FA04F320FA05F001FA04F2CE
:1007600040EA020001F0004110EBD37041F10001BA
:100770005EEA430E08BF20EAD37070BDC4F12005C5
:1007800000FA05F24EEA020E20FA04F301FA05F22D
:1007900043EA020321FA04F001F0004121FA04F2D5
:1007A00020EA020000EBD3705EEA430E08BF20EAA5
:1007B000D37070BD94F0000F0FD101F000464000DF
:1007C00041EB010111F4801F08BF013CF7D041EA61
:1007D000060195F0000F18BF704703F00046520065
:1007E00043EB030313F4801F08BF013DF7D043EA36
:1007F0000603704794EA0C0F0CEA135518BF95EAEC
:100800000C0F0CD050EA410618BF52EA4306D1D172
:1008100081EA030101F000414FF0000070BD50EA91
:10082000410606BF1046194652EA430619D094EA1B
:100830000C0F02D150EA013613D195EA0C0F05D105
:1008400052EA03361CBF104619460AD181EA030159
:1008500001F0004141F0FE4141F470014FF0000011
:1008600070BD41F0FE4141F4780170BD70B54FF0AC
:10087000FF0C4CF4E06C1CEA11541DBF1CEA13552C
:1008800094EA0C0F95EA0C0F00F0A7F8A4EB05040E
:1008900081EA030E52EA03354FEA013100F0888005
:1008A0004FEA03334FF0805545EA131343EA1263CE
:1008B0004FEA022245EA111545EA10654FEA002683
:1008C0000EF000419D4208BF964244F1FD0404F53C
:1008D000407402D25B084FEA3202B61A65EB030598
:1008E0005B084FEA32024FF480104FF4002CB6EB55
:1008F000020E75EB030E22BFB61A754640EA0C00D5
:100900005B084FEA3202B6EB020E75EB030E22BF14
:10091000B61A754640EA5C005B084FEA3202B6EB55
:10092000020E75EB030E22BFB61A754640EA9C0014
:100930005B084FEA3202B6EB020E75EB030E22BFE4
:10094000B61A754640EADC0055EA060E18D04FEAA2
:10095000051545EA16754FEA06164FEAC30343EA42
:1009600052734FEAC2025FEA1C1CC0D111F4801F0F
:100970000BD141EA00014FF000004FF0004CB6E708
:1009800011F4801F04BF01430020B4F1FD0C88BFA7
:10099000BCF5E06F3FF6AFAEB5EB030C04BFB6EBB2
:1009A000020C5FEA500C50F1000041EB045170BDA5
:1009B0000EF0004E4EEA113114EB5C04C2BFD4EBD2
:1009C0000C0541EA045170BD41F480114FF0000E56
:1009D000013C90E645EA060E8DE60CEA135594EAD2
:1009E0000C0F08BF95EA0C0F3FF43BAF94EA0C0FD5
:1009F0000AD150EA01347FF434AF95EA0C0F7FF44A
:100A000025AF104619462CE795EA0C0F06D152EA9D
:100A100003353FF4FDAE1046194622E750EA410681
:100A200018BF52EA43067FF4C5AE50EA41047FF492
:100A30000DAF52EA43057FF4EBAE12E74FF0FF3CF7
:100A400006E000BF4FF0010C02E000BF4FF0010CC8
:100A50004DF804CD4FEA410C7FEA6C5C4FEA430C41
:100A600018BF7FEA6C5C1BD001B050EA410C0CBF90
:100A700052EA430C91EA030F02BF90EA020F0020F2
:100A8000704710F1000F91EA030F58BF994208BF59
:100A900090422CBFD8176FEAE37040F00100704716
:100AA0004FEA410C7FEA6C5C02D150EA013C07D16D
:100AB0004FEA430C7FEA6C5CD6D152EA033CD3D0B8
:100AC0005DF8040B704700BF8446104662468C46B2
:100AD0001946634600E000BF01B5FFF7B7FF0028E5
:100AE00048BF10F1000F01BD4DF808EDFFF7F4FF0E
:100AF0000CBF012000205DF808FB00BF4DF808ED99
:100B0000FFF7EAFF34BF012000205DF808FB00BFBB
:100B10004DF808EDFFF7E0FF94BF012000205DF8DD
:100B200008FB00BF4DF808EDFFF7CEFF94BF012092
:100B300000205DF808FB00BF4DF808EDFFF7C4FF8B
:100B400034BF012000205DF808FB00BF4A0011D22D
:100B500012F5001211D20DD56FF47873B3EB625217
:100B60000ED44FEAC12343F0004343EA505323FA23
:100B700002F070474FF00000704750EA013002D198
:100B80004FF0FF3070474FF00000704753B94AB93B
:100B9000002908BF00281CBF4FF0FF314FF0FF3085
:100BA00000F088B9ADF1080C6DE904CE00F006F84C
:100BB000DDF804E0DDE9022304B070472DE9F047D9
:100BC000089D8E4604468846002B4AD18A42174625
:100BD00062D9B2FA82F64EB1C6F1200301FA06F8E4
:100BE00020FA03F3B74043EA0808B4404FEA174E2F
:100BF0001FFA87FCB8FBFEF1230C0EFB118843EAB9
:100C0000084301FB0CF29A4209D9FB1801F1FF30AD
:100C100080F0EA809A4240F2E78002393B449A1A17
:100C2000A3B2B2FBFEF00EFB102243EA024300FB2C
:100C30000CFC9C4509D9FB1800F1FF3280F0D680EE
:100C40009C4540F2D3803B44023840EA0140A3EB8C
:100C50000C0300211DB1F3400022C5E90032BDE8BC
:100C6000F0878B4205D90DB1C5E900010021084686
:100C7000F5E7B3FA83F1002946D1734502D38242E6
:100C800000F20581841A6EEB030201209046002DCC
:100C9000E5D0C5E90048E2E7002A00F09080B2FA0A
:100CA00082F6002E40F0A4808A1A030C4FEA174EF9
:100CB00080B2BCB20121B2FBFEFC0EFB1C2243EA57
:100CC000024304FB0CF29A4207D9FB180CF1FF38DF
:100CD00002D29A4200F2E080C4469B1AB3FBFEF2B5
:100CE0000EFB123340EA034302FB04F49C4207D993
:100CF000FB1802F1FF3002D29C4200F2CA80024689
:100D00001B1B42EA0C40A5E7C1F120068B4022FAEA
:100D100006F71F430EFA01F420FA06F32EFA06FE38
:100D20004FEA1749234300FA01F81FFA87FCBEFB7C
:100D3000F9F01C0C09FB10EE44EA0E4400FB0CFE1B
:100D4000A64502FA01F209D93C1900F1FF3A80F0F8
:100D50009C80A64540F2998002383C44A4EB0E04E6
:100D60001FFA83FEB4FBF9F309FB13444EEA044473
:100D700003FB0CFCA44508D93C1903F1FF3E80F0AD
:100D80008280A4457FD9023B3C4443EA0040A4EB67
:100D90000C04A0FB02EC64457346E14662D35FD0CD
:100DA0005DB1B8EB030264EB090404FA06F622FA1B
:100DB00001F31E43CC40C5E9006400214FE7B1FBBD
:100DC000F2FC010C41EA0E4180B240EA01423B468E
:100DD00038463C46B846BE462026B1FBF7F1A2EBAA
:100DE000080241EA0C4166E7014618E710462CE785
:100DF000C6F120022EFA02F3B740B14020FA02F207
:100E00004FEA174E0A43B3FBFEF8BCB20EFB183391
:100E1000110C41EA034108FB04F9B04089454FEA4F
:100E2000104380B23ED9791808F1FF3C01D28945C0
:100E30001FD8A1EB0901B1FBFEF909FB04F80EFB79
:100E4000191192B242EA0142424529D2BA1809F177
:100E5000FF31C4D24245C2D2A9F102013A44BEE7F1
:100E6000F0459DD2BEEB02036CEB070C0138E14666
:100E700096E7A7EB09094944A8F1020CB1FBFEF97A
:100E800009FB04F8DBE773467FE7504666E7084650
:100E9000FDE63B44023A33E7ACF1020C3B441CE76D
:100EA00049469CE7A1EB0901C446B1FBFEF909FBE9
:100EB00004F8C4E7704700BF80B500AF02F07AF9CC
:100EC00000F0AEFB03F030F903F0EAF903F0CAF9E1
:100ED00042F2107009F0A6FD09F0C6FDFCE780B4EF
:100EE00083B000AF786000BF0C37BD465DF8047B6F
:100EF000704780B483B000AF786039607B685B680E
:100F000023F480723B681A437B685A6000BF0C3739
:100F1000BD465DF8047B704780B483B000AF786055
:100F200039607B689B6823F070623B6803F07063F4
:100F30001A437B689A6000BF0C37BD465DF8047B9E
:100F4000704780B483B000AF786039607B68DB6A3B
:100F500023F470023B681A437B68DA6200BF0C37E7
:100F6000BD465DF8047B704780B489B000AFF8607F
:100F7000B9607A60FB682C331946BB6803F4407390
:100F80004FF440727A617A6992FAA2F23A613A6950
:100F9000BA61BA69002A01D1202203E0BA69B2FA23
:100FA00082F2D2B2D3409B000B44FB61FB691A680A
:100FB000BB6803F01F031F2101FA03F3DB431A4050
:100FC0007B6803F01F01BB6803F01F0301FA03F302
:100FD0001A43FB691A6000BF2437BD465DF8047BE5
:100FE000704780B483B000AF786039607B689B68DD
:100FF00023F002023B681A437B689A6000BF0C37FB
:10100000BD465DF8047B704780B483B000AF786064
:1010100039607B689B6823F480623B681A437B6875
:101020009A6000BF0C37BD465DF8047B704780B402
:101030008FB000AFF860B9607A60FB680C33194676
:10104000BB6803F000734FF000727A617A6992FA1C
:10105000A2F23A613A69BA61BA69002A01D1202242
:1010600003E0BA69B2FA82F2D2B2D3409B000B44D9
:101070007B637B6B1A68BB6803F0F8734FF0F87101
:101080003962396A91FAA1F1F961F9697962796A8B
:10109000002901D1202103E0796AB1FA81F1C9B2B6
:1010A000CB40072101FA03F3DB431A40BB6803F08E
:1010B000F8734FF0F871F962F96A91FAA1F1B96227
:1010C000B96A3963396B002901D1202103E0396BFA
:1010D000B1FA81F1C9B2CB40796801FA03F31A433E
:1010E0007B6B1A6000BF3C37BD465DF8047B7047E0
:1010F00080B483B000AF78607B689B6843F00102E6
:101100007B689A6000BF0C37BD465DF8047B704772
:1011100080B483B000AF78607B689B6823F00102E5
:101120007B689A6000BF0C37BD465DF8047B704752
:1011300080B483B000AF78607B689B6843F08042E6
:101140007B689A6000BF0C37BD465DF8047B704732
:1011500080B483B000AF78607B68DB6C9BB21846CC
:101160000C37BD465DF8047B704780B483B000AF98
:1011700078607B681B6803F00203022B0CBF01231D
:101180000023DBB218460C37BD465DF8047B704780
:1011900080B483B000AF78607B681B6803F02003E5
:1011A000202B0CBF01230023DBB218460C37BD46B1
:1011B0005DF8047B704780B483B000AF78607B68D3
:1011C0006FF002021A6000BF0C37BD465DF8047B69
:1011D000704780B483B000AF78607B686FF0200206
:1011E0001A6000BF0C37BD465DF8047B704780B4C1
:1011F00083B000AF78607B685B6843F020027B6857
:101200005A6000BF0C37BD465DF8047B704780B460
:1012100083B000AF78607B685B6843F080627B6876
:101220005A6000BF0C37BD465DF8047B704780B440
:1012300083B000AF786039607B683A689A6100BF1C
:101240000C37BD465DF8047B704780B483B000AFB7
:10125000786039603B681A047B689A6100BF0C377C
:10126000BD465DF8047B704780B483B000AF786002
:101270007B681B6843F001027B681A6000BF0C3773
:10128000BD465DF8047B704780B483B000AF7860E2
:101290007B681B6823F002027B681A6000BF0C3772
:1012A000BD465DF8047B704780B483B000AF7860C2
:1012B0007B681B6843F002027B681A6000BF0C3732
:1012C000BD465DF8047B704780B483B000AF7860A2
:1012D0007B681B6843F080027B681A6000BF0C3794
:1012E000BD465DF8047B704780B483B000AF786082
:1012F00039607B683A689A6200BF0C37BD465DF87A
:10130000047B704780B483B000AF78607B689B6AD1
:1013100018460C37BD465DF8047B704780B483B037
:1013200000AF786039607B683A68DA6200BF0C37DA
:10133000BD465DF8047B704780B483B000AF786031
:1013400039607B681A6A3B681A437B681A6200BF7F
:101350000C37BD465DF8047B7047000080B487B051
:1013600000AFF860B9607A60BB68012B1CD0BB6825
:10137000042B17D0BB68102B12D0BB68402B0DD0AC
:10138000BB68B3F5807F07D0BB68B3F5806F01D130
:1013900005230AE0062308E0042306E0032304E013
:1013A000022302E0012300E00023FB75FB681833F1
:1013B0001946FB7D0E4AD35C0B443B613B691A68BE
:1013C000FB7D0C49CB5C194673238B40DB431A40F1
:1013D000FB7D0849CB5C19467B688B401A433B690F
:1013E0001A6000BF1C37BD465DF8047B704700BF24
:1013F00084CB00088CCB000880B487B000AFF860C5
:10140000B9607A60BB68012B1CD0BB68042B17D075
:10141000BB68102B12D0BB68402B0DD0BB68B3F556
:10142000807F07D0BB68B3F5806F01D105230AE048
:10143000062308E0042306E0032304E0022302E07D
:10144000012300E00023FB75FB681A6AFB7D0B4952
:10145000CB5C194602238B40DB431A40FB7D0749D6
:10146000CB5C19467B688B401A43FB681A6200BF4D
:101470001C37BD465DF8047B704700BF94CB000865
:1014800080B485B000AF786039603B68012B1CD018
:101490003B68042B17D03B68102B12D03B68402BC5
:1014A0000DD03B68B3F5807F07D03B68B3F5806F04
:1014B00001D105230AE0062308E0042306E0032304
:1014C00004E0022302E0012300E00023FB737B68B9
:1014D00018331946FB7B0A4AD35C0B44BB60BB68DC
:1014E0001A68FB7B0749CB5C194608238B401A43DB
:1014F000BB681A6000BF1437BD465DF8047B7047B7
:1015000084CB00088CCB000880B483B000AF786037
:1015100039607B683A685A6300BF0C37BD465DF896
:10152000047B704780B483B000AF786039607B681B
:101530003A689A6300BF0C37BD465DF8047B70477C
:1015400080B483B000AF786039607B683A68DA6352
:1015500000BF0C37BD465DF8047B704780B483B094
:1015600000AF786039607B683A681A6400BF0C3756
:10157000BD465DF8047B704780B485B000AFF8606D
:10158000B9607A60FB685B6C23F44062B9687B6881
:101590000B431A43FB685A6400BF1437BD465DF81D
:1015A000047B704780B483B000AF78607B685B6C6D
:1015B00023F480427B685A6400BF0C37BD465DF857
:1015C000047B704780B483B000AF78607B685B6C4D
:1015D00043F400427B685A6400BF0C37BD465DF897
:1015E000047B704780B483B000AF78607B68DB68B1
:1015F00023F001027B68DA6000BF0C37BD465DF85E
:10160000047B704780B400AF044B9B6803F4E05345
:101610001846BD465DF8047B704700BF00380240A5
:10162000B0B5A4B000AF624B0833242200211846A5
:1016300009F0C0FE5E4B01221A725D4B01225A7204
:101640005B4B5C4ADA605A4B4FF07C521A61584B44
:10165000594A9A61564B594ADA61554B584A1A62AF
:10166000534B19225A85574B083324220021184620
:1016700009F0A0FE534B01221A72524B01225A72FA
:10168000504B4C4ADA604F4B4FF07C521A614D4B35
:101690004D4A9A614B4B4D4ADA614A4B4C4A1A62A9
:1016A000484B0A225A85424B4A4A03F12C041546FC
:1016B0000FCD0FC495E8070084E80700414B464A68
:1016C00003F12C0415460FCD0FC495E8070084E8FC
:1016D000070001F0CBFD0723C7F88830D7F8880052
:1016E00000F084FC3D4BC7F884303C4BC7F8803099
:1016F000D7F88010D7F8840000F0C2FC00F088FD15
:10170000002387F88F301DE0294BD96C97F88F2084
:1017100013465B0013445B000B441888244BD96CC0
:1017200097F88F2013465B0013445B00CC180146EA
:101730001F4801F0FDF80346638097F88F300133AE
:1017400087F88F301A4B93F8533097F88F209A42CE
:10175000DAD3002387F88E301DE01A4BD96C97F846
:101760008E2013465B0013445B000B441888154B16
:10177000D96C97F88E2013465B0013445B00CC189D
:101780000146104801F0D4F80346638097F88E3084
:10179000013387F88E300B4B93F8533097F88E2037
:1017A0009A42DAD300BF00BF9037BD46B0BD00BF3C
:1017B000E80000209A99993EEA00002030010020BC
:1017C000EC000020480100204A0100209001002088
:1017D0004C01002064C4000880C40008701101009E
:1017E000B0B5A6B000AF7860002387F8973000232B
:1017F00087F89630002387F895300023A7F89230B9
:1018000007F197031946032001F048FD07F19603FD
:101810001946042001F042FD07F195031946052001
:1018200001F03CFD07F192031946012001F036FD5D
:1018300097F89730002B42D0814B5B881846FEF713
:1018400081FE04460D467E4B9B881846FEF77AFEC5
:1018500079A3D3E90023FEF7DFFE02460B462046BC
:101860002946FFF75FF90346002B37D0744B93F8F6
:101870004930022B19D1724B93F85C30002B14D0F5
:10188000B7F892301A4607F108036E49184609F076
:1018900055FD6D4B1B6807F108021146184609F00B
:1018A000D5FB674B002283F85C20022387F88B303E
:1018B00007F18B031946002001F012FD0EE097F8A6
:1018C000973083F00103DBB2002B07D05C4B002282
:1018D00083F8482000215A4800F08CFD97F8963094
:1018E000002B05D04FF480615848FFF7A0FC0BE0B7
:1018F00097F8963083F00103DBB2002B04D04FF44D
:1019000080615248FFF7A1FC97F89530002B002327
:1019100087F89130002387F89030002387F88F30C4
:101920000023A7F88C3007F1910319460A2001F033
:10193000B5FC07F1900319460B2001F0AFFC07F14D
:101940008F0319460C2001F0A9FC07F18C031946FE
:10195000082001F0A3FC97F89130002B42D03C4BBB
:101960005B881846FEF7EEFD04460D46384B9B8813
:101970001846FEF7E7FD30A3D3E90023FEF74CFE3F
:1019800002460B4620462946FFF7CCF80346002BBB
:1019900037D02F4B93F84930022B19D12C4B93F8A9
:1019A0005C30002B14D0B7F88C301A4607F10803CE
:1019B0002849184609F0C2FC234B1B6807F10802AE
:1019C0001146184609F042FB214B002283F85C20A7
:1019D000022387F88A3007F18A031946072001F0AD
:1019E0007FFC0EE097F8913083F00103DBB2002B0F
:1019F00007D0174B002283F848200021144800F03C
:101A0000F9FC97F89030002B04D010211248FFF712
:101A10000EFC0AE097F8903083F00103DBB2002B54
:101A200003D010210C48FFF710FC97F88F30002BE3
:101A300000BF9837BD46B0BDAE47E17A14AEEF3F68
:101A4000E80000209CC40008600200200000024062
:101A500048010020C0C400080004024080B582B0E4
:101A600000AF786000F02AFD00F014FE00F042FEA6
:101A700000F02EFF00BF0837BD4680BD80B582B0A4
:101A800000AF03460A46FB711346BB80FB79002B6F
:101A900005D13B1D1946012001F022FC07E0FB792E
:101AA000012B04D13B1D1946082001F019FC00BF91
:101AB0000837BD4680BD80B582B000AF03460A46F8
:101AC000FB801346BB80BB1D1946012001F008FCBA
:101AD0003B1D1946082001F003FC00BF0837BD4636
:101AE00080BD000090B585B000AF044608461146A1
:101AF0001A462346FB710346BB710B467B711346A6
:101B00003B710023FB73FB79002B10D00023FB7388
:101B100007F10F031946042001F0E2FB0123BB7318
:101B200007F10E031946002001F0DAFB07E000235D
:101B3000BB7307F10E031946002001F0D1FB00230F
:101B40007B73BB79002B10D000237B7307F10D034F
:101B500019460B2001F0C4FB01233B7307F10C0372
:101B60001946072001F0BCFB07E000233B7307F197
:101B70000C031946072001F0B3FBFB1D1946032097
:101B800001F0AEFBBB1D19460A2001F0A9FB0E4B6C
:101B90000022A3F850200D4B0022A3F850200A4B3E
:101BA000002283F84920094B002283F84920064A85
:101BB0007B7982F85C30054A3B7982F85C3000BF63
:101BC0001437BD4690BD00BFE8000020480100204A
:101BD00080B584B000AF03460A46FB711346BB7163
:101BE0000023FB73FB79002B26D1BB79002B15D08A
:101BF0000023FB7307F10F031946032001F070FB6C
:101C00000323BB7307F10E031946002001F068FBA4
:101C1000052200211F4808F006FE07E00023BB73E1
:101C200007F10E031946002001F05AFBBB1D1946AF
:101C3000042001F055FB28E0FB79012B25D1BB796D
:101C4000002B15D00023FB7307F10F0319460A2060
:101C500001F046FB0323BB7307F10E03194607206F
:101C600001F03EFB052200210B4808F0DCFD07E0F7
:101C70000023BB7307F10E031946072001F030FB68
:101C8000BB1D19460B2001F02BFB00BF1037BD46D2
:101C900080BD00BFF00000205001002080B584B05E
:101CA00000AF03460A46FB711346BB710023FB736A
:101CB000FB79002B15D00023FB7307F10F031946A6
:101CC000032001F00DFB0323BB7307F10E0319463C
:101CD000002001F005FB052200211E4808F0A3FDAD
:101CE00007E00023BB7307F10E031946002001F043
:101CF000F7FAFB1D1946042001F0F2FA00237B736A
:101D0000BB79002B15D000237B7307F10D03194617
:101D10000A2001F0E5FA03233B7307F10C0319468F
:101D2000072001F0DDFA052200210B4808F07BFDB9
:101D300007E000233B7307F10C031946072001F06D
:101D4000CFFABB1D19460B2001F0CAFA00BF1037AD
:101D5000BD4680BDF00000205001002080B584B059
:101D600000AF0346FB710023FB81FB79002B06D1FA
:101D700007F10E031946012001F090FA08E0FB7903
:101D8000012B05D107F10E031946082001F086FA50
:101D9000FB8918461037BD4680BD80B584B000AFC2
:101DA0000346FB710023FB73FB79002B06D107F17F
:101DB0000F031946032001F071FA08E0FB79012BAB
:101DC00005D107F10F0319460A2001F067FAFB7BE2
:101DD00018461037BD4680BD80B584B000AF0346BD
:101DE000FB710023FB73FB79002B06D107F10F0376
:101DF0001946042001F052FA08E0FB79012B05D1C5
:101E000007F10F0319460B2001F048FAFB7B184637
:101E10001037BD4680BD000080B586B000AF0346D8
:101E2000FB710023FB820023FB81FB79002B12D185
:101E3000184B3B61174B5B88FB82FB8A19461548A0
:101E400000F091FD0346FB8107F10E0319460220C5
:101E500001F046FA14E0FB79012B11D10E4B3B61E6
:101E60000D4B5B88FB82FB8A19460B4800F07BFD1B
:101E70000346FB8107F10E031946092001F030FAF1
:101E8000FB8A1946386900F06EFD0346184618377C
:101E9000BD4680BDE80000204801002098B500AF95
:101EA0002148FFF775F90346012B14D11E48FFF7AF
:101EB00090F91E4B00221A701B48FFF729F900BF4A
:101EC00000BF00BF00BF00BF00BF1748FFF710F9F9
:101ED0001548FFF72DF91448FFF747F90346012B82
:101EE00020D11148FFF767F9104B1B78DBB21A4677
:101EF0000F4B53F822400C48FFF72AF90346638042
:101F00000A4B1B78DBB21A46094B53F822301846AD
:101F100000F090F9054B1B78DBB283F00103DAB2D5
:101F2000024B1A7000BF98BD002001405C020020E7
:101F3000A801002080B582B000AF0123FB71FB1D1A
:101F40001946052001F0CCF90F4B002283F84820F8
:101F500000210D4800F04EFA01210020FFF738FE65
:101F60000A4B1B680B221A70FA79084B1B685A70CF
:101F7000064B1B6800229A70032000F023FD00BF6F
:101F80000837BD4680BD00BFE8000020B00100203A
:101F900080B582B000AF0123FB71FB1D19460C20F8
:101FA00001F09EF90F4B002283F8482000210D48D4
:101FB00000F020FA01210120FFF70AFE0A4B1B68FE
:101FC0000B221A70084B1B6800225A70FA79064BD4
:101FD0001B689A70032000F0F5FC00BF0837BD466F
:101FE00080BD00BF48010020B001002080B582B054
:101FF00000AF78601F4B00221A704FF480111E480A
:10200000FEF79FFF1D4A4FF400711B48FEF7ACFF1F
:102010000A2240F205211848FEF7A6FF7A68174900
:102020001548FFF704F87A680A211348FEF7FFFF06
:102030004FF480711048FEF75CFF02210E48FEF756
:10204000D0FF0D48FFF7E3F80B48FFF7D0F84FF447
:1020500080610948FEF7D8FF0748FFF749F80021DB
:102060000548FEF759FF0448FFF762F800BF08373C
:10207000BD4680BD5C020020002001400C006000D5
:1020800080B582B000AF786039605A4808F087FAAE
:10209000594BDB6A584A116B60221846FFF75EF90C
:1020A000554BDB6A544A116B00221846FFF7A4F91E
:1020B000514BDB6A504A126B11461846FFF7E0F9A4
:1020C0004D4BDB6A4C4A126B11461846FFF734F948
:1020D000494BDB6A4FF400624FF480611846FFF70A
:1020E0004BFA454BDB6A1846FFF75CFA424BDB6A5A
:1020F0001846FFF767FA404BDB6A00211846FFF7E6
:10210000F3F83D4BDB6A1846FFF7DEF879683A488A
:1021100000F01CF9384BDB6A1846FFF763FA3748C2
:1021200008F03DFA364BDB6A354A116B60221846DF
:10213000FFF714F9324BDB6A314A116B0022184663
:10214000FFF75AF92E4BDB6A2D4A126B11461846DF
:10215000FFF796F92A4BDB6A294A126B114618469B
:10216000FFF7EAF8264BDB6A4FF400624FF4806118
:102170001846FFF701FA224BDB6A1846FFF712FAFE
:102180001F4BDB6A1846FFF71DFA1D4BDB6A002167
:102190001846FFF7A9F81A4BDB6A1846FFF794F8C0
:1021A0003968174800F0D2F8154BDB6A1846FFF77C
:1021B00019FA4FF400711348FFF739F80421124857
:1021C000FFF735F84FF480610E48FFF73EF8102115
:1021D0000E48FFF73AF8084BDB6A1846FFF744F859
:1021E000074BDB6A1846FFF73FF800BF0837BD46CC
:1021F00080BD00BFF0000020E8000020500100205A
:102200004801002000000240000C0240000402408F
:1022100080B500AF4FF480610448FFF716F8102135
:102220000348FFF712F800BF80BD00BF0000024066
:1022300000040240B0B586B000AF78600023FB73A5
:102240007B683F4A934206D107F10F0319460A20E3
:1022500001F024F809E07B683A4A934205D107F17E
:102260000F031946032001F019F8FB7B002B62D005
:102270007B680833184608F0E8F97B682C337B61EB
:102280007B6893F84830DBB23B617B699B691846F9
:10229000FEF748F904460D463869FEF743F94FF05A
:1022A0000002294BFEF7E2FA02460B462046294679
:1022B000FEF7B2F902460B4610461946FEF746FCF9
:1022C00002467B695A617B695B68B3F5805F28D001
:1022D000B3F5805F2ED8B3F5807F19D0B3F5807F3A
:1022E00028D8012B02D0102B09D023E07B691A6873
:1022F0007B695B6919461046FFF706F91BE07B69AD
:102300001A687B695B6919461046FFF70BF912E002
:102310007B691A687B695B6919461046FFF710F9FB
:1023200009E07B691A687B695B6919461046FFF70B
:1023300015F900E000BF00BF1837BD46B0BD00BFB3
:1023400048010020E80000200000594090B52DED24
:10235000028B85B000AF786039607B682C33FB60FE
:10236000FB681B681846FEF79FFF1F4B1B681F4A40
:10237000127823FA02F4FFF745F903469B0A1C4A38
:10238000D35C24FA03F307EE903AB8EE678AFB6851
:102390001B681846FEF7B6FF0346013307EE903A76
:1023A000B8EE677A3B6807EE903AF8EE677A27EE68
:1023B000277AC8EE077AFCEEE77A17EE902AFB68D8
:1023C0009A61FB681A68FB689B6919461046FEF71C
:1023D000A5FFFB681B681846FEF756FF00BF1437C1
:1023E000BD46BDEC028B90BDB80100204CCD00086D
:1023F0005CCD0008B0B584B000AF786039607B6810
:102400002C33FB60FB689B691846FEF78BF804468B
:102410000D463868FEF786F84FF00002264BFEF7AF
:1024200025FA02460B4620462946FEF7F5F80246F5
:102430000B4610461946FEF789FB0246FB685A61B7
:10244000FB685B68B3F5805F28D0B3F5805F2ED85A
:10245000B3F5807F19D0B3F5807F28D8012B02D047
:10246000102B09D023E0FB681A68FB685B691946EA
:102470001046FFF749F81BE0FB681A68FB685B69C8
:1024800019461046FFF74EF812E0FB681A68FB6821
:102490005B6919461046FFF753F809E0FB681A68B4
:1024A000FB685B6919461046FFF758F800E000BF6B
:1024B00000BF1037BD46B0BD0000594080B582B0A6
:1024C00000AF0023BB71BB1D1946032000F0E6FEE0
:1024D000BB7983F00103DBB2002B40F0CE806B4B65
:1024E00093F84930022B00F0C080022B00F3C78024
:1024F000002B02D0012B49D0C1E0644BB3F850301F
:10250000002B11D105220021614808F08CF905212A
:102510005E4800F043FA5D4BB3F8503001339AB295
:102520005A4BA3F85020ADE0584BB3F85030B3F5F8
:102530007A6F08D2554BB3F8503001339AB2534BEF
:10254000A3F850209EE00023FB7114E04F4B598804
:102550004E4BD86CFA7913465B0013445B0003447E
:102560005B88994204D8494AFB7982F8523008E0E6
:10257000FB790133FB71454B93F85330FA799A425A
:10258000E4D3424B012283F849207BE07B1D1946AE
:10259000002000F083FE7B79022B72D1BB1C194610
:1025A000012000F07BFE394BDA6C384B93F8523047
:1025B00019460B465B000B445B0013441A887B886A
:1025C0009A4230D2314BDA6C304B93F85230194684
:1025D0000B465B000B445B0013441B791A46002139
:1025E0002B4808F020F9294BDA6C284B93F852302D
:1025F00019460B465B000B445B0013441B881946CD
:10260000224800F0CBF901237B717B1D1946002085
:1026100000F066FE1D4B93F852300133DAB21B4BCB
:1026200083F852202EE0194BDA6C184B93F8523095
:1026300019460B465B000B445B0013441B791A469A
:102640000021134808F0EFF87B8819460F4800F086
:10265000A5F901237B717B1D1946002000F040FE87
:102660000A4B022283F849200CE07B1D194600200A
:1026700000F014FE7B79022B01E000BF02E000BFF6
:1026800000E000BF0837BD4680BD00BFE800002065
:10269000F000002080B582B000AF0023FB71FB1D6D
:1026A0001946042000F0FAFDFB7983F00103DBB248
:1026B000002B15D10C4B5B88142B12D80B4B1B68CD
:1026C0000B49184608F0C2FC00210020FFF780FAF1
:1026D0000423BB71BB1D1946002000F001FE00E081
:1026E00000BF0837BD4680BDE80000206002002022
:1026F000E4C4000880B582B000AF0023BB71BB1DED
:1027000019460A2000F0CAFDBB7983F00103DBB251
:10271000002B40F0D1806C4B93F84930032B00F232
:10272000CD8001A252F823F039270008CB270008FA
:10273000A9280008BD280008634BB3F85030002BCF
:1027400011D105220021614808F06DF805215E488D
:1027500000F024F95C4BB3F8503001339AB25A4B75
:10276000A3F85020ADE0584BB3F85030B3F57A6F72
:1027700008D2554BB3F8503001339AB2524BA3F8FC
:1027800050209EE00023FB7114E04F4B59884E4BC4
:10279000D86CFA7913465B0013445B0003445B88F2
:1027A000994204D8484AFB7982F8523008E0FB7914
:1027B0000133FB71444B93F85330FA799A42E4D3D6
:1027C000414B012283F849207BE07B1D19460720FD
:1027D00000F064FD7B79022B72D1BB1C19460820E6
:1027E00000F05CFD384BDA6C374B93F852301946E9
:1027F0000B465B000B445B0013441A887B889A42AB
:1028000030D2314BDA6C304B93F8523019460B46CC
:102810005B000B445B0013441B791A4600212B48D4
:1028200008F001F8284BDA6C274B93F85230194620
:102830000B465B000B445B0013441B88194622487F
:1028400000F0ACF801237B717B1D1946072000F0D6
:1028500047FD1D4B93F852300133DAB21A4B83F81F
:1028600052202EE0184BDA6C174B93F85230194671
:102870000B465B000B445B0013441B791A46002196
:10288000124807F0D0FF7B8819460F4800F086F801
:1028900001237B717B1D1946072000F021FD0A4BA7
:1028A000022283F849200CE07B1D1946072000F026
:1028B000F5FC7B79022B04E000BF02E000BF00E0E2
:1028C00000BF0837BD4680BD4801002050010020F0
:1028D00080B582B000AF0023FB71FB1D19460B20B1
:1028E00000F0DCFCFB7983F00103DBB2002B15D197
:1028F0000C4B5B883C2B12D80B4B1B680B491846C2
:1029000008F0A4FB00210120FFF762F90423BB714A
:10291000BB1D1946072000F0E3FC00E000BF0837AC
:10292000BD4680BD480100206002002008C50008A7
:1029300080B483B000AF78600B467B807B8807EE65
:10294000903AF8EEE76A7B6893ED167AC6EE877ADE
:10295000FCEEE77A17EE903A9BB218460C37BD466C
:102960005DF8047B704780B483B000AF78600B469D
:102970007B807B8807EE903AB8EEE77A7B68D3EDF0
:10298000167A67EE277AFCEEE77A17EE903A9BB25A
:1029900018460C37BD465DF8047B704780B582B0A1
:1029A00000AF78600B467B807B8819467868FFF71C
:1029B000BFFF03461A467B689A8000BF0837BD46B2
:1029C00080BD000080B58AB000AF0346FB711F4B8D
:1029D000CA221A701E4B1A781C4B5A701B4B0222CB
:1029E0009A701A4AFB79D370184B07221A71174B49
:1029F000EF2283F80021154BDB780433DBB21A4653
:102A00001449002006F07CFF03461A460F4BA3F83A
:102A1000FE2007F10C0300221A605A609A60DA6007
:102A20001A615A611A7607F10B0207F10C03194675
:102A3000064806F0B1FFFA7A07F10C03194606487A
:102A400008F01CFB00BF2837BD4680BD5810002091
:102A5000D913002059100020EC0E002080B400AFE4
:102A6000BFF34F8F00BF064BDB6803F4E0620449FD
:102A7000044B1343CB60BFF34F8F00BF00BFFDE794
:102A800000ED00E00400FA0580B588B000AFF86002
:102A9000B9607A6007F11403074A0A21184608F062
:102AA00017FC07F114031946F86804F083FD00BF12
:102AB0002037BD4680BD00BF1CC7000880B584B06C
:102AC00000AFF860B9607A60FFF7C8FF80B588B0E2
:102AD00000AFF860B9607A60B86804F06FFE034632
:102AE000BB61BB69012B04DC3249F86804F062FD6C
:102AF0005DE0BB69022B04DD2F49F86804F05AFD44
:102B000055E00121B86804F023FE0346184608F09A
:102B100056FB03463B610221B86804F019FE0346E8
:102B2000184608F04CFB03467B613B69B3F5AF7F69
:102B300002DC3B69002B04DA2049F86804F03AFD16
:102B400035E07B693C2B02DC7B69002B04DA1B49F6
:102B5000F86804F02FFD2AE00023FB770020FFF740
:102B60001CF90346002B05D01549F86804F022FD36
:102B70000123FB770120FFF710F90346002B05D056
:102B80001049F86804F016FD0123FB77FB7F012B49
:102B90000CD03B699BB27A6992B211461846FEF797
:102BA0008AFF0949F86804F005FD00E000BF2037FE
:102BB000BD4680BD24C7000840C700085CC70008A8
:102BC00074C70008B8C70008FCC7000880B586B005
:102BD00000AFF860B9607A60B86804F0EFFD0346B2
:102BE0007B617B69002B04DC1D49F86804F0E2FC82
:102BF00032E07B69012B04DD1A49F86804F0DAFC45
:102C00002AE00121B86804F0A3FD0346184608F045
:102C1000D6FA38613B69B3F5AF7F02DC3B69002B24
:102C200004DA1149F86804F0C5FC15E00020FFF74C
:102C3000B4F80346002B04D00C49F86804F0BAFC41
:102C40000AE03B699BB219460020FEF717FF0849CE
:102C5000F86804F0AFFC00BF1837BD4680BD00BF68
:102C600024C700080CC800085CC7000874C7000827
:102C7000FCC7000880B586B000AFF860B9607A6024
:102C8000B86804F09BFD03467B617B69002B04DC84
:102C90001C49F86804F08EFC31E07B69012B04DDEF
:102CA0001949F86804F086FC29E00121B86804F0AD
:102CB0004FFD0346184608F082FA38613B693C2B09
:102CC00002DC3B69002B04DA1049F86804F072FC5E
:102CD00015E00120FFF761F80346002B04D00C49F2
:102CE000F86804F067FC0AE03B699BB219460120D2
:102CF000FEF7C4FE0749F86804F05CFC00BF183713
:102D0000BD4680BD24C700080CC800085CC7000889
:102D1000B8C70008FCC7000880B58AB000AFF860EB
:102D2000B9607A60B86804F049FD03463B623B6ACB
:102D3000012B04DC4349F86804F03CFC7EE03B6A6C
:102D4000022B04DD4049F86804F034FC76E00121F0
:102D5000B86804F0FDFC0346184608F030FA034654
:102D60007B610221B86804F0F3FC0346184608F0C2
:102D700026FA0346BB617B69012B02DC7B69002BD1
:102D800004DA3249F86804F015FC57E0BB69012BFE
:102D900002DCBB69002B04DA2C49F86804F00AFC59
:102DA0004CE0002387F827307B69012B14D10020E9
:102DB000FEF7D4FF0346FB830020FFF72DF8034600
:102DC000BB83FA8BBB8B9A4206D22149F86804F088
:102DD000F1FB012387F82730BB69012B14D10120B7
:102DE000FEF7BCFF0346FB830120FFF715F80346FF
:102DF000BB83FA8BBB8B9A4206D21649F86804F063
:102E0000D9FB012387F8273097F82730012B14D0FE
:102E10007B69002B14BF01230023D8B2BB69002BB0
:102E200014BF01230023D9B201230122FEF75AFE69
:102E30000949F86804F0BEFB00E000BF2837BD4632
:102E400080BD00BF24C700080CC800085CC700088C
:102E500028C800087CC80008FCC7000880B588B0F6
:102E600000AFF860B9607A60B86804F0A7FC034668
:102E7000FB61FB69012B04DC2749F86804F09AFB2D
:102E800046E0FB69022B04DD2449F86804F092FB5C
:102E90003EE00121B86804F05BFC0346184608F0E8
:102EA0008EF903467B610221B86804F051FC0346A9
:102EB000184608F084F90346BB617B69012B02DCEC
:102EC0007B69002B04DA1649F86804F073FB1FE0F5
:102ED000BB69012B02DCBB69002B04DA1049F868DE
:102EE00004F068FB14E07B69002B14BF012300236E
:102EF000DAB2BB69002B14BF01230023DBB21946F1
:102F00001046FEF7CBFE0749F86804F053FB00BFFC
:102F10002037BD4680BD00BF24C700080CC800088C
:102F20005CC70008D0C8000880B596B000AFF86054
:102F3000B9607A60B86804F041FC03467B657B6D3C
:102F4000002B04D01149F86804F034FB1AE000208B
:102F5000FEF704FF0346A7F852300120FEF7FEFEFD
:102F60000346A7F85030B7F85220B7F8503007F1B1
:102F70001000074908F0E2F907F110031946F86854
:102F800004F018FB5837BD4680BD00BF0CC80008D0
:102F9000E0C8000880B586B000AFF860B9607A601C
:102FA000B86804F00BFC03467B617B69002B04D0FE
:102FB0001249F86804F0FEFA1DE00020FEF7EDFE6D
:102FC0000346002B04D00E49F86804F0F3FA03E03E
:102FD0000C49F86804F0EEFA0120FEF7DEFE034625
:102FE000002B04D00849F86804F0E4FA03E007492C
:102FF000F86804F0DFFA1837BD4680BD0CC8000839
:1030000014C900082CC9000848C9000860C9000894
:1030100080B586B000AFF860B9607A60B86804F037
:10302000CDFB03467B617B69002B04D01249F86815
:1030300004F0C0FA1DE00020FEF7CEFE0346002B90
:1030400004D00E49F86804F0B5FA03E00C49F868BA
:1030500004F0B0FA0120FEF7BFFE0346002B04D0B7
:103060000849F86804F0A6FA03E00749F86804F094
:10307000A1FA1837BD4680BD0CC800087CC90008FD
:1030800098C90008B8C90008D4C9000880B5A0B024
:1030900000AFF860B9607A60B86804F08FFB03464F
:1030A000FB67FB6F002B04D02F49F86804F082FA0D
:1030B00056E00020FEF752FE0346A7F87A300120C2
:1030C000FEF74CFE0346A7F87830B7F87A20B7F839
:1030D000783007F11400254908F030F907F114039E
:1030E0001946F86804F066FA0020FEF756FE03461B
:1030F000002B04D01E49F86804F05CFA03E01D4977
:10310000F86804F057FA0120FEF747FE0346002B4B
:1031100004D01949F86804F04DFA03E01749F8683B
:1031200004F048FA0020FEF757FE0346002B04D0B7
:103130001349F86804F03EFA03E01249F86804F015
:1031400039FA0120FEF748FE0346002B04D00E4951
:10315000F86804F02FFA03E00C49F86804F02AFA42
:103160008037BD4680BD00BF0CC80008E0C800081D
:1031700014C900082CC9000848C9000860C9000823
:103180007CC9000898C90008B8C90008D4C900085B
:1031900080B400AF024B1846BD465DF8047B704713
:1031A0009CCB000880B400AF0C231846BD465DF8E8
:1031B000047B704780B584B004AF4FF40073039371
:1031C0004FF4007302930E4B01930E4B0093472371
:1031D0000D4A0E490E4807F0C0FE4FF400620D493B
:1031E0000B4803F0FDFF03460B4A13600B490848E8
:1031F00007F02CFF0A4B064A1A6000BFBD4680BD8F
:10320000D0040020D002002000140140F4C90008BE
:1032100064020020D0060020D00E002000CA000862
:103220006002002080B584B000AF78600BE00D48EC
:1032300007F0D8FE0346FB730B4B1B68FA7B114665
:10324000184604F003F9074807F036FF0346002B41
:10325000EDD1054B1B68184604F01BF900BF103771
:10326000BD4680BD64020020D00E002080B500AFB6
:1032700016220021084808F09DF8074B00221A701A
:10328000054B02229A80044B00229A72024B0222C2
:10329000DA8100BF80BD00BFD40E002080B582B0AF
:1032A00000AF03463960FB71FB790F2B02D83B68F6
:1032B000002B01D100230DE0FB79084A52F83310AE
:1032C000FB79064ADB0013445B681A46386808F04D
:1032D000C5F8012318460837BD4680BDBCCC0008A0
:1032E00080B582B000AF03463960FB71FB790F2BCC
:1032F00002D83B68002B01D100230DE0FB79084A7E
:1033000052F83300FB79064ADB0013445B681A4627
:10331000396808F0A3F8012318460837BD4680BD78
:10332000BCCC000880B5A4B000AFB04B1B681B78C4
:10333000182B00F29F8601A252F823F0A133000857
:1033400049340008C33400083D3500080936000838
:10335000553600087540000823380008E337000898
:10336000A3370008E3360008AB3600087D380008B4
:10337000DD380008BF390008AD3A0008613C00089C
:10338000B73C00081D3D0008733D0008553E00088D
:103390004B3F0008853F0008E93F00082F40000828
:1033A0000023BB7307F10F0319460320FFF776FFD5
:1033B00007F10E0319460A20FFF770FFFB7B002B75
:1033C00002D1BB7B002B0DD0894B1B6800221A70E9
:1033D000874B1B6800225A70022000F05BFE00231E
:1033E00000F04CBE814B1B685B781BB21B021AB20B
:1033F0007E4B1B689B781BB213431BB27B827B4BBB
:103400001B68DB781BB21B021AB2784B1B681B7956
:103410001BB213431BB23B823A8A7B8A1146184681
:10342000FEF749FB724B1B6800221A70704B1B6839
:1034300001225A70022000F02DFE6E496E4807F0FE
:1034400005FE012300F01ABE00237B7307F10D0374
:1034500019460320FFF722FF7B7B002B0DD0644B26
:103460001B6801221A70624B1B6800225A700220EE
:1034700000F010FE002300F001BE5C4B1B685B787F
:103480001BB21B021AB2594B1B689B781BB2134329
:103490001BB2BB82BB8A19460020FEF7EFFA544BE1
:1034A0001B6801221A70524B1B6801225A700220BD
:1034B00000F0F0FD5149504807F0C8FD012300F02D
:1034C000DDBD00233B7307F10C0319460A20FFF70B
:1034D000E5FE3B7B002B0DD0454B1B6802221A708A
:1034E000434B1B6800225A70022000F0D3FD0023DA
:1034F00000F0C4BD3D4B1B685B781BB21B021AB2C7
:103500003A4B1B689B781BB213431BB2FB82FB8AAE
:1035100019460120FEF7B2FA354B1B6802221A70D9
:10352000334B1B6801225A70022000F0B3FD34496E
:10353000314807F08BFD012300F0A0BD00237B8103
:1035400000233B8107F10A0319460120FFF7A6FE7D
:1035500007F1080319460820FFF7A0FE0020FEF738
:103560005BFC0346BB830120FEF756FC03467B83CE
:103570007B89BA8B9A4203D23B897A8B9A420DD3CC
:103580001B4B1B6803221A70194B1B6800225A70D0
:10359000022000F07FFD002300F070BD134B1B687C
:1035A0005B78002B14BF012300237B760F4B1B6835
:1035B0009B78002B14BF012300233B76397E787E55
:1035C00001230122FEF78EFA094B1B6803221A70B1
:1035D000074B1B6801225A70022000F05BFD09496D
:1035E000054807F033FD012300F048BDB401002079
:1035F000B001002008CA0008640200202CCA00089C
:1036000048CA000864CA0008B24B1B685B78FB77A5
:10361000B04B1B689B78BB77FB7F002B14BF01234B
:103620000023DAB2BB7F002B14BF01230023DBB2DF
:1036300019461046FEF732FBA74B1B6804221A708E
:10364000A54B1B6801225A70022000F023FD0123C4
:1036500000F014BD9F4B1B685B78002B14BF012347
:103660000023DBB2FB719B4B1B689B78002B14BFC4
:1036700001230023DBB2BB71FB7983F00103DBB2D2
:10368000002B04D0FB1D19460520FFF729FEBB794E
:1036900083F00103DBB2002B04D0BB1D19460C20C4
:1036A000FFF71EFE012300F0E9BC7B1D1946052033
:1036B000FFF7F4FD3B1D19460C20FFF7EFFD864B8D
:1036C0001B680B221A707A79834B1B685A703A79FF
:1036D000814B1B689A70032000F0DCFC012300F092
:1036E000CDBC0023FB85002387F82D30002387F80D
:1036F0002C300020FEF732FB03467B850120FEF7CD
:103700002DFB0346FB850020FEF747FB034687F8A9
:1037100029300020FEF760FB034687F82D3001209A
:10372000FEF73BFB034687F828300120FEF754FBE9
:10373000034687F82C30684B1B680A221A707B8D71
:103740001B0A9AB2644B1B68D2B25A70624B1B6858
:103750007A8DD2B29A70FB8D1B0A9AB25E4B1B68AF
:10376000D2B2DA705C4B1B68FA8DD2B21A715A4B26
:103770001B6897F829205A71574B1B6897F82D2022
:10378000DA71554B1B6897F828209A71524B1B68C9
:1037900097F82C201A72092000F07CFC012300F01D
:1037A0006DBC0020FEF7F9FA034687F827300120A8
:1037B000FEF7F3FA034687F82630474B1B680922C9
:1037C0001A70454B1B6897F827205A70424B1B68AC
:1037D00097F826209A70032000F05CFC012300F08B
:1037E0004DBC0020FEF7F8FA034687F8253001208B
:1037F000FEF7F2FA034687F82430374B1B6808229D
:103800001A70354B1B6897F825205A70324B1B688D
:1038100097F824209A70032000F03CFC012300F06C
:103820002DBC00237B840020FEF798FA03463B84DE
:103830000120FEF793FA03467B84274B1B6807227F
:103840001A703B8C1B0A9AB2234B1B68D2B25A7077
:10385000214B1B683A8CD2B29A707B8C1B0A9AB2AD
:103860001D4B1B68D2B2DA701B4B1B687A8CD2B22C
:103870001A71052000F00EFC0123FFE30020FEF783
:10388000CBFA03467B860120FEF7C6FA03463B8649
:10389000114B1B680C221A707B8E1B0A9AB20E4BBE
:1038A0001B68D2B25A700C4B1B687A8ED2B29A70D7
:1038B0003B8E1B0A9AB2084B1B68D2B2DA70064BD9
:1038C0001B683A8ED2B21A71052000F0E3FB012387
:1038D000D4E300BFB4010020B0010020704BD3ED51
:1038E000037A9FED707A67EE877AFDEEE77A17EE3E
:1038F000903AFB636A4BD3ED047A9FED6A7A67EEE8
:10390000877AFDEEE77A17EE903ABB63644BD3ED0E
:10391000057A9FED647A67EE877AFDEEE77A17EE17
:10392000903A7B63604B1B680D221A705E4B1B68DC
:10393000FA6BD2B25A70FB6B1A125B4B1B68D2B295
:103940009A70FB6B1A14584B1B68D2B2DA70FB6B7F
:103950001A16554B1B68D2B21A71534B1B68BA6BBF
:10396000D2B25A71BB6B1A124F4B1B68D2B29A710A
:10397000BB6B1A144C4B1B68D2B2DA71BB6B1A16B4
:10398000494B1B68D2B21A72474B1B687A6BD2B292
:103990005A727B6B1A12444B1B68D2B29A727B6BC1
:1039A0001A14414B1B68D2B2DA727B6B1A163E4B6B
:1039B0001B68D2B21A730D2000F06CFB5DE3384B2C
:1039C000D3ED007A9FED377A67EE877AFDEEE77ADE
:1039D00017EE903ABB64324BD3ED017A9FED317A0A
:1039E00067EE877AFDEEE77A17EE903A7B642C4B10
:1039F000D3ED027A9FED2B7A67EE877AFDEEE77AB8
:103A000017EE903A3B64284B1B680E221A70264B27
:103A10001B68BA6CD2B25A73BB6C1A12224B1B6869
:103A2000D2B29A73BB6C1A141F4B1B68D2B2DA73F2
:103A3000BB6C1A161C4B1B68D2B21A741A4B1B684B
:103A40007A6CD2B25A747B6C1A12174B1B68D2B2C2
:103A50009A747B6C1A14144B1B68D2B2DA747B6CA8
:103A60001A16114B1B68D2B21A750F4B1B683A6CB1
:103A7000D2B25A753B6C1A120B4B1B68D2B29A75B4
:103A80003B6C1A14084B1B68D2B2DA753B6C1A16E1
:103A9000054B1B68D2B21A76192000F0FBFAECE253
:103AA0001013002000007A44B0010020974BD3EDA2
:103AB000037A9FED977A67EE877AFDEEE77A17EE45
:103AC000903A3B66914BD3ED047A9FED917A67EE85
:103AD000877AFDEEE77A17EE903AFB658B4BD3EDD4
:103AE000057A9FED8B7A67EE877AFDEEE77A17EE1F
:103AF000903ABB65854BD3ED007A9FED857A67EEF2
:103B0000877AFDEEE77A17EE903A7B657F4BD3ED2F
:103B1000017A9FED7F7A67EE877AFDEEE77A17EEFE
:103B2000903A3B65794BD3ED027A9FED797A67EE57
:103B3000877AFDEEE77A17EE903AFB64754B1B68C7
:103B40000F221A70734B1B683A6ED2B25A703B6EDA
:103B50001A12704B1B68D2B29A703B6E1A146D4BDE
:103B60001B68D2B2DA703B6E1A166A4B1B68D2B26F
:103B70001A71684B1B68FA6DD2B25A71FB6D1A123A
:103B8000644B1B68D2B29A71FB6D1A14614B1B68AF
:103B9000D2B2DA71FB6D1A165E4B1B68D2B21A7282
:103BA0005C4B1B68BA6DD2B25A72BB6D1A12594B7C
:103BB0001B68D2B29A72BB6D1A14564B1B68D2B2F4
:103BC000DA72BB6D1A16534B1B68D2B21A73514B83
:103BD0001B687A6DD2B25A737B6D1A124D4B1B68FB
:103BE000D2B29A737B6D1A144A4B1B68D2B2DA7345
:103BF0007B6D1A16474B1B68D2B21A74454B1B6873
:103C00003A6DD2B25A743B6D1A12424B1B68D2B253
:103C10009A743B6D1A143F4B1B68D2B2DA743B6D39
:103C20001A163C4B1B68D2B21A753A4B1B68FA6CD9
:103C3000D2B25A75FB6C1A12364B1B68D2B29A7507
:103C4000FB6C1A14334B1B68D2B2DA75FB6C1A1674
:103C5000304B1B68D2B21A76192000F01BFA0CE226
:103C60002D4BD3ED007A9FED2A7A67EE877AFDEE31
:103C7000E77A17EE903A7B66264B1B6810221A7083
:103C8000244B1B687A6ED2B25A707B6E1A12214B8B
:103C90001B68D2B29A707B6E1A141E4B1B68D2B28C
:103CA000DA707B6E1A161B4B1B68D2B21A710D208C
:103CB00000F0F0F9E1E1184BD3ED017A9FED147AB1
:103CC00067EE877AFDEEE77A17EE903ABB66114B06
:103CD0001B6811221A700F4B1B68BA6ED2B25A7150
:103CE000BB6E1A120B4B1B68D2B29A71BB6E1A14C0
:103CF000084B1B68D2B2DA71BB6E1A16054B1B68F3
:103D0000D2B21A720D2000F0C5F9B6E110130020EE
:103D100000007A44B001002034130020AD4BD3EDF5
:103D2000027A9FEDAD7A67EE877AFDEEE77A17EEBD
:103D3000903AFB66A94B1B6812221A70A74B1B68AE
:103D4000FA6ED2B25A72FB6E1A12A44B1B68D2B230
:103D50009A72FB6E1A14A14B1B68D2B2DA72FB6E18
:103D60001A169E4B1B68D2B21A730D2000F092F9FE
:103D700083E1984BD3ED007A9FED977A67EE877ACF
:103D8000FDEEE77A17EE903ABB67924BD3ED017ADE
:103D90009FED917A67EE877AFDEEE77A17EE903A1B
:103DA0007B678C4BD3ED027A9FED8B7A67EE877A37
:103DB000FDEEE77A17EE903A3B67884B1B681322BB
:103DC0001A70864B1B68BA6FD2B25A70BB6F1A1248
:103DD000824B1B68D2B29A70BB6F1A147F4B1B6860
:103DE000D2B2DA70BB6F1A167C4B1B68D2B21A7152
:103DF0007A4B1B687A6FD2B25A717B6F1A12774B6B
:103E00001B68D2B29A717B6F1A14744B1B68D2B2C2
:103E1000DA717B6F1A16714B1B68D2B21A726F4B34
:103E20001B683A6FD2B25A723B6F1A126B4B1B6807
:103E3000D2B29A723B6F1A14684B1B68D2B2DA7214
:103E40003B6F1A16654B1B68D2B21A730D2000F037
:103E500021F912E1624BD3ED007A9FED5F7A67EEB4
:103E6000877AFDEEE77A17EE903AC7F884305C4B1C
:103E7000D3ED017A9FED587A67EE877AFDEEE77A07
:103E800017EE903AC7F88030554BD3ED027A9FED8C
:103E9000527A67EE877AFDEEE77A17EE903AFB6783
:103EA0004E4B1B6814221A704C4B1B68D7F88420A9
:103EB000D2B25A70D7F884301A12484B1B68D2B26B
:103EC0009A70D7F884301A14444B1B68D2B2DA7057
:103ED000D7F884301A16414B1B68D2B21A713F4B87
:103EE0001B68D7F88020D2B25A71D7F880301A12E6
:103EF0003A4B1B68D2B29A71D7F880301A14374BFC
:103F00001B68D2B2DA71D7F880301A16334B1B68AF
:103F1000D2B21A72314B1B68FA6FD2B25A72FB6F6F
:103F20001A122E4B1B68D2B29A72FB6F1A142B4BCB
:103F30001B68D2B2DA72FB6F1A16284B1B68D2B21A
:103F40001A730D2000F0A6F897E0264B1B685B78EB
:103F500087F88A3097F88A30012B03D1002005F0CA
:103F600079F989E097F88A30022B03D1102005F007
:103F700071F981E097F88A30042B7DD1302005F06B
:103F800069F979E005F0ACF9034687F88B30134BFB
:103F90001B6816221A7097F88B30002B04D10F4B38
:103FA0001B6801225A7010E097F88B30102B04D157
:103FB0000A4B1B6802225A7007E097F88B30302BAF
:103FC00003D1064B1B6804225A70022000F062F8ED
:103FD00053E000BF3413002000007A44B0010020F9
:103FE00028130020B4010020264BD3ED037A9FED67
:103FF000267A67EE877AFCEEE77A17EE903AA7F812
:104000008C30224B1B6817221A70B7F88C301B0AB1
:104010009AB21E4B1B68D2B25A701C4B1B68B7F881
:104020008C20D2B29A70032000F034F825E0184BAF
:10403000D3ED037A9FED147A67EE877AFCEEE77A88
:1040400017EE903AA7F88E30104B1B6818221A70A2
:10405000B7F88E301B0A9AB20C4B1B68D2B25A705A
:104060000A4B1B68B7F88E20D2B29A70032000F07A
:1040700011F802E0002301E000BF01231846903749
:10408000BD4680BDF01200200000C842B0010020F3
:104090000013002080B58CB000AF0346FB711E4BAF
:1040A000CA221A701D4B1A781B4B5A701A4B0222E7
:1040B0009A70194AFB79D370174B07221A71164B65
:1040C000EF2283F80021144BDB780433DBB21A466D
:1040D0001349002005F014FC03461A460E4BA3F8C2
:1040E000FE2007F10C0323220021184607F062F995
:1040F00007F10B0207F10C031946074805F04CFCC9
:10410000FA7A07F10C031946064806F0B7FF00BF1C
:104110003037BD4680BD00BF58100020D9130020A5
:1041200059100020EC0E002080B584B004AF80232D
:10413000039380230293124B0193124B0093252388
:10414000114A1249124806F008FF124B124A5A60EF
:10415000104B80221A800F4B00221A810D4B1B88B6
:10416000002B06D00B4B5B6804220021184607F099
:1041700021F9012005F000FC00BFBD4680BD00BF55
:10418000D80F0020580F00200010014080CA0008FE
:10419000EC0E0020601200206C12002080B584B06C
:1041A00000AF78600023FB733223FB7347E02A489B
:1041B00006F018FF0346DAB2284B9A72274B9B7A17
:1041C000DBB2CA2B03D1254B00221A8134E0234BEA
:1041D0009B7ADBB2EF2B14D1204B5B681F4A12890C
:1041E00092B2D1B21E4A184605F00CFD0346BB73CD
:1041F000BB7B012B01D1FFF795F8184B00221A81E8
:104200001AE0164B5B68154A128992B21344134A9E
:10421000927AD2B21A70114B1B899BB201339AB2B7
:104220000E4B1A810D4B1B899AB20C4B1B889A427C
:1042300002D90A4B00221A81FB7B013BFB73064823
:1042400006F03AFF0346002B02D0FB7B002BAED1D9
:1042500000BF1037BD4680BDEC0E0020601200206C
:104260005C11002080B500AF9FED070A074A08499E
:10427000084805F0B7FA9FED040A074A04490748C1
:1042800005F0B0FA00BF80BD00404E450F00F000C1
:1042900000210140001300200E00C000F012002099
:1042A00080B582B000AF0123FB710023BB714FF4D6
:1042B000967002F04BFF05F01FF90346FB71FB7986
:1042C000002B03D1174B01221A7002E0154B00227C
:1042D0001A704FF4967002F039FF05F01DF803468E
:1042E000FB71FB79002B03D10E4B01225A7002E0C7
:1042F0000C4B00225A704FF4967002F027FF04F026
:10430000A3FD0346BB71BB79002B03D0054B0122F3
:104310009A7002E0034B00229A7000BF0837BD4636
:1043200080BD00BF4013002080B582B000AF786030
:10433000134B1B78022B14D0022B19DC002B02D05C
:10434000012B07D014E00F4805F05CF80C4B01225C
:104350001A7011E00C4805F001F9094B02221A709D
:104360000AE00A4804F016FF054B00221A7003E029
:10437000034B00221A7000BF00BF0837BD4680BD46
:10438000EC1200202813002010130020341300200A
:1043900080B582B000AF7860094805F07FFAF0EE92
:1043A000407A074BC3ED037A064805F077FAF0EE42
:1043B000407A044BC3ED037A00BF0837BD4680BD89
:1043C000F01200200013002080B485B000AF7860A8
:1043D0007B6803F00703FB600C4BDB68BB60BA68CB
:1043E0004FF6FF031340BB60FB681A02BB68134320
:1043F00043F0BF6343F40033BB60044ABB68D3603F
:1044000000BF1437BD465DF8047B704700ED00E047
:1044100080B400AF044BDB681B0A03F007031846A7
:10442000BD465DF8047B704700ED00E080B483B0CA
:1044300000AF0346FB7197F90730002B0BDBFB79CC
:1044400003F01F02074997F907305B09012000FAC2
:1044500002F241F8232000BF0C37BD465DF8047B13
:10446000704700BF00E100E080B483B000AF0346B6
:104470003960FB7197F90730002B0ADB3B68DAB231
:104480000C4997F907301201D2B20B4483F800238C
:104490000AE03B68DAB20849FB7903F00F03043BFA
:1044A0001201D2B20B441A7600BF0C37BD465DF83C
:1044B000047B704700E100E000ED00E080B489B0CB
:1044C00000AFF860B9607A60FB6803F00703FB6136
:1044D000FB69C3F10703042B28BF0423BB61FB69FD
:1044E0000433062B02D9FB69033B00E000237B6108
:1044F0004FF0FF32BB6902FA03F3DA43BB681A409C
:104500007B699A404FF0FF317B6901FA03F3D9438D
:104510007B680B40134318462437BD465DF8047B87
:10452000704780B489B000AFF860B9607A60FB680A
:104530002C331946BB6803F440734FF440727A6120
:104540007A6992FAA2F23A613A69BA61BA69002AC2
:1045500001D1202203E0BA69B2FA82F2D2B2D3408A
:104560009B000B44FB61FB691A68BB6803F01F03E7
:104570001F2101FA03F3DB431A407B6803F01F019C
:10458000BB6803F01F0301FA03F31A43FB691A60C7
:1045900000BF2437BD465DF8047B704780B483B00C
:1045A00000AF786039607B689B6823F480623B6869
:1045B0001A437B689A6000BF0C37BD465DF8047BE8
:1045C000704780B48FB000AFF860B9607A60FB6864
:1045D0000C331946BB6803F000734FF000727A6128
:1045E0007A6992FAA2F23A613A69BA61BA69002A22
:1045F00001D1202203E0BA69B2FA82F2D2B2D340EA
:104600009B000B447B637B6B1A68BB6803F0F873F9
:104610004FF0F8713962396A91FAA1F1F961F969DB
:104620007962796A002901D1202103E0796AB1FA1F
:1046300081F1C9B2CB40072101FA03F3DB431A40F1
:10464000BB6803F0F8734FF0F871F962F96A91FAF8
:10465000A1F1B962B96A3963396B002901D120210E
:1046600003E0396BB1FA81F1C9B2CB40796801FA44
:1046700003F31A437B6B1A6000BF3C37BD465DF8FD
:10468000047B704780B483B000AF78607B681B68A0
:1046900023F080027B681A6000BF0C37BD465DF8CE
:1046A000047B704780B483B000AF78607B681B6880
:1046B00023F040027B681A6000BF0C37BD465DF8EE
:1046C000047B704780B483B000AF786039607B684A
:1046D000DB6823F0FE023B681A437B68DA6000BFA8
:1046E0000C37BD465DF8047B704780B483B000AFE3
:1046F00078607B68DB6823F001027B68DA6000BFCA
:104700000C37BD465DF8047B7047000080B400AFF5
:10471000054B1B68044A43F48033136000BFBD4659
:104720005DF8047B704700BF0038024080B400AFE2
:10473000074B1B6803F40033B3F5003F0CBF0123A4
:104740000023DBB21846BD465DF8047B704700BF0E
:104750000038024080B483B000AF7860064B9B689D
:1047600023F0030204497B6813438B6000BF0C37BE
:10477000BD465DF8047B70470038024080B400AF4E
:10478000044B9B6803F00C031846BD465DF8047BA0
:10479000704700BF0038024080B483B000AF78603B
:1047A000064B9B6823F0F00204497B6813438B603F
:1047B00000BF0C37BD465DF8047B704700380240EF
:1047C00080B483B000AF7860064B9B6823F4E0525E
:1047D00004497B6813438B6000BF0C37BD465DF80E
:1047E000047B70470038024080B483B000AF78602B
:1047F000064B9B6823F4604204497B6813438B603B
:1048000000BF0C37BD465DF8047B7047003802409E
:1048100080B400AF054B1B68044A43F080731360FB
:1048200000BFBD465DF8047B704700BF0038024002
:1048300080B400AF074B1B6803F00073B3F1007F37
:104840000CBF01230023DBB21846BD465DF8047B94
:10485000704700BF0038024080B485B000AFF860F8
:10486000B9607A603B600D4B5A680D4B1340F96894
:10487000BA6811437A6892010A43084913434B60AE
:10488000064B5B6823F4403204493B6813434B609A
:1048900000BF1437BD465DF8047B70470038024006
:1048A0000080BFFF80B485B000AF7860084B1A6B02
:1048B00007497B6813430B63054B1A6B7B681340F6
:1048C000FB60FB6800BF1437BD465DF8047B704792
:1048D0000038024080B485B000AF7860084B1A6C95
:1048E00007497B6813430B64054B1A6C7B681340C4
:1048F000FB60FB6800BF1437BD465DF8047B704762
:104900000038024080B485B000AF7860084B5A6C24
:1049100007497B6813434B64054B5A6C7B68134013
:10492000FB60FB6800BF1437BD465DF8047B704731
:104930000038024080B487B000AF78603960174A11
:104940003B68DBB2023352F823203B681B0CDB438D
:1049500002EA03013B681B0C3B613B6993FAA3F33A
:10496000FB60FB687B617B69002B01D1202303E0A6
:104970007B69B3FA83F3DBB21A467B6803FA02F26F
:1049800006483B68DBB20A43023340F8232000BFED
:104990001C37BD465DF8047B704700BF00380140FE
:1049A00080B483B000AF7860064B1B6823F0070229
:1049B00004497B6813430B6000BF0C37BD465DF8AC
:1049C000047B7047003C024080B400AF044B1B687E
:1049D00003F007031846BD465DF8047B704700BF2F
:1049E000003C024080B483B000AF7860064B1B6887
:1049F00023F4804204497B6813430B6000BF0C37EB
:104A0000BD465DF8047B70470070004080B400AF85
:104A1000074B5B6803F48043B3F5804F0CBF012361
:104A20000023DBB21846BD465DF8047B704700BF2B
:104A30000070004080B483B000AF78607B681B6872
:104A400023F080027B681A6000BF0C37BD465DF81A
:104A5000047B704780B485B000AF786039603B68F4
:104A6000012B1CD03B68042B17D03B68102B12D0B5
:104A70003B68402B0DD03B68B3F5807F07D03B6887
:104A8000B3F5806F01D105230AE0062308E0042373
:104A900006E0032304E0022302E0012300E00023F8
:104AA000FB737B6818331946FB7B0B4AD35C0B44C2
:104AB000BB60BB681A68FB7B0849CB5C19460423C2
:104AC0008B40DB431A40BB681A6000BF1437BD46F9
:104AD0005DF8047B704700BF3CCD000844CD000862
:104AE00080B485B000AF786039603B68012B1CD082
:104AF0003B68042B17D03B68102B12D03B68402B2F
:104B00000DD03B68B3F5807F07D03B68B3F5806F6D
:104B100001D105230AE0062308E0042306E003236D
:104B200004E0022302E0012300E00023FB737B6822
:104B300018331946FB7B0A4AD35C0B44BB60BB6845
:104B40001A68FB7B0749CB5C194608238B401A4344
:104B5000BB681A6000BF1437BD465DF8047B704720
:104B60003CCD000844CD000880B483B000AF78602D
:104B700039607B685B6823F070023B681A437B688E
:104B80005A6000BF0C37BD465DF8047B704780B4A7
:104B900083B000AF78607B689B6823F080027B68FD
:104BA0009A6000BF0C37BD465DF8047B704780B447
:104BB00083B000AF78607B68DB6843F400527B68A9
:104BC000DA6000BF0C37BD465DF8047B704780B4E7
:104BD00083B000AF78607B681B6923F490427B68E8
:104BE0001A617B685B6923F02A027B685A6100BF07
:104BF0000C37BD465DF8047B704780B48BB000AFC6
:104C0000F860B9607A60FB681A68BB687B617B6991
:104C100093FAA3F33B613B69BB61BB69002B01D1F4
:104C2000202303E0BB69B3FA83F3DBB25B0003210B
:104C300001FA03F3DB431A40BB683B623B6A93FA19
:104C4000A3F3FB61FB697B627B6A002B01D120230C
:104C500003E07B6AB3FA83F3DBB25B00796801FAA5
:104C600003F31A43FB681A6000BF2C37BD465DF89A
:104C7000047B704780B48BB000AFF860B9607A6095
:104C8000FB68DA68BB687B617B6993FAA3F33B61DD
:104C90003B69BB61BB69002B01D1202303E0BB69E9
:104CA000B3FA83F3DBB25B00032101FA03F3DB43C6
:104CB0001A40BB683B623B6A93FAA3F3FB61FB6952
:104CC0007B627B6A002B01D1202303E07B6AB3FA6D
:104CD00083F3DBB25B00796801FA03F31A43FB68E4
:104CE000DA6000BF2C37BD465DF8047B704780B4A6
:104CF00083B000AF786039603B681A047B689A61C2
:104D000000BF0C37BD465DF8047B704780B500AF2F
:104D10004FF48040FFF7F6FD4FF08050FFF7DAFDCB
:104D20000320FFF751FBFFF773FB034600220F211F
:104D30001846FFF7C3FB034619464FF0FF30FFF755
:104D400093FB00F017F800F0DDFB00F05BF800F0DB
:104D500017FA00F0ABFA00F075FB00F013FB00F05F
:104D600047F900F09DF900F0D1F8FCF7A5F800BF75
:104D7000FDE7000080B500AF0120FFF711FE00BF86
:104D8000FFF722FE0346012BFAD14FF48040FFF7D4
:104D900029FEFFF7BBFC00BFFFF7C8FC0346012B51
:104DA000FAD10023482204214FF48000FFF754FD7C
:104DB000FFF72EFD00BFFFF73BFD0346012BFAD1A5
:104DC00000BFFFF723FE0346002BFAD08020FFF739
:104DD000E3FC0020FFF7F4FC0020FFF705FD0220B4
:104DE000FFF7B8FC00BFFFF7C9FC0346082BFAD158
:104DF000034802F09DF9024802F0CEF900BF80BDE1
:104E00000051250280B592B000AF07F13C030022AB
:104E10001A605A609A6007F1280300221A605A60EB
:104E20009A60DA601A6107F1180300221A605A606A
:104E30009A60DA603B4600221A605A609A60DA6033
:104E40001A615A614FF48070FFF75CFD0420FFF790
:104E500029FD05233B6003237B6000233B613B4628
:104E60001946274801F04AF8FFF7D2FA0346002214
:104E700003211846FFF722FB034619461220FFF7CD
:104E8000F3FA1220FFF7D2FA0023FB6300233B64FE
:104E900000237B6407F13C0319461A4800F05EFDCD
:104EA0000023BB620023FB6200233B6300237B6380
:104EB0000023BB6307F128031946124800F07AFD6E
:104EC0004FF480610F48FFF769FB4FF48033BB61FB
:104ED0000023FB6107F1180319460B4800F0F6FCAC
:104EE0000A224FF400710748FFF71BFB00220A213A
:104EF0000448FFF766FB00BF4837BD4680BD00BFD2
:104F000000080240002001400023014080B58EB01F
:104F100000AF07F12C0300221A605A609A6007F173
:104F2000180300221A605A609A60DA601A613B46E0
:104F300000221A605A609A60DA601A615A614FF46E
:104F40000070FFF7DFFC0420FFF7ACFC30233B6070
:104F500003237B6000233B613B461946214800F058
:104F6000CDFFFFF755FA0346002203211846FFF74D
:104F7000A5FA034619461220FFF776FA1220FFF72A
:104F800055FA0023FB6200233B6300237B6307F198
:104F90002C031946144800F0E1FC0023BB610023F8
:104FA000FB6100233B6200237B620023BB6207F1AD
:104FB000180319460C4800F0FDFC4FF480610A48C4
:104FC000FFF7ECFA094A4FF400710748FFF7A9FA16
:104FD000002206490448FFF7F4FA00BF3837BD46FF
:104FE00080BD00BF00080240002101400E00C0004B
:104FF00080B58CB000AF07F1180300221A605A6028
:105000009A60DA601A615A613B4600221A605A605F
:105010009A60DA601A615A610220FFF743FC4FF48C
:1050200040733B6002237B600323BB600123FB6072
:1050300000233B6104237B613B461946154800F081
:105040005DFF4FF40010FFF745FC1348FFF74DFBE1
:105050001148FFF727FB1048FFF714FB0023BB6143
:105060000E4BFB6100233B6200237B624FF48063A5
:10507000BB624FF48043FB6207F1180319460648F0
:1050800001F0B4F800210448FFF71CFB00BF3037E3
:10509000BD4680BD0004024000540040A0860100CF
:1050A00080B58CB000AF07F1180300221A605A6077
:1050B0009A60DA601A615A613B4600221A605A60AF
:1050C0009A60DA601A615A610420FFF7EBFB012055
:1050D000FFF7E8FB4FF400733B6002237B60032380
:1050E000BB600123FB6000233B6104237B613B46E3
:1050F00019461F4800F002FF4FF480733B60022303
:105100007B600323BB600123FB6000233B6104231E
:105110007B613B461946174800F0F0FE4FF4000053
:10512000FFF7D8FB1448FFF7E0FA1348FFF7BAFA85
:105130001148FFF7A7FA0023BB61104BFB61002366
:105140003B6200237B624FF48063BB624FF4804379
:10515000FB6207F118031946074801F047F80021E0
:105160000548FFF7AFFA00BF3037BD4680BD00BF2E
:105170000008024000000240005C0040A0860100E0
:1051800080B59AB000AF07F1540300221A605A604C
:105190009A60DA601A6107F1340320220021184670
:1051A00006F008F907F11C0300221A605A609A60A1
:1051B000DA601A615A613B1D00221A605A609A60D7
:1051C000DA601A615A610120FFF79CFB0023A7F8FF
:1051D00054300023BB654FF6FF73FB6500233B662D
:1051E00000237B6607F1540319462E4801F0DCF9D1
:1051F0002C48FFF71FFC4FF480512A48FFF770FC42
:1052000060237B630023BB630023FB6300233B64B9
:1052100000237B640023FB6400233B6507F1340318
:105220001A464FF480511F4801F058FA4FF480514C
:105230001C48FFF70FFC00211A48FFF795FC19489E
:10524000FFF7A5FC0023FB6100233B6200237B6288
:10525000002387F8283000237B854FF40053FB623E
:1052600000233B6307F11C0319460E4801F077FA4F
:105270000120FFF717FB4FF400637B600223BB6044
:105280000023FB6000233B6100237B610123BB61A2
:105290003B1D1946044800F031FE00BF6837BD468B
:1052A00080BD00BF000001400000024080B594B006
:1052B00000AF07F13C0300221A605A609A60DA607E
:1052C0001A6107F11C0320220021184606F072F82B
:1052D0003B1D00221A605A609A60DA601A615A61B6
:1052E0000220FFF7F7FA0023BB8700233B644FF649
:1052F000FF737B640023BB6407F13C0319461F481E
:1053000001F052F91D48FFF795FB10211B48FFF7EC
:10531000E7FB6023FB6100233B6200237B620023E9
:10532000BB620023FB6207F11C031A4610211348DD
:1053300001F0D4F910211148FFF78CFB00210F4830
:10534000FFF712FC0D48FFF722FC0220FFF7AAFA34
:1053500020237B600223BB600023FB6000233B61B2
:1053600000237B610223BB613B1D1946044800F00A
:10537000C5FD00BF5037BD4680BD00BF00040040E2
:105380000004024080B58EB000AF07F11C0300227C
:105390001A605A609A60DA601A615A619A613B1D1C
:1053A00000221A605A609A60DA601A615A6110200D
:1053B000FFF7A8FA0220FFF775FAC0237B600223EB
:1053C000BB600323FB6000233B6100237B61072359
:1053D000BB613B1D1946194800F090FDFFF718F816
:1053E0000346002204211846FFF768F803461946D1
:1053F0002520FFF739F82520FFF718F84FF4E1339F
:10540000FB6100233B6200237B620023BB620C2311
:10541000FB6200233B6300237B6307F11C031946F7
:10542000074801F0EBFD0648FFF7D1FB0448FFF702
:10543000BEFB00BF3837BD4680BD00BF0004024040
:105440000010014080B58EB000AF07F11C030022B0
:105450001A605A609A60DA601A615A619A613B1D5B
:1054600000221A605A609A60DA601A615A6120203C
:10547000FFF748FA0420FFF715FAC0237B600223E8
:10548000BB600323FB6000233B6100237B61082397
:10549000BB613B1D1946194800F030FDFEF7B8FF0F
:1054A0000346002206211846FFF708F8034619466E
:1054B0004720FEF7D9FF4720FEF7B8FF4FF4E1334E
:1054C000FB6100233B6200237B620023BB620C2351
:1054D000FB6200233B6300237B6307F11C03194637
:1054E000074801F08BFD0648FFF771FB0448FFF702
:1054F0005EFB00BF3837BD4680BD00BF00080240DC
:105500000014014080B588B000AF07F118030022F5
:105510001A605A603B4600221A605A609A60DA604C
:105520001A615A618020FFF7BDF90420FFF7BAF92C
:105530000220FFF7B7F90120FFF7B4F90820FFF7C1
:10554000B1F91F214A48FFF7D2FB4FF4C061494827
:10555000FFF7CDFB04214848FFF7C9FB4FF470016A
:105560000220FFF7E7F94FF070410220FFF7E2F960
:105570000223BB6101233B7700237B770123BB77A9
:1055800007F11803184600F0EFFA0823BB61012366
:105590003B7700237B770123BB7707F1180318467D
:1055A00000F0E2FA002202213448FFF763FB0022F8
:1055B00008213248FFF75EFB002202212F48FFF747
:1055C0001CFB002208212D48FFF717FB1F233B601F
:1055D00001237B600023BB600023FB6000233B6151
:1055E0003B461946224800F089FC4FF4C0633B60FB
:1055F00001237B600023BB600023FB6000233B6131
:105600003B4619461B4800F079FC04233B6001230C
:105610007B600023BB600023FB6000233B613B46B3
:105620001946154800F06AFCFEF7F2FE0346002218
:1056300005211846FEF742FF034619460720FEF7EC
:1056400013FF0720FEF7F2FEFEF7E2FE03460022FC
:1056500005211846FEF732FF034619460920FEF7DA
:1056600003FF0920FEF7E2FE00BF2037BD4680BDE4
:105670000004024000000240000C0240000802400A
:1056800080B483B000AF7860074B5A697B681340E1
:105690007A689A420CBF01230023DBB218460C370C
:1056A000BD465DF8047B7047003C014080B483B088
:1056B00000AF7860044A7B68536100BF0C37BD4679
:1056C0005DF8047B704700BF003C014080B400AF30
:1056D00000BFFDE780B400AF00BFFDE780B400AFBE
:1056E00000BFFDE780B400AF00BFFDE780B400AFAE
:1056F00000BFFDE780B400AF00BFBD465DF8047B8E
:10570000704780B400AF00BFBD465DF8047B7047B2
:1057100080B400AF00BFBD465DF8047B704780B524
:1057200000AF05F071F900BF80BD80B500AF022069
:10573000FFF7A6FF0346002B04D00220FFF7B6FFB9
:10574000FCF726FC00BF80BD80B500AF0820FFF746
:1057500097FF0346002B04D00820FFF7A7FFFCF7B4
:10576000E9FB00BF80BD80B500AFFCF797FB00BF31
:1057700080BD000080B500AF024805F0ABFC00BF63
:1057800080BD00BFEC0E002080B500AF024805F0E0
:10579000A1FC00BF80BD00BF6402002080B586B0C0
:1057A00000AF7860144A154BD31A7B617B693B616B
:1057B000134B1B68002B02D1114B124A1A60104B7D
:1057C0001A687B6813443A699A4207D205F01AFEB8
:1057D00003460C221A604FF0FF3309E0084B1B68A8
:1057E000FB60074B1A687B681344054A1360FB682B
:1057F00018461837BD4680BD000002200004000096
:10580000441300202815002080B400AF064BD3F8C5
:105810008830054A43F47003C2F8883000BFBD46A3
:105820005DF8047B704700BF00ED00E0DFF834D086
:10583000FFF7EAFF0C480D490D4A002302E0D45857
:10584000C4500433C4188C42F9D30A4A0A4C0023CA
:1058500001E013600432A242FBD305F0D9FDFFF74B
:1058600055FA70470000022000000020400200208E
:10587000C0CE00084002002028150020FEE780B4BA
:1058800083B000AF786039607B68DB6A23F4700214
:105890003B681A437B68DA6200BF0C37BD465DF88F
:1058A000047B704780B483B000AF78607B689B68EE
:1058B00003F00103012B0CBF01230023DBB21846C8
:1058C0000C37BD465DF8047B7047000090B585B08D
:1058D00000AF786039600023FB731C48FFF7E2FFDC
:1058E00004461B48FFF7DEFF03461C431948FFF739
:1058F000D9FF03462343002B20D13B685B68002B74
:1059000012D07B685A68144B13403A6811683A68A1
:10591000526811433A68926811433A68D2680A4360
:105920001A437B685A600BE07B685A680A4B134045
:105930003A6812681A437B685A6001E00123FB73DE
:10594000FB7B18461437BD4690BD00BF00200140C8
:105950000021014000220140E010FCFF80B584B02E
:1059600000AF786039600023FB737868FFF79AFF17
:105970000346002B17D17B685B6823F0407323F448
:1059800080733A6811683A6892680A431A437B68E0
:105990005A607B689B6823F400623B685B681A432B
:1059A0007B689A6001E00123FB73FB7B184610378C
:1059B000BD4680BD80B584B000AF786039600023FB
:1059C000FB737868FFF76EFF0346002B2BD13B6813
:1059D0005B68002B09D07B685B6823F468423B68F6
:1059E0009B681A437B685A6005E07B685B6823F418
:1059F00068427B685A607B689A680E4B13403A682D
:105A0000126802F070613A68D26811433A6812690C
:105A10000A431A437B689A603B685B68194678685A
:105A2000FFF72DFF01E00123FB73FB7B18461037C6
:105A3000BD4680BDFDFCFFC080B483B000AF786080
:105A4000054B1A6804497B6813430B6000BF0C3791
:105A5000BD465DF8047B7047003C014080B483B0D4
:105A600000AF7860064B1A687B68DB43044913403B
:105A70000B6000BF0C37BD465DF8047B704700BF6C
:105A8000003C014080B483B000AF7860054B5A6899
:105A900004497B6813434B6000BF0C37BD465DF87B
:105AA000047B7047003C014080B483B000AF786055
:105AB000064B5A687B68DB43044913404B6000BFC8
:105AC0000C37BD465DF8047B704700BF003C0140C9
:105AD00080B483B000AF7860054B9A6804497B6856
