:020000040800F2
:1000000000000220215E0008A55C0008AD5C00082D
:10001000B55C0008BD5C0008C55C0008000000007D
:10002000000000000000000000000000CD5C00089F
:10003000DB5C000800000000E95C0008F75C0008D9
:10004000715E0008715E0008715E0008715E000854
:10005000715E0008715E0008715E0008035D0008B3
:10006000215D00083F5D0008715E0008715E0008B8
:10007000715E0008715E0008715E0008715E000824
:10008000715E0008715E00085D5D0008715E000829
:10009000715E0008715E0008715E0008715E000804
:1000A000715E0008715E0008715E0008715E0008F4
:1000B000715E0008715E0008715E0008715E0008E4
:1000C000715E0008715E0008715E0008715E0008D4
:1000D000715E0008695D0008715E0008715E0008CD
:1000E000715E0008715E0008715E0008715E0008B4
:1000F000715E0008715E0008715E0008715E0008A4
:10010000715E0008715E0008715E0008715E000893
:10011000715E0008715E0008715E0008715E000883
:10012000715E0008715E0008715E0008715E000873
:10013000715E00080000000000000000715E000811
:10014000715E0008715E0008715E0008715E000853
:10015000715E0008715E0008715E00087D5D000838
:10016000715E0008715E0008715E0008715E000833
:10017000715E0008715E00080000000000000000D1
:08018000715E0008715E0008C9
:1001900010B5054C237833B9044B13B10448AFF3C1
:1001A00000800123237010BD2C02002000000000FD
:1001B000E4D0000808B5034B1BB103490348AFF373
:1001C000008008BD0000000030020020E4D00008DC
:1001D00010F8012B11F8013B012A28BF9A42F7D0F1
:1001E000D01A7047034613F8012B002AFBD1181AC6
:1001F000013870470000000000000000000000000F
:1002000001F0FF01102A2BDB10F0070F08D010F8C7
:10021000013B013A8B422DD010F0070F42B3F6D1CB
:10022000F0B441EA012141EA014122F007047FF0E4
:1002300000070023F0E80256083C85EA010586EA3B
:10024000010685FA47F5A3FA87F586FA47F6A5FA77
:1002500087F68EB9EED1F0BC01F0FF0102F0070283
:1002600032B110F8013B013A83EA010313B1F8D12E
:100270000020704701387047002D06BF354603380F
:10028000073815F0010F07D1013015F4807F02BF48
:10029000013015F4C03F0130F0BC0138704700BF99
:1002A00081F0004102E000BF83F0004330B54FEA27
:1002B00041044FEA430594EA050F08BF90EA020F94
:1002C0001FBF54EA000C55EA020C7FEA645C7FEA27
:1002D000655C00F0E2804FEA5454D4EB5555B8BF4A
:1002E0006D420CDD2C4480EA020281EA030382EABB
:1002F000000083EA010180EA020281EA0303362D4D
:1003000088BF30BD11F0004F4FEA01314FF4801C1F
:100310004CEA113102D0404261EB410113F0004F31
:100320004FEA03334CEA133302D0524263EB4303E8
:1003300094EA050F00F0A780A4F10104D5F1200E86
:100340000DDB02FA0EFC22FA05F2801841F10001E1
:1003500003FA0EF2801843FA05F359410EE0A5F1B5
:1003600020050EF1200E012A03FA0EFC28BF4CF0E6
:10037000020C43FA05F3C01851EBE37101F000459C
:1003800007D54FF0000EDCF1000C7EEB00006EEBA9
:100390000101B1F5801F1BD3B1F5001F0CD3490833
:1003A0005FEA30004FEA3C0C04F101044FEA44528A
:1003B00012F5800F80F09A80BCF1004F08BF5FEA11
:1003C000500C50F1000041EB045141EA050130BDF1
:1003D0005FEA4C0C404141EB0101013C28BFB1F503
:1003E000801FE9D291F0000F04BF01460020B1FA4E
:1003F00081F308BF2033A3F10B03B3F120020CDA21
:100400000C3208DD02F1140CC2F10C0201FA0CF0FE
:1004100021FA02F10CE002F11402D8BFC2F1200C63
:1004200001FA02F120FA0CFCDCBF41EA0C01904019
:10043000E41AA2BF01EB0451294330BD6FEA040462
:100440001F3C1CDA0C340EDC04F11404C4F120024D
:1004500020FA04F001FA02F340EA030021FA04F35F
:1004600045EA030130BDC4F10C04C4F1200220FAB6
:1004700002F001FA04F340EA0300294630BD21FAF4
:1004800004F0294630BD94F0000F83F4801306BFBA
:1004900081F480110134013D4EE77FEA645C18BFAE
:1004A0007FEA655C29D094EA050F08BF90EA020F45
:1004B00005D054EA000C04BF1946104630BD91EA3D
:1004C000030F1EBF0021002030BD5FEA545C05D140
:1004D0004000494128BF41F0004130BD14F580047F
:1004E0003CBF01F5801130BD01F0004545F0FE41F3
:1004F00041F470014FF0000030BD7FEA645C1ABF28
:10050000194610467FEA655C1CBF0B46024650EA5E
:10051000013406BF52EA033591EA030F41F400218A
:1005200030BD00BF90F0000F04BF0021704730B510
:100530004FF4806404F132044FF000054FF00001E5
:1005400050E700BF90F0000F04BF0021704730B5A6
:100550004FF4806404F1320410F0004548BF40427B
:100560004FF000013EE700BF42004FEAE2014FEAD0
:1005700031014FEA02701FBF12F07F4393F07F4FAB
:1005800081F06051704732F07F4208BF704793F0AE
:100590007F4F04BF41F40021704730B54FF46074C1
:1005A00001F0004521F000411CE700BF50EA0102C4
:1005B00008BF704730B54FF000050AE050EA01026D
:1005C00008BF704730B511F0004502D5404261EBDD
:1005D00041014FF4806404F132045FEA915C3FF41E
:1005E000D8AE4FF003025FEADC0C18BF03325FEABB
:1005F000DC0C18BF033202EBDC02C2F1200300FA6C
:1006000003FC20FA02F001FA03FE40EA0E0021FA90
:1006100002F11444BDE600BF70B54FF0FF0C4CF47E
:10062000E06C1CEA11541DBF1CEA135594EA0C0F30
:1006300095EA0C0F00F0DEF82C4481EA030621EA6B
:100640004C5123EA4C5350EA013518BF52EA0335A6
:1006500041F4801143F4801338D0A0FB02CE4FF058
:100660000005E1FB02E506F00042E0FB03E54FF088
:100670000006E1FB03569CF0000F18BF4EF0010E80
:10068000A4F1FF04B6F5007F64F5407404D25FEA7C
:100690004E0E6D4146EB060642EAC62141EA55512F
:1006A0004FEAC52040EA5E504FEACE2EB4F1FD0C71
:1006B00088BFBCF5E06F1ED8BEF1004F08BF5FEAEF
:1006C000500E50F1000041EB045170BD06F00046A1
:1006D00046EA010140EA020081EA0301B4EB5C044E
:1006E000C2BFD4EB0C0541EA045170BD41F4801146
:1006F0004FF0000E013C00F3AB8014F1360FDEBF6B
:10070000002001F0004170BDC4F10004203C35DA46
:100710000C341BDC04F11404C4F1200500FA05F3C9
:1007200020FA04F001FA05F240EA020001F000426A
:1007300021F0004110EBD37021FA04F642EB0601E0
:100740005EEA430E08BF20EAD37070BDC4F10C040A
:10075000C4F1200500FA04F320FA05F001FA04F2CE
:1007600040EA020001F0004110EBD37041F10001BA
:100770005EEA430E08BF20EAD37070BDC4F12005C5
:1007800000FA05F24EEA020E20FA04F301FA05F22D
:1007900043EA020321FA04F001F0004121FA04F2D5
:1007A00020EA020000EBD3705EEA430E08BF20EAA5
:1007B000D37070BD94F0000F0FD101F000464000DF
:1007C00041EB010111F4801F08BF013CF7D041EA61
:1007D000060195F0000F18BF704703F00046520065
:1007E00043EB030313F4801F08BF013DF7D043EA36
:1007F0000603704794EA0C0F0CEA135518BF95EAEC
:100800000C0F0CD050EA410618BF52EA4306D1D172
:1008100081EA030101F000414FF0000070BD50EA91
:10082000410606BF1046194652EA430619D094EA1B
:100830000C0F02D150EA013613D195EA0C0F05D105
:1008400052EA03361CBF104619460AD181EA030159
:1008500001F0004141F0FE4141F470014FF0000011
:1008600070BD41F0FE4141F4780170BD70B54FF0AC
:10087000FF0C4CF4E06C1CEA11541DBF1CEA13552C
:1008800094EA0C0F95EA0C0F00F0A7F8A4EB05040E
:1008900081EA030E52EA03354FEA013100F0888005
:1008A0004FEA03334FF0805545EA131343EA1263CE
:1008B0004FEA022245EA111545EA10654FEA002683
:1008C0000EF000419D4208BF964244F1FD0404F53C
:1008D000407402D25B084FEA3202B61A65EB030598
:1008E0005B084FEA32024FF480104FF4002CB6EB55
:1008F000020E75EB030E22BFB61A754640EA0C00D5
:100900005B084FEA3202B6EB020E75EB030E22BF14
:10091000B61A754640EA5C005B084FEA3202B6EB55
:10092000020E75EB030E22BFB61A754640EA9C0014
:100930005B084FEA3202B6EB020E75EB030E22BFE4
:10094000B61A754640EADC0055EA060E18D04FEAA2
:10095000051545EA16754FEA06164FEAC30343EA42
:1009600052734FEAC2025FEA1C1CC0D111F4801F0F
:100970000BD141EA00014FF000004FF0004CB6E708
:1009800011F4801F04BF01430020B4F1FD0C88BFA7
:10099000BCF5E06F3FF6AFAEB5EB030C04BFB6EBB2
:1009A000020C5FEA500C50F1000041EB045170BDA5
:1009B0000EF0004E4EEA113114EB5C04C2BFD4EBD2
:1009C0000C0541EA045170BD41F480114FF0000E56
:1009D000013C90E645EA060E8DE60CEA135594EAD2
:1009E0000C0F08BF95EA0C0F3FF43BAF94EA0C0FD5
:1009F0000AD150EA01347FF434AF95EA0C0F7FF44A
:100A000025AF104619462CE795EA0C0F06D152EA9D
:100A100003353FF4FDAE1046194622E750EA410681
:100A200018BF52EA43067FF4C5AE50EA41047FF492
:100A30000DAF52EA43057FF4EBAE12E74FF0FF3CF7
:100A400006E000BF4FF0010C02E000BF4FF0010CC8
:100A50004DF804CD4FEA410C7FEA6C5C4FEA430C41
:100A600018BF7FEA6C5C1BD001B050EA410C0CBF90
:100A700052EA430C91EA030F02BF90EA020F0020F2
:100A8000704710F1000F91EA030F58BF994208BF59
:100A900090422CBFD8176FEAE37040F00100704716
:100AA0004FEA410C7FEA6C5C02D150EA013C07D16D
:100AB0004FEA430C7FEA6C5CD6D152EA033CD3D0B8
:100AC0005DF8040B704700BF8446104662468C46B2
:100AD0001946634600E000BF01B5FFF7B7FF0028E5
:100AE00048BF10F1000F01BD4DF808EDFFF7F4FF0E
:100AF0000CBF012000205DF808FB00BF4DF808ED99
:100B0000FFF7EAFF34BF012000205DF808FB00BFBB
:100B10004DF808EDFFF7E0FF94BF012000205DF8DD
:100B200008FB00BF4DF808EDFFF7CEFF94BF012092
:100B300000205DF808FB00BF4DF808EDFFF7C4FF8B
:100B400034BF012000205DF808FB00BF4A0011D22D
:100B500012F5001211D20DD56FF47873B3EB625217
:100B60000ED44FEAC12343F0004343EA505323FA23
:100B700002F070474FF00000704750EA013002D198
:100B80004FF0FF3070474FF00000704753B94AB93B
:100B9000002908BF00281CBF4FF0FF314FF0FF3085
:100BA00000F088B9ADF1080C6DE904CE00F006F84C
:100BB000DDF804E0DDE9022304B070472DE9F047D9
:100BC000089D8E4604468846002B4AD18A42174625
:100BD00062D9B2FA82F64EB1C6F1200301FA06F8E4
:100BE00020FA03F3B74043EA0808B4404FEA174E2F
:100BF0001FFA87FCB8FBFEF1230C0EFB118843EAB9
:100C0000084301FB0CF29A4209D9FB1801F1FF30AD
:100C100080F0EA809A4240F2E78002393B449A1A17
:100C2000A3B2B2FBFEF00EFB102243EA024300FB2C
:100C30000CFC9C4509D9FB1800F1FF3280F0D680EE
:100C40009C4540F2D3803B44023840EA0140A3EB8C
:100C50000C0300211DB1F3400022C5E90032BDE8BC
:100C6000F0878B4205D90DB1C5E900010021084686
:100C7000F5E7B3FA83F1002946D1734502D38242E6
:100C800000F20581841A6EEB030201209046002DCC
:100C9000E5D0C5E90048E2E7002A00F09080B2FA0A
:100CA00082F6002E40F0A4808A1A030C4FEA174EF9
:100CB00080B2BCB20121B2FBFEFC0EFB1C2243EA57
:100CC000024304FB0CF29A4207D9FB180CF1FF38DF
:100CD00002D29A4200F2E080C4469B1AB3FBFEF2B5
:100CE0000EFB123340EA034302FB04F49C4207D993
:100CF000FB1802F1FF3002D29C4200F2CA80024689
:100D00001B1B42EA0C40A5E7C1F120068B4022FAEA
:100D100006F71F430EFA01F420FA06F32EFA06FE38
:100D20004FEA1749234300FA01F81FFA87FCBEFB7C
:100D3000F9F01C0C09FB10EE44EA0E4400FB0CFE1B
:100D4000A64502FA01F209D93C1900F1FF3A80F0F8
:100D50009C80A64540F2998002383C44A4EB0E04E6
:100D60001FFA83FEB4FBF9F309FB13444EEA044473
:100D700003FB0CFCA44508D93C1903F1FF3E80F0AD
:100D80008280A4457FD9023B3C4443EA0040A4EB67
:100D90000C04A0FB02EC64457346E14662D35FD0CD
:100DA0005DB1B8EB030264EB090404FA06F622FA1B
:100DB00001F31E43CC40C5E9006400214FE7B1FBBD
:100DC000F2FC010C41EA0E4180B240EA01423B468E
:100DD00038463C46B846BE462026B1FBF7F1A2EBAA
:100DE000080241EA0C4166E7014618E710462CE785
:100DF000C6F120022EFA02F3B740B14020FA02F207
:100E00004FEA174E0A43B3FBFEF8BCB20EFB183391
:100E1000110C41EA034108FB04F9B04089454FEA4F
:100E2000104380B23ED9791808F1FF3C01D28945C0
:100E30001FD8A1EB0901B1FBFEF909FB04F80EFB79
:100E4000191192B242EA0142424529D2BA1809F177
:100E5000FF31C4D24245C2D2A9F102013A44BEE7F1
:100E6000F0459DD2BEEB02036CEB070C0138E14666
:100E700096E7A7EB09094944A8F1020CB1FBFEF97A
:100E800009FB04F8DBE773467FE7504666E7084650
:100E9000FDE63B44023A33E7ACF1020C3B441CE76D
:100EA00049469CE7A1EB0901C446B1FBFEF909FBE9
:100EB00004F8C4E7704700BF80B500AF02F092F9B4
:100EC00003F0FEFA00F012FC03F09AFB03F0BEFB05
:100ED00042F210700AF0F2FB0AF012FCFCE780B458
:100EE00083B000AF786000BF0C37BD465DF8047B6F
:100EF0007047000080B500AF094B1B78012B0DD166
:100F0000084B1B680F221A70012000F00FF8044BE9
:100F100000221A700021044808F0CCFE00BF80BDFA
:100F200048020020B00100202C4E002080B58CB07B
:100F300000AF0346FB711E4BCA221A701D4B1A7874
:100F40001B4B5A701A4B02229A70194AFB79D370C4
:100F5000174B07221A71164BEF2283F80021144B0E
:100F6000DB780433DBB21A461349002009F010F98C
:100F700003461A460E4BA3F8FE2007F10C0323226A
:100F8000002118460BF062F807F10B0207F10C0381
:100F90001946074809F048F9FA7A07F10C0319468F
:100FA00006480AF0B7FE00BF3037BD4680BD00BF1F
:100FB00044470020944E002045470020D81E0020C2
:100FC00080B483B000AF786039607B685B6823F4DD
:100FD00080723B681A437B685A6000BF0C37BD467D
:100FE0005DF8047B704780B483B000AF78603960EF
:100FF0007B689B6823F070623B6803F070631A4360
:101000007B689A6000BF0C37BD465DF8047B704773
:1010100080B483B000AF786039607B68DB6A23F40A
:1010200070023B681A437B68DA6200BF0C37BD462A
:101030005DF8047B704780B489B000AFF860B96098
:101040007A60FB682C331946BB6803F440734FF495
:1010500040727A617A6992FAA2F23A613A69BA61A7
:10106000BA69002A01D1202203E0BA69B2FA82F2F9
:10107000D2B2D3409B000B44FB61FB691A68BB688A
:1010800003F01F031F2101FA03F3DB431A407B68BF
:1010900003F01F01BB6803F01F0301FA03F31A43B7
:1010A000FB691A6000BF2437BD465DF8047B7047BA
:1010B00080B483B000AF786039607B689B6823F0B0
:1010C00002023B681A437B689A6000BF0C37BD463A
:1010D0005DF8047B704780B483B000AF78603960FE
:1010E0007B689B6823F480623B681A437B689A6044
:1010F00000BF0C37BD465DF8047B704780B48FB0ED
:1011000000AFF860B9607A60FB680C331946BB68C1
:1011100003F000734FF000727A617A6992FAA2F2DA
:101120003A613A69BA61BA69002A01D1202203E022
:10113000BA69B2FA82F2D2B2D3409B000B447B630D
:101140007B6B1A68BB6803F0F8734FF0F871396273
:10115000396A91FAA1F1F961F9697962796A00292C
:1011600001D1202103E0796AB1FA81F1C9B2CB4003
:10117000072101FA03F3DB431A40BB6803F0F8735D
:101180004FF0F871F962F96A91FAA1F1B962B96A9E
:101190003963396B002901D1202103E0396BB1FAA1
:1011A00081F1C9B2CB40796801FA03F31A437B6B32
:1011B0001A6000BF3C37BD465DF8047B704780B4C1
:1011C00083B000AF78607B689B6843F001027B6866
:1011D0009A6000BF0C37BD465DF8047B704780B451
:1011E00083B000AF78607B689B6823F001027B6866
:1011F0009A6000BF0C37BD465DF8047B704780B431
:1012000083B000AF78607B689B6843F080427B6866
:101210009A6000BF0C37BD465DF8047B704780B410
:1012200083B000AF78607B68DB6C9BB218460C37EC
:10123000BD465DF8047B704780B483B000AF786032
:101240007B681B6803F00203022B0CBF0123002301
:10125000DBB218460C37BD465DF8047B704780B49E
:1012600083B000AF78607B681B6803F02003202BFD
:101270000CBF01230023DBB218460C37BD465DF8D6
:10128000047B704780B483B000AF78607B686FF0F8
:1012900002021A6000BF0C37BD465DF8047B704740
:1012A00080B483B000AF78607B686FF020021A6072
:1012B00000BF0C37BD465DF8047B704780B483B037
:1012C00000AF78607B685B6843F020027B685A60FF
:1012D00000BF0C37BD465DF8047B704780B483B017
:1012E00000AF78607B685B6843F080627B685A601F
:1012F00000BF0C37BD465DF8047B704780B483B0F7
:1013000000AF786039607B683A689A6100BF0C373B
:10131000BD465DF8047B704780B483B000AF786051
:1013200039603B681A047B689A6100BF0C37BD4680
:101330005DF8047B704780B483B000AF78607B6851
:101340001B6843F001027B681A6000BF0C37BD4682
:101350005DF8047B704780B483B000AF78607B6831
:101360001B6823F002027B681A6000BF0C37BD4681
:101370005DF8047B704780B483B000AF78607B6811
:101380001B6843F002027B681A6000BF0C37BD4641
:101390005DF8047B704780B483B000AF78607B68F1
:1013A0001B6843F080027B681A6000BF0C37BD46A3
:1013B0005DF8047B704780B483B000AF786039601B
:1013C0007B683A689A6200BF0C37BD465DF8047BC3
:1013D000704780B483B000AF78607B689B6A184622
:1013E0000C37BD465DF8047B704780B483B000AF16
:1013F000786039607B683A68DA6200BF0C37BD46B6
:101400005DF8047B704780B483B000AF78603960CA
:101410007B681A6A3B681A437B681A6200BF0C3704
:10142000BD465DF8047B704780B487B000AFF860BC
:10143000B9607A60BB68012B1CD0BB68042B17D045
:10144000BB68102B12D0BB68402B0DD0BB68B3F526
:10145000807F07D0BB68B3F5806F01D105230AE018
:10146000062308E0042306E0032304E0022302E04D
:10147000012300E00023FB75FB6818331946FB7D50
:101480000E4AD35C0B443B613B691A68FB7D0C49F7
:10149000CB5C194673238B40DB431A40FB7D084924
:1014A000CB5C19467B688B401A433B691A6000BFCE
:1014B0001C37BD465DF8047B704700BF08D80008A4
:1014C00010D8000880B487B000AFF860B9607A60C7
:1014D000BB68012B1CD0BB68042B17D0BB68102B3A
:1014E00012D0BB68402B0DD0BB68B3F5807F07D00E
:1014F000BB68B3F5806F01D105230AE0062308E03D
:10150000042306E0032304E0022302E0012300E0B9
:101510000023FB75FB681A6AFB7D0B49CB5C1946FF
:1015200002238B40DB431A40FB7D0749CB5C194605
:101530007B688B401A43FB681A6200BF1C37BD46AC
:101540005DF8047B704700BF18D8000880B485B0F0
:1015500000AF786039603B68012B1CD03B68042BDE
:1015600017D03B68102B12D03B68402B0DD03B6846
:10157000B3F5807F07D03B68B3F5806F01D10523B9
:101580000AE0062308E0042306E0032304E0022324
:1015900002E0012300E00023FB737B681833194647
:1015A000FB7B0A4AD35C0B44BB60BB681A68FB7BBD
:1015B0000749CB5C194608238B401A43BB681A6065
:1015C00000BF1437BD465DF8047B704708D800089B
:1015D00010D8000880B483B000AF786039607B68B1
:1015E0003A685A6300BF0C37BD465DF8047B70470C
:1015F00080B483B000AF786039607B683A689A63E2
:1016000000BF0C37BD465DF8047B704780B483B0E3
:1016100000AF786039607B683A68DA6300BF0C37E6
:10162000BD465DF8047B704780B483B000AF78603E
:1016300039607B683A681A6400BF0C37BD465DF8B4
:10164000047B704780B485B000AFF860B9607A6001
:10165000FB685B6C23F44062B9687B680B431A43F8
:10166000FB685A6400BF1437BD465DF8047B7047C1
:1016700080B483B000AF78607B685B6C23F48042F9
:101680007B685A6400BF0C37BD465DF8047B704729
:1016900080B483B000AF78607B685B6C43F4004239
:1016A0007B685A6400BF0C37BD465DF8047B704709
:1016B00080B483B000AF78607B68DB6823F0010200
:1016C0007B68DA6000BF0C37BD465DF8047B70476D
:1016D00080B400AF044B9B6803F4E0531846BD464A
:1016E0005DF8047B704700BF00380240B0B5A4B07D
:1016F00000AF624B08332422002118460AF0A6FCF2
:101700005E4B01221A725D4B01225A725B4B5C4A9E
:10171000DA605A4B4FF07C521A61584B594A9A6121
:10172000564B594ADA61554B584A1A62534B1922A3
:101730005A85574B08332422002118460AF086FCAC
:10174000534B01221A72524B01225A72504B4C4A8F
:10175000DA604F4B4FF07C521A614D4B4D4A9A6103
:101760004B4B4D4ADA614A4B4C4A1A62484B0A22AB
:101770005A85424B4A4A03F12C0415460FCD0FC43B
:1017800095E8070084E80700414B464A03F12C0422
:1017900015460FCD0FC495E8070084E8070001F057
:1017A0007DFD0723C7F88830D7F8880000F030FCAB
:1017B0003D4BC7F884303C4BC7F88030D7F88010D9
:1017C000D7F8840000F06EFC00F034FD002387F8A9
:1017D0008F301DE0294BD96C97F88F2013465B00A2
:1017E00013445B000B441888244BD96C97F88F2066
:1017F00013465B0013445B00CC1801461F4801F000
:10180000A9F80346638097F88F30013387F88F304B
:101810001A4B93F8533097F88F209A42DAD300236B
:1018200087F88E301DE01A4BD96C97F88E2013463E
:101830005B0013445B000B441888154BD96C97F878
:101840008E2013465B0013445B00CC180146104801
:1018500001F080F80346638097F88E30013387F8F3
:101860008E300B4B93F8533097F88E209A42DAD390
:1018700000BF00BF9037BD46B0BD00BFE8000020EC
:101880009A99993EEA00002030010020EC000020E7
:10189000480100204A010020900100204C01002056
:1018A000FCD0000818D100087011010000000000F1
:1018B000B0B586B000AF78600023FB750023BB7520
:1018C00000237B7500237B8207F117031946032051
:1018D00001F0FCFC07F116031946042001F0F6FCA8
:1018E00007F115031946052001F0F0FC07F112037A
:1018F0001946012001F0EAFCFB7D002B22D05A4B57
:101900005B881846FEF71EFE04460D46564B9B8824
:101910001846FEF717FE52A3D3E90023FEF77CFE1C
:1019200002460B4620462946FFF7FCF80346002BEB
:1019300016D00223FB7207F10B031946002001F0B9
:10194000E7FC0DE0FB7D83F00103DBB2002B07D049
:10195000454B002283F848200021434800F05CFDFD
:10196000BB7D002B05D04FF480614048FFF7C6FCDB
:101970000AE0BB7D83F00103DBB2002B04D04FF4FF
:1019800080613A48FFF7C8FC00237B7400233B7456
:101990000023FB730023BB8107F1110319460A20C2
:1019A00001F094FC07F1100319460B2001F08EFCA6
:1019B00007F10F0319460C2001F088FC07F10C0316
:1019C0001946082001F082FC7B7C002B22D0284B9A
:1019D0005B881846FEF7B6FD04460D46244B9B88EF
:1019E0001846FEF7AFFD1EA3D3E90023FEF714FE51
:1019F00002460B4620462946FFF794F80346002B83
:101A000016D00223BB7207F10A031946072001F022
:101A10007FFC0DE07B7C83F00103DBB2002B07D061
:101A2000134B002283F848200021114800F0F4FCF9
:101A30003B7C002B04D010210E48FFF75FFC09E02F
:101A40003B7C83F00103DBB2002B03D0102109485B
:101A5000FFF762FC00BF1837BD46B0BDAFF3008092
:101A6000AE47E17A14AEEF3FE800002000000240EC
:101A7000480100200004024080B582B000AF7860C9
:101A800000F02EFD00F018FE00F046FE00F032FFE0
:101A900000BF0837BD4680BD80B582B000AF0346A9
:101AA0000A46FB711346BB80FB79002B05D13B1D19
:101AB0001946012001F02CFC07E0FB79012B04D131
:101AC0003B1D1946082001F023FC00BF0837BD4626
:101AD00080BD80B582B000AF03460A46FB80134646
:101AE000BB80BB1D1946012001F012FC3B1D1946AD
:101AF000082001F00DFC00BF0837BD4680BD000086
:101B000090B585B000AF0446084611461A462346F4
:101B1000FB710346BB710B467B7113463B7100237F
:101B2000FB73FB79002B10D00023FB7307F10F032D
:101B30001946042001F0ECFB0123BB7307F10E03EF
:101B40001946002001F0E4FB07E00023BB7307F116
:101B50000E031946002001F0DBFB00237B73BB79E9
:101B6000002B10D000237B7307F10D0319460B20C7
:101B700001F0CEFB01233B7307F10C03194607204C
:101B800001F0C6FB07E000233B7307F10C03194685
:101B9000072001F0BDFBFB1D1946032001F0B8FB37
:101BA000BB1D19460A2001F0B3FB0E4B0022A3F81F
:101BB00050200D4B0022A3F850200A4B002283F83E
:101BC0004920094B002283F84920064A7B7982F894
:101BD0005C30054A3B7982F85C3000BF1437BD4663
:101BE00090BD00BFE80000204801002080B584B00F
:101BF00000AF03460A46FB711346BB710023FB731B
:101C0000FB79002B26D1BB79002B15D00023FB7369
:101C100007F10F031946032001F07AFB0323BB737E
:101C200007F10E031946002001F072FB0522002186
:101C30001F4809F044FC07E00023BB7307F10E03C3
:101C40001946002001F064FBBB1D1946042001F079
:101C50005FFB28E0FB79012B25D1BB79002B15D048
:101C60000023FB7307F10F0319460A2001F050FB14
:101C70000323BB7307F10E031946072001F048FB4D
:101C8000052200210B4809F01AFC07E00023BB7372
:101C900007F10E031946072001F03AFBBB1D194658
:101CA0000B2001F035FB00BF1037BD4680BD00BFE3
:101CB000F00000205001002080B584B000AF034642
:101CC0000A46FB711346BB710023FB73FB79002BA3
:101CD00015D00023FB7307F10F031946032001F011
:101CE00017FB0323BB7307F10E031946002001F015
:101CF0000FFB052200211E4809F0E1FB07E000234D
:101D0000BB7307F10E031946002001F001FBFB1D18
:101D10001946042001F0FCFA00237B73BB79002BE9
:101D200015D000237B7307F10D0319460A2001F03B
:101D3000EFFA03233B7307F10C031946072001F068
:101D4000E7FA052200210B4809F0B9FB07E0002360
:101D50003B7307F10C031946072001F0D9FABB1DAC
:101D600019460B2001F0D4FA00BF1037BD4680BDE4
:101D7000F00000205001002080B584B000AF034681
:101D8000FB710023FB81FB79002B06D107F10E03C9
:101D90001946012001F09AFA08E0FB79012B05D1E0
:101DA00007F10E031946082001F090FAFB89184646
:101DB0001037BD4680BD80B584B000AF0346FB71CF
:101DC0000023FB73FB79002B06D107F10F031946A3
:101DD000032001F07BFA08E0FB79012B05D107F124
:101DE0000F0319460A2001F071FAFB7B18461037E1
:101DF000BD4680BD80B584B000AF0346FB710023B3
:101E0000FB73FB79002B06D107F10F031946042061
:101E100001F05CFA08E0FB79012B05D107F10F0313
:101E200019460B2001F052FAFB7B18461037BD46CD
:101E300080BD000080B586B000AF0346FB71002373
:101E4000FB824FF00003FB60FB79002B14D11A4B8F
:101E50003B61194B5B88FB82FB8A1946164800F0F0
:101E600094FDF0EE407AC7ED037A07F10C031946B2
:101E7000022001F04DFA16E0FB79012B13D10F4B34
:101E80003B610E4B5B88FB82FB8A19460B4800F0D6
:101E90007CFDF0EE407AC7ED037A07F10C0319469A
:101EA000092001F035FAFB6807EE903AB0EE670AB8
:101EB0001837BD4680BD00BFE80000204801002063
:101EC00098B500AF2148FFF7CAF90346012B14D19A
:101ED0001E48FFF7E5F91E4B00221A701B48FFF75A
:101EE0007EF900BF00BF00BF00BF00BF00BF1748A2
:101EF000FFF765F91548FFF782F91448FFF79CF9D9
:101F00000346012B20D11148FFF7BCF9104B1B7879
:101F1000DBB21A460F4B53F822400C48FFF77FF90B
:101F2000034663800A4B1B78DBB21A46094B53F811
:101F30002230184600F090F9054B1B78DBB283F095
:101F40000103DAB2024B1A7000BF98BD00200140B5
:101F500049020020A801002080B582B000AF012313
:101F6000FB71FB1D1946052001F0D2F90F4B002231
:101F700083F8482000210D4800F04EFA012100208E
:101F8000FFF734FE0A4B1B680B221A70FA79084BD4
:101F90001B685A70064B1B6800229A70032000F0E1
:101FA0001FFD00BF0837BD4680BD00BFE800002010
:101FB000B001002080B582B000AF0123FB71FB1D92
:101FC00019460C2001F0A4F90F4B002283F8482099
:101FD00000210D4800F020FA01210120FFF706FE44
:101FE0000A4B1B680B221A70084B1B6800225A70A0
:101FF000FA79064B1B689A70032000F0F1FC00BFD1
:102000000837BD4680BD00BF48010020B001002058
:1020100080B582B000AF78601F4B00221A704FF479
:1020200080111E48FEF7F4FF1D4A4FF400711B4853
:10203000FFF701F80A2240F205211848FEF7FBFFDE
:102040007A6817491548FFF759F87A680A21134842
:10205000FFF754F84FF480711048FEF7B1FF0221EA
:102060000E48FFF725F80D48FFF738F90B48FFF742
:1020700025F94FF480610948FFF72DF80748FFF76D
:102080009EF800210548FEF7AEFF0448FFF7B7F8B9
:1020900000BF0837BD4680BD490200200020014036
:1020A0000C00600080B582B000AF786039605A489B
:1020B00009F0C1F8594BDB6A584A116B6022184687
:1020C000FFF7B2F9554BDB6A544A116B00221846F0
:1020D000FFF7F8F9514BDB6A504A126B114618466C
:1020E000FFF734FA4D4BDB6A4C4A126B1146184627
:1020F000FFF789F9494BDB6A4FF400624FF48061C6
:102100001846FFF79FFA454BDB6A1846FFF7B0FA0F
:10211000424BDB6A1846FFF7BBFA404BDB6A0021F3
:102120001846FFF748F93D4BDB6A1846FFF733F9CD
:1021300079683A4800F01CF9384BDB6A1846FFF71B
:10214000B7FA374809F077F8364BDB6A354A116B36
:1021500060221846FFF768F9324BDB6A314A116B8F
:1021600000221846FFF7AEF92E4BDB6A2D4A126BA0
:1021700011461846FFF7EAF92A4BDB6A294A126B27
:1021800011461846FFF73FF9264BDB6A4FF4006211
:102190004FF480611846FFF755FA224BDB6A184668
:1021A000FFF766FA1F4BDB6A1846FFF771FA1D4B03
:1021B000DB6A00211846FFF7FEF81A4BDB6A184667
:1021C000FFF7E9F83968174800F0D2F8154BDB6AD9
:1021D0001846FFF76DFA4FF400711348FFF78EF8B9
:1021E00004211248FFF78AF84FF480610E48FFF788
:1021F00093F810210E48FFF78FF8084BDB6A18465A
:10220000FFF799F8074BDB6A1846FFF794F800BF11
:102210000837BD4680BD00BFF0000020E800002068
:10222000500100204801002000000240000C024044
:102230000004024080B500AF4FF480610448FFF70E
:102240006BF810210348FFF767F800BF80BD00BF9F
:102250000000024000040240B0B586B000AF7860D4
:102260000023FB737B683F4A934206D107F10F03BB
:1022700019460A2001F02AF809E07B683A4A93429D
:1022800005D107F10F031946032001F01FF8FB7B6E
:10229000002B62D07B680833184609F022F87B686F
:1022A0002C337B617B6893F84830DBB23B617B6900
:1022B0009B691846FEF736F904460D463869FEF765
:1022C00031F94FF00002294BFEF7D0FA02460B46D7
:1022D00020462946FEF7A0F902460B46104619464D
:1022E000FEF734FC02467B695A617B695B68B3F593
:1022F000805F28D0B3F5805F2ED8B3F5807F19D0EA
:10230000B3F5807F28D8012B02D0102B09D023E011
:102310007B691A687B695B6919461046FFF75AF9B1
:102320001BE07B691A687B695B6919461046FFF7F9
:102330005FF912E07B691A687B695B691946104690
:10234000FFF764F909E07B691A687B695B691946E4
:102350001046FFF769F900E000BF00BF1837BD461F
:10236000B0BD00BF48010020E80000200000594037
:1023700090B52DED028B85B000AF786039607B6839
:102380002C33FB60FB681B681846FEF7F4FF1F4BFD
:102390001B681F4A127823FA02F4FFF799F90346E3
:1023A0009B0A1C4AD35C24FA03F307EE903AB8EE7A
:1023B000678AFB681B681846FFF70BF80346013372
:1023C00007EE903AB8EE677A3B6807EE903AF8EE7F
:1023D000677A27EE277AC8EE077AFCEEE77A17EEDF
:1023E000902AFB689A61FB681A68FB689B6919462A
:1023F0001046FEF7FAFFFB681B681846FEF7ABFFB6
:1024000000BF1437BD46BDEC028B90BDB801002063
:10241000D0D90008E0D90008B0B584B000AF78602A
:1024200039607B682C33FB60FB689B691846FEF7BC
:1024300079F804460D463868FEF774F84FF000024C
:10244000264BFEF713FA02460B4620462946FEF7B6
:10245000E3F802460B4610461946FEF777FB0246A4
:10246000FB685A61FB685B68B3F5805F28D0B3F501
:10247000805F2ED8B3F5807F19D0B3F5807F28D840
:10248000012B02D0102B09D023E0FB681A68FB68EF
:102490005B6919461046FFF79DF81BE0FB681A6858
:1024A000FB685B6919461046FFF7A2F812E0FB686B
:1024B0001A68FB685B6919461046FFF7A7F809E040
:1024C000FB681A68FB685B6919461046FFF7ACF8B1
:1024D00000E000BF00BF1037BD46B0BD000059404E
:1024E00080B582B000AF0023BB71BB1D194603202D
:1024F00000F0ECFEBB7983F00103DBB2002B40F06F
:10250000CE806B4B93F84930022B00F0C080022B39
:1025100000F3C780002B02D0012B49D0C1E0644BEF
:10252000B3F85030002B11D105220021614808F08A
:10253000C6FF05215E4800F03FFA5D4BB3F850300E
:1025400001339AB25A4BA3F85020ADE0584BB3F880
:102550005030B3F57A6F08D2554BB3F85030013391
:102560009AB2534BA3F850209EE00023FB7114E075
:102570004F4B59884E4BD86CFA7913465B00134485
:102580005B0003445B88994204D8494AFB7982F88E
:10259000523008E0FB790133FB71454B93F853301F
:1025A000FA799A42E4D3424B012283F849207BE036
:1025B0007B1D1946002000F089FE7B79022B72D129
:1025C000BB1C1946012000F081FE394BDA6C384BF8
:1025D00093F8523019460B465B000B445B001344E2
:1025E0001A887B889A4230D2314BDA6C304B93F8A0
:1025F000523019460B465B000B445B0013441B79B9
:102600001A4600212B4808F05AFF294BDA6C284B58
:1026100093F8523019460B465B000B445B001344A1
:102620001B881946224800F0C7F901237B717B1DE6
:102630001946002000F06CFE1D4B93F85230013318
:10264000DAB21B4B83F852202EE0194BDA6C184B90
:1026500093F8523019460B465B000B445B00134461
:102660001B791A460021134808F029FF7B88194678
:102670000F4800F0A1F901237B717B1D1946002052
:1026800000F046FE0A4B022283F849200CE07B1D35
:102690001946002000F01AFE7B79022B01E000BFF2
:1026A00002E000BF00E000BF0837BD4680BD00BFAC
:1026B000E8000020F000002080B582B000AF0023C9
:1026C000FB71FB1D1946042000F000FEFB7983F02E
:1026D0000103DBB2002B15D10C4B5B88142B12D8F5
:1026E0000B4B1B680B49184609F0FCFA002100202F
:1026F000FFF77CFA0423BB71BB1D1946002000F0D4
:1027000007FE00E000BF0837BD4680BDE80000209E
:102710004C02002034D1000880B582B000AF002305
:10272000BB71BB1D19460A2000F0D0FDBB7983F0B8
:102730000103DBB2002B40F0D1806C4B93F84930A1
:10274000032B00F2CD8001A252F823F05D27000890
:10275000EF270008CD280008E1280008634BB3F8F4
:102760005030002B11D105220021614808F0A7FE4E
:1027700005215E4800F020F95C4BB3F8503001337E
:102780009AB25A4BA3F85020ADE0584BB3F85030F2
:10279000B3F57A6F08D2554BB3F8503001339AB283
:1027A000524BA3F850209EE00023FB7114E04F4BE6
:1027B00059884E4BD86CFA7913465B0013445B0082
:1027C00003445B88994204D8484AFB7982F8523026
:1027D00008E0FB790133FB71444B93F85330FA79ED
:1027E0009A42E4D3414B012283F849207BE07B1DD0
:1027F0001946072000F06AFD7B79022B72D1BB1CC1
:102800001946082000F062FD384BDA6C374B93F81C
:10281000523019460B465B000B445B0013441A8888
:102820007B889A4230D2314BDA6C304B93F852307D
:1028300019460B465B000B445B0013441B791A4698
:1028400000212B4808F03BFE284BDA6C274B93F80D
:10285000523019460B465B000B445B0013441B8847
:102860001946224800F0A8F801237B717B1D194608
:10287000072000F04DFD1D4B93F852300133DAB2C2
:102880001A4B83F852202EE0184BDA6C174B93F852
:10289000523019460B465B000B445B0013441B7916
:1028A0001A460021124808F00AFE7B8819460F4894
:1028B00000F082F801237B717B1D1946072000F090
:1028C00027FD0A4B022283F849200CE07B1D1946A4
:1028D000072000F0FBFC7B79022B04E000BF02E044
:1028E00000BF00E000BF0837BD4680BD48010020A2
:1028F0005001002080B582B000AF0023FB71FB1DAA
:1029000019460B2000F0E2FCFB7983F00103DBB2F7
:10291000002B15D10C4B5B883C2B12D80B4B1B6842
:102920000B49184609F0DEF900210120FFF75EF996
:102930000423BB71BB1D1946072000F0E9FC00E031
:1029400000BF0837BD4680BD480100204C02002072
:1029500058D1000880B483B000AF78600B467B800C
:102960007B8807EE903AF8EEE76A7B6893ED167A7B
:10297000C6EE877AFCEEE77A17EE903A9BB21846DD
:102980000C37BD465DF8047B704780B483B000AF60
:1029900078600B467B807B8807EE903AB8EEE77A4A
:1029A0007B68D3ED167A67EE277AB0EE670A0C37AC
:1029B000BD465DF8047B704780B582B000AF78609B
:1029C0000B467B807B8819467868FFF7C3FF034678
:1029D0001A467B689A8000BF0837BD4680BD00005C
:1029E00080B58AB000AF0346FB711F4BCA221A7034
:1029F0001E4B1A781C4B5A701B4B02229A701A4AB3
:102A0000FB79D370184B07221A71174BEF2283F80A
:102A10000021154BDB780433DBB21A461449002041
:102A200007F0B6FB03461A460F4BA3F8FE2007F14A
:102A30000C0300221A605A609A60DA601A615A61C7
:102A40001A7607F10B0207F10C031946064807F046
:102A5000EBFBFA7A07F10C031946064809F05AF91C
:102A600000BF2837BD4680BD44470020944E00205B
:102A700045470020D81E002080B400AFBFF34F8F21
:102A800000BF064BDB6803F4E0620449044B1343C8
:102A9000CB60BFF34F8F00BF00BFFDE700ED00E04C
:102AA0000400FA0580B588B000AFF860B9607A60BC
:102AB00007F11403074A0A21184609F055FA07F1ED
:102AC00014031946F86805F0CFF800BF2037BD465B
:102AD00080BD00BF6CD3000880B584B000AFF86043
:102AE000B9607A60FFF7C8FF80B588B000AFF860C2
:102AF000B9607A60B86805F0BBF90346BB61BB6991
:102B0000012B04DC3249F86805F0AEF85DE0BB69E2
:102B1000022B04DD2F49F86805F0A6F855E00121E5
:102B2000B86805F06FF90346184609F094F90346B2
:102B30003B610221B86805F065F90346184609F0C3
:102B40008AF903467B613B69B3F5AF7F02DC3B69E1
:102B5000002B04DA2049F86805F086F835E07B6937
:102B60003C2B02DC7B69002B04DA1B49F86805F07A
:102B70007BF82AE00023FB770020FFF71CF90346CF
:102B8000002B05D01549F86805F06EF80123FB7796
:102B90000120FFF710F90346002B05D01049F86813
:102BA00005F062F80123FB77FB7F012B0CD03B691A
:102BB0009BB27A6992B211461846FEF78AFF09491C
:102BC000F86805F051F800E000BF2037BD4680BD31
:102BD00074D3000890D30008ACD30008C4D3000815
:102BE00008D400084CD4000880B586B000AFF86067
:102BF000B9607A60B86805F03BF903467B617B6990
:102C0000002B04DC1D49F86805F02EF832E07B69E2
:102C1000012B04DD1A49F86805F026F82AE00121A5
:102C2000B86805F0EFF80346184609F014F9386162
:102C30003B69B3F5AF7F02DC3B69002B04DA114935
:102C4000F86805F011F815E00020FFF7B4F8034626
:102C5000002B04D00C49F86805F006F80AE03B693F
:102C60009BB219460020FEF717FF0849F86804F0E8
:102C7000FBFF00BF1837BD4680BD00BF74D30008FE
:102C80005CD40008ACD30008C4D300084CD40008BE
:102C900080B586B000AFF860B9607A60B86805F0BA
:102CA000E7F803467B617B69002B04DC1C49F8686C
:102CB00004F0DAFF31E07B69012B04DD1949F86883
:102CC00004F0D2FF29E00121B86805F09BF8034623
:102CD000184609F0C0F838613B693C2B02DC3B69BF
:102CE000002B04DA1049F86804F0BEFF15E001205B
:102CF000FFF761F80346002B04D00C49F86804F094
:102D0000B3FF0AE03B699BB219460120FEF7C4FEFF
:102D10000749F86804F0A8FF00BF1837BD4680BD1A
:102D200074D300085CD40008ACD3000808D40008B1
:102D30004CD4000880B58AB000AFF860B9607A6002
:102D4000B86805F095F803463B623B6A012B04DC4A
:102D50004849F86804F088FF88E03B6A022B04DDEC
:102D60004549F86804F080FF80E00121B86805F06B
:102D700049F80346184609F06EF803467B610221C4
:102D8000B86805F03FF80346184609F064F80346B2
:102D9000BB617B69012B02DC7B69002B04DA3749BC
:102DA000F86804F061FF61E0BB69012B02DCBB69DC
:102DB000002B04DA3149F86804F056FF56E000238E
:102DC00087F827307B69012B19D10020FEF7D4FF4B
:102DD0000346FB830020FFF72DF8F0EE407AFCEE6F
:102DE000E77A17EE903ABB83FA8BBB8B9A4206D2F6
:102DF0002349F86804F038FF012387F82730BB69BE
:102E0000012B19D10120FEF7B7FF0346FB830120F8
:102E1000FFF710F8F0EE407AFCEEE77A17EE903A02
:102E2000BB83FA8BBB8B9A4206D21649F86804F032
:102E30001BFF012387F8273097F82730012B14D088
:102E40007B69002B14BF01230023D8B2BB69002B80
:102E500014BF01230023D9B201230122FEF750FE43
:102E60000949F86804F000FF00E000BF2837BD46BC
:102E700080BD00BF74D300085CD40008ACD3000848
:102E800078D40008CCD400084CD4000880B588B0B1
:102E900000AFF860B9607A60B86804F0E9FF0346F3
:102EA000FB61FB69012B04DC2749F86804F0DCFEB8
:102EB00046E0FB69022B04DD2449F86804F0D4FEE7
:102EC0003EE00121B86804F09DFF0346184608F073
:102ED000C2FF03467B610221B86804F093FF0346FA
:102EE000184608F0B8FF0346BB617B69012B02DC82
:102EF0007B69002B04DA1649F86804F0B5FE1FE080
:102F0000BB69012B02DCBB69002B04DA1049F868AD
:102F100004F0AAFE14E07B69002B14BF01230023F8
:102F2000DAB2BB69002B14BF01230023DBB21946C0
:102F30001046FEF7C1FE0749F86804F095FE00BF91
:102F40002037BD4680BD00BF74D300085CD40008A4
:102F5000ACD3000820D5000880B596B000AFF8606B
:102F6000B9607A60B86804F083FF03467B657B6DC7
:102F7000002B04D01149F86804F076FE1AE0002016
:102F8000FEF7FAFE0346A7F852300120FEF7F4FEE2
:102F90000346A7F85030B7F85220B7F8503007F181
:102FA0001000074909F016F807F110031946F868F0
:102FB00004F05AFE5837BD4680BD00BF5CD40008FF
:102FC00030D5000880B586B000AFF860B9607A608F
:102FD000B86804F04DFF03467B617B69002B04D089
:102FE0001249F86804F040FE1DE00020FEF7E3FE01
:102FF0000346002B04D00E49F86804F035FE03E0C8
:103000000C49F86804F030FE0120FEF7D4FE0346B8
:10301000002B04D00849F86804F026FE03E00749B5
:10302000F86804F021FE1837BD4680BD5CD4000866
:1030300064D500087CD5000898D50008B0D50008F4
:1030400080B586B000AFF860B9607A60B86804F007
:103050000FFF03467B617B69002B04D01249F8689F
:1030600004F002FE1DE00020FEF7C4FE0346002B24
:1030700004D00E49F86804F0F7FD03E00C49F86845
:1030800004F0F2FD0120FEF7B5FE0346002B04D04C
:103090000849F86804F0E8FD03E00749F86804F01F
:1030A000E3FD1837BD4680BD5CD40008CCD50008D0
:1030B000E8D5000808D6000824D6000880B5A0B0DE
:1030C00000AFF860B9607A60B86804F0D1FE0346DA
:1030D000FB67FB6F002B04D02F49F86804F0C4FD98
:1030E00056E00020FEF748FE0346A7F87A3001209C
:1030F000FEF742FE0346A7F87830B7F87A20B7F813
:10310000783007F11400254908F064FF07F1140333
:103110001946F86804F0A8FD0020FEF74CFE0346AF
:10312000002B04D01E49F86804F09EFD03E01D4901
:10313000F86804F099FD0120FEF73DFE0346002BE0
:1031400004D01949F86804F08FFD03E01749F868C6
:1031500004F08AFD0020FEF74DFE0346002B04D04C
:103160001349F86804F080FD03E01249F86804F0A0
:103170007BFD0120FEF73EFE0346002B04D00E49E6
:10318000F86804F071FD03E00C49F86804F06CFD88
:103190008037BD4680BD00BF5CD4000830D5000834
:1031A00064D500087CD5000898D50008B0D5000883
:1031B000CCD50008E8D5000808D6000824D60008B9
:1031C00080B400AF024B1846BD465DF8047B7047E3
:1031D00020D8000880B400AF0C231846BD465DF827
:1031E000047B704780B584B004AF4FF480530393E1
:1031F0004FF4806302930E4B01930E4B00934723D1
:103200000D4A0E490E4808F0F4FC4FF400620D49D7
:103210000B4804F03FFB03460B4A13600B49084878
:1032200008F060FD0A4B064A1A6000BFBD4680BD2B
:10323000BC060020BC0200200014014044D6000857
:1032400050020020BC160020BC1E002050D60008F2
:103250004C02002080B584B000AF78600BE00D48D0
:1032600008F00CFD0346FB730B4B1B68FA7B114601
:10327000184604F045FC074808F06AFD0346002B99
:10328000EDD1054B1B68184604F05DFC00BF1037FC
:10329000BD4680BD50020020BC1E002080B500AF9E
:1032A00016220021084808F0D1FE074B00221A70B0
:1032B000054B02229A80044B00229A72024B022292
:1032C000DA8100BF80BD00BFC01E002080B582B083
:1032D00000AF03463960FB71FB790F2B02D83B68C6
:1032E000002B01D100230DE0FB79084A52F833107E
:1032F000FB79064ADB0013445B681A46386808F01D
:10330000F9FE012318460837BD4680BD40D90008A4
:1033100080B582B000AF03463960FB71FB790F2B9B
:1033200002D83B68002B01D100230DE0FB79084A4D
:1033300052F83300FB79064ADB0013445B681A46F7
:10334000396808F0D7FE012318460837BD4680BD0E
:1033500040D9000880B5AEB000AFBC4B1B681B78ED
:103360001D2B01F25D8001A252F823F0E533000825
:103370008D340008073500088135000869360008DB
:10338000C5360008214400089B3800085B38000857
:103390001B3800085B3700081F370008314200085F
:1033A000AF42000839430008214400080D390008E5
:1033B000B1430008BD390008A13A0008993B000854
:1033C0006B3D0008CB3D00083D3E00089D3E0008D7
:1033D0009D3F00089D40000831410008A5410008BC
:1033E000EB4100080023BB7507F1170319460320C2
:1033F000FFF76CFF07F1160319460A20FFF766FF77
:10340000FB7D002B02D1BB7D002B0DD0904B1B68A8
:1034100000221A708E4B1B6800225A70022001F0A5
:1034200005F8002300F0FDBF884B1B685B781BB2DA
:103430001B021AB2854B1B689B781BB213431BB24D
:103440007B83824B1B68DB781BB21B021AB27F4B5B
:103450001B681B791BB213431BB23B833A8B7B8BDC
:1034600011461846FEF735FB794B1B6800221A708F
:10347000774B1B6801225A70022000F0D7FF754974
:10348000754808F02FFC012300F0CBBF00237B75AB
:1034900007F1150319460320FFF718FF7B7D002B6A
:1034A0000DD06B4B1B6801221A70694B1B68002200
:1034B0005A70022000F0BAFF002300F0B2BF634B45
:1034C0001B685B781BB21B021AB2604B1B689B78AF
:1034D0001BB213431BB2BB83BB8B19460020FEF704
:1034E000DBFA5B4B1B6801221A70594B1B680122E7
:1034F0005A70022000F09AFF5849574808F0F2FB32
:10350000012300F08EBF00233B7507F11403194619
:103510000A20FFF7DBFE3B7D002B0DD04C4B1B68D8
:1035200002221A704A4B1B6800225A70022000F0D7
:103530007DFF002300F075BF444B1B685B781BB216
:103540001B021AB2414B1B689B781BB213431BB280
:10355000FB83FB8B19460120FEF79EFA3C4B1B6850
:1035600002221A703A4B1B6801225A70022000F0A6
:103570005DFF3B49384808F0B5FB012300F051BF1F
:1035800000237B8200233B8207F1120319460120AE
:10359000FFF79CFE07F1100319460820FFF796FE7F
:1035A0000020FEF747FCF0EE407AFCEEE77A17EEDB
:1035B000903ABB840120FEF73DFCF0EE407AFCEE31
:1035C000E77A17EE903A7B847B8ABA8C9A4203D2D0
:1035D0003B8A7A8C9A420DD31D4B1B6803221A70CA
:1035E0001B4B1B6800225A70022000F01FFF0023B3
:1035F00000F017BF154B1B685B78002B14BF01232D
:10360000002387F82130114B1B689B78002B14BFD7
:103610000123002387F8203097F8201097F8210025
:1036200001230122FEF76CFA094B1B6803221A7072
:10363000074B1B6801225A70022000F0F7FE09496F
:10364000054808F04FFB012300F0EBBEB401002059
:10365000B001002058D60008500200207CD6000897
:1036600098D60008B4D60008A34B1B685B7887F88F
:103670002730A14B1B689B7887F8263097F82730B6
:10368000002B14BF01230023DAB297F82630002B59
:1036900014BF01230023DBB219461046FEF70CFBD2
:1036A000964B1B6804221A70944B1B6801225A70B7
:1036B000022000F0BBFE9249924808F013FB012360
:1036C00000F0AFBE8C4B1B685B78002B14BF01234E
:1036D0000023DBB2FB73884B1B689B78002B14BF65
:1036E00001230023DBB2BB73FB7B83F00103DBB25E
:1036F000002B05D007F10F0319460520FFF708FE40
:10370000BB7B83F00103DBB2002B05D007F10E0376
:1037100019460C20FFF7FCFD012300F082BE07F1E3
:103720000D0319460520FFF7D1FD07F10C031946DB
:103730000C20FFF7CBFD714B1B680B221A707A7BB4
:103740006E4B1B685A703A7B6C4B1B689A70032057
:1037500000F06CFE012300F064BE0023FB86002312
:1037600087F83530002387F834300020FEF704FB5B
:1037700003467B860120FEF7FFFA0346FB86002006
:10378000FEF719FB034687F831300020FEF732FBC5
:10379000034687F835300120FEF70DFB034687F816
:1037A00030300120FEF726FB034687F83430534BB8
:1037B0001B680A221A707B8E1B0A9AB24F4B1B6839
:1037C000D2B25A704D4B1B687A8ED2B29A70FB8E71
:1037D0001B0A9AB2494B1B68D2B2DA70474B1B687E
:1037E000FA8ED2B21A71454B1B6897F831205A7184
:1037F000424B1B6897F83520DA71404B1B6897F8ED
:1038000030209A713D4B1B6897F834201A720920BA
:1038100000F00CFE012300F004BE0020FEF7CBFAFE
:10382000034687F82F300120FEF7C5FA034687F8D4
:103830002E30324B1B6809221A70304B1B6897F8E8
:103840002F205A702D4B1B6897F82E209A7003205A
:1038500000F0ECFD012300F0E4BD0020FEF7CAFA01
:10386000034687F82D300120FEF7C4FA034687F897
:103870002C30224B1B6808221A70204B1B6897F8CB
:103880002D205A701D4B1B6897F82C209A7003202E
:1038900000F0CCFD012300F0C4BD00237B85002097
:1038A000FEF76AFA03463B850120FEF765FA0346F8
:1038B0007B85124B1B6807221A703B8D1B0A9AB23C
:1038C0000E4B1B68D2B25A700C4B1B683A8DD2B2A9
:1038D0009A707B8D1B0A9AB2084B1B68D2B2DA70C1
:1038E000064B1B687A8DD2B21A71052000F09EFD3E
:1038F000012300F096BD00BFB4010020B0010020FC
:10390000D0D600085002002000007A440020FEF7C4
:1039100091FAF0EE407A1FED047A67EE877AC7EDF0
:10392000167A0120FEF786FAF0EE407A1FED0A7A49
:1039300067EE877AC7ED157AD7ED167AFCEEE77A4F
:1039400017EE903A3B65D7ED157AFCEEE77A17EE65
:10395000903AA7F84E308B4B1B6810221A70894B97
:103960001B683A6DD2B25A703B6D1A0A854B1B68C0
:10397000D2B29A703B6D1A0C824B1B68D2B2DA70CD
:103980003B6D1A0E7F4B1B68D2B21A717D4B1B68C0
:10399000B7F84E20D2B25A71B7F84E301B0A9AB21D
:1039A000784B1B68D2B29A71072000F03FFD764930
:1039B000764808F097F9012300F033BD744BD3ED3E
:1039C000087A9FED747A67EE877AFDEEE77A17EE54
:1039D000903A7B666E4BD3ED097A9FED6E7A67EE77
:1039E000877AFDEEE77A17EE903A3B66684BD3EDA7
:1039F0000A7A9FED687A67EE877AFDEEE77A17EE2E
:103A0000903AFB655F4B1B6812221A705D4B1B6876
:103A10007A6ED2B25A707B6E1A125A4B1B68D2B2AF
:103A20009A707B6E1A14574B1B68D2B2DA707B6E99
:103A30001A16544B1B68D2B21A71524B1B683A6E5D
:103A4000D2B25A713B6E1A124E4B1B68D2B29A71A7
:103A50003B6E1A144B4B1B68D2B2DA713B6E1A16CE
:103A6000484B1B68D2B21A72464B1B68FA6DD2B231
:103A70005A72FB6D1A12434B1B68D2B29A72FB6DDD
:103A80001A14404B1B68D2B2DA72FB6D1A163D4B0A
:103A90001B68D2B21A730D2000F0C8FC00F0C1BC44
:103AA0003B4BD3ED057A9FED3B7A67EE877AFDEECF
:103AB000E77A17EE903A3B67354BD3ED067A9FEDE8
:103AC000357A67EE877AFDEEE77A17EE903AFB6675
:103AD0002F4BD3ED077A9FED2F7A67EE877AFDEEB5
:103AE000E77A17EE903ABB66264B1B6813221A70D2
:103AF000244B1B683A6FD2B25A733B6F1A12214B98
:103B00001B68D2B29A733B6F1A141E4B1B68D2B259
:103B1000DA733B6F1A161B4B1B68D2B21A74194B1F
:103B20001B68FA6ED2B25A74FB6E1A12154B1B68E0
:103B3000D2B29A74FB6E1A14124B1B68D2B2DA74AA
:103B4000FB6E1A160F4B1B68D2B21A750D4B1B6811
:103B5000BA6ED2B25A75BB6E1A120A4B1B68D2B239
:103B60009A75BB6E1A14074B1B68D2B2DA75BB6E1E
:103B70001A16044B1B68D2B21A76192000F056FCB4
:103B800000F04FBCB0010020F0D600085002002029
:103B9000904D002000007A44A44BD3ED087A9FEDAD
:103BA000A47A67EE877AFDEEE77A17EE903AC7F8C7
:103BB00088309E4BD3ED097A9FED9D7A67EE877A28
:103BC000FDEEE77A17EE903AC7F88430974BD3EDC5
:103BD0000A7A9FED977A67EE877AFDEEE77A17EE1D
:103BE000903AC7F88030914BD3ED057A9FED907AEB
:103BF00067EE877AFDEEE77A17EE903AFB678B4B1C
:103C0000D3ED067A9FED8A7A67EE877AFDEEE77A42
:103C100017EE903ABB67854BD3ED077A9FED847A18
:103C200067EE877AFDEEE77A17EE903A7B67814B75
:103C30001B6814221A707F4B1B68D7F88820D2B2F9
:103C40005A70D7F888301A127A4B1B68D2B29A7021
:103C5000D7F888301A14774B1B68D2B2DA70D7F8CD
:103C600088301A16734B1B68D2B21A71714B1B68DD
:103C7000D7F88420D2B25A71D7F884301A126D4B1B
:103C80001B68D2B29A71D7F884301A14694B1B683A
:103C9000D2B2DA71D7F884301A16664B1B68D2B2EA
:103CA0001A72644B1B68D7F88020D2B25A72D7F8C8
:103CB00080301A125F4B1B68D2B29A72D7F88030EC
:103CC0001A145C4B1B68D2B2DA72D7F880301A161D
:103CD000584B1B68D2B21A73564B1B68FA6FD2B29C
:103CE0005A73FB6F1A12534B1B68D2B29A73FB6F55
:103CF0001A14504B1B68D2B2DA73FB6F1A164D4B75
:103D00001B68D2B21A744B4B1B68BA6FD2B25A748A
:103D1000BB6F1A12474B1B68D2B29A74BB6F1A144E
:103D2000444B1B68D2B2DA74BB6F1A16414B1B6846
:103D3000D2B21A753F4B1B687A6FD2B25A757B6F3D
:103D40001A123C4B1B68D2B29A757B6F1A14394B0E
:103D50001B68D2B2DA757B6F1A16364B1B68D2B26B
:103D60001A76192000F062FB5BE3334BD3ED177A30
:103D70009FED2F7A67EE877AFDEEE77A17EE903A9D
:103D8000C7F88C302B4B1B6815221A70294B1B6807
:103D9000D7F88C20D2B25A70D7F88C301A12254B33
:103DA0001B68D2B29A70D7F88C301A14214B1B685A
:103DB000D2B2DA70D7F88C301A161E4B1B68D2B20A
:103DC0001A710D2000F032FB2BE31B4BD3ED187A58
:103DD0009FED177A67EE877AFDEEE77A17EE903A55
:103DE000C7F89030134B1B6816221A70114B1B68D2
:103DF000D7F89020D2B25A71D7F890301A120D4BE2
:103E00001B68D2B29A71D7F890301A14094B1B680C
:103E1000D2B2DA71D7F890301A16064B1B68D2B2BC
:103E20001A720D2000F002FBFBE200BF904D002053
:103E300000007A44B0010020BC4D0020B74BD3ED08
:103E4000197A9FEDB77A67EE877AFDEEE77A17EE7B
:103E5000903AC7F89430B34B1B6817221A70B14BD5
:103E60001B68D7F89420D2B25A72D7F894301A123D
:103E7000AC4B1B68D2B29A72D7F894301A14A94B83
:103E80001B68D2B2DA72D7F894301A16A54B1B68A9
:103E9000D2B21A730D2000F0C9FAC2E29F4BD3EDE3
:103EA000177A9FED9F7A67EE877AFDEEE77A17EE35
:103EB000903AC7F8A030994BD3ED187A9FED987AD5
:103EC00067EE877AFDEEE77A17EE903AC7F89C30F6
:103ED000924BD3ED197A9FED927A67EE877AFDEED9
:103EE000E77A17EE903AC7F898308E4B1B68182285
:103EF0001A708C4B1B68D7F8A020D2B25A70D7F832
:103F0000A0301A12874B1B68D2B29A70D7F8A03033
:103F10001A14844B1B68D2B2DA70D7F8A0301A1684
:103F2000804B1B68D2B21A717E4B1B68D7F89C205D
:103F3000D2B25A71D7F89C301A127A4B1B68D2B29F
:103F40009A71D7F89C301A14764B1B68D2B2DA718A
:103F5000D7F89C301A16734B1B68D2B21A72714B89
:103F60001B68D7F89820D2B25A72D7F898301A1234
:103F70006C4B1B68D2B29A72D7F898301A14694BFE
:103F80001B68D2B2DA72D7F898301A16654B1B68E4
:103F9000D2B21A730D2000F049FA42E2624BD3ED1F
:103FA000057A9FED5F7A67EE877AFDEEE77A17EE86
:103FB000903AC7F8AC305C4BD3ED067A9FED587A57
:103FC00067EE877AFDEEE77A17EE903AC7F8A830E9
:103FD000554BD3ED077A9FED527A67EE877AFDEE67
:103FE000E77A17EE903AC7F8A4304E4B1B681922B7
:103FF0001A704C4B1B68D7F8AC20D2B25A70D7F865
:10400000AC301A12474B1B68D2B29A70D7F8AC305A
:104010001A14444B1B68D2B2DA70D7F8AC301A16B7
:10402000404B1B68D2B21A713E4B1B68D7F8A820D0
:10403000D2B25A71D7F8A8301A123A4B1B68D2B2D2
:104040009A71D7F8A8301A14364B1B68D2B2DA71BD
:10405000D7F8A8301A16334B1B68D2B21A72314BFC
:104060001B68D7F8A420D2B25A72D7F8A4301A121B
:104070002C4B1B68D2B29A72D7F8A4301A14294B71
:104080001B68D2B2DA72D7F8A4301A16254B1B6817
:10409000D2B21A730D2000F0C9F9C2E1002387F8EB
:1040A000B730224B1B685B7887F8B03097F8B03098
:1040B000012B07D100211C4805F040FC034687F87E
:1040C000B73016E097F8B030022B07D11021164810
:1040D00005F034FC034687F8B7300AE097F8B030B3
:1040E000042B06D13021104805F028FC034687F840
:1040F000B7300C4B1B681A221A7097F8B730002B98
:1041000004D0084B1B6800229A7003E0054B1B6823
:1041100001229A70032000F089F982E1BC4D002051
:1041200000007A44B00100202C4E0020B401002091
:10413000002387F8B1300023FB7207F10B03194607
:10414000AE4805F045FC034687F8B130AC4B1B6820
:104150001B221A7097F8B130002B04D0A84B1B68B3
:1041600000229A7003E0A64B1B6801229A70FB7A2A
:10417000002B04D1A24B1B6801225A700EE0FB7A7F
:10418000102B04D19E4B1B6802225A7006E0FB7A6A
:10419000302B03D19A4B1B6804225A70032000F085
:1041A00045F93EE1974BD3ED037A9FED977A67EEA1
:1041B000877AFCEEE77A17EE903AA7F8B230904B88
:1041C0001B681C221A70B7F8B2301B0A9AB28C4BCB
:1041D0001B68D2B25A708A4B1B68B7F8B220D2B2B1
:1041E0009A70032000F022F91BE1884BD3ED037A8B
:1041F0009FED857A67EE877AFCEEE77A17EE903AC4
:10420000A7F8B4307E4B1B681D221A70B7F8B43083
:104210001B0A9AB27A4B1B68D2B25A70784B1B6851
:10422000B7F8B420D2B29A70032000F0FFF8F8E09B
:10423000002387F84330764B1B685B7B1A46744B30
:104240001B689B7B1B021A43714B1B68DB7B1B04A7
:104250001A436F4B1B681B7C1B061343FB63FB6BF2
:1042600007EE903AB8EEE77ADFED6A6AC7EE267A93
:10427000C7ED0E7A97ED0E0A604805F03DFC034647
:1042800087F843305E4B1B680C221A7097F8433056
:10429000002B04D05A4B1B6800225A7403E0584B81
:1042A0001B6801225A74122000F0C0F8B9E0002304
:1042B00087F84B304FF000037B603B1D19464F4899
:1042C00005F092FC034687F84B30D7ED017A9FED5D
:1042D000517A67EE877AFDEEE77A17EE903A7B64C3
:1042E000474B1B680D221A7097F84B30002B04D0F7
:1042F000434B1B6800225A701AE0414B1B68012295
:104300005A703F4B1B687A6CD2B29A737B6C1A124C
:104310003B4B1B68D2B2DA737B6C1A14384B1B68A8
:10432000D2B21A747B6C1A16354B1B68D2B25A740F
:10433000122000F07BF874E0002387F84D30344BF6
:104340001B685B78002B14BF0123002387F84C30D7
:1043500097F84C30002B03D02F4B01221A7009E044
:1043600097F84C3083F00103DBB2002B02D02A4BCC
:1043700000221A7097F84C301946204805F09AFC34
:10438000034687F84D301E4B1B680E221A7097F8B3
:104390004D30002B04D01A4B1B6800229A7003E0AA
:1043A000174B1B6801229A70032000F03FF838E099
:1043B000134B1B6811221A70114B1B68174A927815
:1043C0005A700F4B1B68154A12789A700C4B1B6879
:1043D000124A5278DA700A4B1B68104AD2781A7166
:1043E000074B1B680D4A12795A71054B1B680B4A23
:1043F00052799A71072000F019F812E02C4E002033
:10440000B0010020504E00200000C842604E002045
:10441000B401002000007A4448020020584D0020DA
:1044200000BF1846B837BD4680BD00BF80B58CB010
:1044300000AF0346FB711E4BCA221A701D4B1A783F
:104440001B4B5A701A4B02229A70194AFB79D3708F
:10445000174B07221A71164BEF2283F80021144BD9
:10446000DB780433DBB21A461349002005F090FED6
:1044700003461A460E4BA3F8FE2007F10C03232235
:104480000021184607F0E2FD07F10B0207F10C03CB
:104490001946074805F0C8FEFA7A07F10C031946D9
:1044A000064807F037FC00BF3037BD4680BD00BF6F
:1044B00044470020944E002045470020D81E00208D
:1044C00080B584B004AF4FF4A05303934FF4A053CE
:1044D0000293124B0193124B00932523114A124968
:1044E000124807F086FB124B124A5A60104B4FF4E9
:1044F00080621A800E4B00221A810D4B1B88002B04
:1045000006D00B4B5B6804220021184607F09EFD85
:10451000012005F079FE00BFBD4680BD4433002078
:10452000441F00200010014004D70008D81E0020BE
:104530004C4900205849002080B584B000AF786015
:104540000023FB733223FB7347E02A4807F096FBF6
:104550000346DAB2284B9A72274B9B7ADBB2CA2BFE
:1045600003D1254B00221A8134E0234B9B7ADBB226
:10457000EF2B14D1204B5B681F4A128992B2D1B243
:104580001E4A184605F086FF0346BB73BB7B012B12
:1045900001D1FEF7DFFE184B00221A811AE0164BFC
:1045A0005B68154A128992B21344134A927AD2B2C6
:1045B0001A70114B1B899BB201339AB20E4B1A81B0
:1045C0000D4B1B899AB20C4B1B889A4202D90A4B9D
:1045D00000221A81FB7B013BFB73064807F0B8FB06
:1045E0000346002B02D0FB7B002BAED100BF10375F
:1045F000BD4680BDD81E00204C4900204848002000
:1046000080B500AF9FED0A0A0A4A0B490B4805F036
:1046100031FD0B4B0122DA709FED050A094A06496C
:10462000094805F027FD064B01221A7100BF80BD25
:1046300000404E450F00F00000210140604E002078
:10464000584D00200E00C000504E002080B584B0B0
:1046500002AF0023FB714FF400730093274B4FF41C
:1046600080722649264806F065FD4FF400730093DA
:10467000244B4FF480722449244806F05BFDC82087
:1046800003F0BEF822491E4806F04FFA21491F48A0
:1046900006F04BFA1A49204805F073FB0346FB71FC
:1046A000FB79002B03D11D4B01221A7002E01B4B3A
:1046B00000221A7015491A4805F010F80346FB71DC
:1046C000FB79002B03D1154B01229A7002E0134BAA
:1046D00000229A700A49134805F0DAF80346FB7184
:1046E000FB79002B03D10D4B01225A7002E00B4BDA
:1046F00000225A7000BF0837BD4680BD000402404A
:10470000604D00200008024000000240784D00206B
:1047100000540040005C0040904D0020584D0020A7
:10472000BC4D00202C4E002080B582B000AF7860D8
:10473000094805F0FBFCF0EE407A074BC3ED037A25
:10474000064805F0F3FCF0EE407A044BC3ED037A23
:1047500000BF0837BD4680BD504E0020604E00208F
:1047600080B586B002AF78600023FB73544B1B7892
:10477000072B00F29C8001A252F823F09D4700080D
:10478000AF48000821480008AF480008DF4700088C
:10479000AF4800086348000889480008494B1B7867
:1047A000002B18D0484805F027FB0346FB73FB7B22
:1047B000002B0DD0454B1B780133DAB2434B1A70F6
:1047C000424B1B78032B06D93D4B06221A7072E030
:1047D0003E4B00221A703A4B04221A706BE0394BA0
:1047E0009B78002B18D03A4804F0DDFF0346FB739A
:1047F000FB7B002B0DD0374B1B780133DAB2354BE6
:104800001A70344B1B78012B06D92D4B07221A70D6
:1048100051E0304B00221A70294B02221A704AE0F4
:10482000284B5B78002B18D02B4805F0F1F8034695
:10483000FB73FB7B002B0DD0244B1B780133DAB2CA
:10484000224B1A70214B1B78032B06D91C4B0622D6
:104850001A7030E01D4B00221A70194B00221A709A
:1048600029E04FF4007300931C4B4FF480721B49F6
:104870001B4806F05FFC00F0DDFC144B00221A70B0
:104880000F4B04221A7016E04FF400730093154B7F
:104890004FF480721449154806F04CFC00F0D0FC2F
:1048A0000C4B00221A70064B02221A7003E0044BD4
:1048B00000221A7000BF00BF1037BD4680BD00BF88
:1048C0005E4D0020584D0020904D0020704E00207D
:1048D000BC4D0020714E00202C4E002000040240F0
:1048E000604D00200008024000000240784D00208A
:1048F00080B485B000AF78607B6803F00703FB608D
:104900000C4BDB68BB60BA684FF6FF031340BB601B
:10491000FB681A02BB68134343F0BF6343F40033E0
:10492000BB60044ABB68D36000BF1437BD465DF866
:10493000047B704700ED00E080B400AF044BDB68FF
:104940001B0A03F007031846BD465DF8047B704759
:1049500000ED00E080B483B000AF0346FB7197F92F
:104960000730002B0BDBFB7903F01F02074997F997
:1049700007305B09012000FA02F241F8232000BF52
:104980000C37BD465DF8047B704700BF00E100E0D6
:1049900080B483B000AF03463960FB7197F90730EC
:1049A000002B0ADB3B68DAB20C4997F90730120199
:1049B000D2B20B4483F800230AE03B68DAB208491C
:1049C000FB7903F00F03043B1201D2B20B441A76B9
:1049D00000BF0C37BD465DF8047B704700E100E086
:1049E00000ED00E080B489B000AFF860B9607A6093
:1049F000FB6803F00703FB61FB69C3F10703042BAA
:104A000028BF0423BB61FB690433062B02D9FB6971
:104A1000033B00E000237B614FF0FF32BB6902FAE9
:104A200003F3DA43BB681A407B699A404FF0FF31C9
:104A30007B6901FA03F3D9437B680B4013431846A3
:104A40002437BD465DF8047B704780B489B000AF61
:104A5000F860B9607A60FB682C331946BB6803F4D0
:104A600040734FF440727A617A6992FAA2F23A6125
:104A70003A69BA61BA69002A01D1202203E0BA6911
:104A8000B2FA82F2D2B2D3409B000B44FB61FB69C5
:104A90001A68BB6803F01F031F2101FA03F3DB430D
:104AA0001A407B6803F01F01BB6803F01F0301FA83
:104AB00003F31A43FB691A6000BF2437BD465DF853
:104AC000047B704780B483B000AF786039607B6846
:104AD0009B6823F480623B681A437B689A6000BF3E
:104AE0000C37BD465DF8047B704780B48FB000AFD3
:104AF000F860B9607A60FB680C331946BB6803F054
:104B000000734FF000727A617A6992FAA2F23A6108
:104B10003A69BA61BA69002A01D1202203E0BA6970
:104B2000B2FA82F2D2B2D3409B000B447B637B6B20
:104B30001A68BB6803F0F8734FF0F8713962396A8C
:104B400091FAA1F1F961F9697962796A002901D1D3
:104B5000202103E0796AB1FA81F1C9B2CB40072183
:104B600001FA03F3DB431A40BB6803F0F8734FF01C
:104B7000F871F962F96A91FAA1F1B962B96A396317
:104B8000396B002901D1202103E0396BB1FA81F1A1
:104B9000C9B2CB40796801FA03F31A437B6B1A6000
:104BA00000BF3C37BD465DF8047B704780B483B0DE
:104BB00000AF78607B681B6823F080027B681A6016
:104BC00000BF0C37BD465DF8047B704780B483B0EE
:104BD00000AF78607B681B6823F040027B681A6036
:104BE00000BF0C37BD465DF8047B704780B483B0CE
:104BF00000AF786039607B68DB6823F0FE023B68B9
:104C00001A437B68DA6000BF0C37BD465DF8047B51
:104C1000704780B483B000AF78607B68DB6823F0B6
:104C200001027B68DA6000BF0C37BD465DF8047B8B
:104C30007047000080B400AF054B1B68044A43F482
:104C40008033136000BFBD465DF8047B704700BF32
:104C50000038024080B400AF074B1B6803F40033F8
:104C6000B3F5003F0CBF01230023DBB21846BD465D
:104C70005DF8047B704700BF0038024080B483B009
:104C800000AF7860064B9B6823F0030204497B6801
:104C900013438B6000BF0C37BD465DF8047B704743
:104CA0000038024080B400AF044B9B6803F00C0353
:104CB0001846BD465DF8047B704700BF00380240CF
:104CC00080B483B000AF7860064B9B6823F0F0029D
:104CD00004497B6813438B6000BF0C37BD465DF809
:104CE000047B70470038024080B483B000AF786026
:104CF000064B9B6823F4E05204497B6813438B60A6
:104D000000BF0C37BD465DF8047B70470038024099
:104D100080B483B000AF7860064B9B6823F4604298
:104D200004497B6813438B6000BF0C37BD465DF8B8
:104D3000047B70470038024080B400AF054B1B680D
:104D4000044A43F08073136000BFBD465DF8047BE6
:104D5000704700BF0038024080B400AF074B1B68AB
:104D600003F00073B3F1007F0CBF01230023DBB21B
:104D70001846BD465DF8047B704700BF003802400E
:104D800080B485B000AFF860B9607A603B600D4BCD
:104D90005A680D4B1340F968BA6811437A6892015A
:104DA0000A43084913434B60064B5B6823F44032C7
:104DB00004493B6813434B6000BF1437BD465DF8A0
:104DC000047B7047003802400080BFFF80B485B08C
:104DD00000AF7860084B1A6B07497B6813430B637D
:104DE000054B1A6B7B681340FB60FB6800BF1437F0
:104DF000BD465DF8047B70470038024080B485B042
:104E000000AF7860084B1A6C07497B6813430B644A
:104E1000054B1A6C7B681340FB60FB6800BF1437BE
:104E2000BD465DF8047B70470038024080B485B011
:104E300000AF7860084B5A6C07497B6813434B649A
:104E4000054B5A6C7B681340FB60FB6800BF14374E
:104E5000BD465DF8047B70470038024080B487B0DF
:104E600000AF78603960174A3B68DBB2023352F812
:104E700023203B681B0CDB4302EA03013B681B0C4D
:104E80003B613B6993FAA3F3FB60FB687B617B6941
:104E9000002B01D1202303E07B69B3FA83F3DBB25B
:104EA0001A467B6803FA02F206483B68DBB20A4303
:104EB000023340F8232000BF1C37BD465DF8047B59
:104EC000704700BF0038014080B483B000AF786005
:104ED000064B1B6823F0070204497B6813430B60F1
:104EE00000BF0C37BD465DF8047B7047003C0240B4
:104EF00080B400AF044B1B6803F007031846BD469F
:104F00005DF8047B704700BF003C024080B483B072
:104F100000AF7860064B1B6823F4804204497B682D
:104F200013430B6000BF0C37BD465DF8047B704730
:104F30000070004080B400AF074B5B6803F480430F
:104F4000B3F5804F0CBF01230023DBB21846BD46EA
:104F50005DF8047B704700BF0070004080B483B0F0
:104F600000AF78607B681B6823F080027B681A6062
:104F700000BF0C37BD465DF8047B704780B485B038
:104F800000AF786039603B68012B1CD03B68042B74
:104F900017D03B68102B12D03B68402B0DD03B68DC
:104FA000B3F5807F07D03B68B3F5806F01D105234F
:104FB0000AE0062308E0042306E0032304E00223BA
:104FC00002E0012300E00023FB737B6818331946DD
:104FD000FB7B0B4AD35C0B44BB60BB681A68FB7B52
:104FE0000849CB5C194604238B40DB431A40BB685D
:104FF0001A6000BF1437BD465DF8047B704700BFE0
:10500000C0D90008C8D9000880B485B000AF786066
:1050100039603B68012B1CD03B68042B17D03B68E0
:10502000102B12D03B68402B0DD03B68B3F5807F2E
:1050300007D03B68B3F5806F01D105230AE0062352
:1050400008E0042306E0032304E0022302E0012336
:1050500000E00023FB737B6818331946FB7B0A4A88
:10506000D35C0B44BB60BB681A68FB7B0749CB5C15
:10507000194608238B401A43BB681A6000BF1437D7
:10508000BD465DF8047B7047C0D90008C8D9000848
:1050900080B483B000AF786039607B685B6823F0D0
:1050A00070023B681A437B685A6000BF0C37BD46EC
:1050B0005DF8047B704780B483B000AF78607B6894
:1050C0009B6823F080027B689A6000BF0C37BD4666
:1050D0005DF8047B704780B483B000AF78607B6874
:1050E000DB6843F400527B68DA6000BF0C37BD46D2
:1050F0005DF8047B704780B483B000AF78607B6854
:105100001B6923F490427B681A617B685B6923F01A
:105110002A027B685A6100BF0C37BD465DF8047BEC
:10512000704780B48BB000AFF860B9607A60FB68FC
:105130001A68BB687B617B6993FAA3F33B613B69A7
:10514000BB61BB69002B01D1202303E0BB69B3FA2B
:1051500083F3DBB25B00032101FA03F3DB431A4064
:10516000BB683B623B6A93FAA3F3FB61FB697B621A
:105170007B6A002B01D1202303E07B6AB3FA83F31F
:10518000DBB25B00796801FA03F31A43FB681A602B
:1051900000BF2C37BD465DF8047B704780B48BB0F0
:1051A00000AFF860B9607A60FB68DA68BB687B6161
:1051B0007B6993FAA3F33B613B69BB61BB69002B3D
:1051C00001D1202303E0BB69B3FA83F3DBB25B00B8
:1051D000032101FA03F3DB431A40BB683B623B6ADD
:1051E00093FAA3F3FB61FB697B627B6A002B01D11D
:1051F000202303E07B6AB3FA83F3DBB25B007968B8
:1052000001FA03F31A43FB68DA6000BF2C37BD468E
:105210005DF8047B704780B483B000AF786039607C
:105220003B681A047B689A6100BF0C37BD465DF885
:10523000047B704780B500AF00F07AF900BF80BDF5
:1052400080B500AF00F0CCF900BF80BD80B500AFE5
:105250004FF48040FFF7EAFD4FF08050FFF7CEFD9E
:105260000320FFF745FBFFF767FB034600220F21F2
:105270001846FFF7B7FB034619464FF0FF30FFF71C
:1052800087FB00F017F800F0FDFB00F05BF800F082
:1052900017FA00F0ABFA00F085FB00F013FB00F00A
:1052A00047F900F09DF900F0D1F8FBF705FE00BFCB
:1052B000FDE7000080B500AF0120FFF705FE00BF4D
:1052C000FFF716FE0346012BFAD14FF48040FFF79B
:1052D0001DFEFFF7AFFC00BFFFF7BCFC0346012B30
:1052E000FAD10023482204214FF48000FFF748FD43
:1052F000FFF722FD00BFFFF72FFD0346012BFAD178
:1053000000BFFFF717FE0346002BFAD08020FFF7FF
:10531000D7FC0020FFF7E8FC0020FFF7F9FC022093
:10532000FFF7ACFC00BFFFF7BDFC0346082BFAD12A
:10533000034802F057FA024802F088FA00BF80BD25
:105340000051250280B592B000AF07F13C03002266
:105350001A605A609A6007F1280300221A605A60A6
:105360009A60DA601A6107F1180300221A605A6025
:105370009A60DA603B4600221A605A609A60DA60EE
:105380001A615A614FF48070FFF750FD0420FFF757
:105390001DFD05233B6003237B6000233B613B46EF
:1053A0001946274801F0A4F8FFF7C6FA0346002281
:1053B00003211846FFF716FB034619461220FFF794
:1053C000E7FA1220FFF7C6FA0023FB6300233B64D1
:1053D00000237B6407F13C0319461A4800F0B8FD2E
:1053E0000023BB620023FB6200233B6300237B633B
:1053F0000023BB6307F128031946124800F0D4FDCF
:105400004FF480610F48FFF75DFB4FF48033BB61C1
:105410000023FB6107F1180319460B4800F050FD0B
:105420000A224FF400710748FFF70FFB00220A2100
:105430000448FFF75AFB00BF4837BD4680BD00BF98
:1054400000080240002001400023014080B58EB0DA
:1054500000AF07F12C0300221A605A609A6007F12E
:10546000180300221A605A609A60DA601A613B469B
:1054700000221A605A609A60DA601A615A614FF429
:105480000070FFF7D3FC0420FFF7A0FC30233B6043
:1054900003237B6000233B613B461946214801F012
:1054A00027F8FFF749FA0346002203211846FFF7C1
:1054B00099FA034619461220FFF76AFA1220FFF7FD
:1054C00049FA0023FB6200233B6300237B6307F15F
:1054D0002C031946144800F03BFD0023BB61002358
:1054E000FB6100233B6200237B620023BB6207F168
:1054F000180319460C4800F057FD4FF480610A4824
:10550000FFF7E0FA094A4FF400710748FFF79DFAE8
:10551000002206490448FFF7E8FA00BF3837BD46C5
:1055200080BD00BF00080240002101400E00C00005
:1055300080B58CB000AF07F1180300221A605A60E2
:105540009A60DA601A615A613B4600221A605A601A
:105550009A60DA601A615A610220FFF737FC4FF453
:1055600040733B6002237B600323BB600123FB602D
:1055700000233B6104237B613B461946164800F03B
:10558000B7FF4FF40010FFF739FC1448FFF741FB59
:105590001248FFF71BFB1148FFF708FB0023BB6114
:1055A0004CF25033FB6100233B6200237B624FF4DB
:1055B0008063BB624FF48043FB6207F11803194616
:1055C000064801F06DF900210448FFF70FFB00BF0A
:1055D0003037BD4680BD00BF00040240005400408B
:1055E00080B58CB000AF07F1180300221A605A6032
:1055F0009A60DA601A615A613B4600221A605A606A
:105600009A60DA601A615A610420FFF7DFFB01201B
:10561000FFF7DCFB4FF400733B6002237B60032346
:10562000BB600123FB6000233B6104237B613B469D
:1056300019461F4800F05CFF4FF480733B60022363
:105640007B600323BB600123FB6000233B610423D9
:105650007B613B461946174800F04AFF4FF40000B3
:10566000FFF7CCFB1448FFF7D4FA1348FFF7AEFA64
:105670001148FFF79BFA0023BB61104BFB6100232D
:105680003B6200237B624FF48063BB624FF4804334
:10569000FB6207F118031946074801F001F90021E0
:1056A0000548FFF7A3FA00BF3037BD4680BD00BFF5
:1056B0000008024000000240005C0040A08601009B
:1056C00080B59AB000AF07F1540300221A605A6007
:1056D0009A60DA601A6107F134032022002118462B
:1056E00006F0B4FC07F11C0300221A605A609A60AD
:1056F000DA601A615A613B1D00221A605A609A6092
:10570000DA601A615A610120FFF790FB0023A7F8C5
:1057100054300023BB654FF6FF73FB6500233B66E7
:1057200000237B6607F1540319462E4801F096FAD0
:105730002C48FFF713FC4FF480512A48FFF764FC14
:1057400060237B630023BB630023FB6300233B6474
:1057500000237B640023FB6400233B6507F13403D3
:105760001A464FF480511F4801F012FB4FF480514C
:105770001C48FFF703FC00211A48FFF789FC194871
:10578000FFF799FC0023FB6100233B6200237B624F
:10579000002387F8283000237B854FF40053FB62F9
:1057A00000233B6307F11C0319460E4801F031FB4F
:1057B0000120FFF70BFB4FF400637B600223BB600B
:1057C0000023FB6000233B6100237B610123BB615D
:1057D0003B1D1946044800F08BFE00BF6837BD46EC
:1057E00080BD00BF000001400000024080B594B0C1
:1057F00000AF07F13C0300221A605A609A60DA6039
:105800001A6107F11C0320220021184606F01EFC35
:105810003B1D00221A605A609A60DA601A615A6170
:105820000220FFF7EBFA0023BB8700233B644FF60F
:10583000FF737B640023BB6407F13C0319461F48D8
:1058400001F00CFA1D48FFF789FB10211B48FFF7F8
:10585000DBFB6023FB6100233B6200237B620023B0
:10586000BB620023FB6207F11C031A461021134898
:1058700001F08EFA10211148FFF780FB00210F483C
:10588000FFF706FC0D48FFF716FC0220FFF79EFA13
:1058900020237B600223BB600023FB6000233B616D
:1058A00000237B610223BB613B1D1946044800F0C5
:1058B0001FFE00BF5037BD4680BD00BF0004004042
:1058C0000004024080B58EB000AF07F11C03002237
:1058D0001A605A609A60DA601A615A619A613B1DD7
:1058E00000221A605A609A60DA601A615A611020C8
:1058F000FFF79CFA0220FFF769FA40237B6002233E
:10590000BB600323FB6000233B6100237B61072313
:10591000BB613B1D1946214800F0EAFD80237B60F6
:105920000223BB600323FB6000233B6101237B61F7
:105930000723BB613B1D1946184800F0D9FDFEF74F
:10594000FBFF0346002202211846FFF74BF80346EF
:1059500019462520FFF71CF82520FEF7FBFF4FF422
:10596000E133FB6100233B6200237B620023BB62C7
:105970000C23FB6200233B6300237B6307F11C03C2
:105980001946074801F094FE0548FFF7B4FB0448A8
:10599000FFF7A1FB00BF3837BD4680BD00040240C1
:1059A0000010014080B58EB000AF07F11C0300224B
:1059B0001A605A609A60DA601A615A619A613B1DF6
:1059C00000221A605A609A60DA601A615A612020D7
:1059D000FFF72CFA0420FFF7F9F940237B6002233C
:1059E000BB600323FB6000233B6100237B61082332
:1059F000BB613B1D1946214800F07AFD80237B6086
:105A00000223BB600323FB6000233B6101237B6116
:105A10000823BB613B1D1946184800F069FDFEF7DD
:105A20008BFF0346002206211846FEF7DBFF0346E4
:105A300019464720FEF7ACFF4720FEF78BFF4FF4D7
:105A4000E133FB6100233B6200237B620023BB62E6
:105A50000C23FB6200233B6300237B6307F11C03E1
:105A60001946074801F024FE0548FFF744FB0448A7
:105A7000FFF731FB00BF3837BD4680BD000802404C
:105A80000014014080B588B000AF07F11803002270
:105A90001A605A603B4600221A605A609A60DA60C7
:105AA0001A615A618020FFF791F90420FFF78EF9FF
:105AB0000220FFF78BF90120FFF788F90820FFF794
:105AC00085F91B216048FFF7A6FB4FF4C0615F48D2
:105AD000FFF7A1FB04215E48FFF79DFB4FF4700127
