:020000040800F2
:1000000000000220595B0008DD590008E55900088E
:10001000ED590008F5590008FD59000800000000DE
:10002000000000000000000000000000055A000869
:10003000135A000800000000215A00082F5A000837
:10004000A95B0008A95B0008A95B0008A95B000880
:10005000A95B0008A95B0008A95B00083B5A0008DF
:10006000595A0008775A0008A95B0008A95B0008E4
:10007000A95B0008A95B0008A95B0008A95B000850
:10008000A95B0008A95B0008955A0008A95B000855
:10009000A95B0008A95B0008A95B0008A95B000830
:1000A000A95B0008A95B0008A95B0008A95B000820
:1000B000A95B0008A95B0008A95B0008A95B000810
:1000C000A95B0008A95B0008A95B0008A95B000800
:1000D000A95B0008A15A0008A95B0008A95B0008F9
:1000E000A95B0008A95B0008A95B0008A95B0008E0
:1000F000A95B0008A95B0008A95B0008A95B0008D0
:10010000A95B0008A95B0008A95B0008A95B0008BF
:10011000A95B0008A95B0008A95B0008A95B0008AF
:10012000A95B0008A95B0008A95B0008A95B00089F
:10013000A95B00080000000000000000A95B0008A7
:10014000A95B0008A95B0008A95B0008A95B00087F
:10015000A95B0008A95B0008A95B0008B55A000864
:10016000A95B0008A95B0008A95B0008A95B00085F
:10017000A95B0008A95B0008000000000000000067
:08018000A95B0008A95B00085F
:1001900010B5054C237833B9044B13B10448AFF3C1
:1001A00000800123237010BD4002002000000000E9
:1001B00058C9000808B5034B1BB103490348AFF306
:1001C000008008BD000000004402002058C900085B
:1001D00010F8012B11F8013B012A28BF9A42F7D0F1
:1001E000D01A7047034613F8012B002AFBD1181AC6
:1001F000013870470000000000000000000000000F
:1002000001F0FF01102A2BDB10F0070F08D010F8C7
:10021000013B013A8B422DD010F0070F42B3F6D1CB
:10022000F0B441EA012141EA014122F007047FF0E4
:1002300000070023F0E80256083C85EA010586EA3B
:10024000010685FA47F5A3FA87F586FA47F6A5FA77
:1002500087F68EB9EED1F0BC01F0FF0102F0070283
:1002600032B110F8013B013A83EA010313B1F8D12E
:100270000020704701387047002D06BF354603380F
:10028000073815F0010F07D1013015F4807F02BF48
:10029000013015F4C03F0130F0BC0138704700BF99
:1002A00081F0004102E000BF83F0004330B54FEA27
:1002B00041044FEA430594EA050F08BF90EA020F94
:1002C0001FBF54EA000C55EA020C7FEA645C7FEA27
:1002D000655C00F0E2804FEA5454D4EB5555B8BF4A
:1002E0006D420CDD2C4480EA020281EA030382EABB
:1002F000000083EA010180EA020281EA0303362D4D
:1003000088BF30BD11F0004F4FEA01314FF4801C1F
:100310004CEA113102D0404261EB410113F0004F31
:100320004FEA03334CEA133302D0524263EB4303E8
:1003300094EA050F00F0A780A4F10104D5F1200E86
:100340000DDB02FA0EFC22FA05F2801841F10001E1
:1003500003FA0EF2801843FA05F359410EE0A5F1B5
:1003600020050EF1200E012A03FA0EFC28BF4CF0E6
:10037000020C43FA05F3C01851EBE37101F000459C
:1003800007D54FF0000EDCF1000C7EEB00006EEBA9
:100390000101B1F5801F1BD3B1F5001F0CD3490833
:1003A0005FEA30004FEA3C0C04F101044FEA44528A
:1003B00012F5800F80F09A80BCF1004F08BF5FEA11
:1003C000500C50F1000041EB045141EA050130BDF1
:1003D0005FEA4C0C404141EB0101013C28BFB1F503
:1003E000801FE9D291F0000F04BF01460020B1FA4E
:1003F00081F308BF2033A3F10B03B3F120020CDA21
:100400000C3208DD02F1140CC2F10C0201FA0CF0FE
:1004100021FA02F10CE002F11402D8BFC2F1200C63
:1004200001FA02F120FA0CFCDCBF41EA0C01904019
:10043000E41AA2BF01EB0451294330BD6FEA040462
:100440001F3C1CDA0C340EDC04F11404C4F120024D
:1004500020FA04F001FA02F340EA030021FA04F35F
:1004600045EA030130BDC4F10C04C4F1200220FAB6
:1004700002F001FA04F340EA0300294630BD21FAF4
:1004800004F0294630BD94F0000F83F4801306BFBA
:1004900081F480110134013D4EE77FEA645C18BFAE
:1004A0007FEA655C29D094EA050F08BF90EA020F45
:1004B00005D054EA000C04BF1946104630BD91EA3D
:1004C000030F1EBF0021002030BD5FEA545C05D140
:1004D0004000494128BF41F0004130BD14F580047F
:1004E0003CBF01F5801130BD01F0004545F0FE41F3
:1004F00041F470014FF0000030BD7FEA645C1ABF28
:10050000194610467FEA655C1CBF0B46024650EA5E
:10051000013406BF52EA033591EA030F41F400218A
:1005200030BD00BF90F0000F04BF0021704730B510
:100530004FF4806404F132044FF000054FF00001E5
:1005400050E700BF90F0000F04BF0021704730B5A6
:100550004FF4806404F1320410F0004548BF40427B
:100560004FF000013EE700BF42004FEAE2014FEAD0
:1005700031014FEA02701FBF12F07F4393F07F4FAB
:1005800081F06051704732F07F4208BF704793F0AE
:100590007F4F04BF41F40021704730B54FF46074C1
:1005A00001F0004521F000411CE700BF50EA0102C4
:1005B00008BF704730B54FF000050AE050EA01026D
:1005C00008BF704730B511F0004502D5404261EBDD
:1005D00041014FF4806404F132045FEA915C3FF41E
:1005E000D8AE4FF003025FEADC0C18BF03325FEABB
:1005F000DC0C18BF033202EBDC02C2F1200300FA6C
:1006000003FC20FA02F001FA03FE40EA0E0021FA90
:1006100002F11444BDE600BF70B54FF0FF0C4CF47E
:10062000E06C1CEA11541DBF1CEA135594EA0C0F30
:1006300095EA0C0F00F0DEF82C4481EA030621EA6B
:100640004C5123EA4C5350EA013518BF52EA0335A6
:1006500041F4801143F4801338D0A0FB02CE4FF058
:100660000005E1FB02E506F00042E0FB03E54FF088
:100670000006E1FB03569CF0000F18BF4EF0010E80
:10068000A4F1FF04B6F5007F64F5407404D25FEA7C
:100690004E0E6D4146EB060642EAC62141EA55512F
:1006A0004FEAC52040EA5E504FEACE2EB4F1FD0C71
:1006B00088BFBCF5E06F1ED8BEF1004F08BF5FEAEF
:1006C000500E50F1000041EB045170BD06F00046A1
:1006D00046EA010140EA020081EA0301B4EB5C044E
:1006E000C2BFD4EB0C0541EA045170BD41F4801146
:1006F0004FF0000E013C00F3AB8014F1360FDEBF6B
:10070000002001F0004170BDC4F10004203C35DA46
:100710000C341BDC04F11404C4F1200500FA05F3C9
:1007200020FA04F001FA05F240EA020001F000426A
:1007300021F0004110EBD37021FA04F642EB0601E0
:100740005EEA430E08BF20EAD37070BDC4F10C040A
:10075000C4F1200500FA04F320FA05F001FA04F2CE
:1007600040EA020001F0004110EBD37041F10001BA
:100770005EEA430E08BF20EAD37070BDC4F12005C5
:1007800000FA05F24EEA020E20FA04F301FA05F22D
:1007900043EA020321FA04F001F0004121FA04F2D5
:1007A00020EA020000EBD3705EEA430E08BF20EAA5
:1007B000D37070BD94F0000F0FD101F000464000DF
:1007C00041EB010111F4801F08BF013CF7D041EA61
:1007D000060195F0000F18BF704703F00046520065
:1007E00043EB030313F4801F08BF013DF7D043EA36
:1007F0000603704794EA0C0F0CEA135518BF95EAEC
:100800000C0F0CD050EA410618BF52EA4306D1D172
:1008100081EA030101F000414FF0000070BD50EA91
:10082000410606BF1046194652EA430619D094EA1B
:100830000C0F02D150EA013613D195EA0C0F05D105
:1008400052EA03361CBF104619460AD181EA030159
:1008500001F0004141F0FE4141F470014FF0000011
:1008600070BD41F0FE4141F4780170BD70B54FF0AC
:10087000FF0C4CF4E06C1CEA11541DBF1CEA13552C
:1008800094EA0C0F95EA0C0F00F0A7F8A4EB05040E
:1008900081EA030E52EA03354FEA013100F0888005
:1008A0004FEA03334FF0805545EA131343EA1263CE
:1008B0004FEA022245EA111545EA10654FEA002683
:1008C0000EF000419D4208BF964244F1FD0404F53C
:1008D000407402D25B084FEA3202B61A65EB030598
:1008E0005B084FEA32024FF480104FF4002CB6EB55
:1008F000020E75EB030E22BFB61A754640EA0C00D5
:100900005B084FEA3202B6EB020E75EB030E22BF14
:10091000B61A754640EA5C005B084FEA3202B6EB55
:10092000020E75EB030E22BFB61A754640EA9C0014
:100930005B084FEA3202B6EB020E75EB030E22BFE4
:10094000B61A754640EADC0055EA060E18D04FEAA2
:10095000051545EA16754FEA06164FEAC30343EA42
:1009600052734FEAC2025FEA1C1CC0D111F4801F0F
:100970000BD141EA00014FF000004FF0004CB6E708
:1009800011F4801F04BF01430020B4F1FD0C88BFA7
:10099000BCF5E06F3FF6AFAEB5EB030C04BFB6EBB2
:1009A000020C5FEA500C50F1000041EB045170BDA5
:1009B0000EF0004E4EEA113114EB5C04C2BFD4EBD2
:1009C0000C0541EA045170BD41F480114FF0000E56
:1009D000013C90E645EA060E8DE60CEA135594EAD2
:1009E0000C0F08BF95EA0C0F3FF43BAF94EA0C0FD5
:1009F0000AD150EA01347FF434AF95EA0C0F7FF44A
:100A000025AF104619462CE795EA0C0F06D152EA9D
:100A100003353FF4FDAE1046194622E750EA410681
:100A200018BF52EA43067FF4C5AE50EA41047FF492
:100A30000DAF52EA43057FF4EBAE12E74FF0FF3CF7
:100A400006E000BF4FF0010C02E000BF4FF0010CC8
:100A50004DF804CD4FEA410C7FEA6C5C4FEA430C41
:100A600018BF7FEA6C5C1BD001B050EA410C0CBF90
:100A700052EA430C91EA030F02BF90EA020F0020F2
:100A8000704710F1000F91EA030F58BF994208BF59
:100A900090422CBFD8176FEAE37040F00100704716
:100AA0004FEA410C7FEA6C5C02D150EA013C07D16D
:100AB0004FEA430C7FEA6C5CD6D152EA033CD3D0B8
:100AC0005DF8040B704700BF8446104662468C46B2
:100AD0001946634600E000BF01B5FFF7B7FF0028E5
:100AE00048BF10F1000F01BD4DF808EDFFF7F4FF0E
:100AF0000CBF012000205DF808FB00BF4DF808ED99
:100B0000FFF7EAFF34BF012000205DF808FB00BFBB
:100B10004DF808EDFFF7E0FF94BF012000205DF8DD
:100B200008FB00BF4DF808EDFFF7CEFF94BF012092
:100B300000205DF808FB00BF4DF808EDFFF7C4FF8B
:100B400034BF012000205DF808FB00BF4A0011D22D
:100B500012F5001211D20DD56FF47873B3EB625217
:100B60000ED44FEAC12343F0004343EA505323FA23
:100B700002F070474FF00000704750EA013002D198
:100B80004FF0FF3070474FF00000704753B94AB93B
:100B9000002908BF00281CBF4FF0FF314FF0FF3085
:100BA00000F088B9ADF1080C6DE904CE00F006F84C
:100BB000DDF804E0DDE9022304B070472DE9F047D9
:100BC000089D8E4604468846002B4AD18A42174625
:100BD00062D9B2FA82F64EB1C6F1200301FA06F8E4
:100BE00020FA03F3B74043EA0808B4404FEA174E2F
:100BF0001FFA87FCB8FBFEF1230C0EFB118843EAB9
:100C0000084301FB0CF29A4209D9FB1801F1FF30AD
:100C100080F0EA809A4240F2E78002393B449A1A17
:100C2000A3B2B2FBFEF00EFB102243EA024300FB2C
:100C30000CFC9C4509D9FB1800F1FF3280F0D680EE
:100C40009C4540F2D3803B44023840EA0140A3EB8C
:100C50000C0300211DB1F3400022C5E90032BDE8BC
:100C6000F0878B4205D90DB1C5E900010021084686
:100C7000F5E7B3FA83F1002946D1734502D38242E6
:100C800000F20581841A6EEB030201209046002DCC
:100C9000E5D0C5E90048E2E7002A00F09080B2FA0A
:100CA00082F6002E40F0A4808A1A030C4FEA174EF9
:100CB00080B2BCB20121B2FBFEFC0EFB1C2243EA57
:100CC000024304FB0CF29A4207D9FB180CF1FF38DF
:100CD00002D29A4200F2E080C4469B1AB3FBFEF2B5
:100CE0000EFB123340EA034302FB04F49C4207D993
:100CF000FB1802F1FF3002D29C4200F2CA80024689
:100D00001B1B42EA0C40A5E7C1F120068B4022FAEA
:100D100006F71F430EFA01F420FA06F32EFA06FE38
:100D20004FEA1749234300FA01F81FFA87FCBEFB7C
:100D3000F9F01C0C09FB10EE44EA0E4400FB0CFE1B
:100D4000A64502FA01F209D93C1900F1FF3A80F0F8
:100D50009C80A64540F2998002383C44A4EB0E04E6
:100D60001FFA83FEB4FBF9F309FB13444EEA044473
:100D700003FB0CFCA44508D93C1903F1FF3E80F0AD
:100D80008280A4457FD9023B3C4443EA0040A4EB67
:100D90000C04A0FB02EC64457346E14662D35FD0CD
:100DA0005DB1B8EB030264EB090404FA06F622FA1B
:100DB00001F31E43CC40C5E9006400214FE7B1FBBD
:100DC000F2FC010C41EA0E4180B240EA01423B468E
:100DD00038463C46B846BE462026B1FBF7F1A2EBAA
:100DE000080241EA0C4166E7014618E710462CE785
:100DF000C6F120022EFA02F3B740B14020FA02F207
:100E00004FEA174E0A43B3FBFEF8BCB20EFB183391
:100E1000110C41EA034108FB04F9B04089454FEA4F
:100E2000104380B23ED9791808F1FF3C01D28945C0
:100E30001FD8A1EB0901B1FBFEF909FB04F80EFB79
:100E4000191192B242EA0142424529D2BA1809F177
:100E5000FF31C4D24245C2D2A9F102013A44BEE7F1
:100E6000F0459DD2BEEB02036CEB070C0138E14666
:100E700096E7A7EB09094944A8F1020CB1FBFEF97A
:100E800009FB04F8DBE773467FE7504666E7084650
:100E9000FDE63B44023A33E7ACF1020C3B441CE76D
:100EA00049469CE7A1EB0901C446B1FBFEF909FBE9
:100EB00004F8C4E7704700BF80B500AF02F0E8F95E
:100EC00000F012FC03F086FA03F042FB03F022FB71
:100ED00042F210700AF02CF80AF04CF8FCE780B4EB
:100EE00083B000AF786000BF0C37BD465DF8047B6F
:100EF0007047000080B500AF094B1B78012B0CD167
:100F0000084B1B680F221A70012000F00DF8044BEB
:100F100000221A70002008F00BFD00BF80BD00BF4A
:100F20005C020020B001002080B58CB000AF034609
:100F3000FB711E4BCA221A701D4B1A781B4B5A703C
:100F40001A4B02229A70194AFB79D370174B072269
:100F50001A71164BEF2283F80021144BDB7804330F
:100F6000DBB21A461349002008F050FF03461A4628
:100F70000E4BA3F8FE2007F10C0323220021184694
:100F80000AF09EFC07F10B0207F10C031946074813
:100F900008F088FFFA7A07F10C03194606480AF0B0
:100FA000F3FA00BF3037BD4680BD00BF58130020A4
:100FB0005918002059130020EC0E002080B483B093
:100FC00000AF786039607B685B6823F480723B68AF
:100FD0001A437B685A6000BF0C37BD465DF8047B3E
:100FE000704780B483B000AF786039607B689B68DD
:100FF00023F070623B6803F070631A437B689A6069
:1010000000BF0C37BD465DF8047B704780B483B0E9
:1010100000AF786039607B68DB6A23F470023B685C
:101020001A437B68DA6200BF0C37BD465DF8047B6B
:10103000704780B489B000AFF860B9607A60FB682F
:101040002C331946BB6803F440734FF440727A6145
:101050007A6992FAA2F23A613A69BA61BA69002AE7
:1010600001D1202203E0BA69B2FA82F2D2B2D340AF
:101070009B000B44FB61FB691A68BB6803F01F030C
:101080001F2101FA03F3DB431A407B6803F01F01C1
:10109000BB6803F01F0301FA03F31A43FB691A60EC
:1010A00000BF2437BD465DF8047B704780B483B031
:1010B00000AF786039607B689B6823F002023B6870
:1010C0001A437B689A6000BF0C37BD465DF8047B0D
:1010D000704780B483B000AF786039607B689B68EC
:1010E00023F480623B681A437B689A6000BF0C3728
:1010F000BD465DF8047B704780B48FB000AFF860E8
:10110000B9607A60FB680C331946BB6803F0007362
:101110004FF000727A617A6992FAA2F23A613A6902
:10112000BA61BA69002A01D1202203E0BA69B2FA91
:1011300082F2D2B2D3409B000B447B637B6B1A6874
:10114000BB6803F0F8734FF0F8713962396A91FAAD
:10115000A1F1F961F9697962796A002901D1202147
:1011600003E0796AB1FA81F1C9B2CB40072101FAF3
:1011700003F3DB431A40BB6803F0F8734FF0F871D8
:10118000F962F96A91FAA1F1B962B96A3963396B06
:10119000002901D1202103E0396BB1FA81F1C9B2F4
:1011A000CB40796801FA03F31A437B6B1A6000BFE6
:1011B0003C37BD465DF8047B704780B483B000AF18
:1011C00078607B689B6843F001027B689A6000BF8F
:1011D0000C37BD465DF8047B704780B483B000AF28
:1011E00078607B689B6823F001027B689A6000BF8F
:1011F0000C37BD465DF8047B704780B483B000AF08
:1012000078607B689B6843F080427B689A6000BF8F
:101210000C37BD465DF8047B704780B483B000AFE7
:1012200078607B68DB6C9BB218460C37BD465DF876
:10123000047B704780B483B000AF78607B681B6824
:1012400003F00203022B0CBF01230023DBB218467C
:101250000C37BD465DF8047B704780B483B000AFA7
:1012600078607B681B6803F02003202B0CBF0123F0
:101270000023DBB218460C37BD465DF8047B70478F
:1012800080B483B000AF78607B686FF002021A60B0
:1012900000BF0C37BD465DF8047B704780B483B057
:1012A00000AF78607B686FF020021A6000BF0C37D7
:1012B000BD465DF8047B704780B483B000AF7860B2
:1012C0007B685B6843F020027B685A6000BF0C3784
:1012D000BD465DF8047B704780B483B000AF786092
:1012E0007B685B6843F080627B685A6000BF0C37A4
:1012F000BD465DF8047B704780B483B000AF786072
:1013000039607B683A689A6100BF0C37BD465DF86A
:10131000047B704780B483B000AF786039603B686D
:101320001A047B689A6100BF0C37BD465DF8047BE8
:10133000704780B483B000AF78607B681B6843F06F
:1013400001027B681A6000BF0C37BD465DF8047B64
:10135000704780B483B000AF78607B681B6823F06F
:1013600002027B681A6000BF0C37BD465DF8047B43
:10137000704780B483B000AF78607B681B6843F02F
:1013800002027B681A6000BF0C37BD465DF8047B23
:10139000704780B483B000AF78607B681B6843F00F
:1013A00080027B681A6000BF0C37BD465DF8047B85
:1013B000704780B483B000AF786039607B683A686A
:1013C0009A6200BF0C37BD465DF8047B704780B45D
:1013D00083B000AF78607B689B6A18460C37BD46C7
:1013E0005DF8047B704780B483B000AF78603960EB
:1013F0007B683A68DA6200BF0C37BD465DF8047B53
:10140000704780B483B000AF786039607B681A6A37
:101410003B681A437B681A6200BF0C37BD465DF813
:10142000047B704780B487B000AFF860B9607A6021
:10143000BB68012B1CD0BB68042B17D0BB68102BDA
:1014400012D0BB68402B0DD0BB68B3F5807F07D0AE
:10145000BB68B3F5806F01D105230AE0062308E0DD
:10146000042306E0032304E0022302E0012300E05A
:101470000023FB75FB6818331946FB7D0E4AD35CCD
:101480000B443B613B691A68FB7D0C49CB5C1946F8
:1014900073238B40DB431A40FB7D0849CB5C194624
:1014A0007B688B401A433B691A6000BF1C37BD46FE
:1014B0005DF8047B704700BFC4D00008CCD00008A2
:1014C00080B487B000AFF860B9607A60BB68012B68
:1014D0001CD0BB68042B17D0BB68102B12D0BB6884
:1014E000402B0DD0BB68B3F5807F07D0BB68B3F548
:1014F000806F01D105230AE0062308E0042306E0FB
:10150000032304E0022302E0012300E00023FB7533
:10151000FB681A6AFB7D0B49CB5C194602238B40A2
:10152000DB431A40FB7D0749CB5C19467B688B4047
:101530001A43FB681A6200BF1C37BD465DF8047B86
:10154000704700BFD4D0000880B485B000AF786089
:1015500039603B68012B1CD03B68042B17D03B68DB
:10156000102B12D03B68402B0DD03B68B3F5807F29
:1015700007D03B68B3F5806F01D105230AE006234D
:1015800008E0042306E0032304E0022302E0012331
:1015900000E00023FB737B6818331946FB7B0A4A83
:1015A000D35C0B44BB60BB681A68FB7B0749CB5C10
:1015B000194608238B401A43BB681A6000BF1437D2
:1015C000BD465DF8047B7047C4D00008CCD000084D
:1015D00080B483B000AF786039607B683A685A6342
:1015E00000BF0C37BD465DF8047B704780B483B004
:1015F00000AF786039607B683A689A6300BF0C3747
:10160000BD465DF8047B704780B483B000AF78605E
:1016100039607B683A68DA6300BF0C37BD465DF815
:10162000047B704780B483B000AF786039607B681A
:101630003A681A6400BF0C37BD465DF8047B7047FA
:1016400080B485B000AFF860B9607A60FB685B6C0D
:1016500023F44062B9687B680B431A43FB685A6401
:1016600000BF1437BD465DF8047B704780B483B07B
:1016700000AF78607B685B6C23F480427B685A64BF
:1016800000BF0C37BD465DF8047B704780B483B063
:1016900000AF78607B685B6C43F400427B685A64FF
:1016A00000BF0C37BD465DF8047B704780B483B043
:1016B00000AF78607B68DB6823F001027B68DA604A
:1016C00000BF0C37BD465DF8047B704780B400AFA7
:1016D000044B9B6803F4E0531846BD465DF8047B59
:1016E000704700BF00380240B0B5A4B000AF624BF5
:1016F00008332422002118460AF0E2F85E4B01224A
:101700001A725D4B01225A725B4B5C4ADA605A4B8B
:101710004FF07C521A61584B594A9A61564B594ABC
:10172000DA61554B584A1A62534B19225A85574B66
:1017300008332422002118460AF0C2F8534B012234
:101740001A72524B01225A72504B4C4ADA604F4B7C
:101750004FF07C521A614D4B4D4A9A614B4B4D4AAA
:10176000DA614A4B4C4A1A62484B0A225A85424B6C
:101770004A4A03F12C0415460FCD0FC495E8070023
:1017800084E80700414B464A03F12C0415460FCD6F
:101790000FC495E8070084E8070001F0D5FD072392
:1017A000C7F88830D7F8880000F088FC3D4BC7F8B0
:1017B00084303C4BC7F88030D7F88010D7F88400CD
:1017C00000F0C6FC00F08CFD002387F88F301DE090
:1017D000294BD96C97F88F2013465B0013445B00AC
:1017E0000B441888244BD96C97F88F2013465B0064
:1017F00013445B00CC1801461F4801F001F9034671
:10180000638097F88F30013387F88F301A4B93F845
:10181000533097F88F209A42DAD3002387F88E301E
:101820001DE01A4BD96C97F88E2013465B001344C9
:101830005B000B441888154BD96C97F88E20134623
:101840005B0013445B00CC180146104801F0D8F847
:101850000346638097F88E30013387F88E300B4B48
:1018600093F8533097F88E209A42DAD300BF00BF26
:101870009037BD46B0BD00BFE80000209A99993E60
:10188000EA00002030010020EC0000204801002088
:101890004A010020900100204C01002070C900087E
:1018A0008CC9000870110100B0B5A6B000AF786017
:1018B000002387F89730002387F89630002387F8B5
:1018C00095300023A7F8923007F1970319460320BB
:1018D00001F052FD07F196031946042001F04CFD7A
:1018E00007F195031946052001F046FD07F1920323
:1018F0001946012001F040FD97F89730002B42D0A7
:10190000814B5B881846FEF71DFE04460D467E4B54
:101910009B881846FEF716FE79A3D3E90023FEF74D
:101920007BFE02460B4620462946FFF7FBF803469E
:10193000002B37D0744B93F84930022B19D1724BDE
:1019400093F85C30002B14D0B7F892301A4607F1A8
:1019500008036E49184609F077FF6D4B1B6807F1C5
:1019600008021146184609F0F7FD674B002283F87C
:101970005C20022387F88B3007F18B031946002087
:1019800001F01CFD0EE097F8973083F00103DBB205
:10199000002B07D05C4B002283F8482000215A48D6
:1019A00000F090FD97F89630002B05D04FF4806141
:1019B0005848FFF7A1FC0BE097F8963083F001033D
:1019C000DBB2002B04D04FF480615248FFF7A2FC39
:1019D00097F89530002B002387F89130002387F883
:1019E0009030002387F88F300023A7F88C3007F160
:1019F000910319460A2001F0BFFC07F19003194634
:101A00000B2001F0B9FC07F18F0319460C2001F0FF
:101A1000B3FC07F18C031946082001F0ADFC97F8E0
:101A20009130002B42D03C4B5B881846FEF78AFD74
:101A300004460D46384B9B881846FEF783FD30A3BD
:101A4000D3E90023FEF7E8FD02460B46204629466F
:101A5000FFF768F80346002B37D02F4B93F8493037
:101A6000022B19D12C4B93F85C30002B14D0B7F813
:101A70008C301A4607F108032849184609F0E4FE9D
:101A8000234B1B6807F108021146184609F064FD54
:101A9000214B002283F85C20022387F88A3007F16B
:101AA0008A031946072001F089FC0EE097F891306F
:101AB00083F00103DBB2002B07D0174B002283F821
:101AC00048200021144800F0FDFC97F89030002BCE
:101AD00004D010211248FFF70FFC0AE097F890306D
:101AE00083F00103DBB2002B03D010210C48FFF779
:101AF00011FC97F88F30002B00BF9837BD46B0BD62
:101B0000AE47E17A14AEEF3FE8000020A8C9000814
:101B1000600200200000024048010020CCC90008FB
:101B20000004024080B582B000AF786000F02EFD66
:101B300000F018FE00F046FE00F032FF00BF08374C
:101B4000BD4680BD80B582B000AF03460A46FB713A
:101B50001346BB80FB79002B05D13B1D19460120A4
:101B600001F02CFC07E0FB79012B04D13B1D194649
:101B7000082001F023FC00BF0837BD4680BD80B5BA
:101B800082B000AF03460A46FB801346BB80BB1DF4
:101B90001946012001F012FC3B1D1946082001F0F6
:101BA0000DFC00BF0837BD4680BD000090B585B074
:101BB00000AF0446084611461A462346FB71034609
:101BC000BB710B467B7113463B710023FB73FB79A2
:101BD000002B10D00023FB7307F10F0319460420DC
:101BE00001F0ECFB0123BB7307F10E031946002043
:101BF00001F0E4FB07E00023BB7307F10E03194675
:101C0000002001F0DBFB00237B73BB79002B10D09D
:101C100000237B7307F10D0319460B2001F0CEFB67
:101C200001233B7307F10C031946072001F0C6FBA3
:101C300007E000233B7307F10C031946072001F06E
:101C4000BDFBFB1D1946032001F0B8FBBB1D194667
:101C50000A2001F0B3FB0E4B0022A3F850200D4BDD
:101C60000022A3F850200A4B002283F84920094B98
:101C7000002283F84920064A7B7982F85C30054AC5
:101C80003B7982F85C3000BF1437BD4690BD00BF81
:101C9000E80000204801002080B584B000AF034672
:101CA0000A46FB711346BB710023FB73FB79002BC3
:101CB00026D1BB79002B15D00023FB7307F10F034E
:101CC0001946032001F07AFB0323BB7307F10E03CF
:101CD0001946002001F072FB052200211F4809F07F
:101CE00028F807E00023BB7307F10E031946002014
:101CF00001F064FBBB1D1946042001F05FFB28E0E6
:101D0000FB79012B25D1BB79002B15D00023FB7368
:101D100007F10F0319460A2001F050FB0323BB73A0
:101D200007F10E031946072001F048FB05220021A8
:101D30000B4808F0FEFF07E00023BB7307F10E031A
:101D40001946072001F03AFBBB1D19460B2001F094
:101D500035FB00BF1037BD4680BD00BFF00000203E
:101D60005001002080B584B000AF03460A46FB71E5
:101D70001346BB710023FB73FB79002B15D00023A6
:101D8000FB7307F10F031946032001F017FB032330
:101D9000BB7307F10E031946002001F00FFB05226B
:101DA00000211E4808F0C5FF07E00023BB7307F1C0
:101DB0000E031946002001F001FBFB1D194604200B
:101DC00001F0FCFA00237B73BB79002B15D00023B4
:101DD0007B7307F10D0319460A2001F0EFFA032384
:101DE0003B7307F10C031946072001F0E7FA0522BF
:101DF00000210B4808F09DFF07E000233B7307F12B
:101E00000C031946072001F0D9FABB1D19460B2017
:101E100001F0D4FA00BF1037BD4680BDF0000020AD
:101E20005001002080B584B000AF0346FB71002351
:101E3000FB81FB79002B06D107F10E031946012027
:101E400001F09AFA08E0FB79012B05D107F10E03A6
:101E50001946082001F090FAFB8918461037BD4654
:101E600080BD80B584B000AF0346FB710023FB73D7
:101E7000FB79002B06D107F10F031946032001F06F
:101E80007BFA08E0FB79012B05D107F10F03194616
:101E90000A2001F071FAFB7B18461037BD4680BD61
:101EA00080B584B000AF0346FB710023FB73FB7960
:101EB000002B06D107F10F031946042001F05CFA4C
:101EC00008E0FB79012B05D107F10F0319460B2020
:101ED00001F052FAFB7B18461037BD4680BD00006A
:101EE00080B586B000AF0346FB710023FB824FF044
:101EF0000003FB60FB79002B14D11A4B3B61194B9B
:101F00005B88FB82FB8A1946164800F094FDF0EED0
:101F1000407AC7ED037A07F10C031946022001F05D
:101F20004DFA16E0FB79012B13D10F4B3B610E4BA1
:101F30005B88FB82FB8A19460B4800F07CFDF0EEC3
:101F4000407AC7ED037A07F10C031946092001F026
:101F500035FAFB6807EE903AB0EE670A1837BD46CF
:101F600080BD00BFE80000204801002098B500AF08
:101F70002148FFF772F90346012B14D11E48FFF7E1
:101F80008DF91E4B00221A701B48FFF726F900BF7F
:101F900000BF00BF00BF00BF00BF1748FFF70DF92B
:101FA0001548FFF72AF91448FFF744F90346012BB7
:101FB00020D11148FFF764F9104B1B78DBB21A46A9
:101FC0000F4B53F822400C48FFF727F90346638074
:101FD0000A4B1B78DBB21A46094B53F822301846DD
:101FE00000F090F9054B1B78DBB283F00103DAB205
:101FF000024B1A7000BF98BD002001405D02002016
:10200000A801002080B582B000AF0123FB71FB1D49
:102010001946052001F0D2F90F4B002283F8482021
:1020200000210D4800F04EFA01210020FFF734FE98
:102030000A4B1B680B221A70FA79084B1B685A70FE
:10204000064B1B6800229A70032000F01FFD00BFA2
:102050000837BD4680BD00BFE8000020B001002069
:1020600080B582B000AF0123FB71FB1D19460C2027
:1020700001F0A4F90F4B002283F8482000210D48FD
:1020800000F020FA01210120FFF706FE0A4B1B6831
:102090000B221A70084B1B6800225A70FA79064B03
:1020A0001B689A70032000F0F1FC00BF0837BD46A2
:1020B00080BD00BF48010020B001002080B582B083
:1020C00000AF78601F4B00221A704FF480111E4839
:1020D000FEF79CFF1D4A4FF400711B48FEF7A9FF55
:1020E0000A2240F205211848FEF7A3FF7A68174933
:1020F0001548FFF701F87A680A211348FEF7FCFF3C
:102100004FF480711048FEF759FF02210E48FEF788
:10211000CDFF0D48FFF7E0F80B48FFF7CDF84FF47F
:1021200080610948FEF7D5FF0748FFF746F8002110
:102130000548FEF756FF0448FFF75FF800BF083771
:10214000BD4680BD5D020020002001400C00600003
:1021500080B582B000AF786039605A4808F0A5FCBD
:10216000594BDB6A584A116B60221846FFF75AF93F
:10217000554BDB6A544A116B00221846FFF7A0F951
:10218000514BDB6A504A126B11461846FFF7DCF9D7
:102190004D4BDB6A4C4A126B11461846FFF731F97A
:1021A000494BDB6A4FF400624FF480611846FFF739
:1021B00047FA454BDB6A1846FFF758FA424BDB6A91
:1021C0001846FFF763FA404BDB6A00211846FFF719
:1021D000F0F83D4BDB6A1846FFF7DBF879683A48C0
:1021E00000F01CF9384BDB6A1846FFF75FFA3748F6
:1021F00008F05BFC364BDB6A354A116B60221846EF
:10220000FFF710F9324BDB6A314A116B0022184696
:10221000FFF756F92E4BDB6A2D4A126B1146184612
:10222000FFF792F92A4BDB6A294A126B11461846CE
:10223000FFF7E7F8264BDB6A4FF400624FF480614A
:102240001846FFF7FDF9224BDB6A1846FFF70EFA36
:102250001F4BDB6A1846FFF719FA1D4BDB6A00219A
:102260001846FFF7A6F81A4BDB6A1846FFF791F8F5
:102270003968174800F0D2F8154BDB6A1846FFF7AB
:1022800015FA4FF400711348FFF736F8042112488D
:10229000FFF732F84FF480610E48FFF73BF810214A
:1022A0000E48FFF737F8084BDB6A1846FFF741F88E
:1022B000074BDB6A1846FFF73CF800BF0837BD46FE
:1022C00080BD00BFF0000020E80000205001002089
:1022D0004801002000000240000C024000040240BF
:1022E00080B500AF4FF480610448FFF713F8102168
:1022F0000348FFF70FF800BF80BD00BF0000024099
:1023000000040240B0B586B000AF78600023FB73D4
:102310007B683F4A934206D107F10F0319460A2012
:1023200001F02AF809E07B683A4A934205D107F1A7
:102330000F031946032001F01FF8FB7B002B62D02E
:102340007B680833184608F006FC7B682C337B61F9
:102350007B6893F84830DBB23B617B699B69184628
:10236000FEF7E0F804460D463869FEF7DBF84FF05B
:102370000002294BFEF77AFA02460B462046294610
:10238000FEF74AF902460B4610461946FEF7DEFBF9
:1023900002467B695A617B695B68B3F5805F28D030
:1023A000B3F5805F2ED8B3F5807F19D0B3F5807F69
:1023B00028D8012B02D0102B09D023E07B691A68A2
:1023C0007B695B6919461046FFF702F91BE07B69E0
:1023D0001A687B695B6919461046FFF707F912E036
:1023E0007B691A687B695B6919461046FFF70CF92F
:1023F00009E07B691A687B695B6919461046FFF73B
:1024000011F900E000BF00BF1837BD46B0BD00BFE6
:1024100048010020E80000200000594090B52DED53
:10242000028B85B000AF786039607B682C33FB602D
:10243000FB681B681846FEF79CFF1F4B1B681F4A72
:10244000127823FA02F4FFF741F903469B0A1C4A6B
:10245000D35C24FA03F307EE903AB8EE678AFB6880
:102460001B681846FEF7B3FF0346013307EE903AA8
:10247000B8EE677A3B6807EE903AF8EE677A27EE97
:10248000277AC8EE077AFCEEE77A17EE902AFB6807
:102490009A61FB681A68FB689B6919461046FEF74B
:1024A000A2FFFB681B681846FEF753FF00BF1437F6
:1024B000BD46BDEC028B90BDB80100208CD2000857
:1024C0009CD20008B0B584B000AF786039607B68FA
:1024D0002C33FB60FB689B691846FEF723F8044623
:1024E0000D463868FEF71EF84FF00002264BFEF747
:1024F000BDF902460B4620462946FEF78DF80246F6
:102500000B4610461946FEF721FB0246FB685A614E
:10251000FB685B68B3F5805F28D0B3F5805F2ED889
:10252000B3F5807F19D0B3F5807F28D8012B02D076
:10253000102B09D023E0FB681A68FB685B69194619
:102540001046FFF745F81BE0FB681A68FB685B69FB
:1025500019461046FFF74AF812E0FB681A68FB6854
:102560005B6919461046FFF74FF809E0FB681A68E7
:10257000FB685B6919461046FFF754F800E000BF9E
:1025800000BF1037BD46B0BD0000594080B582B0D5
:1025900000AF0023BB71BB1D1946032000F0ECFE09
:1025A000BB7983F00103DBB2002B40F0CE806B4B94
:1025B00093F84930022B00F0C080022B00F3C78053
:1025C000002B02D0012B49D0C1E0644BB3F850304E
:1025D000002B11D105220021614808F0AAFB05213A
:1025E0005E4800F03FFA5D4BB3F8503001339AB2C9
:1025F0005A4BA3F85020ADE0584BB3F85030B3F528
:102600007A6F08D2554BB3F8503001339AB2534B1E
:10261000A3F850209EE00023FB7114E04F4B598833
:102620004E4BD86CFA7913465B0013445B000344AD
:102630005B88994204D8494AFB7982F8523008E015
:10264000FB790133FB71454B93F85330FA799A4289
:10265000E4D3424B012283F849207BE07B1D1946DD
:10266000002000F089FE7B79022B72D1BB1C194639
:10267000012000F081FE394BDA6C384B93F8523070
:1026800019460B465B000B445B0013441A887B8899
:102690009A4230D2314BDA6C304B93F852301946B3
:1026A0000B465B000B445B0013441B791A46002168
:1026B0002B4808F03EFB294BDA6C284B93F852303C
:1026C00019460B465B000B445B0013441B881946FC
:1026D000224800F0C7F901237B717B1D19460020B9
:1026E00000F06CFE1D4B93F852300133DAB21B4BF5
:1026F00083F852202EE0194BDA6C184B93F85230C5
:1027000019460B465B000B445B0013441B791A46C9
:102710000021134808F00DFB7B8819460F4800F094
:10272000A1F901237B717B1D1946002000F046FEB4
:102730000A4B022283F849200CE07B1D1946002039
:1027400000F01AFE7B79022B01E000BF02E000BF1F
:1027500000E000BF0837BD4680BD00BFE800002094
:10276000F000002080B582B000AF0023FB71FB1D9C
:102770001946042000F000FEFB7983F00103DBB270
:10278000002B15D10C4B5B88142B12D80B4B1B68FC
:102790000B49184608F0E0FE00210020FFF77CFA04
:1027A0000423BB71BB1D1946002000F007FE00E0AA
:1027B00000BF0837BD4680BDE80000206002002051
:1027C000F0C9000880B582B000AF0023BB71BB1D0B
:1027D00019460A2000F0D0FDBB7983F00103DBB27B
:1027E000002B40F0D1806C4B93F84930032B00F262
:1027F000CD8001A252F823F0092800089B28000888
:10280000792900088D290008634BB3F85030002B5C
:1028100011D105220021614808F08BFA05215E489C
:1028200000F020F95C4BB3F8503001339AB25A4BA8
:10283000A3F85020ADE0584BB3F85030B3F57A6FA1
:1028400008D2554BB3F8503001339AB2524BA3F82B
:1028500050209EE00023FB7114E04F4B59884E4BF3
:10286000D86CFA7913465B0013445B0003445B8821
:10287000994204D8484AFB7982F8523008E0FB7943
:102880000133FB71444B93F85330FA799A42E4D305
:10289000414B012283F849207BE07B1D194607202C
:1028A00000F06AFD7B79022B72D1BB1C194608200F
:1028B00000F062FD384BDA6C374B93F85230194612
:1028C0000B465B000B445B0013441A887B889A42DA
:1028D00030D2314BDA6C304B93F8523019460B46FC
:1028E0005B000B445B0013441B791A4600212B4804
:1028F00008F01FFA284BDA6C274B93F85230194630
:102900000B465B000B445B0013441B8819462248AE
:1029100000F0A8F801237B717B1D1946072000F009
:102920004DFD1D4B93F852300133DAB21A4B83F848
:1029300052202EE0184BDA6C174B93F852301946A0
:102940000B465B000B445B0013441B791A460021C5
:10295000124808F0EEF97B8819460F4800F082F81B
:1029600001237B717B1D1946072000F027FD0A4BD0
:10297000022283F849200CE07B1D1946072000F055
:10298000FBFC7B79022B04E000BF02E000BF00E00B
:1029900000BF0837BD4680BD48010020500100201F
:1029A00080B582B000AF0023FB71FB1D19460B20E0
:1029B00000F0E2FCFB7983F00103DBB2002B15D1C0
:1029C0000C4B5B883C2B12D80B4B1B680B491846F1
:1029D00008F0C2FD00210120FFF75EF90423BB715E
:1029E000BB1D1946072000F0E9FC00E000BF0837D6
:1029F000BD4680BD480100206002002014CA0008C6
:102A000080B483B000AF78600B467B807B8807EE94
:102A1000903AF8EEE76A7B6893ED167AC6EE877A0D
:102A2000FCEEE77A17EE903A9BB218460C37BD469B
:102A30005DF8047B704780B483B000AF78600B46CC
:102A40007B807B8807EE903AB8EEE77A7B68D3ED1F
:102A5000167A67EE277AB0EE670A0C37BD465DF846
:102A6000047B704780B582B000AF78600B467B80F6
:102A70007B8819467868FFF7C3FF03461A467B68D0
:102A80009A8000BF0837BD4680BD000080B58AB07F
:102A900000AF0346FB711F4BCA221A701E4B1A78F7
:102AA0001C4B5A701B4B02229A701A4AFB79D37046
:102AB000184B07221A71174BEF2283F80021154B90
:102AC000DB780433DBB21A461449002007F09EF984
:102AD00003461A460F4BA3F8FE2007F10C03002211
:102AE0001A605A609A60DA601A615A611A7607F1C0
:102AF0000B0207F10C031946064807F0D3F9FA7ADE
:102B000007F10C031946064808F03EFD00BF2837C0
:102B1000BD4680BD581300205918002059130020CD
:102B2000EC0E002080B400AFBFF34F8F00BF064B08
:102B3000DB6803F4E0620449044B1343CB60BFF34A
:102B40004F8F00BF00BFFDE700ED00E00400FA0575
:102B500080B588B000AFF860B9607A6007F11403FF
:102B6000074A0A21184608F039FE07F114031946EE
:102B7000F86804F08FFE00BF2037BD4680BD00BF5F
:102B800028CC000880B584B000AFF860B9607A60E6
:102B9000FFF7C8FF80B588B000AFF860B9607A6011
:102BA000B86804F07BFF0346BB61BB69012B04DC02
:102BB0003249F86804F06EFE5DE0BB69022B04DD6B
:102BC0002F49F86804F066FE55E00121B86804F06A
:102BD0002FFF0346184608F078FD03463B610221AB
:102BE000B86804F025FF0346184608F06EFD03465A
:102BF0007B613B69B3F5AF7F02DC3B69002B04DAF4
:102C00002049F86804F046FE35E07B693C2B02DC85
:102C10007B69002B04DA1B49F86804F03BFE2AE0CC
:102C20000023FB770020FFF71CF90346002B05D09B
:102C30001549F86804F02EFE0123FB770120FFF709
:102C400010F90346002B05D01049F86804F022FE65
:102C50000123FB77FB7F012B0CD03B699BB27A6988
:102C600092B211461846FEF78AFF0949F86804F047
:102C700011FE00E000BF2037BD4680BD30CC00080B
:102C80004CCC000868CC000880CC0008C4CC0008FC
:102C900008CD000880B586B000AFF860B9607A60F2
:102CA000B86804F0FBFE03467B617B69002B04DC03
:102CB0001D49F86804F0EEFD32E07B69012B04DD6C
:102CC0001A49F86804F0E6FD2AE00121B86804F02A
:102CD000AFFE0346184608F0F8FC38613B69B3F5CF
:102CE000AF7F02DC3B69002B04DA1149F86804F07D
:102CF000D1FD15E00020FFF7B4F80346002B04D007
:102D00000C49F86804F0C6FD0AE03B699BB219461D
:102D10000020FEF717FF0849F86804F0BBFD00BF6C
:102D20001837BD4680BD00BF30CC000818CD000864
:102D300068CC000880CC000808CD000880B586B0BB
:102D400000AFF860B9607A60B86804F0A7FE034687
:102D50007B617B69002B04DC1C49F86804F09AFD58
:102D600031E07B69012B04DD1949F86804F092FD1C
:102D700029E00121B86804F05BFE0346184608F01C
:102D8000A4FC38613B693C2B02DC3B69002B04DA74
:102D90001049F86804F07EFD15E00120FFF761F8A6
:102DA0000346002B04D00C49F86804F073FD0AE0D8
:102DB0003B699BB219460120FEF7C4FE0749F8683B
:102DC00004F068FD00BF1837BD4680BD30CC000858
:102DD00018CD000868CC0008C4CC000808CD000855
:102DE00080B58AB000AFF860B9607A60B86804F066
:102DF00055FE03463B623B6A012B04DC4849F868F8
:102E000004F048FD88E03B6A022B04DD4549F86880
:102E100004F040FD80E00121B86804F009FE03469B
:102E2000184608F052FC03467B610221B86804F0A2
:102E3000FFFD0346184608F048FC0346BB617B696A
:102E4000012B02DC7B69002B04DA3749F86804F0B7
:102E500021FD61E0BB69012B02DCBB69002B04DAB8
:102E60003149F86804F016FD56E0002387F8273052
:102E70007B69012B19D10020FEF7D4FF0346FB83A9
:102E80000020FFF72DF8F0EE407AFCEEE77A17EE1F
:102E9000903ABB83FA8BBB8B9A4206D22349F868DF
:102EA00004F0F8FC012387F82730BB69012B19D106
:102EB0000120FEF7B7FF0346FB830120FFF710F860
:102EC000F0EE407AFCEEE77A17EE903ABB83FA8B8D
:102ED000BB8B9A4206D21649F86804F0DBFC01234A
:102EE00087F8273097F82730012B14D07B69002B07
:102EF00014BF01230023D8B2BB69002B14BF0123E8
:102F00000023D9B201230122FEF750FE0949F868D7
:102F100004F0C0FC00E000BF2837BD4680BD00BF04
:102F200030CC000818CD000868CC000834CD00086B
:102F300088CD000808CD000880B588B000AFF860E3
:102F4000B9607A60B86804F0A9FD0346FB61FB69CB
:102F5000012B04DC2749F86804F09CFC46E0FB697F
:102F6000022B04DD2449F86804F094FC3EE00121C2
:102F7000B86804F05DFD0346184608F0A6FB03465A
:102F80007B610221B86804F053FD0346184608F03F
:102F90009CFB0346BB617B69012B02DC7B69002B38
:102FA00004DA1649F86804F075FC1FE0BB69012BD0
:102FB00002DCBB69002B04DA1049F86804F06AFCF3
:102FC00014E07B69002B14BF01230023DAB2BB6934
:102FD000002B14BF01230023DBB219461046FEF775
:102FE000C1FE0749F86804F055FC00BF2037BD4614
:102FF00080BD00BF30CC000818CD000868CC0008A8
:10300000DCCD000880B596B000AFF860B9607A609A
:10301000B86804F043FD03467B657B6D002B04D04C
:103020001149F86804F036FC1AE00020FEF7FAFEB9
:103030000346A7F852300120FEF7F4FE0346A7F836
:103040005030B7F85220B7F8503007F11000074958
:1030500008F0FAFB07F110031946F86804F01AFCAF
:103060005837BD4680BD00BF18CD0008ECCD000824
:1030700080B586B000AFF860B9607A60B86804F0D7
:103080000DFD03467B617B69002B04D01249F86873
:1030900004F000FC1DE00020FEF7E3FE0346002BD9
:1030A00004D00E49F86804F0F5FB03E00C49F86819
:1030B00004F0F0FB0120FEF7D4FE0346002B04D001
:1030C0000849F86804F0E6FB03E00749F86804F0F3
:1030D000E1FB1837BD4680BD18CD000820CE0008A2
:1030E00038CE000854CE00086CCE000880B586B0FB
:1030F00000AFF860B9607A60B86804F0CFFC0346AE
:103100007B617B69002B04D01249F86804F0C2FB94
:103110001DE00020FEF7C4FE0346002B04D00E493C
:10312000F86804F0B7FB03E00C49F86804F0B2FB60
:103130000120FEF7B5FE0346002B04D00849F868CD
:1031400004F0A8FB03E00749F86804F0A3FB183774
:10315000BD4680BD18CD000888CE0008A4CE00086A
:10316000C4CE0008E0CE000880B5A0B000AFF86083
:10317000B9607A60B86804F091FC0346FB67FB6FA6
:10318000002B04D02F49F86804F084FB56E000209F
:10319000FEF748FE0346A7F87A300120FEF742FE0C
:1031A0000346A7F87830B7F87A20B7F8783007F1F7
:1031B0001400254908F048FB07F114031946F86884
:1031C00004F068FB0020FEF74CFE0346002B04D001
:1031D0001E49F86804F05EFB03E01D49F86804F03E
:1031E00059FB0120FEF73DFE0346002B04D0194990
:1031F000F86804F04FFB03E01749F86804F04AFB55
:103200000020FEF74DFE0346002B04D01349F8685A
:1032100004F040FB03E01249F86804F03BFB012096
:10322000FEF73EFE0346002B04D00E49F86804F07A
:1032300031FB03E00C49F86804F02CFB8037BD46F5
:1032400080BD00BF18CD0008ECCD000820CE0008DE
:1032500038CE000854CE00086CCE000888CE000896
:10326000A4CE0008C4CE0008E0CE000880B400AFB1
:10327000024B1846BD465DF8047B7047DCD0000861
:1032800080B400AF0C231846BD465DF8047B704740
:1032900080B584B004AF4FF4007303934FF4007310
:1032A00002930E4B01930E4B009347230D4A0E4998
:1032B0000E4808F0D8F84FF400620D490B4804F0AE
:1032C000FFF803460B4A13600B49084808F044F91D
:1032D0000A4B064A1A6000BFBD4680BDD0040020DC
:1032E000D00200200014014000CF0008640200203A
:1032F000D0060020D00E00200CCF00086002002075
:1033000080B584B000AF78600BE00D4808F0F0F8AD
:103310000346FB730B4B1B68FA7B1146184604F0FF
:1033200005FA074808F04EF90346002BEDD1054B8E
:103330001B68184604F01DFA00BF1037BD4680BD5B
:1033400064020020D00E002080B500AF16220021BC
:10335000084808F0B5FA074B00221A70054B022204
:103360009A80044B00229A72024B0222DA8100BF3B
:1033700080BD00BFD40E002080B582B000AF0346F0
:103380003960FB71FB790F2B02D83B68002B01D110
:1033900000230DE0FB79084A52F83310FB79064A06
:1033A000DB0013445B681A46386808F0DDFA012335
:1033B00018460837BD4680BDFCD1000880B582B0F4
:1033C00000AF03463960FB71FB790F2B02D83B68D5
:1033D000002B01D100230DE0FB79084A52F833009D
:1033E000FB79064ADB0013445B681A46396808F02B
:1033F000BBFA012318460837BD4680BDFCD1000842
:1034000080B5AAB000AFB94B1B681B781C2B00F22B
:10341000818701A252F823F08D3400083535000869
:10342000AF35000829360008093700085D37000865
:10343000154300082B390008EB380008AB380008AA
:10344000EB370008B3370008294200087142000832
:10345000D3420008154300089D390008473A000888
:10346000293B0008213C0008D53D00082B3E000800
:103470009D3E0008FD3E0008FD3F0008FD4000089D
:10348000394100089D410008E34100080023BB7357
:1034900007F10F0319460320FFF76EFF07F10E0334
:1034A00019460A20FFF768FFFB7B002B02D1BB7B8C
:1034B000002B0DD08E4B1B6800221A708C4B1B68A2
:1034C00000225A70022000F03BFF002300F026BFCC
:1034D000864B1B685B781BB21B021AB2834B1B68BE
:1034E0009B781BB213431BB27B82804B1B68DB783B
:1034F0001BB21B021AB27D4B1B681B791BB2134314
:103500001BB23B823A8A7B8A11461846FEF737FB8C
:10351000774B1B6800221A70754B1B6801225A708A
:10352000022000F00DFF7349734808F015F80123DD
:1035300000F0F4BE00237B7307F10D03194603204E
:10354000FFF71AFF7B7B002B0DD0694B1B68012214
:103550001A70674B1B6800225A70022000F0F0FEC0
:10356000002300F0DBBE614B1B685B781BB21B02C3
:103570001AB25E4B1B689B781BB213431BB2BB8213
:10358000BB8A19460020FEF7DDFA594B1B68012261
:103590001A70574B1B6801225A70022000F0D0FEAF
:1035A0005649554807F0D8FF012300F0B7BE002365
:1035B0003B7307F10C0319460A20FFF7DDFE3B7B46
:1035C000002B0DD04A4B1B6802221A70484B1B6817
:1035D00000225A70022000F0B3FE002300F09EBECD
:1035E000424B1B685B781BB21B021AB23F4B1B6835
:1035F0009B781BB213431BB2FB82FB8A1946012046
:10360000FEF7A0FA3A4B1B6802221A70384B1B686F
:1036100001225A70022000F093FE3949364807F023
:103620009BFF012300F07ABE00237B8100233B81B6
:1036300007F10A0319460120FFF79EFE07F1080370
:1036400019460820FFF798FE0020FEF749FCF0EE2F
:10365000407AFCEEE77A17EE903ABB830120FEF742
:103660003FFCF0EE407AFCEEE77A17EE903A7B836F
:103670007B89BA8B9A4203D23B897A8B9A420DD3CB
:103680001B4B1B6803221A70194B1B6800225A70CF
:10369000022000F055FE002300F040BE134B1B68D3
:1036A0005B78002B14BF012300237B760F4B1B6834
:1036B0009B78002B14BF012300233B76397E787E54
:1036C00001230122FEF772FA094B1B6803221A70CC
:1036D000074B1B6801225A70022000F031FE094995
:1036E000054807F039FF012300F018BEB40100209F
:1036F000B001002014CF00086402002038CF000879
:1037000054CF000870CF00089F4B1B685B78FB7795
:103710009D4B1B689B78BB77FB7F002B14BF01235D
:103720000023DAB2BB7F002B14BF01230023DBB2DE
:1037300019461046FEF716FB944B1B6804221A70BC
:10374000924B1B6801225A70022000F0F9FD90494B
:10375000904807F001FF012300F0E0BD8A4B1B6891
:103760005B78002B14BF01230023DBB2FB71864B77
:103770001B689B78002B14BF01230023DBB2BB71B5
:10378000FB7983F00103DBB2002B04D0FB1D19464B
:103790000520FFF713FEBB7983F00103DBB2002B9A
:1037A00004D0BB1D19460C20FFF708FE012300F0D2
:1037B000B5BD7B1D19460520FFF7DEFD3B1D1946F3
:1037C0000C20FFF7D9FD714B1B680B221A707A7918
:1037D0006E4B1B685A703A796C4B1B689A700320C9
:1037E00000F0AEFD012300F099BD0023FB8500230E
:1037F00087F82D30002387F82C300020FEF712FBCD
:1038000003467B850120FEF70DFB0346FB85002068
:10381000FEF727FB034687F829300020FEF740FB20
:10382000034687F82D300120FEF71BFB034687F87F
:1038300028300120FEF734FB034687F82C30534B29
:103840001B680A221A707B8D1B0A9AB24F4B1B68A9
:10385000D2B25A704D4B1B687A8DD2B29A70FB8DE2
:103860001B0A9AB2494B1B68D2B2DA70474B1B68ED
:10387000FA8DD2B21A71454B1B6897F829205A71FC
:10388000424B1B6897F82D20DA71404B1B6897F864
:1038900028209A713D4B1B6897F82C201A7209203A
:1038A00000F04EFD012300F039BD0020FEF7D9FAEB
:1038B000034687F827300120FEF7D3FA034687F83E
:1038C0002630324B1B6809221A70304B1B6897F860
:1038D00027205A702D4B1B6897F826209A700320DA
:1038E00000F02EFD012300F019BD0020FEF7D8FAEC
:1038F000034687F825300120FEF7D2FA034687F801
:103900002430224B1B6808221A70204B1B6897F842
:1039100025205A701D4B1B6897F824209A700320AD
:1039200000F00EFD012300F0F9BC00237B84002091
:10393000FEF778FA03463B840120FEF773FA03464C
:103940007B84124B1B6807221A703B8C1B0A9AB2AD
:103950000E4B1B68D2B25A700C4B1B683A8CD2B219
:103960009A707B8C1B0A9AB2084B1B68D2B2DA7031
:10397000064B1B687A8CD2B21A71052000F0E0FC6D
:10398000012300F0CBBC00BFB4010020B001002037
:103990008CCF00086402002000007A440020FEF76B
:1039A0009FFAF0EE407A1FED047A67EE877AC7ED52
:1039B000127A0120FEF794FAF0EE407A1FED0A7AAF
:1039C00067EE877AC7ED117AD7ED127AFCEEE77AC7
:1039D00017EE903A3B64D7ED117AFCEEE77A17EEDA
:1039E000903AFB87894B1B6810221A70874B1B6823
:1039F0003A6CD2B25A703B6C1A0A844B1B68D2B232
:103A00009A703B6C1A0C814B1B68D2B2DA703B6C1B
:103A10001A0E7E4B1B68D2B21A717C4B1B68FA8F50
:103A2000D2B25A71FB8F1B0A9AB2784B1B68D2B282
:103A30009A71072000F084FC7549764807F08CFDE8
:103A4000012300F06BBC744BD3ED037A9FED737AC6
:103A500067EE877AFDEEE77A17EE903A7B656E4B5C
:103A6000D3ED047A9FED6D7A67EE877AFDEEE77A03
:103A700017EE903A3B65684BD3ED057A9FED677A78
:103A800067EE877AFDEEE77A17EE903AFB645F4BBC
:103A90001B6811221A705D4B1B687A6DD2B25A7086
:103AA0007B6D1A12594B1B68D2B29A707B6D1A1437
:103AB000564B1B68D2B2DA707B6D1A16534B1B68DB
:103AC000D2B21A71514B1B683A6DD2B25A713B6D2A
:103AD0001A124E4B1B68D2B29A713B6D1A144B4BA3
:103AE0001B68D2B2DA713B6D1A16484B1B68D2B212
:103AF0001A72464B1B68FA6CD2B25A72FB6C1A12DD
:103B0000424B1B68D2B29A72FB6C1A143F4B1B6873
:103B1000D2B2DA72FB6C1A163C4B1B68D2B21A7323
:103B20000D2000F00DFCF8E33B4BD3ED007A9FED48
:103B30003B7A67EE877AFDEEE77A17EE903A3B66BE
:103B4000354BD3ED017A9FED357A67EE877AFDEE3E
:103B5000E77A17EE903AFB652F4BD3ED027A9FED93
:103B60002F7A67EE877AFDEEE77A17EE903ABB651B
:103B7000264B1B6812221A70244B1B683A6ED2B275
:103B80005A733B6E1A12214B1B68D2B29A733B6E6A
:103B90001A141E4B1B68D2B2DA733B6E1A161B4BFB
:103BA0001B68D2B21A74194B1B68FA6DD2B25A74E0
:103BB000FB6D1A12154B1B68D2B29A74FB6D1A1466
:103BC000124B1B68D2B2DA74FB6D1A160F4B1B68CE
:103BD000D2B21A750D4B1B68BA6DD2B25A75BB6D55
:103BE0001A120A4B1B68D2B29A75BB6D1A14074B96
:103BF0001B68D2B2DA75BB6D1A16044B1B68D2B2C1
:103C00001A76192000F09CFB87E300BFB00100206A
:103C1000ACCF0008640200209017002000007A4416
:103C20009A4BD3ED037A9FED9A7A67EE877AFDEE91
:103C3000E77A17EE903ABB67944BD3ED047A9FED89
:103C4000947A67EE877AFDEEE77A17EE903A7B6713
:103C50008E4BD3ED057A9FED8E7A67EE877AFDEE77
:103C6000E77A17EE903A3B67884BD3ED007A9FEDE9
:103C7000887A67EE877AFDEEE77A17EE903AFB6670
:103C8000824BD3ED017A9FED827A67EE877AFDEE63
:103C9000E77A17EE903ABB667C4BD3ED027A9FED44
:103CA0007C7A67EE877AFDEEE77A17EE903A7B66CC
:103CB000784B1B6813221A70764B1B68BA6FD2B20E
:103CC0005A70BB6F1A12734B1B68D2B29A70BB6FDB
:103CD0001A14704B1B68D2B2DA70BB6F1A166D4B98
:103CE0001B68D2B21A716B4B1B687A6FD2B25A71D1
:103CF0007B6F1A12674B1B68D2B29A717B6F1A14D2
:103D0000644B1B68D2B2DA717B6F1A16614B1B6869
:103D1000D2B21A725F4B1B683A6FD2B25A723B6FC3
:103D20001A125C4B1B68D2B29A723B6F1A14594B31
:103D30001B68D2B2DA723B6F1A16564B1B68D2B2AE
:103D40001A73544B1B68FA6ED2B25A73FB6E1A1276
:103D5000504B1B68D2B29A73FB6E1A144D4B1B6802
:103D6000D2B2DA73FB6E1A164A4B1B68D2B21A74BF
:103D7000484B1B68BA6ED2B25A74BB6E1A12454BCE
:103D80001B68D2B29A74BB6E1A14424B1B68D2B233
:103D9000DA74BB6E1A163F4B1B68D2B21A753D4BD4
:103DA0001B687A6ED2B25A757B6E1A12394B1B6839
:103DB000D2B29A757B6E1A14364B1B68D2B2DA7582
:103DC0007B6E1A16334B1B68D2B21A76192000F09C
:103DD000B7FAA2E2304BD3ED007A9FED2D7A67EE71
:103DE000877AFDEEE77A17EE903AFB67294B1B685E
:103DF00014221A70274B1B68FA6FD2B25A70FB6FED
:103E00001A12244B1B68D2B29A70FB6F1A14214B02
:103E10001B68D2B2DA70FB6F1A161E4B1B68D2B247
:103E20001A710D2000F08CFA77E21B4BD3ED017A6A
:103E30009FED177A67EE877AFDEEE77A17EE903AF4
:103E4000C7F88030134B1B6815221A70114B1B6882
:103E5000D7F88020D2B25A71D7F880301A120D4BA1
:103E60001B68D2B29A71D7F880301A14094B1B68BC
:103E7000D2B2DA71D7F880301A16064B1B68D2B26C
:103E80001A720D2000F05CFA47E200BF9017002084
:103E900000007A44B0010020B4170020BA4BD3EDE3
:103EA000027A9FEDBA7A67EE877AFDEEE77A17EE2F
:103EB000903AC7F88430B64B1B6816221A70B44B80
:103EC0001B68D7F88420D2B25A72D7F884301A12FD
:103ED000AF4B1B68D2B29A72D7F884301A14AC4B2D
:103EE0001B68D2B2DA72D7F884301A16A84B1B6856
:103EF000D2B21A730D2000F023FA0EE2A24BD3EDDA
:103F0000007A9FEDA27A67EE877AFDEEE77A17EEE8
:103F1000903AC7F890309C4BD3ED017A9FED9B7A95
:103F200067EE877AFDEEE77A17EE903AC7F88C30A5
:103F3000954BD3ED027A9FED957A67EE877AFDEE89
:103F4000E77A17EE903AC7F88830914B1B68172232
:103F50001A708F4B1B68D7F89020D2B25A70D7F8DE
:103F600090301A128A4B1B68D2B29A70D7F89030F0
:103F70001A14874B1B68D2B2DA70D7F890301A1631
:103F8000834B1B68D2B21A71814B1B68D7F88C2007
:103F9000D2B25A71D7F88C301A127D4B1B68D2B24C
:103FA0009A71D7F88C301A14794B1B68D2B2DA7137
:103FB000D7F88C301A16764B1B68D2B21A72744B33
:103FC0001B68D7F88820D2B25A72D7F888301A12F4
:103FD0006F4B1B68D2B29A72D7F888301A146C4BA8
:103FE0001B68D2B2DA72D7F888301A16684B1B6891
:103FF000D2B21A730D2000F0A3F98EE1654BD3ED18
:10400000007A9FED627A67EE877AFDEEE77A17EE27
:10401000903AC7F89C305F4BD3ED017A9FED5B7A05
:1040200067EE877AFDEEE77A17EE903AC7F8983098
:10403000584BD3ED027A9FED557A67EE877AFDEE05
:10404000E77A17EE903AC7F89430514B1B68182264
:104050001A704F4B1B68D7F89C20D2B25A70D7F811
:104060009C301A124A4B1B68D2B29A70D7F89C3017
:104070001A14474B1B68D2B2DA70D7F89C301A1664
:10408000434B1B68D2B21A71414B1B68D7F898207A
:10409000D2B25A71D7F898301A123D4B1B68D2B27F
:1040A0009A71D7F898301A14394B1B68D2B2DA716A
:1040B000D7F898301A16364B1B68D2B21A72344BA6
:1040C0001B68D7F89420D2B25A72D7F894301A12DB
:1040D0002F4B1B68D2B29A72D7F894301A142C4B1B
:1040E0001B68D2B2DA72D7F894301A16284B1B68C4
:1040F000D2B21A730D2000F023F90EE1264B1B6893
:104100005B7887F8A23097F8A230012B03D100200A
:1041100005F010FA00E197F8A230022B03D110202D
:1041200005F008FAF8E097F8A230042B40F0F4808C
:10413000302005F0FFF9EFE005F042FA034687F87A
:10414000A330134B1B681A221A7097F8A330002B68
:1041500004D10F4B1B6801225A7010E097F8A3306E
:10416000102B04D10A4B1B6802225A7007E097F803
:10417000A330302B03D1064B1B6804225A70022057
:1041800000F0DEF8C9E000BFB417002000007A4458
:10419000B0010020A8170020B4010020614BD3ED2E
:1041A000037A9FED617A67EE877AFCEEE77A17EE85
:1041B000903AA7F8A4305D4B1B681B221A70B7F821
:1041C000A4301B0A9AB2594B1B68D2B25A70574B93
:1041D0001B68B7F8A420D2B29A70032000F0B0F8A0
:1041E0009BE0534BD3ED037A9FED4F7A67EE877ACE
:1041F000FCEEE77A17EE903AA7F8A6304B4B1B6817
:104200001C221A70B7F8A6301B0A9AB2474B1B68DB
:10421000D2B25A70454B1B68B7F8A620D2B29A703A
:10422000032000F08DF878E0424B1B685B7B1A4658
:10423000404B1B689B7B1B021A433E4B1B68DB7B7E
:104240001B041A433B4B1B681B7C1B0613437B63FD
:104250007B6B07EE903AB8EEE77ADFED376AC7EE90
:10426000267AC7ED0C7A97ED0C0A05F085FA54E032
:104270004FF000033B603B46184605F0F3FAD7EDDC
:10428000007A9FED2D7A67EE877AFDEEE77A17EEDA
:10429000903ABB63254B1B680D221A70234B1B6899
:1042A000BA6BD2B25A73BB6B1A12204B1B68D2B2D4
:1042B0009A73BB6B1A141D4B1B68D2B2DA73BB6BBB
:1042C0001A161A4B1B68D2B21A74112000F038F873
:1042D00023E0184B1B685B78002B14BF01230023DD
:1042E00087F83D3097F83D30002B03D0134B012267
:1042F0001A7009E097F83D3083F00103DBB2002B20
:1043000002D00E4B00221A7097F83D30184605F087
:104310000FFB02E0002301E000BF01231846A8378D
:10432000BD4680BD701700200000C842B0010020CB
:1043300080170020B401002000007A445C020020B5
:1043400080B58CB000AF0346FB711E4BCA221A70B9
:104350001D4B1A781B4B5A701A4B02229A70194A3D
:10436000FB79D370174B07221A71164BEF2283F893
:104370000021144BDB780433DBB21A4613490020CA
:1043800005F044FD03461A460E4BA3F8FE2007F144
:104390000C0323220021184607F092FA07F10B02C2
:1043A00007F10C031946074805F07CFDFA7A07F17E
:1043B0000C031946064807F0E7F800BF3037BD4642
:1043C00080BD00BF58130020591800205913002049
:1043D000EC0E002080B584B004AF4FF4007303935B
:1043E0004FF400730293124B0193124B0093252359
:1043F000114A1249124807F036F8124B124A5A6015
:10440000104B4FF400721A800E4B00221A810D4B94
:104410001B88002B06D00B4B5B680422002118463A
:1044200007F04EFA012005F02DFD00BFBD4680BD0E
:1044300058110020580F002000100140C0CF000884
:10444000EC0E0020601500206C15002080B584B0B3
:1044500000AF78600023FB733223FB7347E02A48E8
:1044600007F046F80346DAB2284B9A72274B9B7A3C
:10447000DBB2CA2B03D1254B00221A8134E0234B37
:104480009B7ADBB2EF2B14D1204B5B681F4A128959
:1044900092B2D1B21E4A184605F03AFE0346BB73EB
:1044A000BB7B012B01D1FEF7ABFF184B00221A8119
:1044B0001AE0164B5B68154A128992B21344134AEC
:1044C000927AD2B21A70114B1B899BB201339AB205
:1044D0000E4B1A810D4B1B899AB20C4B1B889A42CA
:1044E00002D90A4B00221A81FB7B013BFB73064871
:1044F00007F068F80346002B02D0FB7B002BAED1FF
:1045000000BF1037BD4680BDEC0E002060150020B6
:104510005C14002080B500AF9FED070A074A0849E8
:10452000084805F0E5FB9FED040A074A04490748DF
:1045300005F0DEFB00BF80BD00404E450F00F000DF
:1045400000210140801700200E00C00070170020DD
:1045500080B582B000AF0123FB710023BB7105F071
:1045600051FA0346FB71FB79002B03D1134B012257
:104570001A7002E0114B00221A7005F03DF8034654
:10458000FB71FB79002B03D10C4B01225A7002E026
:104590000A4B00225A7004F0C7FD0346BB71BB7979
:1045A000002B03D0054B01229A7002E0034B00223E
:1045B0009A7000BF0837BD4680BD00BFC0170020FD
:1045C00080B582B000AF7860134B1B78022B14D0FB
:1045D000022B19DC002B02D0012B07D014E00F486E
:1045E00005F088F80C4B01221A7011E00C4805F018
:1045F0003BFA094B02221A700AE00A4804F03AFF1B
:10460000054B00221A7003E0034B00221A7000BF12
:1046100000BF0837BD4680BD6C170020A8170020DA
:1046200090170020B417002080B582B000AF7860EA
:10463000094805F0B9FBF0EE407A074BC3ED037A69
:10464000064805F0B1FBF0EE407A044BC3ED037A67
:1046500000BF0837BD4680BD7017002080170020BE
:1046600080B485B000AF78607B6803F00703FB601F
:104670000C4BDB68BB60BA684FF6FF031340BB60AE
:10468000FB681A02BB68134343F0BF6343F4003373
:10469000BB60044ABB68D36000BF1437BD465DF8F9
:1046A000047B704700ED00E080B400AF044BDB6892
:1046B0001B0A03F007031846BD465DF8047B7047EC
:1046C00000ED00E080B483B000AF0346FB7197F9C2
:1046D0000730002B0BDBFB7903F01F02074997F92A
:1046E00007305B09012000FA02F241F8232000BFE5
:1046F0000C37BD465DF8047B704700BF00E100E069
:1047000080B483B000AF03463960FB7197F907307E
:10471000002B0ADB3B68DAB20C4997F9073012012B
:10472000D2B20B4483F800230AE03B68DAB20849AE
:10473000FB7903F00F03043B1201D2B20B441A764B
:1047400000BF0C37BD465DF8047B704700E100E018
:1047500000ED00E080B489B000AFF860B9607A6025
:10476000FB6803F00703FB61FB69C3F10703042B3C
:1047700028BF0423BB61FB690433062B02D9FB6904
:10478000033B00E000237B614FF0FF32BB6902FA7C
:1047900003F3DA43BB681A407B699A404FF0FF315C
:1047A0007B6901FA03F3D9437B680B401343184636
:1047B0002437BD465DF8047B704780B489B000AFF4
:1047C000F860B9607A60FB682C331946BB6803F463
:1047D00040734FF440727A617A6992FAA2F23A61B8
:1047E0003A69BA61BA69002A01D1202203E0BA69A4
:1047F000B2FA82F2D2B2D3409B000B44FB61FB6958
:104800001A68BB6803F01F031F2101FA03F3DB439F
:104810001A407B6803F01F01BB6803F01F0301FA15
:1048200003F31A43FB691A6000BF2437BD465DF8E5
:10483000047B704780B483B000AF786039607B68D8
:104840009B6823F480623B681A437B689A6000BFD0
:104850000C37BD465DF8047B704780B48FB000AF65
:10486000F860B9607A60FB680C331946BB6803F0E6
:1048700000734FF000727A617A6992FAA2F23A619B
:104880003A69BA61BA69002A01D1202203E0BA6903
:10489000B2FA82F2D2B2D3409B000B447B637B6BB3
:1048A0001A68BB6803F0F8734FF0F8713962396A1F
:1048B00091FAA1F1F961F9697962796A002901D166
:1048C000202103E0796AB1FA81F1C9B2CB40072116
:1048D00001FA03F3DB431A40BB6803F0F8734FF0AF
:1048E000F871F962F96A91FAA1F1B962B96A3963AA
:1048F000396B002901D1202103E0396BB1FA81F134
:10490000C9B2CB40796801FA03F31A437B6B1A6092
:1049100000BF3C37BD465DF8047B704780B483B070
:1049200000AF78607B681B6823F080027B681A60A8
:1049300000BF0C37BD465DF8047B704780B483B080
:1049400000AF78607B681B6823F040027B681A60C8
:1049500000BF0C37BD465DF8047B704780B483B060
:1049600000AF786039607B68DB6823F0FE023B684B
:104970001A437B68DA6000BF0C37BD465DF8047BE4
:10498000704780B483B000AF78607B68DB6823F049
:1049900001027B68DA6000BF0C37BD465DF8047B1E
:1049A0007047000080B400AF054B1B68044A43F415
:1049B0008033136000BFBD465DF8047B704700BFC5
:1049C0000038024080B400AF074B1B6803F400338B
:1049D000B3F5003F0CBF01230023DBB21846BD46F0
:1049E0005DF8047B704700BF0038024080B483B09C
:1049F00000AF7860064B9B6823F0030204497B6894
:104A000013438B6000BF0C37BD465DF8047B7047D5
:104A10000038024080B400AF044B9B6803F00C03E5
:104A20001846BD465DF8047B704700BF0038024061
:104A300080B483B000AF7860064B9B6823F0F0022F
:104A400004497B6813438B6000BF0C37BD465DF89B
:104A5000047B70470038024080B483B000AF7860B8
:104A6000064B9B6823F4E05204497B6813438B6038
:104A700000BF0C37BD465DF8047B7047003802402C
:104A800080B483B000AF7860064B9B6823F460422B
:104A900004497B6813438B6000BF0C37BD465DF84B
:104AA000047B70470038024080B400AF054B1B68A0
:104AB000044A43F08073136000BFBD465DF8047B79
:104AC000704700BF0038024080B400AF074B1B683E
:104AD00003F00073B3F1007F0CBF01230023DBB2AE
:104AE0001846BD465DF8047B704700BF00380240A1
:104AF00080B485B000AFF860B9607A603B600D4B60
:104B00005A680D4B1340F968BA6811437A689201EC
:104B10000A43084913434B60064B5B6823F4403259
:104B200004493B6813434B6000BF1437BD465DF832
:104B3000047B7047003802400080BFFF80B485B01E
:104B400000AF7860084B1A6B07497B6813430B630F
:104B5000054B1A6B7B681340FB60FB6800BF143782
:104B6000BD465DF8047B70470038024080B485B0D4
:104B700000AF7860084B1A6C07497B6813430B64DD
:104B8000054B1A6C7B681340FB60FB6800BF143751
:104B9000BD465DF8047B70470038024080B485B0A4
:104BA00000AF7860084B5A6C07497B6813434B642D
:104BB000054B5A6C7B681340FB60FB6800BF1437E1
:104BC000BD465DF8047B70470038024080B487B072
:104BD00000AF78603960174A3B68DBB2023352F8A5
:104BE00023203B681B0CDB4302EA03013B681B0CE0
:104BF0003B613B6993FAA3F3FB60FB687B617B69D4
:104C0000002B01D1202303E07B69B3FA83F3DBB2ED
:104C10001A467B6803FA02F206483B68DBB20A4395
:104C2000023340F8232000BF1C37BD465DF8047BEB
:104C3000704700BF0038014080B483B000AF786097
:104C4000064B1B6823F0070204497B6813430B6083
:104C500000BF0C37BD465DF8047B7047003C024046
:104C600080B400AF044B1B6803F007031846BD4631
:104C70005DF8047B704700BF003C024080B483B005
:104C800000AF7860064B1B6823F4804204497B68C0
:104C900013430B6000BF0C37BD465DF8047B7047C3
:104CA0000070004080B400AF074B5B6803F48043A2
:104CB000B3F5804F0CBF01230023DBB21846BD467D
:104CC0005DF8047B704700BF0070004080B483B083
:104CD00000AF78607B681B6823F080027B681A60F5
:104CE00000BF0C37BD465DF8047B704780B485B0CB
:104CF00000AF786039603B68012B1CD03B68042B07
:104D000017D03B68102B12D03B68402B0DD03B686E
:104D1000B3F5807F07D03B68B3F5806F01D10523E1
:104D20000AE0062308E0042306E0032304E002234C
:104D300002E0012300E00023FB737B68183319466F
:104D4000FB7B0B4AD35C0B44BB60BB681A68FB7BE4
:104D50000849CB5C194604238B40DB431A40BB68EF
:104D60001A6000BF1437BD465DF8047B704700BF72
:104D70007CD2000884D2000880B485B000AF78608F
:104D800039603B68012B1CD03B68042B17D03B6873
:104D9000102B12D03B68402B0DD03B68B3F5807FC1
:104DA00007D03B68B3F5806F01D105230AE00623E5
:104DB00008E0042306E0032304E0022302E00123C9
:104DC00000E00023FB737B6818331946FB7B0A4A1B
:104DD000D35C0B44BB60BB681A68FB7B0749CB5CA8
:104DE000194608238B401A43BB681A6000BF14376A
:104DF000BD465DF8047B70477CD2000884D2000871
:104E000080B483B000AF786039607B685B6823F062
:104E100070023B681A437B685A6000BF0C37BD467E
:104E20005DF8047B704780B483B000AF78607B6826
:104E30009B6823F080027B689A6000BF0C37BD46F8
:104E40005DF8047B704780B483B000AF78607B6806
:104E5000DB6843F400527B68DA6000BF0C37BD4664
:104E60005DF8047B704780B483B000AF78607B68E6
:104E70001B6923F490427B681A617B685B6923F0AD
:104E80002A027B685A6100BF0C37BD465DF8047B7F
:104E9000704780B48BB000AFF860B9607A60FB688F
:104EA0001A68BB687B617B6993FAA3F33B613B693A
:104EB000BB61BB69002B01D1202303E0BB69B3FABE
:104EC00083F3DBB25B00032101FA03F3DB431A40F7
:104ED000BB683B623B6A93FAA3F3FB61FB697B62AD
:104EE0007B6A002B01D1202303E07B6AB3FA83F3B2
:104EF000DBB25B00796801FA03F31A43FB681A60BE
:104F000000BF2C37BD465DF8047B704780B48BB082
:104F100000AFF860B9607A60FB68DA68BB687B61F3
:104F20007B6993FAA3F33B613B69BB61BB69002BCF
:104F300001D1202303E0BB69B3FA83F3DBB25B004A
:104F4000032101FA03F3DB431A40BB683B623B6A6F
:104F500093FAA3F3FB61FB697B627B6A002B01D1AF
:104F6000202303E07B6AB3FA83F3DBB25B0079684A
:104F700001FA03F31A43FB68DA6000BF2C37BD4621
:104F80005DF8047B704780B483B000AF786039600F
:104F90003B681A047B689A6100BF0C37BD465DF818
:104FA000047B704780B500AF4FF48040FFF7F6FDFB
:104FB0004FF08050FFF7DAFD0320FFF751FBFFF7BA
:104FC00073FB034600220F211846FFF7C3FB03467D
:104FD00019464FF0FF30FFF793FB00F017F800F091
:104FE000EDFB00F05BF800F017FA00F0ABFA00F010
:104FF00075FB00F013FB00F047F900F09DF900F09D
:10500000D1F8FBF759FF00BFFDE7000080B500AF06
:105010000120FFF711FE00BFFFF722FE0346012B20
:10502000FAD14FF48040FFF729FEFFF7BBFC00BF29
:10503000FFF7C8FC0346012BFAD1002348220421C4
:105040004FF48000FFF754FDFFF72EFD00BFFFF780
:105050003BFD0346012BFAD100BFFFF723FE0346B9
:10506000002BFAD08020FFF7E3FC0020FFF7F4FCD0
:105070000020FFF705FD0220FFF7B8FC00BFFFF797
:10508000C9FC0346082BFAD1034802F0E7F90248AD
:1050900002F0F2F900BF80BD0051250280B592B048
:1050A00000AF07F13C0300221A605A609A6007F1D2
:1050B000280300221A605A609A60DA601A6107F1C8
:1050C000180300221A605A609A60DA603B46002298
:1050D0001A605A609A60DA601A615A614FF48070FF
:1050E000FFF75CFD0420FFF729FD05233B60032348
:1050F0007B6000233B613B461946274801F094F84A
:10510000FFF7D2FA0346002203211846FFF722FBDD
:10511000034619461220FFF7F3FA1220FFF7D2FADE
:105120000023FB6300233B6400237B6407F13C0303
:1051300019461A4800F0A8FD0023BB620023FB6259
:1051400000233B6300237B630023BB6307F1280339
:105150001946124800F0C4FD4FF480610F48FFF774
:1051600069FB4FF48033BB610023FB6107F1180337
:1051700019460B4800F040FD0A224FF40071074821
:10518000FFF71BFB00220A210448FFF766FB00BF64
:105190004837BD4680BD00BF0008024000200140E6
:1051A0000023014080B58EB000AF07F12C03002230
:1051B0001A605A609A6007F1180300221A605A6058
:1051C0009A60DA601A613B4600221A605A609A605F
:1051D000DA601A615A614FF40070FFF7DFFC0420B7
:1051E000FFF7ACFC30233B6003237B6000233B6173
:1051F0003B461946214801F017F8FFF755FA0346D8
:10520000002203211846FFF7A5FA0346194612208B
:10521000FFF776FA1220FFF755FA0023FB6200230E
:105220003B6300237B6307F12C031946144800F00D
:105230002BFD0023BB610023FB6100233B620023A5
:105240007B620023BB6207F1180319460C4800F08B
:1052500047FD4FF480610A48FFF7ECFA094A4FF422
:1052600000710748FFF7A9FA002206490448FFF732
:10527000F4FA00BF3837BD4680BD00BF00080240C9
:10528000002101400E00C00080B58CB000AF07F1D6
:10529000180300221A605A609A60DA601A615A6133
:1052A0003B4600221A605A609A60DA601A615A61BD
:1052B0000220FFF743FC4FF440733B6002237B6006
:1052C0000323BB600123FB6000233B6104237B615C
:1052D0003B461946154800F0A7FF4FF40010FFF7B2
:1052E00045FC1348FFF74DFB1148FFF727FB10481B
:1052F000FFF714FB0023BB610E4BFB6100233B62F5
:1053000000237B624FF48063BB624FF48043FB62F7
:1053100007F118031946064801F0FEF80021044879
:10532000FFF71CFB00BF3037BD4680BD00040240C4
:1053300000540040A086010080B58CB000AF07F19A
:10534000180300221A605A609A60DA601A615A6182
:105350003B4600221A605A609A60DA601A615A610C
:105360000420FFF7EBFB0120FFF7E8FB4FF400738D
:105370003B6002237B600323BB600123FB600023AF
:105380003B6104237B613B4619461F4800F04CFFFC
:105390004FF480733B6002237B600323BB600123D7
:1053A000FB6000233B6104237B613B4619461748A1
:1053B00000F03AFF4FF40000FFF7D8FB1448FFF766
:1053C000E0FA1348FFF7BAFA1148FFF7A7FA0023EB
:1053D000BB61104BFB6100233B6200237B624FF4F7
:1053E0008063BB624FF48043FB6207F118031946E8
:1053F000074801F091F800210548FFF7AFFA00BF18
:105400003037BD4680BD00BF0008024000000240AA
:10541000005C0040A086010080B59AB000AF07F1A3
:10542000540300221A605A609A60DA601A6107F128
:10543000340320220021184606F042FA07F11C032B
:1054400000221A605A609A60DA601A615A613B1D44
:1054500000221A605A609A60DA601A615A6101206B
:10546000FFF79CFB0023A7F854300023BB654FF6E1
:10547000FF73FB6500233B6600237B6607F1540343
:1054800019462E4801F026FA2C48FFF71FFC4FF46E
:1054900080512A48FFF770FC60237B630023BB63C5
:1054A0000023FB6300233B6400237B640023FB6435
:1054B00000233B6507F134031A464FF480511F481F
:1054C00001F0A2FA4FF480511C48FFF70FFC0021B5
:1054D0001A48FFF795FC1948FFF7A5FC0023FB616C
:1054E00000233B6200237B62002387F828300023DF
:1054F0007B854FF40053FB6200233B6307F11C03E1
:1055000019460E4801F0C1FA0120FFF717FB4FF4CE
:1055100000637B600223BB600023FB6000233B61D0
:1055200000237B610123BB613B1D1946044800F049
:105530007BFE00BF6837BD4680BD00BF0000014054
:105540000000024080B594B000AF07F13C03002298
:105550001A605A609A60DA601A6107F11C0320220F
:105560000021184606F0ACF93B1D00221A605A6073
:105570009A60DA601A615A610220FFF7F7FA002395
:10558000BB8700233B644FF6FF737B640023BB643F
:1055900007F13C0319461F4801F09CF91D48FFF72D
:1055A00095FB10211B48FFF7E7FB6023FB610023FD
:1055B0003B6200237B620023BB620023FB6207F196
:1055C0001C031A461021134801F01EFA102111483D
:1055D000FFF78CFB00210F48FFF712FC0D48FFF787
:1055E00022FC0220FFF7AAFA20237B600223BB6083
:1055F0000023FB6000233B6100237B610223BB612E
:105600003B1D1946044800F00FFE00BF5037BD4651
:1056100080BD00BF000400400004024080B58EB091
:1056200000AF07F11C0300221A605A609A60DA602A
:105630001A615A619A613B1D00221A605A609A6091
:10564000DA601A615A611020FFF7A8FA0220FFF70A
:1056500075FAC0237B600223BB600323FB60002339
:105660003B6100237B610723BB613B1D1946194841
:1056700000F0DAFDFFF718F8034600220221184671
:10568000FFF768F8034619462520FFF739F825206B
:10569000FFF718F84FF4E133FB6100233B6200236E
:1056A0007B620023BB620C23FB6200233B6300236D
:1056B0007B6307F11C031946074801F035FE0648D5
:1056C000FFF7D1FB0448FFF7BEFB00BF3837BD46EC
:1056D00080BD00BF000402400010014080B58EB0C4
:1056E00000AF07F11C0300221A605A609A60DA606A
:1056F0001A615A619A613B1D00221A605A609A60D1
:10570000DA601A615A612020FFF748FA0420FFF797
:1057100015FA40237B600223BB600323FB60002358
:105720003B6100237B610823BB613B1D1946214877
:1057300000F07AFD80237B600223BB600323FB60C3
:1057400000233B6101237B610823BB613B1D19469C
:10575000184800F069FDFEF7A7FF03460022062166
:105760001846FEF7F7FF034619464720FEF7C8FF25
:105770004720FEF7A7FF4FF4E133FB6100233B62B4
:1057800000237B620023BB620C23FB6200233B638C
:1057900000237B6307F11C031946074801F0C4FD91
:1057A0000548FFF760FB0448FFF74DFB00BF3837A3
:1057B000BD4680BD000802400014014080B588B09D
:1057C00000AF07F1180300221A605A603B4600221E
:1057D0001A605A609A60DA601A615A618020FFF795
:1057E000ADF90420FFF7AAF90220FFF7A7F901207D
:1057F000FFF7A4F90820FFF7A1F91B216048FFF784
:10580000C2FB4FF4C0615F48FFF7BDFB04215E4857
:10581000FFF7B9FB4FF470010220FFF7D7F94FF003
:1058200070410220FFF7D2F94FF070610120FFF7BD
:10583000CDF90223BB6101233B7700237B77012352
:10584000BB7707F11803184600F024FB0823BB615F
:1058500001233B7700237B770123BB7707F11803F4
:10586000184600F017FB0423BB6101233B7700239C
:105870007B770223BB7707F11803184600F00AFB79
:10588000002202214148FFF741FB002208213F4846
:10589000FFF73CFB002204213948FFF737FB0022C9
:1058A00002213A48FFF7F5FA002208213748FFF7AE
:1058B000F0FA002204213248FFF7EBFA1B233B6089
:1058C00001237B600023BB600023FB6000233B615E
:1058D0003B4619462A4800F0A7FC4FF4C0633B60E2
:1058E00001237B600023BB600023FB6000233B613E
:1058F0003B461946234800F097FC04233B600123F4
:105900007B600023BB600023FB6000233B613B46C0
:1059100019461D4800F088FCFEF7C6FE034600222B
:1059200001211846FEF716FF034619460720FEF729
:10593000E7FE0720FEF7C6FEFEF7B6FE034600228E
:1059400003211846FEF706FF034619460820FEF716
:10595000D7FE0820FEF7B6FEFEF7A6FE034600229D
:1059600001211846FEF7F6FE034619460920FEF708
:10597000C7FE0920FEF7A6FE00BF2037BD4680BD4A
:105980000004024000000240000C024000080240F7
:1059900080B483B000AF7860074B5A697B681340CE
:1059A0007A689A420CBF01230023DBB218460C37F9
:1059B000BD465DF8047B7047003C014080B483B075
:1059C00000AF7860044A7B68536100BF0C37BD4666
:1059D0005DF8047B704700BF003C014080B400AF1D
:1059E00000BFFDE780B400AF00BFFDE780B400AFAB
:1059F00000BFFDE780B400AF00BFFDE780B400AF9B
:105A000000BFFDE780B400AF00BFBD465DF8047B7A
:105A1000704780B400AF00BFBD465DF8047B70479F
:105A200080B400AF00BFBD465DF8047B704780B511
:105A300000AF05F06FFA00BF80BD80B500AF022057
:105A4000FFF7A6FF0346002B04D00220FFF7B6FFA6
:105A5000FCF706FB00BF80BD80B500AF0420FFF758
:105A600097FF0346002B04D00420FFF7A7FFFBF7A6
:105A700041FA00BF80BD80B500AF0820FFF788FF66
:105A80000346002B04D00820FFF798FFFCF7BAFA72
:105A900000BF80BD80B500AFFCF768FA00BF80BDD5
:105AA00080B500AF024805F09BFD00BF80BD00BF80
:105AB000EC0E002080B500AF024805F091FD00BF5C
:105AC00080BD00BF6402002080B586B000AF786062
:105AD000144A154BD31A7B617B693B61134B1B68DE
