:020000040800F2
:10000000000002208D4B00082D4A0008354A0008E8
:100010003D4A0008454A00084D4A0008000000001B
:10002000000000000000000000000000554A000829
:10003000634A000800000000714A00087F4A000877
:10004000DD4B0008DD4B0008DD4B0008DD4B0008F0
:10005000DD4B0008DD4B0008DD4B00088B4A000833
:10006000DD4B0008A94A0008DD4B0008DD4B000805
:10007000DD4B0008DD4B0008DD4B0008DD4B0008C0
:10008000DD4B0008DD4B0008C74A0008DD4B0008C7
:10009000DD4B0008DD4B0008DD4B0008DD4B0008A0
:1000A000DD4B0008DD4B0008DD4B0008DD4B000890
:1000B000DD4B0008DD4B0008DD4B0008DD4B000880
:1000C000DD4B0008DD4B0008DD4B0008DD4B000870
:1000D000DD4B0008D54A0008DD4B0008DD4B000869
:1000E000DD4B0008DD4B0008DD4B0008DD4B000850
:1000F000DD4B0008DD4B0008DD4B0008DD4B000840
:10010000DD4B0008DD4B0008DD4B0008DD4B00082F
:10011000DD4B0008DD4B0008DD4B0008DD4B00081F
:10012000DD4B0008DD4B0008DD4B0008DD4B00080F
:10013000DD4B00080000000000000000DD4B00085F
:10014000DD4B0008DD4B0008DD4B0008DD4B0008EF
:10015000DD4B0008DD4B0008DD4B0008E94A0008D4
:10016000DD4B0008DD4B0008DD4B0008DD4B0008CF
:10017000DD4B0008DD4B000800000000000000001F
:08018000DD4B0008DD4B000817
:1001900010B5054C237833B9044B13B10448AFF3C1
:1001A00000800123237010BD040200200000000025
:1001B0006898000808B5034B1BB103490348AFF327
:1001C000008008BD000000000802002068980008B8
:1001D00010F8012B11F8013B012A28BF9A42F7D0F1
:1001E000D01A7047034613F8012B002AFBD1181AC6
:1001F000013870470000000000000000000000000F
:1002000001F0FF01102A2BDB10F0070F08D010F8C7
:10021000013B013A8B422DD010F0070F42B3F6D1CB
:10022000F0B441EA012141EA014122F007047FF0E4
:1002300000070023F0E80256083C85EA010586EA3B
:10024000010685FA47F5A3FA87F586FA47F6A5FA77
:1002500087F68EB9EED1F0BC01F0FF0102F0070283
:1002600032B110F8013B013A83EA010313B1F8D12E
:100270000020704701387047002D06BF354603380F
:10028000073815F0010F07D1013015F4807F02BF48
:10029000013015F4C03F0130F0BC0138704700BF99
:1002A00081F0004102E000BF83F0004330B54FEA27
:1002B00041044FEA430594EA050F08BF90EA020F94
:1002C0001FBF54EA000C55EA020C7FEA645C7FEA27
:1002D000655C00F0E2804FEA5454D4EB5555B8BF4A
:1002E0006D420CDD2C4480EA020281EA030382EABB
:1002F000000083EA010180EA020281EA0303362D4D
:1003000088BF30BD11F0004F4FEA01314FF4801C1F
:100310004CEA113102D0404261EB410113F0004F31
:100320004FEA03334CEA133302D0524263EB4303E8
:1003300094EA050F00F0A780A4F10104D5F1200E86
:100340000DDB02FA0EFC22FA05F2801841F10001E1
:1003500003FA0EF2801843FA05F359410EE0A5F1B5
:1003600020050EF1200E012A03FA0EFC28BF4CF0E6
:10037000020C43FA05F3C01851EBE37101F000459C
:1003800007D54FF0000EDCF1000C7EEB00006EEBA9
:100390000101B1F5801F1BD3B1F5001F0CD3490833
:1003A0005FEA30004FEA3C0C04F101044FEA44528A
:1003B00012F5800F80F09A80BCF1004F08BF5FEA11
:1003C000500C50F1000041EB045141EA050130BDF1
:1003D0005FEA4C0C404141EB0101013C28BFB1F503
:1003E000801FE9D291F0000F04BF01460020B1FA4E
:1003F00081F308BF2033A3F10B03B3F120020CDA21
:100400000C3208DD02F1140CC2F10C0201FA0CF0FE
:1004100021FA02F10CE002F11402D8BFC2F1200C63
:1004200001FA02F120FA0CFCDCBF41EA0C01904019
:10043000E41AA2BF01EB0451294330BD6FEA040462
:100440001F3C1CDA0C340EDC04F11404C4F120024D
:1004500020FA04F001FA02F340EA030021FA04F35F
:1004600045EA030130BDC4F10C04C4F1200220FAB6
:1004700002F001FA04F340EA0300294630BD21FAF4
:1004800004F0294630BD94F0000F83F4801306BFBA
:1004900081F480110134013D4EE77FEA645C18BFAE
:1004A0007FEA655C29D094EA050F08BF90EA020F45
:1004B00005D054EA000C04BF1946104630BD91EA3D
:1004C000030F1EBF0021002030BD5FEA545C05D140
:1004D0004000494128BF41F0004130BD14F580047F
:1004E0003CBF01F5801130BD01F0004545F0FE41F3
:1004F00041F470014FF0000030BD7FEA645C1ABF28
:10050000194610467FEA655C1CBF0B46024650EA5E
:10051000013406BF52EA033591EA030F41F400218A
:1005200030BD00BF90F0000F04BF0021704730B510
:100530004FF4806404F132044FF000054FF00001E5
:1005400050E700BF90F0000F04BF0021704730B5A6
:100550004FF4806404F1320410F0004548BF40427B
:100560004FF000013EE700BF42004FEAE2014FEAD0
:1005700031014FEA02701FBF12F07F4393F07F4FAB
:1005800081F06051704732F07F4208BF704793F0AE
:100590007F4F04BF41F40021704730B54FF46074C1
:1005A00001F0004521F000411CE700BF50EA0102C4
:1005B00008BF704730B54FF000050AE050EA01026D
:1005C00008BF704730B511F0004502D5404261EBDD
:1005D00041014FF4806404F132045FEA915C3FF41E
:1005E000D8AE4FF003025FEADC0C18BF03325FEABB
:1005F000DC0C18BF033202EBDC02C2F1200300FA6C
:1006000003FC20FA02F001FA03FE40EA0E0021FA90
:1006100002F11444BDE600BF70B54FF0FF0C4CF47E
:10062000E06C1CEA11541DBF1CEA135594EA0C0F30
:1006300095EA0C0F00F0DEF82C4481EA030621EA6B
:100640004C5123EA4C5350EA013518BF52EA0335A6
:1006500041F4801143F4801338D0A0FB02CE4FF058
:100660000005E1FB02E506F00042E0FB03E54FF088
:100670000006E1FB03569CF0000F18BF4EF0010E80
:10068000A4F1FF04B6F5007F64F5407404D25FEA7C
:100690004E0E6D4146EB060642EAC62141EA55512F
:1006A0004FEAC52040EA5E504FEACE2EB4F1FD0C71
:1006B00088BFBCF5E06F1ED8BEF1004F08BF5FEAEF
:1006C000500E50F1000041EB045170BD06F00046A1
:1006D00046EA010140EA020081EA0301B4EB5C044E
:1006E000C2BFD4EB0C0541EA045170BD41F4801146
:1006F0004FF0000E013C00F3AB8014F1360FDEBF6B
:10070000002001F0004170BDC4F10004203C35DA46
:100710000C341BDC04F11404C4F1200500FA05F3C9
:1007200020FA04F001FA05F240EA020001F000426A
:1007300021F0004110EBD37021FA04F642EB0601E0
:100740005EEA430E08BF20EAD37070BDC4F10C040A
:10075000C4F1200500FA04F320FA05F001FA04F2CE
:1007600040EA020001F0004110EBD37041F10001BA
:100770005EEA430E08BF20EAD37070BDC4F12005C5
:1007800000FA05F24EEA020E20FA04F301FA05F22D
:1007900043EA020321FA04F001F0004121FA04F2D5
:1007A00020EA020000EBD3705EEA430E08BF20EAA5
:1007B000D37070BD94F0000F0FD101F000464000DF
:1007C00041EB010111F4801F08BF013CF7D041EA61
:1007D000060195F0000F18BF704703F00046520065
:1007E00043EB030313F4801F08BF013DF7D043EA36
:1007F0000603704794EA0C0F0CEA135518BF95EAEC
:100800000C0F0CD050EA410618BF52EA4306D1D172
:1008100081EA030101F000414FF0000070BD50EA91
:10082000410606BF1046194652EA430619D094EA1B
:100830000C0F02D150EA013613D195EA0C0F05D105
:1008400052EA03361CBF104619460AD181EA030159
:1008500001F0004141F0FE4141F470014FF0000011
:1008600070BD41F0FE4141F4780170BD70B54FF0AC
:10087000FF0C4CF4E06C1CEA11541DBF1CEA13552C
:1008800094EA0C0F95EA0C0F00F0A7F8A4EB05040E
:1008900081EA030E52EA03354FEA013100F0888005
:1008A0004FEA03334FF0805545EA131343EA1263CE
:1008B0004FEA022245EA111545EA10654FEA002683
:1008C0000EF000419D4208BF964244F1FD0404F53C
:1008D000407402D25B084FEA3202B61A65EB030598
:1008E0005B084FEA32024FF480104FF4002CB6EB55
:1008F000020E75EB030E22BFB61A754640EA0C00D5
:100900005B084FEA3202B6EB020E75EB030E22BF14
:10091000B61A754640EA5C005B084FEA3202B6EB55
:10092000020E75EB030E22BFB61A754640EA9C0014
:100930005B084FEA3202B6EB020E75EB030E22BFE4
:10094000B61A754640EADC0055EA060E18D04FEAA2
:10095000051545EA16754FEA06164FEAC30343EA42
:1009600052734FEAC2025FEA1C1CC0D111F4801F0F
:100970000BD141EA00014FF000004FF0004CB6E708
:1009800011F4801F04BF01430020B4F1FD0C88BFA7
:10099000BCF5E06F3FF6AFAEB5EB030C04BFB6EBB2
:1009A000020C5FEA500C50F1000041EB045170BDA5
:1009B0000EF0004E4EEA113114EB5C04C2BFD4EBD2
:1009C0000C0541EA045170BD41F480114FF0000E56
:1009D000013C90E645EA060E8DE60CEA135594EAD2
:1009E0000C0F08BF95EA0C0F3FF43BAF94EA0C0FD5
:1009F0000AD150EA01347FF434AF95EA0C0F7FF44A
:100A000025AF104619462CE795EA0C0F06D152EA9D
:100A100003353FF4FDAE1046194622E750EA410681
:100A200018BF52EA43067FF4C5AE50EA41047FF492
:100A30000DAF52EA43057FF4EBAE12E74FF0FF3CF7
:100A400006E000BF4FF0010C02E000BF4FF0010CC8
:100A50004DF804CD4FEA410C7FEA6C5C4FEA430C41
:100A600018BF7FEA6C5C1BD001B050EA410C0CBF90
:100A700052EA430C91EA030F02BF90EA020F0020F2
:100A8000704710F1000F91EA030F58BF994208BF59
:100A900090422CBFD8176FEAE37040F00100704716
:100AA0004FEA410C7FEA6C5C02D150EA013C07D16D
:100AB0004FEA430C7FEA6C5CD6D152EA033CD3D0B8
:100AC0005DF8040B704700BF8446104662468C46B2
:100AD0001946634600E000BF01B5FFF7B7FF0028E5
:100AE00048BF10F1000F01BD4DF808EDFFF7F4FF0E
:100AF0000CBF012000205DF808FB00BF4DF808ED99
:100B0000FFF7EAFF34BF012000205DF808FB00BFBB
:100B10004DF808EDFFF7E0FF94BF012000205DF8DD
:100B200008FB00BF4DF808EDFFF7CEFF94BF012092
:100B300000205DF808FB00BF4DF808EDFFF7C4FF8B
:100B400034BF012000205DF808FB00BF4A0011D22D
:100B500012F5001211D20DD56FF47873B3EB625217
:100B60000ED44FEAC12343F0004343EA505323FA23
:100B700002F070474FF00000704750EA013002D198
:100B80004FF0FF3070474FF00000704753B94AB93B
:100B9000002908BF00281CBF4FF0FF314FF0FF3085
:100BA00000F088B9ADF1080C6DE904CE00F006F84C
:100BB000DDF804E0DDE9022304B070472DE9F047D9
:100BC000089D8E4604468846002B4AD18A42174625
:100BD00062D9B2FA82F64EB1C6F1200301FA06F8E4
:100BE00020FA03F3B74043EA0808B4404FEA174E2F
:100BF0001FFA87FCB8FBFEF1230C0EFB118843EAB9
:100C0000084301FB0CF29A4209D9FB1801F1FF30AD
:100C100080F0EA809A4240F2E78002393B449A1A17
:100C2000A3B2B2FBFEF00EFB102243EA024300FB2C
:100C30000CFC9C4509D9FB1800F1FF3280F0D680EE
:100C40009C4540F2D3803B44023840EA0140A3EB8C
:100C50000C0300211DB1F3400022C5E90032BDE8BC
:100C6000F0878B4205D90DB1C5E900010021084686
:100C7000F5E7B3FA83F1002946D1734502D38242E6
:100C800000F20581841A6EEB030201209046002DCC
:100C9000E5D0C5E90048E2E7002A00F09080B2FA0A
:100CA00082F6002E40F0A4808A1A030C4FEA174EF9
:100CB00080B2BCB20121B2FBFEFC0EFB1C2243EA57
:100CC000024304FB0CF29A4207D9FB180CF1FF38DF
:100CD00002D29A4200F2E080C4469B1AB3FBFEF2B5
:100CE0000EFB123340EA034302FB04F49C4207D993
:100CF000FB1802F1FF3002D29C4200F2CA80024689
:100D00001B1B42EA0C40A5E7C1F120068B4022FAEA
:100D100006F71F430EFA01F420FA06F32EFA06FE38
:100D20004FEA1749234300FA01F81FFA87FCBEFB7C
:100D3000F9F01C0C09FB10EE44EA0E4400FB0CFE1B
:100D4000A64502FA01F209D93C1900F1FF3A80F0F8
:100D50009C80A64540F2998002383C44A4EB0E04E6
:100D60001FFA83FEB4FBF9F309FB13444EEA044473
:100D700003FB0CFCA44508D93C1903F1FF3E80F0AD
:100D80008280A4457FD9023B3C4443EA0040A4EB67
:100D90000C04A0FB02EC64457346E14662D35FD0CD
:100DA0005DB1B8EB030264EB090404FA06F622FA1B
:100DB00001F31E43CC40C5E9006400214FE7B1FBBD
:100DC000F2FC010C41EA0E4180B240EA01423B468E
:100DD00038463C46B846BE462026B1FBF7F1A2EBAA
:100DE000080241EA0C4166E7014618E710462CE785
:100DF000C6F120022EFA02F3B740B14020FA02F207
:100E00004FEA174E0A43B3FBFEF8BCB20EFB183391
:100E1000110C41EA034108FB04F9B04089454FEA4F
:100E2000104380B23ED9791808F1FF3C01D28945C0
:100E30001FD8A1EB0901B1FBFEF909FB04F80EFB79
:100E4000191192B242EA0142424529D2BA1809F177
:100E5000FF31C4D24245C2D2A9F102013A44BEE7F1
:100E6000F0459DD2BEEB02036CEB070C0138E14666
:100E700096E7A7EB09094944A8F1020CB1FBFEF97A
:100E800009FB04F8DBE773467FE7504666E7084650
:100E9000FDE63B44023A33E7ACF1020C3B441CE76D
:100EA00049469CE7A1EB0901C446B1FBFEF909FBE9
:100EB00004F8C4E7704700BF80B500AF02F058F9EE
:100EC00000F0AAFB02F004FD42F2107007F080FB74
:100ED00007F0A0FBFCE780B483B000AF786000BFF0
:100EE0000C37BD465DF8047B704780B483B000AF1B
:100EF000786039607B685B6823F480723B681A43D2
:100F00007B685A6000BF0C37BD465DF8047B7047B4
:100F100080B483B000AF786039607B689B6823F051
:100F200070623B6803F070631A437B689A6000BF8D
:100F30000C37BD465DF8047B704780B483B000AFCA
:100F4000786039607B68DB6A23F470023B681A437F
:100F50007B68DA6200BF0C37BD465DF8047B7047E2
:100F600080B489B000AFF860B9607A60FB682C3358
:100F70001946BB6803F440734FF440727A617A6992
:100F800092FAA2F23A613A69BA61BA69002A01D1C9
:100F9000202203E0BA69B2FA82F2D2B2D3409B00B7
:100FA0000B44FB61FB691A68BB6803F01F031F2138
:100FB00001FA03F3DB431A407B6803F01F01BB68AF
:100FC00003F01F0301FA03F31A43FB691A6000BF21
:100FD0002437BD465DF8047B704780B483B000AF12
:100FE000786039607B689B6823F002023B681A4393
:100FF0007B689A6000BF0C37BD465DF8047B704784
:1010000080B483B000AF786039607B689B6823F45C
:1010100080623B681A437B689A6000BF0C37BD460C
:101020005DF8047B704780B48FB000AFF860B960A2
:101030007A60FB680C331946BB6803F000734FF00D
:1010400000727A617A6992FAA2F23A613A69BA61F7
:10105000BA69002A01D1202203E0BA69B2FA82F209
:10106000D2B2D3409B000B447B637B6B1A68BB6896
:1010700003F0F8734FF0F8713962396A91FAA1F10F
:10108000F961F9697962796A002901D1202103E0C7
:10109000796AB1FA81F1C9B2CB40072101FA03F3B1
:1010A000DB431A40BB6803F0F8734FF0F871F96244
:1010B000F96A91FAA1F1B962B96A3963396B002909
:1010C00001D1202103E0396BB1FA81F1C9B2CB40E3
:1010D000796801FA03F31A437B6B1A6000BF3C374F
:1010E000BD465DF8047B704780B483B000AF786084
:1010F0007B689B6843F001027B689A6000BF0C37F5
:10110000BD465DF8047B704780B483B000AF786063
:101110007B689B6823F001027B689A6000BF0C37F4
:10112000BD465DF8047B704780B483B000AF786043
:101130007B689B6843F080427B689A6000BF0C37F5
:10114000BD465DF8047B704780B483B000AF786023
:101150007B68DB6C9BB218460C37BD465DF8047BA0
:10116000704780B483B000AF78607B681B6803F081
:101170000203022B0CBF01230023DBB218460C37FD
:10118000BD465DF8047B704780B483B000AF7860E3
:101190007B681B6803F02003202B0CBF0123002376
:1011A000DBB218460C37BD465DF8047B704780B44F
:1011B00083B000AF78607B686FF002021A6000BFF6
:1011C0000C37BD465DF8047B704780B483B000AF38
:1011D00078607B686FF020021A6000BF0C37BD4654
:1011E0005DF8047B704780B483B000AF78607B68A3
:1011F0005B6843F020027B685A6000BF0C37BD4635
:101200005DF8047B704780B483B000AF78607B6882
:101210005B6843F080627B685A6000BF0C37BD4654
:101220005DF8047B704780B483B000AF78603960AC
:101230007B683A689A6100BF0C37BD465DF8047B55
:10124000704780B483B000AF786039603B681A049F
:101250007B689A6100BF0C37BD465DF8047B704720
:1012600080B483B000AF78607B681B6843F00102F4
:101270007B681A6000BF0C37BD465DF8047B704781
:1012800080B483B000AF78607B681B6823F00202F3
:101290007B681A6000BF0C37BD465DF8047B704761
:1012A00080B483B000AF78607B681B6843F00202B3
:1012B0007B681A6000BF0C37BD465DF8047B704741
:1012C00080B483B000AF78607B681B6843F0800215
:1012D0007B681A6000BF0C37BD465DF8047B704721
:1012E00080B483B000AF786039607B683A689A62F6
:1012F00000BF0C37BD465DF8047B704780B483B0F7
:1013000000AF78607B689B6A18460C37BD465DF875
:10131000047B704780B483B000AF786039607B682D
:101320003A68DA6200BF0C37BD465DF8047B70474F
:1013300080B483B000AF786039607B681A6A3B681C
:101340001A437B681A6200BF0C37BD465DF8047B08
:101350007047000080B487B000AFF860B9607A6071
:10136000BB68012B1CD0BB68042B17D0BB68102BAB
:1013700012D0BB68402B0DD0BB68B3F5807F07D07F
:10138000BB68B3F5806F01D105230AE0062308E0AE
:10139000042306E0032304E0022302E0012300E02B
:1013A0000023FB75FB6818331946FB7D0E4AD35C9E
:1013B0000B443B613B691A68FB7D0C49CB5C1946C9
:1013C00073238B40DB431A40FB7D0849CB5C1946F5
:1013D0007B688B401A433B691A6000BF1C37BD46CF
:1013E0005DF8047B704700BFA49F0008AC9F000815
:1013F00080B487B000AFF860B9607A60BB68012B39
:101400001CD0BB68042B17D0BB68102B12D0BB6854
:10141000402B0DD0BB68B3F5807F07D0BB68B3F518
:10142000806F01D105230AE0062308E0042306E0CB
:10143000032304E0022302E0012300E00023FB7504
:10144000FB681A6AFB7D0B49CB5C194602238B4073
:10145000DB431A40FB7D0749CB5C19467B688B4018
:101460001A43FB681A6200BF1C37BD465DF8047B57
:10147000704700BFB49F000880B485B000AF7860AB
:1014800039603B68012B1CD03B68042B17D03B68AC
:10149000102B12D03B68402B0DD03B68B3F5807FFA
:1014A00007D03B68B3F5806F01D105230AE006231E
:1014B00008E0042306E0032304E0022302E0012302
:1014C00000E00023FB737B6818331946FB7B0A4A54
:1014D000D35C0B44BB60BB681A68FB7B0749CB5CE1
:1014E000194608238B401A43BB681A6000BF1437A3
:1014F000BD465DF8047B7047A49F0008AC9F0008C0
:1015000080B483B000AF786039607B683A685A6312
:1015100000BF0C37BD465DF8047B704780B483B0D4
:1015200000AF786039607B683A689A6300BF0C3717
:10153000BD465DF8047B704780B483B000AF78602F
:1015400039607B683A68DA6300BF0C37BD465DF8E6
:10155000047B704780B483B000AF786039607B68EB
:101560003A681A6400BF0C37BD465DF8047B7047CB
:1015700080B485B000AFF860B9607A60FB685B6CDE
:1015800023F44062B9687B680B431A43FB685A64D2
:1015900000BF1437BD465DF8047B704780B483B04C
:1015A00000AF78607B685B6C23F480427B685A6490
:1015B00000BF0C37BD465DF8047B704780B483B034
:1015C00000AF78607B685B6C43F400427B685A64D0
:1015D00000BF0C37BD465DF8047B704780B483B014
:1015E00000AF78607B68DB6823F001027B68DA601B
:1015F00000BF0C37BD465DF8047B704780B400AF78
:10160000044B9B6803F4E0531846BD465DF8047B29
:10161000704700BF00380240B0B5A4B000AF624BC5
:10162000083324220021184607F09AFC5E4B012261
:101630001A725D4B01225A725B4B5C4ADA605A4B5C
:101640004FF07C521A61584B594A9A61564B594A8D
:10165000DA61554B584A1A62534B19225A85574B37
:10166000083324220021184607F07AFC534B01224C
:101670001A72524B01225A72504B4C4ADA604F4B4D
:101680004FF07C521A614D4B4D4A9A614B4B4D4A7B
:10169000DA614A4B4C4A1A62484B0A225A85424B3D
:1016A0004A4A03F12C0415460FCD0FC495E80700F4
:1016B00084E80700414B464A03F12C0415460FCD40
:1016C0000FC495E8070084E8070001F0ADFD07238B
:1016D000C7F88830D7F8880000F066FC3D4BC7F8A3
:1016E00084303C4BC7F88030D7F88010D7F884009E
:1016F00000F0A4FC00F06AFD002387F88F301DE0A5
:10170000294BD96C97F88F2013465B0013445B007C
:101710000B441888244BD96C97F88F2013465B0034
:1017200013445B00CC1801461F4801F0DFF8034664
:10173000638097F88F30013387F88F301A4B93F816
:10174000533097F88F209A42DAD3002387F88E30EF
:101750001DE01A4BD96C97F88E2013465B0013449A
:101760005B000B441888154BD96C97F88E201346F4
:101770005B0013445B00CC180146104801F0B6F83A
:101780000346638097F88E30013387F88E300B4B19
:1017900093F8533097F88E209A42DAD300BF00BFF7
:1017A0009037BD46B0BD00BFC00000209A99993E59
:1017B000C200002008010020C400002020010020F9
:1017C00022010020680100202401002080980008E8
:1017D0009C98000870110100B0B5A6B000AF786009
:1017E000002387F89730002387F89630002387F886
:1017F00095300023A7F8923007F19703194603208C
:1018000001F02AFD07F196031946042001F024FD9A
:1018100007F195031946052001F01EFD07F192031B
:101820001946012001F018FD97F89730002B42D09F
:10183000814B5B881846FEF785FE04460D467E4BBD
:101840009B881846FEF77EFE79A3D3E90023FEF7B6
:10185000E3FE02460B4620462946FFF763F903469E
:10186000002B37D0744B93F84930022B19D1724BAF
:1018700093F85C30002B14D0B7F892301A4607F179
:1018800008036E49184607F02FFB6D4B1B6807F1E4
:1018900008021146184607F0AFF9674B002283F89B
:1018A0005C20022387F88B3007F18B031946002058
:1018B00001F0F4FC0EE097F8973083F00103DBB2FF
:1018C000002B07D05C4B002283F8482000215A48A7
:1018D00000F06EFD97F89630002B05D04FF4806134
:1018E0005848FFF7A0FC0BE097F8963083F001030F
:1018F000DBB2002B04D04FF480615248FFF7A1FC0B
:1019000097F89530002B002387F89130002387F853
:101910009030002387F88F300023A7F88C3007F130
:10192000910319460A2001F097FC07F1900319462C
:101930000B2001F091FC07F18F0319460C2001F0F8
:101940008BFC07F18C031946082001F085FC97F801
:101950009130002B42D03C4B5B881846FEF7F2FDDD
:1019600004460D46384B9B881846FEF7EBFD30A326
:10197000D3E90023FEF750FE02460B4620462946D7
:10198000FFF7D0F80346002B37D02F4B93F84930A0
:10199000022B19D12C4B93F85C30002B14D0B7F8E4
:1019A0008C301A4607F108032849184607F09CFABC
:1019B000234B1B6807F108021146184607F01CF973
:1019C000214B002283F85C20022387F88A3007F13C
:1019D0008A031946072001F061FC0EE097F8913068
:1019E00083F00103DBB2002B07D0174B002283F8F2
:1019F00048200021144800F0DBFC97F89030002BC1
:101A000004D010211248FFF70EFC0AE097F890303E
:101A100083F00103DBB2002B03D010210C48FFF749
:101A200010FC97F88F30002B00BF9837BD46B0BD33
:101A3000AE47E17A14AEEF3FC0000020B89800082E
:101A4000240200200000024020010020DC98000851
:101A50000004024080B582B000AF786000F00CFD59
:101A600000F0F6FD00F024FE00F010FF00BF083784
:101A7000BD4680BD80B582B000AF03460A46FB710B
:101A80001346BB80FB79002B05D13B1D1946012075
:101A900001F004FC07E0FB79012B04D13B1D194642
:101AA000082001F0FBFB00BF0837BD4680BD80B5B4
:101AB00082B000AF03460A46FB801346BB80BB1DC5
:101AC0001946012001F0EAFB3B1D1946082001F0F0
:101AD000E5FB00BF0837BD4680BD000090B585B06E
:101AE00000AF0446084611461A462346FB710346DA
:101AF000BB710B467B7113463B710023FB73FB7973
:101B0000002B10D00023FB7307F10F0319460420AC
:101B100001F0C4FB0123BB7307F10E03194600203B
:101B200001F0BCFB07E00023BB7307F10E0319466D
:101B3000002001F0B3FB00237B73BB79002B10D096
:101B400000237B7307F10D0319460B2001F0A6FB60
:101B500001233B7307F10C031946072001F09EFB9C
:101B600007E000233B7307F10C031946072001F03F
:101B700095FBFB1D1946032001F090FBBB1D194688
:101B80000A2001F08BFB0E4B0022A3F850200D4BD6
:101B90000022A3F850200A4B002283F84920094B69
:101BA000002283F84920064A7B7982F85C30054A96
:101BB0003B7982F85C3000BF1437BD4690BD00BF52
:101BC000C00000202001002080B584B000AF034693
:101BD0000A46FB711346BB710023FB73FB79002B94
:101BE00021D1BB79002B10D00023FB7307F10F0329
:101BF0001946032001F052FB0323BB7307F10E03C8
:101C00001946002001F04AFB07E00023BB7307F1EF
:101C10000E031946002001F041FBBB1D19460420AC
:101C200001F03CFB23E0FB79012B20D1BB79002B99
:101C300010D00023FB7307F10F0319460A2001F0AF
:101C40002DFB0323BB7307F10E031946072001F098
:101C500025FB07E00023BB7307F10E03194607209D
:101C600001F01CFBBB1D19460B2001F017FB00BF48
:101C70001037BD4680BD80B584B000AF03460A462C
:101C8000FB711346BB710023FB73FB79002B10D053
:101C90000023FB7307F10F031946032001F0FEFA3E
:101CA0000323BB7307F10E031946002001F0F6FA77
:101CB00007E00023BB7307F10E031946002001F073
:101CC000EDFAFB1D1946042001F0E8FA00237B73AE
:101CD000BB79002B10D000237B7307F10D0319464D
:101CE0000A2001F0DBFA03233B7307F10C031946CA
:101CF000072001F0D3FA07E000233B7307F10C0340
:101D00001946072001F0CAFABB1D19460B2001F045
:101D1000C5FA00BF1037BD4680BD80B584B000AFA6
:101D20000346FB710023FB81FB79002B06D107F1F1
:101D30000E031946012001F08FFA08E0FB79012B10
:101D400005D107F10E031946082001F085FAFB8939
:101D500018461037BD4680BD80B584B000AF03463D
:101D6000FB710023FB73FB79002B06D107F10F03F6
:101D70001946032001F070FA08E0FB79012B05D128
:101D800007F10F0319460A2001F066FAFB7B18469B
:101D90001037BD4680BD80B584B000AF0346FB71EF
:101DA0000023FB73FB79002B06D107F10F031946C3
:101DB000042001F051FA08E0FB79012B05D107F16D
:101DC0000F0319460B2001F047FAFB7B184610372A
:101DD000BD4680BD80B586B000AF0346FB710023D1
:101DE000FB820023FB81FB79002B12D1184B3B6156
:101DF000174B5B88FB82FB8A1946154800F091FD62
:101E00000346FB8107F10E031946022001F046FA52
:101E100014E0FB79012B11D10E4B3B610D4B5B881C
:101E2000FB82FB8A19460B4800F07BFD0346FB81D1
:101E300007F10E031946092001F030FAFB8A194612
:101E4000386900F06EFD034618461837BD4680BD60
:101E5000C00000202001002098B500AF2148FFF706
:101E600093F90346012B14D11E48FFF7AEF91E4B20
:101E700000221A701B48FFF747F900BF00BF00BFE0
:101E800000BF00BF00BF1748FFF72EF91548FFF746
:101E90004BF91448FFF765F90346012B20D111488F
:101EA000FFF785F9104B1B78DBB21A460F4B53F83E
:101EB00022400C48FFF748F9034663800A4B1B7821
:101EC000DBB21A46094B53F82230184600F090F95D
:101ED000054B1B78DBB283F00103DAB2024B1A70B8
:101EE00000BF98BD0020014020020020800100209A
:101EF00080B582B000AF0123FB71FB1D19460520A0
:101F000001F0CCF90F4B002283F8482000210D4846
:101F100000F04EFA01210020FFF756FE0A4B1B6825
:101F20000B221A70FA79084B1B685A70064B1B6813
:101F300000229A70032000F023FD00BF0837BD4641
:101F400080BD00BFC00000208801002080B582B0A5
:101F500000AF0123FB71FB1D19460C2001F09EF917
:101F60000F4B002283F8482000210D4800F020FA92
:101F700001210120FFF728FE0A4B1B680B221A7073
:101F8000084B1B6800225A70FA79064B1B689A703E
:101F9000032000F0F5FC00BF0837BD4680BD00BF40
:101FA000200100208801002080B582B000AF786059
:101FB0001F4B00221A704FF480111E48FEF7BDFF20
:101FC0001D4A4FF400711B48FEF7CAFF0A2240F277
:101FD00005211848FEF7C4FF7A6817491548FFF72E
:101FE00022F87A680A211348FFF71DF84FF4807130
:101FF0001048FEF77AFF02210E48FEF7EEFF0D486B
:10200000FFF701F90B48FFF7EEF84FF4806109483C
:10201000FEF7F6FF0748FFF767F800210548FEF7CF
:1020200077FF0448FFF780F800BF0837BD4680BD42
:1020300020020020002001400C00600080B582B02A
:1020400000AF786039605A4806F07EF8594BDB6A79
:10205000584A116B60221846FFF77CF9554BDB6A32
:10206000544A116B00221846FFF7C2F9514BDB6A44
:10207000504A126B11461846FFF7FEF94D4BDB6ACA
:102080004C4A126B11461846FFF752F9494BDB6A6E
:102090004FF400624FF480611846FFF769FA454B30
:1020A000DB6A1846FFF77AFA424BDB6A1846FFF7FD
:1020B00085FA404BDB6A00211846FFF711F93D4BCA
:1020C000DB6A1846FFF7FCF879683A4800F01CF91B
:1020D000384BDB6A1846FFF781FA374806F034F8C8
:1020E000364BDB6A354A116B60221846FFF732F92E
:1020F000324BDB6A314A116B00221846FFF778F940
:102100002E4BDB6A2D4A126B11461846FFF7B4F9C5
:102110002A4BDB6A294A126B11461846FFF708F969
:10212000264BDB6A4FF400624FF480611846FFF7DC
:102130001FFA224BDB6A1846FFF730FA1F4BDB6AA7
:102140001846FFF73BFA1D4BDB6A00211846FFF7E4
:10215000C7F81A4BDB6A1846FFF7B2F83968174818
:1021600000F0D2F8154BDB6A1846FFF737FA4FF448
:1021700000711348FFF757F804211248FFF753F88E
:102180004FF480610E48FFF75CF810210E48FFF70E
:1021900058F8084BDB6A1846FFF762F8074BDB6A12
:1021A0001846FFF75DF800BF0837BD4680BD00BF89
:1021B000C8000020C00000202801002020010020CD
:1021C00000000240000C02400004024080B500AF55
:1021D0004FF480610448FFF734F810210348FFF7FB
:1021E00030F800BF80BD00BF000002400004024084
:1021F000B0B586B000AF78600023FB737B683F4AC0
:10220000934206D107F10F0319460A2001F024F882
:1022100009E07B683A4A934205D107F10F0319465A
:10222000032001F019F8FB7B002B62D07B68083398
:10223000184605F0DFFF7B682C337B617B6893F8E1
:102240004830DBB23B617B699B691846FEF76AF94F
:1022500004460D463869FEF765F94FF00002294B38
:10226000FEF704FB02460B4620462946FEF7D4F94A
:1022700002460B4610461946FEF768FC02467B698B
:102280005A617B695B68B3F5805F28D0B3F5805FE6
:102290002ED8B3F5807F19D0B3F5807F28D8012BD5
:1022A00002D0102B09D023E07B691A687B695B6937
:1022B00019461046FFF724F91BE07B691A687B6911
:1022C0005B6919461046FFF729F912E07B691A6825
:1022D0007B695B6919461046FFF72EF909E07B69B7
:1022E0001A687B695B6919461046FFF733F900E00D
:1022F00000BF00BF1837BD46B0BD00BF20010020A1
:10230000C00000200000594090B52DED028B85B033
:1023100000AF786039607B682C33FB60FB681B681A
:102320001846FEF7BDFF1F4B1B681F4A127823FAA1
:1023300002F4FFF763F903469B0A1C4AD35C24FAB4
:1023400003F307EE903AB8EE678AFB681B681846FD
:10235000FEF7D4FF0346013307EE903AB8EE677AF2
:102360003B6807EE903AF8EE677A27EE277AC8EED8
:10237000077AFCEEE77A17EE902AFB689A61FB6811
:102380001A68FB689B6919461046FEF7C3FFFB6895
:102390001B681846FEF774FF00BF1437BD46BDEC3E
:1023A000028B90BD900100206CA100087CA1000868
:1023B000B0B584B000AF786039607B682C33FB60C7
:1023C000FB689B691846FEF7ADF804460D46386871
:1023D000FEF7A8F84FF00002264BFEF747FA024638
:1023E0000B4620462946FEF717F902460B461046D3
:1023F0001946FEF7ABFB0246FB685A61FB685B6857
:10240000B3F5805F28D0B3F5805F2ED8B3F5807F19
:1024100019D0B3F5807F28D8012B02D0102B09D01A
:1024200023E0FB681A68FB685B6919461046FFF7F2
:1024300067F81BE0FB681A68FB685B691946104681
:10244000FFF76CF812E0FB681A68FB685B691946D5
:102450001046FFF771F809E0FB681A68FB685B69D2
:1024600019461046FFF776F800E000BF00BF1037AE
:10247000BD46B0BD0000594080B582B000AF00231A
:10248000BB71BB1D1946032000F0E6FEBB7983F04B
:102490000103DBB2002B40F0CE806B4B93F8493048
:1024A000022B00F0C080022B00F3C780002B02D06B
:1024B000012B49D0C1E0644BB3F85030002B11D14F
:1024C00005220021614805F083FF05215E4800F0E8
:1024D00043FA5D4BB3F8503001339AB25A4BA3F82C
:1024E0005020ADE0584BB3F85030B3F57A6F08D2B6
:1024F000554BB3F8503001339AB2534BA3F85020E8
:102500009EE00023FB7114E04F4B59884E4BD86C72
:10251000FA7913465B0013445B0003445B889942DD
:1025200004D8494AFB7982F8523008E0FB7901333C
:10253000FB71454B93F85330FA799A42E4D3424BFE
:10254000012283F849207BE07B1D1946002000F022
:1025500083FE7B79022B72D1BB1C1946012000F04F
:102560007BFE394BDA6C384B93F8523019460B46E8
:102570005B000B445B0013441A887B889A4230D27C
:10258000314BDA6C304B93F8523019460B465B00F6
:102590000B445B0013441B791A4600212B4805F0BD
:1025A00017FF294BDA6C284B93F8523019460B462B
:1025B0005B000B445B0013441B881946224800F063
:1025C000CBF901237B717B1D1946002000F066FECC
:1025D0001D4B93F852300133DAB21B4B83F8522073
:1025E0002EE0194BDA6C184B93F8523019460B4613
:1025F0005B000B445B0013441B791A46002113480F
:1026000005F0E6FE7B8819460F4800F0A5F9012386
:102610007B717B1D1946002000F040FE0A4B022210
:1026200083F849200CE07B1D1946002000F014FEC1
:102630007B79022B01E000BF02E000BF00E000BF99
:102640000837BD4680BD00BFC0000020C800002084
:1026500080B582B000AF0023FB71FB1D194604203A
:1026600000F0FAFDFB7983F00103DBB2002B15D1FA
:102670000C4B5B88142B12D80B4B1B680B4918466C
:1026800006F0BAFA00210020FFF79EFA0423BB717E
:10269000BB1D1946002000F001FE00E000BF083716
:1026A000BD4680BDC0000020240200200099000823
:1026B00080B582B000AF0023BB71BB1D19460A2054
:1026C00000F0CAFDBB7983F00103DBB2002B40F0C0
:1026D000D1806C4B93F84930032B00F2CD8001A2DE
:1026E00052F823F0F526000887270008652800081F
:1026F00079280008634BB3F85030002B11D1052224
:102700000021614805F064FE05215E4800F024F9CF
:102710005C4BB3F8503001339AB25A4BA3F85020B7
:10272000ADE0584BB3F85030B3F57A6F08D2554B43
:10273000B3F8503001339AB2524BA3F850209EE0C8
:102740000023FB7114E04F4B59884E4BD86CFA793B
:1027500013465B0013445B0003445B88994204D832
:10276000484AFB7982F8523008E0FB790133FB716B
:10277000444B93F85330FA799A42E4D3414B012207
:1027800083F849207BE07B1D1946072000F064FD9B
:102790007B79022B72D1BB1C1946082000F05CFD2E
:1027A000384BDA6C374B93F8523019460B465B00C6
:1027B0000B445B0013441A887B889A4230D2314B19
:1027C000DA6C304B93F8523019460B465B000B44E1
:1027D0005B0013441B791A4600212B4805F0F8FDD5
:1027E000284BDA6C274B93F8523019460B465B00A6
:1027F0000B445B0013441B881946224800F0ACF8D8
:1028000001237B717B1D1946072000F047FD1D4BFE
:1028100093F852300133DAB21A4B83F852202EE08B
:10282000184BDA6C174B93F8523019460B465B0085
:102830000B445B0013441B791A460021124805F033
:10284000C7FD7B8819460F4800F086F801237B718D
:102850007B1D1946072000F021FD0A4B022283F858
:1028600049200CE07B1D1946072000F0F5FC7B7920
:10287000022B04E000BF02E000BF00E000BF083709
:10288000BD4680BD200100202801002080B582B017
:1028900000AF0023FB71FB1D19460B2000F0DCFC90
:1028A000FB7983F00103DBB2002B15D10C4B5B8865
:1028B0003C2B12D80B4B1B680B49184606F09CF9B1
:1028C00000210120FFF780F90423BB71BB1D1946CD
:1028D000072000F0E3FC00E000BF0837BD4680BDE4
:1028E00020010020240200202499000880B483B035
:1028F00000AF78600B467B807B8807EE903AF8EE5D
:10290000E76A7B6893ED167AC6EE877AFCEEE77A83
:1029100017EE903A9BB218460C37BD465DF8047B23
:10292000704780B483B000AF78600B467B807B88B3
:1029300007EE903AB8EEE77A7B68D3ED167A67EE49
:10294000277AFCEEE77A17EE903A9BB218460C37DE
:10295000BD465DF8047B704780B582B000AF7860FB
:102960000B467B807B8819467868FFF7BFFF0346DC
:102970001A467B689A8000BF0837BD4680BD0000BC
:1029800080B58AB000AF0346FB711F4BCA221A7094
:102990001E4B1A781C4B5A701B4B02229A701A4A13
:1029A000FB79D370184B07221A71174BEF2283F86B
:1029B0000021154BDB780433DBB21A4614490020A2
:1029C00005F0E4F803461A460F4BA3F8FE2007F182
:1029D0000C0300221A605A609A60DA601A615A6128
:1029E0001A7607F10B0207F10C031946064805F0A9
:1029F00019F9FA7A07F10C031946064806F014F99A
:102A000000BF2837BD4680BD1C100020D01200201A
:102A10001D100020B00E002080B400AFBFF34F8F18
:102A200000BF064BDB6803F4E0620449044B134328
:102A3000CB60BFF34F8F00BF00BFFDE700ED00E0AC
:102A40000400FA0580B588B000AFF860B9607A601C
:102A500007F11403074A0A21184606F00FFA07F196
:102A600014031946F86803F007FE00BF2037BD467F
:102A700080BD00BF389B000880B584B000AFF8600F
:102A8000B9607A60FFF7C8FF80B588B000AFF86022
:102A9000B9607A60B86803F0F3FE0346BB61BB69B6
:102AA000012B04DC3249F86803F0E6FD5DE0BB6908
:102AB000022B04DD2F49F86803F0DEFD55E001210B
:102AC000B86803F0A7FE0346184606F04EF9034621
:102AD0003B610221B86803F09DFE0346184606F0EC
:102AE00044F903467B613B69B3F5AF7F02DC3B6988
:102AF000002B04DA2049F86803F0BEFD35E07B695D
:102B00003C2B02DC7B69002B04DA1B49F86803F0DC
:102B1000B3FD2AE00023FB770020FFF71DF90346F1
:102B2000002B05D01549F86803F0A6FD0123FB77BB
:102B30000120FFF711F90346002B05D01049F86872
:102B400003F09AFD0123FB77FB7F012B0CD03B693F
:102B50009BB27A6992B211461846FEF7A8FF09495E
:102B6000F86803F089FD00E000BF2037BD4680BD56
:102B7000409B00085C9B0008789B0008909B000825
:102B8000D49B0008189C000880B586B000AFF860A0
:102B9000B9607A60B86803F073FE03467B617B69B5
:102BA000002B04DC1D49F86803F066FD32E07B6908
:102BB000012B04DD1A49F86803F05EFD2AE00121CB
:102BC000B86803F027FE0346184606F0CEF83861D1
:102BD0003B69B3F5AF7F02DC3B69002B04DA114996
:102BE000F86803F049FD15E00020FFF7B5F803464B
:102BF000002B04D00C49F86803F03EFD0AE03B6965
:102C00009BB219460020FEF735FF0849F86803F02B
:102C100033FD00BF1837BD4680BD00BF409B000894
:102C2000289C0008789B0008909B0008189C0008CE
:102C300080B586B000AFF860B9607A60B86803F01C
:102C40001FFE03467B617B69002B04DC1C49F8688E
:102C500003F012FD31E07B69012B04DD1949F868AE
:102C600003F00AFD29E00121B86803F0D3FD034613
:102C7000184606F07AF838613B693C2B02DC3B6968
:102C8000002B04DA1049F86803F0F6FC15E0012087
:102C9000FFF762F80346002B04D00C49F86803F0F4
:102CA000EBFC0AE03B699BB219460120FEF7E2FE0D
:102CB0000749F86803F0E0FC00BF1837BD4680BD47
:102CC000409B0008289C0008789B0008D49B0008C3
:102CD000189C000880B58AB000AFF860B9607A60CF
:102CE000B86803F0CDFD03463B623B6A012B04DC70
:102CF0004349F86803F0C0FC7EE03B6A022B04DD28
:102D00004049F86803F0B8FC76E00121B86803F0A8
:102D100081FD0346184606F028F803467B61022130
:102D2000B86803F077FD0346184606F01EF8034620
:102D3000BB617B69012B02DC7B69002B04DA324921
:102D4000F86803F099FC57E0BB69012B02DCBB6912
:102D5000002B04DA2C49F86803F08EFC4CE00023C9
:102D600087F827307B69012B14D10020FEF7D5FFAF
:102D70000346FB830020FFF72DF80346BB83FA8B45
:102D8000BB8B9A4206D22149F86803F075FC0123F7
:102D900087F82730BB69012B14D10120FEF7BDFF56
:102DA0000346FB830120FFF715F80346BB83FA8B2C
:102DB000BB8B9A4206D21649F86803F05DFC0123EA
:102DC00087F8273097F82730012B14D07B69002B28
:102DD00014BF01230023D8B2BB69002B14BF012309
:102DE0000023D9B201230122FEF778FE0949F868D1
:102DF00003F042FC00E000BF2837BD4680BD00BFA5
:102E0000409B0008289C0008789B0008449C000810
:102E1000989C0008189C000880B588B000AFF86046
:102E2000B9607A60B86803F02BFD0346FB61FB696B
:102E3000012B04DC2749F86803F01EFC46E0FB691F
:102E4000022B04DD2449F86803F016FC3EE0012162
:102E5000B86803F0DFFC0346184605F086FF03461A
:102E60007B610221B86803F0D5FC0346184605F0E3
:102E70007CFF0346BB617B69012B02DC7B69002B75
:102E800004DA1649F86803F0F7FB1FE0BB69012B71
:102E900002DCBB69002B04DA1049F86803F0ECFB94
:102EA00014E07B69002B14BF01230023DAB2BB6955
:102EB000002B14BF01230023DBB219461046FEF796
:102EC000DAFE0749F86803F0D7FB00BF2037BD469C
:102ED00080BD00BF409B0008289C0008789B00082C
:102EE000EC9C000880B596B000AFF860B9607A60DD
:102EF000B86803F0C5FC03467B657B6D002B04D0EE
:102F00001149F86803F0B8FB1AE00020FEF705FF4E
:102F10000346A7F852300120FEF7FFFE0346A7F84C
:102F20005030B7F85220B7F8503007F11000074979
:102F300005F0DAFF07F110031946F86803F09CFB6F
:102F40005837BD4680BD00BF289C0008FC9C000887
:102F500080B586B000AFF860B9607A60B86803F0F9
:102F60008FFC03467B617B69002B04D01249F86813
:102F700003F082FB1DE00020FEF7EEFE0346002B6F
:102F800004D00E49F86803F077FB03E00C49F868B9
:102F900003F072FB0120FEF7DFFE0346002B04D096
:102FA0000849F86803F068FB03E00749F86803F094
:102FB00063FB1837BD4680BD289C0008309D000883
:102FC000489D0008649D00087C9D000880B586B07F
:102FD00000AFF860B9607A60B86803F051FC03464E
:102FE0007B617B69002B04D01249F86803F044FB35
:102FF0001DE00020FEF7CFFE0346002B04D00E4953
:10300000F86803F039FB03E00C49F86803F034FB7F
:103010000120FEF7C0FE0346002B04D00849F868E3
:1030200003F02AFB03E00749F86803F025FB183793
:10303000BD4680BD289C0008989D0008B49D0008EE
:10304000D49D0008F09D000880B5A0B000AFF860E6
:10305000B9607A60B86803F013FC0346FB67FB6F46
:10306000002B04D02F49F86803F006FB56E000203F
:10307000FEF753FE0346A7F87A300120FEF74DFE17
:103080000346A7F87830B7F87A20B7F8783007F118
:103090001400254905F028FF07F114031946F868C4
:1030A00003F0EAFA0020FEF757FE0346002B04D097
:1030B0001E49F86803F0E0FA03E01D49F86803F0E0
:1030C000DBFA0120FEF748FE0346002B04D0194925
:1030D000F86803F0D1FA03E01749F86803F0CCFA76
:1030E0000020FEF758FE0346002B04D01349F86871
:1030F00003F0C2FA03E01249F86803F0BDFA0120B8
:10310000FEF749FE0346002B04D00E49F86803F091
:10311000B3FA03E00C49F86803F0AEFA8037BD4615
:1031200080BD00BF289C0008FC9C0008309D000862
:10313000489D0008649D00087C9D0008989D00083B
:10314000B49D0008D49D0008F09D000880B400AF35
:10315000024B1846BD465DF8047B7047BC9F0008D3
:1031600080B400AF0C231846BD465DF8047B704761
:1031700080B584B004AF4FF4007303934FF4007331
:1031800002930E4B01930E4B009347230D4A0E49B9
:103190000E4805F0B8FC4FF400620D490B4803F0EF
:1031A00081F803460B4A13600B49084805F024FDDB
:1031B0000A4B064A1A6000BFBD4680BD9404002039
:1031C0009402002000140140149E000828020020F0
:1031D00094060020940E0020209E00082402002067
:1031E00080B584B000AF78600BE00D4805F0D0FCEE
:1031F0000346FB730B4B1B68FA7B1146184603F022
:1032000087F9074805F02EFD0346002BEDD1054B4D
:103210001B68184603F09FF900BF1037BD4680BDFC
:1032200028020020940E002080B500AF1622002155
:10323000084805F095FE074B00221A70054B002246
:103240009A80044B00229A72024B0022DA8100BF5E
:1032500080BD00BF980E002080B582B000AF03464D
:103260003960FB71FB790F2B02D83B68002B01D131
:1032700000230DE0FB79084A52F83310FB79064A27
:10328000DB0013445B681A46386805F0BDFE012375
:1032900018460837BD4680BDDCA0000880B582B066
:1032A00000AF03463960FB71FB790F2B02D83B68F6
:1032B000002B01D100230DE0FB79084A52F83300BE
:1032C000FB79064ADB0013445B681A46396805F04F
:1032D0009BFE012318460837BD4680BDDCA00008D0
:1032E00080B58CB000AF9F4B1B681B780C2B00F295
:1032F0009A8201A252F823F02D330008D13300083E
:1033000047340008BD34000881350008CB3500087B
:10331000273800087737000839370008FB360008DF
:103320003D36000807360008D13700080023BB727D
:1033300007F10B0319460320FFF78EFF07F10A037D
:1033400019460A20FFF788FFFB7A002B02D1BB7ACF
:10335000002B0CD0844B1B6800221A70824B1B6818
:1033600000225A70022000F067FA00235CE27D4BD5
:103370001B685B781BB21B021AB27A4B1B689B78E6
:103380001BB213431BB2FB81764B1B68DB781BB26D
:103390001B021AB2734B1B681B791BB213431BB27F
:1033A000BB81BA89FB8911461846FEF780FB6E4B3C
:1033B0001B6800221A706C4B1B6801225A70022095
:1033C00000F03AFA69496A4805F016FC01232BE23D
:1033D00000237B7207F1090319460320FFF73CFF26
:1033E0007B7A002B0CD0604B1B6801221A705E4B5D
:1033F0001B6800225A70022000F01EFA002313E21C
:10340000584B1B685B781BB21B021AB2554B1B68EA
:103410009B781BB213431BB23B823B8A19460020A8
:10342000FEF728FB504B1B6801221A704E4B1B689D
:1034300001225A70022000F0FFF94E494C4805F075
:10344000DBFB0123F0E100233B7207F1080319467F
:103450000A20FFF701FF3B7A002B0CD0424B1B6880
:1034600002221A70404B1B6800225A70022000F0A2
:10347000E3F90023D8E13B4B1B685B781BB21B02CE
:103480001AB2384B1B689B781BB213431BB27B826A
:103490007B8A19460120FEF7EDFA334B1B680222A6
:1034A0001A70314B1B6801225A70022000F0C4F9D7
:1034B00031492F4805F0A0FB0123B5E10023FB8033
:1034C0000023BB80BB1D19460120FFF7C5FE3B1D35
:1034D00019460820FFF7C0FE0020FEF77BFC0346DC
:1034E0003B830120FEF776FC0346FB82FB883A8B88
:1034F0009A4203D2BB88FA8A9A420CD31A4B1B68B1
:1035000003221A70184B1B6800225A70022000F028
:1035100093F9002388E1134B1B685B78002B14BFE1
:10352000012300237B750F4B1B689B78002B14BF76
:10353000012300233B75397D787D01230122FEF7AD
:10354000CDFA094B1B6803221A70074B1B68012236
:103550005A70022000F070F90849054805F04CFB4C
:10356000012361E18C01002088010020289E0008D1
:10357000280200204C9E0008689E0008849E0008D7
:10358000AB4B1B685B78FB76A94B1B689B78BB76C3
:10359000FB7E002B14BF01230023DAB2BB7E002B7D
:1035A00014BF01230023DBB219461046FEF763FB6C
:1035B000A04B1B6804221A709E4B1B6801225A7094
:1035C000022000F039F901232EE1994B1B685B784A
:1035D000002B14BF01230023DBB2FB70944B1B684C
:1035E0009B78002B14BF01230023DBB2BB70FB1CB4
:1035F00019460520FFF752FEBB1C19460C20FFF7A9
:103600004DFE012310E17B1C19460520FFF724FE27
:103610003B4619460C20FFF71FFE864B1B680B220A
:103620001A707A78834B1B685A703A78814B1B6802
:103630009A70032000F000F90123F5E000237B8558
:10364000002387F82930002387F828300020FEF770
:1036500064FB0346FB840120FEF75FFB03467B858A
:103660000020FEF779FB034687F825300020FEF79F
:1036700092FB034687F829300120FEF76DFB0346D5
:1036800087F824300120FEF786FB034687F82830B0
:10369000684B1B680A221A70FB8C1B0A9AB2654B96
:1036A0001B68D2B25A70634B1B68FA8CD2B29A7004
:1036B0007B8D1B0A9AB25F4B1B68D2B2DA705D4BEE
:1036C0001B687A8DD2B21A715A4B1B6897F8252065
:1036D0005A71584B1B6897F82920DA71554B1B68B3
:1036E00097F824209A71534B1B6897F828201A7278
:1036F000092000F0A1F8012396E00020FEF72CFB42
:10370000034687F823300120FEF726FB034687F89F
:103710002230484B1B6809221A70464B1B6897F8E9
:1037200023205A70434B1B6897F822209A7003207D
:1037300000F082F8012377E00020FEF72CFB03461F
:1037400087F821300120FEF726FB034687F820305A
:10375000384B1B6808221A70364B1B6897F82120DB
:103760005A70344B1B6897F820209A70032000F0A1
:1037700063F8012358E00023FB830020FEF7CDFA15
:103780000346BB830120FEF7C8FA0346FB83294B9F
:103790001B6807221A70BB8B1B0A9AB2254B1B6849
:1037A000D2B25A70234B1B68BA8BD2B29A70FB8B81
:1037B0001B0A9AB21F4B1B68D2B2DA701D4B1B68F2
:1037C000FA8BD2B21A71052000F036F801232BE0F3
:1037D0000020FEF7FFFA0346FB850120FEF7FAFA08
:1037E0000346BB85134B1B680C221A70FB8D1B0A0A
:1037F0009AB2104B1B68D2B25A700E4B1B68FA8DEE
:10380000D2B29A70BB8D1B0A9AB20A4B1B68D2B215
:10381000DA70084B1B68BA8DD2B21A71052000F01D
:103820000BF8012300E0002318463037BD4680BD69
:103830008C0100208801002080B58AB000AF0346CB
:10384000FB711F4BCA221A701E4B1A781C4B5A7000
:103850001B4B02229A701A4AFB79D370184B07222D
:103860001A71174BEF2283F80021154BDB780433D4
:103870001A461549002004F089F903469AB2104B04
:10388000A3F8FE2007F10C0300221A605A609A6028
:10389000DA601A615A611A7607F10B0207F10C031C
:1038A0001946074804F0BEF9FA7A07F10C031946E5
:1038B000064805F0B9F900BF2837BD4680BD00BFF6
:1038C0001C100020D01200201D100020B00E00207F
:1038D00080B584B004AF8023039380230293124BFE
:1038E0000193124B00932523114A1249124805F007
:1038F0000AF9124B124A5A60104B80221A800F4B61
:1039000000221A810D4B1B88002B06D00B4B5B68E5
:1039100004220021184605F023FB012004F072F96F
:1039200000BFBD4680BD00BF9C0F00201C0F0020C3
:1039300000100140A09E0008B00E002024120020BC
:103940003012002080B584B000AF78600023FB7394
:103950003223FB7347E02A4805F01AF90346DAB22E
:10396000284B9A72274B9B7ADBB2CA2B03D1254B8B
:1039700000221A8134E0234B9B7ADBB2EF2B14D167
:10398000204B5B681F4A128992B2D1B21E4A184678
:1039900004F07EFA0346BB73BB7B012B01D1FFF71A
:1039A0009FFC184B00221A811AE0164B5B68154ADF
:1039B000128992B21344134A927AD2B21A70114BFE
:1039C0001B899BB201339AB20E4B1A810D4B1B8996
:1039D0009AB20C4B1B889A4202D90A4B00221A81D8
:1039E000FB7B013BFB73064805F03CF90346002BCB
:1039F00002D0FB7B002BAED100BF1037BD4680BD8F
:103A0000B00E0020241200202011002080B485B0C8
:103A100000AF78607B6803F00703FB600C4BDB684A
:103A2000BB60BA684FF6FF031340BB60FB681A0225
:103A3000BB68134343F0BF6343F40033BB60044AE5
:103A4000BB68D36000BF1437BD465DF8047B704788
:103A500000ED00E080B400AF044BDB681B0A03F00C
:103A600007031846BD465DF8047B704700ED00E093
:103A700080B483B000AF0346FB7197F90730002B89
:103A80000BDBFB7903F01F02074997F907305B094D
:103A9000012000FA02F241F8232000BF0C37BD4696
:103AA0005DF8047B704700BF00E100E080B483B0A4
:103AB00000AF03463960FB7197F90730002B0ADB32
:103AC0003B68DAB20C4997F907301201D2B20B44C5
:103AD00083F800230AE03B68DAB20849FB7903F077
:103AE0000F03043B1201D2B20B441A7600BF0C370D
:103AF000BD465DF8047B704700E100E000ED00E0AA
:103B000080B489B000AFF860B9607A60FB6803F0F8
:103B10000703FB61FB69C3F10703042B28BF0423E0
:103B2000BB61FB690433062B02D9FB69033B00E050
:103B300000237B614FF0FF32BB6902FA03F3DA43E3
:103B4000BB681A407B699A404FF0FF317B6901FAEC
:103B500003F3D9437B680B40134318462437BD4613
:103B60005DF8047B704780B489B000AFF860B9603D
:103B70007A60FB682C331946BB6803F440734FF43A
:103B800040727A617A6992FAA2F23A613A69BA614C
:103B9000BA69002A01D1202203E0BA69B2FA82F29E
:103BA000D2B2D3409B000B44FB61FB691A68BB682F
:103BB00003F01F031F2101FA03F3DB431A407B6864
:103BC00003F01F01BB6803F01F0301FA03F31A435C
:103BD000FB691A6000BF2437BD465DF8047B70475F
:103BE00080B483B000AF786039607B689B6823F451
:103BF00080623B681A437B689A6000BF0C37BD4601
:103C00005DF8047B704780B48FB000AFF860B96096
:103C10007A60FB680C331946BB6803F000734FF001
:103C200000727A617A6992FAA2F23A613A69BA61EB
:103C3000BA69002A01D1202203E0BA69B2FA82F2FD
:103C4000D2B2D3409B000B447B637B6B1A68BB688A
:103C500003F0F8734FF0F8713962396A91FAA1F103
:103C6000F961F9697962796A002901D1202103E0BB
:103C7000796AB1FA81F1C9B2CB40072101FA03F3A5
:103C8000DB431A40BB6803F0F8734FF0F871F96238
:103C9000F96A91FAA1F1B962B96A3963396B0029FD
:103CA00001D1202103E0396BB1FA81F1C9B2CB40D7
:103CB000796801FA03F31A437B6B1A6000BF3C3743
:103CC000BD465DF8047B704780B400AF054B1B68B0
:103CD000044A43F48033136000BFBD465DF8047BA3
:103CE000704700BF0038024080B400AF074B1B682C
:103CF00003F40033B3F5003F0CBF01230023DBB214
:103D00001846BD465DF8047B704700BF003802408E
:103D100080B483B000AF7860064B9B6823F0030249
:103D200004497B6813438B6000BF0C37BD465DF8C8
:103D3000047B70470038024080B400AF044B9B689E
:103D400003F00C031846BD465DF8047B704700BFC6
:103D50000038024080B483B000AF7860064B9B68A7
:103D600023F0F00204497B6813438B6000BF0C37DB
:103D7000BD465DF8047B70470038024080B483B0D4
:103D800000AF7860064B9B6823F4E05204497B68DF
:103D900013438B6000BF0C37BD465DF8047B704752
:103DA0000038024080B483B000AF7860064B9B6857
:103DB00023F4604204497B6813438B6000BF0C37D7
:103DC000BD465DF8047B70470038024080B400AF08
:103DD000054B1B68044A43F08073136000BFBD4667
:103DE0005DF8047B704700BF0038024080B400AF2C
:103DF000074B1B6803F00073B3F1007F0CBF012376
:103E00000023DBB21846BD465DF8047B704700BF57
:103E10000038024080B485B000AFF860B9607A60C5
:103E20003B600D4B5A680D4B1340F968BA6811435B
:103E30007A6892010A43084913434B60064B5B685A
:103E400023F4403204493B6813434B6000BF1437EE
:103E5000BD465DF8047B7047003802400080BFFF1C
:103E600080B485B000AF7860084B1A6B07497B6857
:103E700013430B63054B1A6B7B681340FB60FB68B5
:103E800000BF1437BD465DF8047B70470038024020
:103E900080B485B000AF7860084B1A6C07497B6826
:103EA00013430B64054B1A6C7B681340FB60FB6883
:103EB00000BF1437BD465DF8047B704700380240F0
:103EC00080B485B000AF7860084B5A6C07497B68B6
:103ED00013434B64054B5A6C7B681340FB60FB68D3
:103EE00000BF1437BD465DF8047B704700380240C0
:103EF00080B487B000AF78603960174A3B68DBB2A6
:103F0000023352F823203B681B0CDB4302EA030117
:103F10003B681B0C3B613B6993FAA3F3FB60FB68B6
:103F20007B617B69002B01D1202303E07B69B3FA1D
:103F300083F3DBB21A467B6803FA02F206483B6859
:103F4000DBB20A43023340F8232000BF1C37BD46D2
:103F50005DF8047B704700BF0038014080B483B037
:103F600000AF7860064B1B6823F0070204497B68AA
:103F700013430B6000BF0C37BD465DF8047B7047F0
:103F8000003C024080B400AF044B1B6803F0070301
:103F90001846BD465DF8047B704700BF003C0240F8
:103FA00080B483B000AF7860064B1B6823F4804276
:103FB00004497B6813430B6000BF0C37BD465DF8B6
:103FC000047B70470070004080B400AF074B5B6813
:103FD00003F48043B3F5804F0CBF01230023DBB211
:103FE0001846BD465DF8047B704700BF0070004076
:103FF00080B483B000AF78607B681B6823F08002D8
:104000007B681A6000BF0C37BD465DF8047B7047C3
:1040100080B485B000AF786039603B68012B1CD05C
:104020003B68042B17D03B68102B12D03B68402B09
:104030000DD03B68B3F5807F07D03B68B3F5806F48
:1040400001D105230AE0062308E0042306E0032348
:1040500004E0022302E0012300E00023FB737B68FD
:1040600018331946FB7B0B4AD35C0B44BB60BB681F
:104070001A68FB7B0849CB5C194604238B40DB4361
:104080001A40BB681A6000BF1437BD465DF8047B58
:10409000704700BF5CA1000864A1000880B485B02F
:1040A00000AF786039603B68012B1CD03B68042B63
:1040B00017D03B68102B12D03B68402B0DD03B68CB
:1040C000B3F5807F07D03B68B3F5806F01D105233E
:1040D0000AE0062308E0042306E0032304E00223A9
:1040E00002E0012300E00023FB737B6818331946CC
:1040F000FB7B0A4AD35C0B44BB60BB681A68FB7B42
:104100000749CB5C194608238B401A43BB681A60E9
:1041100000BF1437BD465DF8047B70475CA1000802
:1041200064A1000880B483B000AF786039607B6818
:104130005B6823F070023B681A437B685A6000BFDB
:104140000C37BD465DF8047B704780B483B000AF88
:1041500078607B689B6823F080027B689A6000BF70
:104160000C37BD465DF8047B704780B483B000AF68
:1041700078607B68DB6843F400527B68DA6000BFDC
:104180000C37BD465DF8047B704780B483B000AF48
:1041900078607B681B6923F490427B681A617B68B6
:1041A0005B6923F02A027B685A6100BF0C37BD4669
:1041B0005DF8047B704780B48BB000AFF860B960E5
:1041C0007A60FB681A68BB687B617B6993FAA3F32A
:1041D0003B613B69BB61BB69002B01D1202303E03C
:1041E000BB69B3FA83F3DBB25B00032101FA03F38B
:1041F000DB431A40BB683B623B6A93FAA3F3FB6163
:10420000FB697B627B6A002B01D1202303E07B6A80
:10421000B3FA83F3DBB25B00796801FA03F31A4364
:10422000FB681A6000BF2C37BD465DF8047B704701
:1042300080B48BB000AFF860B9607A60FB68DA6870
:10424000BB687B617B6993FAA3F33B613B69BB610C
:10425000BB69002B01D1202303E0BB69B3FA83F3D0
:10426000DBB25B00032101FA03F3DB431A40BB68B6
:104270003B623B6A93FAA3F3FB61FB697B627B6A57
:10428000002B01D1202303E07B6AB3FA83F3DBB276
:104290005B00796801FA03F31A43FB68DA6000BF38
:1042A0002C37BD465DF8047B704780B483B000AF07
:1042B000786039603B681A047B689A6100BF0C37EC
:1042C000BD465DF8047B704780B500AF4FF4804079
:1042D000FFF7F6FD4FF08050FFF7DAFD0320FFF700
:1042E00095FBFFF7B7FB034600220F211846FFF7A7
:1042F00007FC034619464FF0FF30FFF7D7FB00F0ED
:1043000011F800F09DFA00F055F800F0D7F800F031
:104310006BF900F035FA00F0D3F9FCF7CDFD00BFE2
:10432000FDE7000080B500AF0120FFF717FE00BFDA
:10433000FFF728FE0346012BFAD14FF48040FFF728
:104340002FFEFFF7C1FC00BFFFF7CEFC0346012B99
:10435000FAD10023482204214FF48000FFF75AFDD0
:10436000FFF734FD00BFFFF741FD0346012BFAD1F3
:1043700000BFFFF729FE0346002BFAD08020FFF78D
:10438000E9FC0020FFF7FAFC0020FFF70BFD0220FC
:10439000FFF7BEFC00BFFFF7CFFC0346082BFAD1A6
:1043A000034801F04DFF024801F058FF00BF80BDF7
:1043B0000051250280B592B000AF07F13C03002206
:1043C0001A605A609A6007F1280300221A605A6046
:1043D0009A60DA601A6107F1180300221A605A60C5
:1043E0009A60DA603B4600221A605A609A60DA608E
:1043F0001A615A614FF48070FFF762FD0420FFF7E5
:104400002FFD05233B6003237B6000233B613B467C
:104410001946274800F022FFFFF71CFB0346002245
:1044200003211846FFF76CFB034619461220FFF7DD
:104430003DFB1220FFF71CFB0023FB6300233B64C2
:1044400000237B6407F13C0319461A4800F036FC50
:104450000023BB620023FB6200233B6300237B63DA
:104460000023BB6307F128031946124800F052FCF1
:104470004FF480610F48FFF7B3FB4FF48033BB610B
:104480000023FB6107F1180319460B4800F0CEFB2F
:104490000A224FF400710748FFF765FB00220A214A
:1044A0000448FFF7B0FB00BF4837BD4680BD00BFE2
:1044B00000080240002001400023014080B59AB06E
:1044C00000AF07F1540300221A605A609A60DA6064
:1044D0001A6107F1340320220021184604F040FD40
:1044E00007F11C0300221A605A609A60DA601A61B0
:1044F0005A613B1D00221A605A609A60DA601A61A4
:104500005A610120FFF7DCFC0023A7F85430002398
:10451000BB654FF6FF73FB6500233B6600237B669C
:1045200007F1540319462E4801F0C6F82C48FFF74E
:104530005FFD4FF480512A48FFF7B0FD60237B6395
:104540000023BB630023FB6300233B6400237B64E5
:104550000023FB6400233B6507F134031A464FF444
:1045600080511F4801F042F94FF480511C48FFF779
:104570004FFD00211A48FFF7D5FD1948FFF7E5FD6B
:104580000023FB6100233B6200237B62002387F84A
:10459000283000237B854FF40053FB6200233B63EC
:1045A00007F11C0319460E4801F061F90120FFF7DD
:1045B00057FC4FF400637B600223BB600023FB6069
:1045C00000233B6100237B610123BB613B1D194636
:1045D000044800F043FE00BF6837BD4680BD00BF01
:1045E000000001400000024080B594B000AF07F128
:1045F0003C0300221A605A609A60DA601A6107F17F
:104600001C0320220021184604F0AAFC3B1D0022B6
:104610001A605A609A60DA601A615A610220FFF7E4
:1046200037FC0023BB8700233B644FF6FF737B649A
:104630000023BB6407F13C0319461F4801F03CF816
:104640001D48FFF7D5FC10211B48FFF727FD60230D
:10465000FB6100233B6200237B620023BB620023DB
:10466000FB6207F11C031A461021134801F0BEF843
:1046700010211148FFF7CCFC00210F48FFF752FD35
:104680000D48FFF762FD0220FFF7EAFB20237B6065
:104690000223BB600023FB6000233B6100237B619E
:1046A0000223BB613B1D1946044800F0D7FD00BF43
:1046B0005037BD4680BD00BF0004004000040240EA
:1046C00080B58EB000AF07F11C0300221A605A605B
:1046D0009A60DA601A615A619A613B1D00221A6081
:1046E0005A609A60DA601A615A611020FFF7E8FB9D
:1046F0000220FFF7B5FBC0237B600223BB600323CE
:10470000FB6000233B6100237B610723BB613B1DF2
:104710001946194800F0A2FDFFF79CF90346002254
:1047200004211846FFF7ECF9034619462520FFF748
:10473000BDF92520FFF79CF94FF4E133FB6100231D
:104740003B6200237B620023BB620C23FB620023DD
:104750003B6300237B6307F11C031946074801F004
:10476000D5FC0648FFF711FD0448FFF7FEFC00BF2B
:104770003837BD4680BD00BF000402400010014034
:1047800080B58EB000AF07F11C0300221A605A609A
:104790009A60DA601A615A619A613B1D00221A60C0
:1047A0005A609A60DA601A615A612020FFF788FB2C
:1047B0000420FFF755FBC0237B600223BB6003236B
:1047C000FB6000233B6100237B610823BB613B1D31
:1047D0001946194800F042FDFFF73CF90346002254
:1047E00006211846FFF78CF9034619464720FFF7C4
:1047F0005DF94720FFF73CF94FF4E133FB610023FB
:104800003B6200237B620023BB620C23FB6200231C
:104810003B6300237B6307F11C031946074801F043
:1048200075FC0648FFF7B1FC0448FFF79EFC00BF8B
:104830003837BD4680BD00BF00080240001401406B
:1048400080B588B000AF07F1180300221A605A60E3
:104850003B4600221A605A609A60DA601A615A6117
:104860008020FFF7FDFA0420FFF7FAFA0120FFF796
:10487000F7FA0820FFF7F4FA0220FFF7F1FA4FF4F5
:10488000C0615348FFF711FD04215248FFF70DFDA9
:1048900010215148FFF709FD4FF470010220FFF786
:1048A00027FB4FF070410220FFF722FB0223BB6180
:1048B00001233B7700237B770123BB7707F11803A4
:1048C000184600F001FB0823BB6101233B7700235E
:1048D0007B770123BB7707F11803184600F0F4FA41
:1048E000002202213D48FFF7A3FC002208213B489B
:1048F000FFF79EFC002202213848FFF75CFC0022F3
:1049000008213648FFF757FC4FF4C0633B60012392
:104910007B600023BB600023FB6000233B613B46C0
:1049200019462B4800F09AFC4FF4E0533B600223F9
:104930007B600323BB600023FB6000233B610623F5
:104940007B613B461946254800F088FC04233B6008
:1049500001237B600023BB600023FB6000233B61DD
:104960003B4619461B4800F079FC10233B600123AD
:104970007B600023BB600023FB6000233B613B4660
:104980001946154800F06AFCFFF764F80346002258
:1049900005211846FFF7B4F8034619460720FFF72C
:1049A00085F80720FFF764F8FFF754F80346002264
:1049B00005211846FFF7A4F8034619460920FFF71A
:1049C00075F80920FFF754F800BF2037BD4680BDB9
:1049D00000000240000C02400004024000080240B7
:1049E00080B483B000AF7860074B5A697B6813408E
:1049F0007A689A420CBF01230023DBB218460C37B9
:104A0000BD465DF8047B7047003C014080B483B034
:104A100000AF7860044A7B68536100BF0C37BD4625
:104A20005DF8047B704700BF003C014080B400AFDC
:104A300000BFFDE780B400AF00BFFDE780B400AF6A
:104A400000BFFDE780B400AF00BFFDE780B400AF5A
:104A500000BFFDE780B400AF00BFBD465DF8047B3A
:104A6000704780B400AF00BFBD465DF8047B70475F
:104A700080B400AF00BFBD465DF8047B704780B5D1
:104A800000AF03F097FD00BF80BD80B500AF0220EE
:104A9000FFF7A6FF0346002B04D00220FFF7B6FF66
:104AA000FDF754FA00BF80BD80B500AF0820FFF7C6
:104AB00097FF0346002B04D00820FFF7A7FFFDF760
:104AC00017FA00BF80BD80B500AFFDF7C5F900BF84
:104AD00080BD000080B500AF024804F0D1F800BFEF
:104AE00080BD00BFB00E002080B500AF024804F0CA
:104AF000C7F800BF80BD00BF2802002080B586B087
:104B000000AF7860144A154BD31A7B617B693B6117
:104B1000134B1B68002B02D1114B124A1A60104B29
:104B20001A687B6813443A699A4207D204F040FA43
:104B300003460C221A604FF0FF3309E0084B1B6854
:104B4000FB60074B1A687B681344054A1360FB68D7
:104B500018461837BD4680BD000002200004000042
:104B6000B01200202014002080B400AF064BD3F810
:104B70008830054A43F47003C2F8883000BFBD4650
:104B80005DF8047B704700BF00ED00E0DFF834D033
:104B9000FFF7EAFF0C480D490D4A002302E0D45804
:104BA000C4500433C4188C42F9D30A4A0A4C002377
:104BB00001E013600432A242FBD304F0FFF9FFF7D7
:104BC00083FB704700000220000000200402002048
:104BD000C8A200080402002020140020FEE780B4D0
:104BE00083B000AF786039607B68DB6A23F47002C1
:104BF0003B681A437B68DA6200BF0C37BD465DF83C
:104C0000047B704780B483B000AF78607B689B689A
:104C100003F00103012B0CBF01230023DBB2184674
:104C20000C37BD465DF8047B7047000090B585B039
:104C300000AF786039600023FB731C48FFF7E2FF88
:104C400004461B48FFF7DEFF03461C431948FFF7E5
:104C5000D9FF03462343002B20D13B685B68002B20
:104C600012D07B685A68144B13403A6811683A684E
:104C7000526811433A68926811433A68D2680A430D
:104C80001A437B685A600BE07B685A680A4B1340F2
:104C90003A6812681A437B685A6001E00123FB738B
:104CA000FB7B18461437BD4690BD00BF0020014075
:104CB0000021014000220140E010FCFF80B584B0DB
:104CC00000AF786039600023FB737868FFF79AFFC4
:104CD0000346002B17D17B685B6823F0407323F4F5
:104CE00080733A6811683A6892680A431A437B688D
:104CF0005A607B689B6823F400623B685B681A43D8
:104D00007B689A6001E00123FB73FB7B1846103738
:104D1000BD4680BD80B584B000AF786039600023A7
:104D2000FB737868FFF76EFF0346002B2BD13B68BF
:104D30005B68002B09D07B685B6823F468423B68A2
:104D40009B681A437B685A6005E07B685B6823F4C4
:104D500068427B685A607B689A680E4B13403A68D9
:104D6000126802F070613A68D26811433A681269B9
:104D70000A431A437B689A603B685B681946786807
:104D8000FFF72DFF01E00123FB73FB7B1846103773
:104D9000BD4680BDFDFCFFC080B483B000AF78602D
:104DA000054B1A6804497B6813430B6000BF0C373E
:104DB000BD465DF8047B7047003C014080B483B081
:104DC00000AF7860064B1A687B68DB4304491340E8
:104DD0000B6000BF0C37BD465DF8047B704700BF19
:104DE000003C014080B483B000AF7860054B5A6846
:104DF00004497B6813434B6000BF0C37BD465DF828
:104E0000047B7047003C014080B483B000AF786001
:104E1000064B5A687B68DB43044913404B6000BF74
:104E20000C37BD465DF8047B704700BF003C014075
:104E300080B483B000AF7860054B9A6804497B6802
:104E400013438B6000BF0C37BD465DF8047B704791
:104E5000003C014080B483B000AF7860064B9A6894
:104E60007B68DB43044913408B6000BF0C37BD46B1
:104E70005DF8047B704700BF003C014080B483B004
:104E800000AF7860054BDA6804497B681343CB6058
:104E900000BF0C37BD465DF8047B7047003C014005
:104EA00080B483B000AF7860064BDA687B68DB4380
:104EB00004491340CB6000BF0C37BD465DF8047B4E
:104EC000704700BF003C014080B584B000AF7860FF
:104ED0000023FB737B681B79002B65D07B681B6804
:104EE000002B6BD07B685B79022B1CD0022B25DC5E
:104EF000002B02D0012B0BD020E07B681B681846EA
:104F0000FFF782FF7B681B681846FFF745FF18E034
:104F10007B681B681846FFF751FF7B681B681846C3
:104F2000FFF760FF0DE07B681B681846FFF734FF52
:104F30007B681B681846FFF755FF02E00123FB73EF
:104F400000BF7B689B79002B38D07B689B79032B53
:104F50001CD0032B25DC012B02D0022B0BD020E030
:104F60007B681B681846FFF79BFF7B681B68184629
:104F7000FFF75EFF22E07B681B681846FFF76AFFB9
:104F80007B681B681846FFF779FF17E07B681B6892
:104F90001846FFF74DFF7B681B681846FFF76EFF4A
:104FA0000CE00123FB7309E07B681B681846FFF7E0
:104FB00005FF7B681B681846FFF726FFFB7B18463A
:104FC0001037BD4680BD80B48BB000AFF860B960CB
:104FD0007A60FB681A68BB687B617B6993FAA3F30C
:104FE0003B613B69BB61BB69002B01D1202303E01E
:104FF000BB69B3FA83F3DBB25B00032101FA03F36D
:10500000DB431A40BB683B623B6A93FAA3F3FB6144
:10501000FB697B627B6A002B01D1202303E07B6A62
:10502000B3FA83F3DBB25B00796801FA03F31A4346
:10503000FB681A6000BF2C37BD465DF8047B7047E3
:1050400080B485B000AFF860B9607A60FB685A68D8
:10505000BB68DB431A40BB68796801FB03F31A4362
:10506000FB685A6000BF1437BD465DF8047B70478B
:1050700080B48BB000AFF860B9607A60FB689A6862
:10508000BB687B617B6993FAA3F33B613B69BB61BE
:10509000BB69002B01D1202303E0BB69B3FA83F382
:1050A000DBB25B00032101FA03F3DB431A40BB6868
:1050B0003B623B6A93FAA3F3FB61FB697B627B6A09
:1050C000002B01D1202303E07B6AB3FA83F3DBB228
:1050D0005B00796801FA03F31A43FB689A6000BF2A
:1050E0002C37BD465DF8047B704780B48BB000AFB1
:1050F000F860B9607A60FB68DA68BB687B617B69DD
:1051000093FAA3F33B613B69BB61BB69002B01D1FF
:10511000202303E0BB69B3FA83F3DBB25B00032116
:1051200001FA03F3DB431A40BB683B623B6A93FA24
:10513000A3F3FB61FB697B627B6A002B01D1202317
:1051400003E07B6AB3FA83F3DBB25B00796801FAB0
:1051500003F31A43FB68DA6000BF2C37BD465DF8E5
:10516000047B704780B48BB000AFF860B9607A60A0
:10517000FB681A6ABB687B617B6993FAA3F33B61A6
:105180003B69BB61BB69002B01D1202303E0BB69F4
:10519000B3FA83F3DBB29B000F2101FA03F3DB4385
:1051A0001A40BB683B623B6A93FAA3F3FB61FB695D
:1051B0007B627B6A002B01D1202303E07B6AB3FA78
:1051C00083F3DBB29B00796801FA03F31A43FB68AF
:1051D0001A6200BF2C37BD465DF8047B704780B46F
:1051E0008BB000AFF860B9607A60FB685A6ABB6840
:1051F0001B0A7B617B6993FAA3F33B613B69BB614B
:10520000BB69002B01D1202303E0BB69B3FA83F310
:10521000DBB29B000F2101FA03F3DB431A40BB68AA
:105220001B0A3B623B6A93FAA3F3FB61FB697B6257
:105230007B6A002B01D1202303E07B6AB3FA83F35E
:10524000DBB29B00796801FA03F31A43FB685A62E8
:1052500000BF2C37BD465DF8047B704780B58AB02F
:1052600000AF7860396000237B6200233B623B68BB
:105270001B68BB61BB6993FAA3F37B617B69FB612C
:10528000FB69002B01D1202303E0FB69B3FA83F310
:10529000DBB27B6257E03B681A6801217B6A01FA46
:1052A00003F313403B623B6A002B49D03B685B68C9
:1052B000012B03D03B685B68022B0DD13B689B68D8
:1052C0001A46396A7868FFF7D3FE3B68DB681A46EE
:1052D000396A7868FFF7B4FE3B681B691A46396A79
:1052E0007868FFF702FF3B685B68022B21D13B6ABD
:1052F000FB60FB6893FAA3F3BB60BB683B613B694F
:10530000002B01D1202303E03B69B3FA83F3DBB226
:10531000072B07D83B685B691A46396A7868FFF73C
:1053200021FF06E03B685B691A46396A7868FFF737
:1053300056FF3B685B681A46396A7868FFF743FE98
:105340007B6A01337B623B681A687B6A22FA03F34B
:10535000002BA0D1002318462837BD4680BD000091
:1053600080B400AF044B9B6803F00C031846BD46A5
:105370005DF8047B704700BF0038024080B400AF86
:10538000044B9B6803F0F0031846BD465DF8047BB0
:10539000704700BF0038024080B400AF044B9B68E8
:1053A00003F4E0531846BD465DF8047B704700BF28
:1053B0000038024080B400AF044B9B6803F46043A4
:1053C0001846BD465DF8047B704700BF00380240B8
:1053D00080B400AF044B5B6803F480031846BD46FD
:1053E0005DF8047B704700BF0038024080B400AF16
:1053F000044B5B689B09C3F308031846BD465DF880
:10540000047B70470038024080B400AF044B5B68F7
:1054100003F440331846BD465DF8047B704700BF77
:105420000038024080B400AF044B5B6803F03F03D8
:105430001846BD465DF8047B704700BF0038024047
:1054400080B582B000AF786000F020F802467B683B
:105450001A607B681B68184600F040F802467B68BB
:105460005A607B685B68184600F04EF802467B681D
:105470009A607B685B68184600F05AF802467B68C1
:10548000DA6000BF0837BD4680BD000080B582B03D
:1054900000AF00237B60FFF763FF0346082B0CD0AF
:1054A000082B0FD8002B02D0042B03D00AE0094BA5
:1054B0007B600AE0084B7B6007E0082000F04CF8B6
:1054C000786002E0034B7B6000BF7B6818460837BA
:1054D000BD4680BD0024F40000127A0080B582B081
:1054E00000AF7860FFF74AFF03461B0903F00F0384
:1054F000044AD35C1A467B68D34018460837BD4639
:1055000080BD00BF6CA1000880B582B000AF78609C
:10551000FFF742FF03469B0A044AD35C1A467B68A6
:10552000D34018460837BD4680BD00BF7CA10008A7
:1055300080B582B000AF7860FFF73CFF03465B0B9D
:10554000044AD35C1A467B68D34018460837BD46E8
:1055500080BD00BF7CA1000890B587B000AF786027
:1055600000237B610023FB6000233B61FFF730FFDA
:10557000F860FB68002B04D0FB68B3F5800F03D004
:1055800005E0124B7B6105E0114B7B6102E00F4BA4
:105590007B6100BF7B68082B13D1FFF743FF0246F6
:1055A0007B69B3FBF2F4FFF721FF034603FB04F42E
:1055B000FFF72AFF03461B0C01335B00B4FBF3F338
:1055C0003B613B6918461C37BD4690BD0024F40082
:1055D00000127A0080B483B000AF786039607B68D5
:1055E0003A689A6200BF0C37BD465DF8047B70478D
:1055F00080B483B000AF786039607B683A68DA6263
:1056000000BF0C37BD465DF8047B704780B483B0A3
:1056100000AF786039607B683A681A6300BF0C3766
:10562000BD465DF8047B704780B483B000AF7860FE
:1056300039607B683A685A6300BF0C37BD465DF835
:10564000047B704780B483B000AF786039607B68BA
:105650003A689A6300BF0C37BD465DF8047B70471B
:1056600080B483B000AF786039607B683A68DA63F1
:1056700000BF0C37BD465DF8047B704780B483B033
:1056800000AF786039607B683A681A6400BF0C37F5
:10569000BD465DF8047B704780B483B000AF78608E
:1056A0007B685B6943F001027B685A6100BF0C377D
:1056B000BD465DF8047B704780B584B000AF78606C
:1056C00039607B681B68FB607B683D4A934213D05E
:1056D0007B68B3F1804F0FD07B683A4A93420BD07E
:1056E0007B68394A934207D07B68384A934203D09B
:1056F0007B68374A934206D1FB6823F070023B680F
:105700005B681343FB607B682D4A93422BD07B6818
:10571000B3F1804F27D07B682A4A934223D07B681D
:10572000294A93421FD07B68284A93421BD07B684A
:10573000274A934217D07B68264A934213D07B684E
:10574000254A93420FD07B68244A93420BD07B6852
:10575000234A934207D07B68224A934203D07B6856
:10576000214A934206D1FB6823F440723B68DB6810
:105770001343FB607B68FA681A603B689B681946B4
:105780007868FFF735FF3B681B8819467868FFF794
:1057900021FF7B680A4A934203D07B680C4A9342FC
:1057A00005D13B681B6919467868FFF72FFF7868B9
:1057B000FFF772FF002318461037BD4680BD00BFBB
:1057C000000001400004004000080040000C0040C0
:1057D00000040140004001400044014000480140F5
:1057E00000180040001C00400020004080B586B03A
:1057F00000AFF860B9607A600123FB75BB68B3F550
:10580000805F27D0BB68B3F5805F2AD8BB68B3F54B
:10581000807F18D0BB68B3F5807F22D8BB68012B8E
:1058200003D0BB68102B07D01BE07968F86800F044
:1058300061F80346FB7515E07968F86800F0C6F872
:105840000346FB750EE07968F86800F02FF903460F
:10585000FB7507E07968F86800F098F90346FB7576
:1058600000E000BFFB7D18461837BD4680BD80B400
:1058700085B000AF786039600023FB60FB6823F0DF
:10588000FF033A68127B1343FB60FB6823F440720A
:105890003B689B681343FB60FB6823F480623B68B2
:1058A0005B681343FB60FB6823F400623B681B6882
:1058B0001343FB60FB6823F480533A68D289134397
:1058C000FB60FB6823F400523B681B691343FB60D9
:1058D000FB6823F480423B685B691343FB607B6891
:1058E000FA685A64002318461437BD465DF8047BF5
:1058F0007047000080B586B000AF786039607B6883
:105900001B6A23F001027B681A627B681B6A7B6159
:105910007B685B683B617B689B69FB60FB6823F08D
:105920000303FB60FB6823F070023B681B681343B2
:10593000FB607B6923F002023B681B6913437B61B8
:105940007B6923F001023B685B6813437B617B68E2
:105950001C4A934203D07B681B4A93421ED17B6949
:1059600023F008023B685B699B0013437B617B6902
:1059700023F004023B689B689B0013437B613B69F7
:1059800023F480723B689B6913433B613B6923F4BA
:1059900000723B68DB695B0013433B617B683A69DB
:1059A0005A607B68FA689A613B68DB6819467868D8
:1059B000FFF73AFE7B687A691A62002318461837A7
:1059C000BD4680BD000001400004014080B586B0A6
:1059D00000AF786039607B681B6A23F010027B6837
:1059E0001A627B681B6A7B617B685B683B617B68D2
:1059F0009B69FB60FB6823F44073FB60FB6823F446
:105A0000E0423B681B681B021343FB607B6923F089
:105A100020023B681B691B0113437B617B6923F0F8
:105A200010023B685B681B0113437B617B681D4A66
:105A3000934203D07B681C4A93421FD17B6923F0B9
:105A400080023B685B699B0113437B617B6923F0A8
:105A500040023B689B689B0113437B613B6923F4D5
:105A600080623B689B699B0013433B613B6923F465
:105A700000623B68DB69DB0013433B617B683A698A
:105A80005A607B68FA689A613B68DB6819467868F7
:105A9000FFF7D8FD7B687A691A6200231846183729
:105AA000BD4680BD000001400004014080B586B0C5
:105AB00000AF786039607B681B6A23F480727B6872
:105AC0001A627B681B6A7B617B685B683B617B68F1
:105AD000DB69FB60FB6823F00303FB60FB6823F0DA
