:020000040800F2
:1000000000000220194A000899480008A148000889
:10001000A9480008B1480008B948000800000000DD
:10002000000000000000000000000000C1480008BF
:10003000CF48000800000000DD480008EB48000839
:10004000694A0008694A0008694A0008694A0008C4
:10005000694A0008694A0008694A0008F748000828
:10006000694A000825490008694A0008694A0008E9
:10007000694A0008694A0008694A0008694A000894
:10008000694A0008694A000853490008694A00089B
:10009000694A0008694A0008694A0008694A000874
:1000A000694A0008694A0008694A0008694A000864
:1000B000694A0008694A0008694A0008694A000854
:1000C000694A0008694A0008694A0008694A000844
:1000D000694A000861490008694A0008694A00083D
:1000E000694A0008694A0008694A0008694A000824
:1000F000694A0008694A0008694A0008694A000814
:10010000694A0008694A0008694A0008694A000803
:10011000694A0008694A0008694A0008694A0008F3
:10012000694A0008694A0008694A0008694A0008E3
:10013000694A00080000000000000000694A000849
:10014000694A0008694A0008694A0008694A0008C3
:10015000694A0008694A0008694A000875490008A8
:10016000694A0008694A0008694A0008694A0008A3
:10017000694A0008694A0008000000000000000009
:08018000694A0008694A000801
:1001900010B5054C237833B9044B13B10448AFF3C1
:1001A00000800123237010BD040200200000000025
:1001B000F496000808B5034B1BB103490348AFF39D
:1001C000008008BD0000000008020020F49600082E
:1001D00010F8012B11F8013B012A28BF9A42F7D0F1
:1001E000D01A7047034613F8012B002AFBD1181AC6
:1001F000013870470000000000000000000000000F
:1002000001F0FF01102A2BDB10F0070F08D010F8C7
:10021000013B013A8B422DD010F0070F42B3F6D1CB
:10022000F0B441EA012141EA014122F007047FF0E4
:1002300000070023F0E80256083C85EA010586EA3B
:10024000010685FA47F5A3FA87F586FA47F6A5FA77
:1002500087F68EB9EED1F0BC01F0FF0102F0070283
:1002600032B110F8013B013A83EA010313B1F8D12E
:100270000020704701387047002D06BF354603380F
:10028000073815F0010F07D1013015F4807F02BF48
:10029000013015F4C03F0130F0BC0138704700BF99
:1002A00081F0004102E000BF83F0004330B54FEA27
:1002B00041044FEA430594EA050F08BF90EA020F94
:1002C0001FBF54EA000C55EA020C7FEA645C7FEA27
:1002D000655C00F0E2804FEA5454D4EB5555B8BF4A
:1002E0006D420CDD2C4480EA020281EA030382EABB
:1002F000000083EA010180EA020281EA0303362D4D
:1003000088BF30BD11F0004F4FEA01314FF4801C1F
:100310004CEA113102D0404261EB410113F0004F31
:100320004FEA03334CEA133302D0524263EB4303E8
:1003300094EA050F00F0A780A4F10104D5F1200E86
:100340000DDB02FA0EFC22FA05F2801841F10001E1
:1003500003FA0EF2801843FA05F359410EE0A5F1B5
:1003600020050EF1200E012A03FA0EFC28BF4CF0E6
:10037000020C43FA05F3C01851EBE37101F000459C
:1003800007D54FF0000EDCF1000C7EEB00006EEBA9
:100390000101B1F5801F1BD3B1F5001F0CD3490833
:1003A0005FEA30004FEA3C0C04F101044FEA44528A
:1003B00012F5800F80F09A80BCF1004F08BF5FEA11
:1003C000500C50F1000041EB045141EA050130BDF1
:1003D0005FEA4C0C404141EB0101013C28BFB1F503
:1003E000801FE9D291F0000F04BF01460020B1FA4E
:1003F00081F308BF2033A3F10B03B3F120020CDA21
:100400000C3208DD02F1140CC2F10C0201FA0CF0FE
:1004100021FA02F10CE002F11402D8BFC2F1200C63
:1004200001FA02F120FA0CFCDCBF41EA0C01904019
:10043000E41AA2BF01EB0451294330BD6FEA040462
:100440001F3C1CDA0C340EDC04F11404C4F120024D
:1004500020FA04F001FA02F340EA030021FA04F35F
:1004600045EA030130BDC4F10C04C4F1200220FAB6
:1004700002F001FA04F340EA0300294630BD21FAF4
:1004800004F0294630BD94F0000F83F4801306BFBA
:1004900081F480110134013D4EE77FEA645C18BFAE
:1004A0007FEA655C29D094EA050F08BF90EA020F45
:1004B00005D054EA000C04BF1946104630BD91EA3D
:1004C000030F1EBF0021002030BD5FEA545C05D140
:1004D0004000494128BF41F0004130BD14F580047F
:1004E0003CBF01F5801130BD01F0004545F0FE41F3
:1004F00041F470014FF0000030BD7FEA645C1ABF28
:10050000194610467FEA655C1CBF0B46024650EA5E
:10051000013406BF52EA033591EA030F41F400218A
:1005200030BD00BF90F0000F04BF0021704730B510
:100530004FF4806404F132044FF000054FF00001E5
:1005400050E700BF90F0000F04BF0021704730B5A6
:100550004FF4806404F1320410F0004548BF40427B
:100560004FF000013EE700BF42004FEAE2014FEAD0
:1005700031014FEA02701FBF12F07F4393F07F4FAB
:1005800081F06051704732F07F4208BF704793F0AE
:100590007F4F04BF41F40021704730B54FF46074C1
:1005A00001F0004521F000411CE700BF50EA0102C4
:1005B00008BF704730B54FF000050AE050EA01026D
:1005C00008BF704730B511F0004502D5404261EBDD
:1005D00041014FF4806404F132045FEA915C3FF41E
:1005E000D8AE4FF003025FEADC0C18BF03325FEABB
:1005F000DC0C18BF033202EBDC02C2F1200300FA6C
:1006000003FC20FA02F001FA03FE40EA0E0021FA90
:1006100002F11444BDE600BF70B54FF0FF0C4CF47E
:10062000E06C1CEA11541DBF1CEA135594EA0C0F30
:1006300095EA0C0F00F0DEF82C4481EA030621EA6B
:100640004C5123EA4C5350EA013518BF52EA0335A6
:1006500041F4801143F4801338D0A0FB02CE4FF058
:100660000005E1FB02E506F00042E0FB03E54FF088
:100670000006E1FB03569CF0000F18BF4EF0010E80
:10068000A4F1FF04B6F5007F64F5407404D25FEA7C
:100690004E0E6D4146EB060642EAC62141EA55512F
:1006A0004FEAC52040EA5E504FEACE2EB4F1FD0C71
:1006B00088BFBCF5E06F1ED8BEF1004F08BF5FEAEF
:1006C000500E50F1000041EB045170BD06F00046A1
:1006D00046EA010140EA020081EA0301B4EB5C044E
:1006E000C2BFD4EB0C0541EA045170BD41F4801146
:1006F0004FF0000E013C00F3AB8014F1360FDEBF6B
:10070000002001F0004170BDC4F10004203C35DA46
:100710000C341BDC04F11404C4F1200500FA05F3C9
:1007200020FA04F001FA05F240EA020001F000426A
:1007300021F0004110EBD37021FA04F642EB0601E0
:100740005EEA430E08BF20EAD37070BDC4F10C040A
:10075000C4F1200500FA04F320FA05F001FA04F2CE
:1007600040EA020001F0004110EBD37041F10001BA
:100770005EEA430E08BF20EAD37070BDC4F12005C5
:1007800000FA05F24EEA020E20FA04F301FA05F22D
:1007900043EA020321FA04F001F0004121FA04F2D5
:1007A00020EA020000EBD3705EEA430E08BF20EAA5
:1007B000D37070BD94F0000F0FD101F000464000DF
:1007C00041EB010111F4801F08BF013CF7D041EA61
:1007D000060195F0000F18BF704703F00046520065
:1007E00043EB030313F4801F08BF013DF7D043EA36
:1007F0000603704794EA0C0F0CEA135518BF95EAEC
:100800000C0F0CD050EA410618BF52EA4306D1D172
:1008100081EA030101F000414FF0000070BD50EA91
:10082000410606BF1046194652EA430619D094EA1B
:100830000C0F02D150EA013613D195EA0C0F05D105
:1008400052EA03361CBF104619460AD181EA030159
:1008500001F0004141F0FE4141F470014FF0000011
:1008600070BD41F0FE4141F4780170BD70B54FF0AC
:10087000FF0C4CF4E06C1CEA11541DBF1CEA13552C
:1008800094EA0C0F95EA0C0F00F0A7F8A4EB05040E
:1008900081EA030E52EA03354FEA013100F0888005
:1008A0004FEA03334FF0805545EA131343EA1263CE
:1008B0004FEA022245EA111545EA10654FEA002683
:1008C0000EF000419D4208BF964244F1FD0404F53C
:1008D000407402D25B084FEA3202B61A65EB030598
:1008E0005B084FEA32024FF480104FF4002CB6EB55
:1008F000020E75EB030E22BFB61A754640EA0C00D5
:100900005B084FEA3202B6EB020E75EB030E22BF14
:10091000B61A754640EA5C005B084FEA3202B6EB55
:10092000020E75EB030E22BFB61A754640EA9C0014
:100930005B084FEA3202B6EB020E75EB030E22BFE4
:10094000B61A754640EADC0055EA060E18D04FEAA2
:10095000051545EA16754FEA06164FEAC30343EA42
:1009600052734FEAC2025FEA1C1CC0D111F4801F0F
:100970000BD141EA00014FF000004FF0004CB6E708
:1009800011F4801F04BF01430020B4F1FD0C88BFA7
:10099000BCF5E06F3FF6AFAEB5EB030C04BFB6EBB2
:1009A000020C5FEA500C50F1000041EB045170BDA5
:1009B0000EF0004E4EEA113114EB5C04C2BFD4EBD2
:1009C0000C0541EA045170BD41F480114FF0000E56
:1009D000013C90E645EA060E8DE60CEA135594EAD2
:1009E0000C0F08BF95EA0C0F3FF43BAF94EA0C0FD5
:1009F0000AD150EA01347FF434AF95EA0C0F7FF44A
:100A000025AF104619462CE795EA0C0F06D152EA9D
:100A100003353FF4FDAE1046194622E750EA410681
:100A200018BF52EA43067FF4C5AE50EA41047FF492
:100A30000DAF52EA43057FF4EBAE12E74FF0FF3CF7
:100A400006E000BF4FF0010C02E000BF4FF0010CC8
:100A50004DF804CD4FEA410C7FEA6C5C4FEA430C41
:100A600018BF7FEA6C5C1BD001B050EA410C0CBF90
:100A700052EA430C91EA030F02BF90EA020F0020F2
:100A8000704710F1000F91EA030F58BF994208BF59
:100A900090422CBFD8176FEAE37040F00100704716
:100AA0004FEA410C7FEA6C5C02D150EA013C07D16D
:100AB0004FEA430C7FEA6C5CD6D152EA033CD3D0B8
:100AC0005DF8040B704700BF8446104662468C46B2
:100AD0001946634600E000BF01B5FFF7B7FF0028E5
:100AE00048BF10F1000F01BD4DF808EDFFF7F4FF0E
:100AF0000CBF012000205DF808FB00BF4DF808ED99
:100B0000FFF7EAFF34BF012000205DF808FB00BFBB
:100B10004DF808EDFFF7E0FF94BF012000205DF8DD
:100B200008FB00BF4DF808EDFFF7CEFF94BF012092
:100B300000205DF808FB00BF4DF808EDFFF7C4FF8B
:100B400034BF012000205DF808FB00BF4A0011D22D
:100B500012F5001211D20DD56FF47873B3EB625217
:100B60000ED44FEAC12343F0004343EA505323FA23
:100B700002F070474FF00000704750EA013002D198
:100B80004FF0FF3070474FF00000704753B94AB93B
:100B9000002908BF00281CBF4FF0FF314FF0FF3085
:100BA00000F088B9ADF1080C6DE904CE00F006F84C
:100BB000DDF804E0DDE9022304B070472DE9F047D9
:100BC000089D8E4604468846002B4AD18A42174625
:100BD00062D9B2FA82F64EB1C6F1200301FA06F8E4
:100BE00020FA03F3B74043EA0808B4404FEA174E2F
:100BF0001FFA87FCB8FBFEF1230C0EFB118843EAB9
:100C0000084301FB0CF29A4209D9FB1801F1FF30AD
:100C100080F0EA809A4240F2E78002393B449A1A17
:100C2000A3B2B2FBFEF00EFB102243EA024300FB2C
:100C30000CFC9C4509D9FB1800F1FF3280F0D680EE
:100C40009C4540F2D3803B44023840EA0140A3EB8C
:100C50000C0300211DB1F3400022C5E90032BDE8BC
:100C6000F0878B4205D90DB1C5E900010021084686
:100C7000F5E7B3FA83F1002946D1734502D38242E6
:100C800000F20581841A6EEB030201209046002DCC
:100C9000E5D0C5E90048E2E7002A00F09080B2FA0A
:100CA00082F6002E40F0A4808A1A030C4FEA174EF9
:100CB00080B2BCB20121B2FBFEFC0EFB1C2243EA57
:100CC000024304FB0CF29A4207D9FB180CF1FF38DF
:100CD00002D29A4200F2E080C4469B1AB3FBFEF2B5
:100CE0000EFB123340EA034302FB04F49C4207D993
:100CF000FB1802F1FF3002D29C4200F2CA80024689
:100D00001B1B42EA0C40A5E7C1F120068B4022FAEA
:100D100006F71F430EFA01F420FA06F32EFA06FE38
:100D20004FEA1749234300FA01F81FFA87FCBEFB7C
:100D3000F9F01C0C09FB10EE44EA0E4400FB0CFE1B
:100D4000A64502FA01F209D93C1900F1FF3A80F0F8
:100D50009C80A64540F2998002383C44A4EB0E04E6
:100D60001FFA83FEB4FBF9F309FB13444EEA044473
:100D700003FB0CFCA44508D93C1903F1FF3E80F0AD
:100D80008280A4457FD9023B3C4443EA0040A4EB67
:100D90000C04A0FB02EC64457346E14662D35FD0CD
:100DA0005DB1B8EB030264EB090404FA06F622FA1B
:100DB00001F31E43CC40C5E9006400214FE7B1FBBD
:100DC000F2FC010C41EA0E4180B240EA01423B468E
:100DD00038463C46B846BE462026B1FBF7F1A2EBAA
:100DE000080241EA0C4166E7014618E710462CE785
:100DF000C6F120022EFA02F3B740B14020FA02F207
:100E00004FEA174E0A43B3FBFEF8BCB20EFB183391
:100E1000110C41EA034108FB04F9B04089454FEA4F
:100E2000104380B23ED9791808F1FF3C01D28945C0
:100E30001FD8A1EB0901B1FBFEF909FB04F80EFB79
:100E4000191192B242EA0142424529D2BA1809F177
:100E5000FF31C4D24245C2D2A9F102013A44BEE7F1
:100E6000F0459DD2BEEB02036CEB070C0138E14666
:100E700096E7A7EB09094944A8F1020CB1FBFEF97A
:100E800009FB04F8DBE773467FE7504666E7084650
:100E9000FDE63B44023A33E7ACF1020C3B441CE76D
:100EA00049469CE7A1EB0901C446B1FBFEF909FBE9
:100EB00004F8C4E7704700BF80B500AF02F0C4F883
:100EC00000F0AAFB02F03AFC42F2107007F0C6FAFA
:100ED00007F0E6FAFCE780B483B000AF786000BFAB
:100EE0000C37BD465DF8047B704780B483B000AF1B
:100EF000786039607B685B6823F480723B681A43D2
:100F00007B685A6000BF0C37BD465DF8047B7047B4
:100F100080B483B000AF786039607B689B6823F051
:100F200070623B6803F070631A437B689A6000BF8D
:100F30000C37BD465DF8047B704780B483B000AFCA
:100F4000786039607B68DB6A23F470023B681A437F
:100F50007B68DA6200BF0C37BD465DF8047B7047E2
:100F600080B489B000AFF860B9607A60FB682C3358
:100F70001946BB6803F440734FF440727A617A6992
:100F800092FAA2F23A613A69BA61BA69002A01D1C9
:100F9000202203E0BA69B2FA82F2D2B2D3409B00B7
:100FA0000B44FB61FB691A68BB6803F01F031F2138
:100FB00001FA03F3DB431A407B6803F01F01BB68AF
:100FC00003F01F0301FA03F31A43FB691A6000BF21
:100FD0002437BD465DF8047B704780B483B000AF12
:100FE000786039607B689B6823F002023B681A4393
:100FF0007B689A6000BF0C37BD465DF8047B704784
:1010000080B483B000AF786039607B689B6823F45C
:1010100080623B681A437B689A6000BF0C37BD460C
:101020005DF8047B704780B48FB000AFF860B960A2
:101030007A60FB680C331946BB6803F000734FF00D
:1010400000727A617A6992FAA2F23A613A69BA61F7
:10105000BA69002A01D1202203E0BA69B2FA82F209
:10106000D2B2D3409B000B447B637B6B1A68BB6896
:1010700003F0F8734FF0F8713962396A91FAA1F10F
:10108000F961F9697962796A002901D1202103E0C7
:10109000796AB1FA81F1C9B2CB40072101FA03F3B1
:1010A000DB431A40BB6803F0F8734FF0F871F96244
:1010B000F96A91FAA1F1B962B96A3963396B002909
:1010C00001D1202103E0396BB1FA81F1C9B2CB40E3
:1010D000796801FA03F31A437B6B1A6000BF3C374F
:1010E000BD465DF8047B704780B483B000AF786084
:1010F0007B689B6843F001027B689A6000BF0C37F5
:10110000BD465DF8047B704780B483B000AF786063
:101110007B689B6823F001027B689A6000BF0C37F4
:10112000BD465DF8047B704780B483B000AF786043
:101130007B689B6843F080427B689A6000BF0C37F5
:10114000BD465DF8047B704780B483B000AF786023
:101150007B68DB6C9BB218460C37BD465DF8047BA0
:10116000704780B483B000AF78607B681B6803F081
:101170000203022B0CBF01230023DBB218460C37FD
:10118000BD465DF8047B704780B483B000AF7860E3
:101190007B681B6803F02003202B0CBF0123002376
:1011A000DBB218460C37BD465DF8047B704780B44F
:1011B00083B000AF78607B686FF002021A6000BFF6
:1011C0000C37BD465DF8047B704780B483B000AF38
:1011D00078607B686FF020021A6000BF0C37BD4654
:1011E0005DF8047B704780B483B000AF78607B68A3
:1011F0005B6843F020027B685A6000BF0C37BD4635
:101200005DF8047B704780B483B000AF78607B6882
:101210005B6843F080627B685A6000BF0C37BD4654
:101220005DF8047B704780B483B000AF78603960AC
:101230007B683A689A6100BF0C37BD465DF8047B55
:10124000704780B483B000AF786039603B681A049F
:101250007B689A6100BF0C37BD465DF8047B704720
:1012600080B483B000AF78607B681B6843F00102F4
:101270007B681A6000BF0C37BD465DF8047B704781
:1012800080B483B000AF78607B681B6823F00202F3
:101290007B681A6000BF0C37BD465DF8047B704761
:1012A00080B483B000AF78607B681B6843F00202B3
:1012B0007B681A6000BF0C37BD465DF8047B704741
:1012C00080B483B000AF78607B681B6843F0800215
:1012D0007B681A6000BF0C37BD465DF8047B704721
:1012E00080B483B000AF786039607B683A689A62F6
:1012F00000BF0C37BD465DF8047B704780B483B0F7
:1013000000AF78607B689B6A18460C37BD465DF875
:10131000047B704780B483B000AF786039607B682D
:101320003A68DA6200BF0C37BD465DF8047B70474F
:1013300080B483B000AF786039607B681A6A3B681C
:101340001A437B681A6200BF0C37BD465DF8047B08
:101350007047000080B487B000AFF860B9607A6071
:10136000BB68012B1CD0BB68042B17D0BB68102BAB
:1013700012D0BB68402B0DD0BB68B3F5807F07D07F
:10138000BB68B3F5806F01D105230AE0062308E0AE
:10139000042306E0032304E0022302E0012300E02B
:1013A0000023FB75FB6818331946FB7D0E4AD35C9E
:1013B0000B443B613B691A68FB7D0C49CB5C1946C9
:1013C00073238B40DB431A40FB7D0849CB5C1946F5
:1013D0007B688B401A433B691A6000BF1C37BD46CF
:1013E0005DF8047B704700BFB89D0008C09D0008F1
:1013F00080B487B000AFF860B9607A60BB68012B39
:101400001CD0BB68042B17D0BB68102B12D0BB6854
:10141000402B0DD0BB68B3F5807F07D0BB68B3F518
:10142000806F01D105230AE0062308E0042306E0CB
:10143000032304E0022302E0012300E00023FB7504
:10144000FB681A6AFB7D0B49CB5C194602238B4073
:10145000DB431A40FB7D0749CB5C19467B688B4018
:101460001A43FB681A6200BF1C37BD465DF8047B57
:10147000704700BFC89D000880B485B000AF786099
:1014800039603B68012B1CD03B68042B17D03B68AC
:10149000102B12D03B68402B0DD03B68B3F5807FFA
:1014A00007D03B68B3F5806F01D105230AE006231E
:1014B00008E0042306E0032304E0022302E0012302
:1014C00000E00023FB737B6818331946FB7B0A4A54
:1014D000D35C0B44BB60BB681A68FB7B0749CB5CE1
:1014E000194608238B401A43BB681A6000BF1437A3
:1014F000BD465DF8047B7047B89D0008C09D00089C
:1015000080B483B000AF786039607B683A685A6312
:1015100000BF0C37BD465DF8047B704780B483B0D4
:1015200000AF786039607B683A689A6300BF0C3717
:10153000BD465DF8047B704780B483B000AF78602F
:1015400039607B683A68DA6300BF0C37BD465DF8E6
:10155000047B704780B483B000AF786039607B68EB
:101560003A681A6400BF0C37BD465DF8047B7047CB
:1015700080B485B000AFF860B9607A60FB685B6CDE
:1015800023F44062B9687B680B431A43FB685A64D2
:1015900000BF1437BD465DF8047B704780B483B04C
:1015A00000AF78607B685B6C23F480427B685A6490
:1015B00000BF0C37BD465DF8047B704780B483B034
:1015C00000AF78607B685B6C43F400427B685A64D0
:1015D00000BF0C37BD465DF8047B704780B483B014
:1015E00000AF78607B68DB6823F001027B68DA601B
:1015F00000BF0C37BD465DF8047B704780B400AF78
:10160000044B9B6803F4E0531846BD465DF8047B29
:10161000704700BF00380240B0B5A4B000AF624BC5
:10162000083324220021184607F0E0FB5E4B01221C
:101630001A725D4B01225A725B4B5C4ADA605A4B5C
:101640004FF07C521A61584B594A9A61564B594A8D
:10165000DA61554B584A1A62534B19225A85574B37
:10166000083324220021184607F0C0FB534B012207
:101670001A72524B01225A72504B4C4ADA604F4B4D
:101680004FF07C521A614D4B4D4A9A614B4B4D4A7B
:10169000DA614A4B4C4A1A62484B0A225A85424B3D
:1016A0004A4A03F12C0415460FCD0FC495E80700F4
:1016B00084E80700414B464A03F12C0415460FCD40
:1016C0000FC495E8070084E8070001F019FD07231F
:1016D000C7F88830D7F8880000F01EFC3D4BC7F8EB
:1016E00084303C4BC7F88030D7F88010D7F884009E
:1016F00000F05CFC00F022FD002387F88F301DE035
:10170000294BD96C97F88F2013465B0013445B007C
:101710000B441888244BD96C97F88F2013465B0034
:1017200013445B00CC1801461F4801F097F80346AC
:10173000638097F88F30013387F88F301A4B93F816
:10174000533097F88F209A42DAD3002387F88E30EF
:101750001DE01A4BD96C97F88E2013465B0013449A
:101760005B000B441888154BD96C97F88E201346F4
:101770005B0013445B00CC180146104801F06EF882
:101780000346638097F88E30013387F88E300B4B19
:1017900093F8533097F88E209A42DAD300BF00BFF7
:1017A0009037BD46B0BD00BFC00000209A99993E59
:1017B000C200002008010020C400002020010020F9
:1017C0002201002068010020240100200C9700085D
:1017D0002897000870110100B0B5A6B000AF78607E
:1017E000002387F89730002387F89630002387F886
:1017F00095300023A7F8923007F19703194603208C
:1018000001F096FC07F196031946042001F090FCC4
:1018100007F195031946052001F08AFC07F19203B0
:101820001946012001F084FC97F89730002B42D034
:101830008B4B5B881846FEF785FE04460D46884BA9
:101840009B881846FEF77EFE83A3D3E90023FEF7AC
:10185000E3FE02460B4620462946FFF763F903469E
:10186000002B37D07E4B93F84930022B19D17C4B9B
:1018700093F85C30002B14D0B7F892301A4607F179
:1018800008037849184607F075FA774B1B6807F18B
:1018900008021146184607F0F5F8714B002283F84C
:1018A0005C20022387F88B3007F18B031946002058
:1018B00001F060FC0EE097F8973083F00103DBB293
:1018C000002B07D0664B002283F848200021644893
:1018D00000F026FD97F89630002B05D04FF480617C
:1018E0006248FFF7A0FC0BE097F8963083F0010305
:1018F000DBB2002B04D04FF480615C48FFF7A1FC01
:1019000097F89530002B07D0554B002283F84820DC
:101910000021534800F004FD002387F89130002394
:1019200087F89030002387F88F300023A7F88C3099
:1019300007F1910319460A2001F0FAFB07F1900321
:1019400019460B2001F0F4FB07F18F0319460C2018
:1019500001F0EEFB07F18C031946082001F0E8FBCB
:1019600097F89130002B42D0414B5B881846FEF728
:10197000E9FD04460D463E4B9B881846FEF7E2FD06
:1019800035A3D3E90023FEF747FE02460B46204667
:101990002946FFF7C7F80346002B37D0344B93F89E
:1019A0004930022B19D1324B93F85C30002B14D004
:1019B000B7F88C301A4607F108032E49184607F08D
:1019C000D9F9294B1B6807F108021146184607F0A0
:1019D00059F8274B002283F85C20022387F88A30CD
:1019E00007F18A031946072001F0C4FB0EE097F8BF
:1019F000913083F00103DBB2002B07D01C4B002297
:101A000083F8482000211A4800F08AFC97F89030AB
:101A1000002B04D010211848FFF705FC0AE097F8C6
:101A2000903083F00103DBB2002B03D01021124869
:101A3000FFF707FC97F88F30002B07D00C4B0022E4
:101A400083F8482000210A4800F06AFC00BF98375C
:101A5000BD46B0BDAFF30080AE47E17A14AEEF3FB4
:101A6000C00000204497000824020020000002402B
:101A700020010020689700080004024080B582B071
:101A800000AF786000F0B0FC00F09AFD00F0C8FDF7
:101A900000F0B4FE00BF0837BD4680BD80B582B0FF
:101AA00000AF03460A46FB711346BB80FB79002B4F
:101AB00005D13B1D1946012001F05CFB07E0FB79D5
:101AC000012B04D13B1D1946082001F053FB00BF38
:101AD0000837BD4680BD80B582B000AF03460A46D8
:101AE000FB801346BB80BB1D1946012001F042FB61
:101AF0003B1D1946082001F03DFB00BF0837BD46DD
:101B000080BD000090B585B000AF04460846114680
:101B10001A462346FB710346BB710B467B71134685
:101B20003B710023FB73FB79002B10D00023FB7368
:101B300007F10F031946042001F01CFB0123BB73BE
:101B400007F10E031946002001F014FB07E0002303
:101B5000BB7307F10E031946002001F00BFB0023B5
:101B60007B73BB79002B10D000237B7307F10D032F
:101B700019460B2001F0FEFA01233B7307F10C0319
:101B80001946072001F0F6FA07E000233B7307F13E
:101B90000C031946072001F0EDFAFB1D194603203E
:101BA00001F0E8FABB1D19460A2001F0E3FA0E4BDA
:101BB0000022A3F850200D4B0022A3F850200A4B1E
:101BC000002283F84920094B002283F84920064A65
:101BD0007B7982F85C30054A3B7982F85C3000BF43
:101BE0001437BD4690BD00BFC0000020200100207A
:101BF00080B584B000AF03460A46FB711346BB7143
:101C00000023FB73FB79002B21D1BB79002B10D073
:101C10000023FB7307F10F031946032001F0AAFA12
:101C20000323BB7307F10E031946002001F0A2FA4B
:101C300007E00023BB7307F10E031946002001F0F3
:101C400099FABB1D1946042001F094FA23E0FB79B0
:101C5000012B20D1BB79002B10D00023FB7307F19F
:101C60000F0319460A2001F085FA0323BB7307F11D
:101C70000E031946072001F07DFA07E00023BB732D
:101C800007F10E031946072001F074FABB1D19462F
:101C90000B2001F06FFA00BF1037BD4680BD80B544
:101CA00084B000AF03460A46FB711346BB710023A4
:101CB000FB73FB79002B10D00023FB7307F10F039C
:101CC0001946032001F056FA0323BB7307F10E03F4
:101CD0001946002001F04EFA07E00023BB7307F11C
:101CE0000E031946002001F045FAFB1D1946042099
:101CF00001F040FA00237B73BB79002B10D0002346
:101D00007B7307F10D0319460A2001F033FA032310
:101D10003B7307F10C031946072001F02BFA07E08B
:101D200000233B7307F10C031946072001F022FA48
:101D3000BB1D19460B2001F01DFA00BF1037BD4630
:101D400080BD80B584B000AF0346FB710023FB81EA
:101D5000FB79002B06D107F10E031946012001F093
:101D6000E7F908E0FB79012B05D107F10E031946CD
:101D7000082001F0DDF9FB8918461037BD4680BD0B
:101D800080B584B000AF0346FB710023FB73FB7981
:101D9000002B06D107F10F031946032001F0C8F903
:101DA00008E0FB79012B05D107F10F0319460A2042
:101DB00001F0BEF9FB7B18461037BD4680BD80B5EB
:101DC00084B000AF0346FB710023FB73FB79002B4B
:101DD00006D107F10F031946042001F0A9F908E024
:101DE000FB79012B05D107F10F0319460B2001F0F8
:101DF0009FF9FB7B18461037BD4680BD80B586B085
:101E000000AF0346FB710023FB820023FB81FB79BB
:101E1000002B12D1184B3B61174B5B88FB82FB8A6E
:101E20001946154800F035FD0346FB8107F10E0306
:101E30001946022001F09EF914E0FB79012B11D123
:101E40000E4B3B610D4B5B88FB82FB8A19460B48AE
:101E500000F01FFD0346FB8107F10E031946092020
:101E600001F088F9FB8A1946386900F012FD034633
:101E700018461837BD4680BDC00000202001002054
:101E800098B500AF2148FFF77FF90346012B14D125
:101E90001E48FFF79AF91E4B00221A701B48FFF7E5
:101EA00033F900BF00BF00BF00BF00BF00BF17482D
:101EB000FFF71AF91548FFF737F91448FFF751F9FA
:101EC0000346012B20D11148FFF771F9104B1B7805
:101ED000DBB21A460F4B53F822400C48FFF734F997
:101EE000034663800A4B1B78DBB21A46094B53F852
:101EF0002230184600F034F9054B1B78DBB283F032
:101F00000103DAB2024B1A7000BF98BD00200140F5
:101F1000200200208001002080B582B000AF7860F0
:101F20001F4B00221A704FF480111E48FFF705F86E
:101F30001D4A4FF400711B48FFF712F80A2240F2C5
:101F400005211848FFF70CF87A6817491548FFF77C
:101F50006AF87A680A211348FFF765F84FF4807130
:101F60001048FEF7C2FF02210E48FFF736F80D4871
:101F7000FFF749F90B48FFF736F94FF4806109483C
:101F8000FFF73EF80748FFF7AFF800210548FEF7D6
:101F9000BFFF0448FFF7C8F800BF0837BD4680BD43
:101FA00020020020002001400C00600080B582B0BB
:101FB00000AF786039605A4806F00CF8594BDB6A7C
:101FC000584A116B60221846FFF7C4F9554BDB6A7B
:101FD000544A116B00221846FFF70AFA514BDB6A8C
:101FE000504A126B11461846FFF746FA4D4BDB6A12
:101FF0004C4A126B11461846FFF79AF9494BDB6AB7
:102000004FF400624FF480611846FFF7B1FA454B78
:10201000DB6A1846FFF7C2FA424BDB6A1846FFF745
:10202000CDFA404BDB6A00211846FFF759F93D4BCA
:10203000DB6A1846FFF744F979683A4800F01CF962
:10204000384BDB6A1846FFF7C9FA374805F0C2FF7C
:10205000364BDB6A354A116B60221846FFF77AF976
:10206000324BDB6A314A116B00221846FFF7C0F988
:102070002E4BDB6A2D4A126B11461846FFF7FCF90E
:102080002A4BDB6A294A126B11461846FFF750F9B2
:10209000264BDB6A4FF400624FF480611846FFF76D
:1020A00067FA224BDB6A1846FFF778FA1F4BDB6AA8
:1020B0001846FFF783FA1D4BDB6A00211846FFF72D
:1020C0000FF91A4BDB6A1846FFF7FAF83968174818
:1020D00000F0D2F8154BDB6A1846FFF77FFA4FF491
:1020E00000711348FFF79FF804211248FFF79BF88F
:1020F0004FF480610E48FFF7A4F810210E48FFF757
:10210000A0F8084BDB6A1846FFF7AAF8074BDB6A12
:102110001846FFF7A5F800BF0837BD4680BD00BFD1
:10212000C8000020C000002028010020200100205D
:1021300000000240000C02400004024080B500AFE5
:102140004FF480610448FFF77CF810210348FFF743
:1021500078F800BF80BD00BF0000024000040240CC
:10216000B0B586B000AF78600023FB737B683F4A50
:10217000934206D107F10F0319460A2000F0D8FF59
:1021800009E07B683A4A934205D107F10F031946EB
:10219000032000F0CDFFFB7B002B62D07B6808336F
:1021A000184605F06DFF7B682C337B617B6893F8E4
:1021B0004830DBB23B617B699B691846FEF7B2F998
:1021C00004460D463869FEF7ADF94FF00002294B81
:1021D000FEF74CFB02460B4620462946FEF71CFA4A
:1021E00002460B4610461946FEF7B0FC02467B69D4
:1021F0005A617B695B68B3F5805F28D0B3F5805F77
:102200002ED8B3F5807F19D0B3F5807F28D8012B65
:1022100002D0102B09D023E07B691A687B695B69C7
:1022200019461046FFF76CF91BE07B691A687B6959
:102230005B6919461046FFF771F912E07B691A686D
:102240007B695B6919461046FFF776F909E07B69FF
:102250001A687B695B6919461046FFF77BF900E055
:1022600000BF00BF1837BD46B0BD00BF2001002031
:10227000C00000200000594090B52DED028B85B0C4
:1022800000AF786039607B682C33FB60FB681B68AB
:102290001846FFF705F81F4B1B681F4A127823FAF0
:1022A00002F4FFF7ABF903469B0A1C4AD35C24FAFD
:1022B00003F307EE903AB8EE678AFB681B6818468E
:1022C000FFF71CF80346013307EE903AB8EE677A41
:1022D0003B6807EE903AF8EE677A27EE277AC8EE69
:1022E000077AFCEEE77A17EE902AFB689A61FB68A2
:1022F0001A68FB689B6919461046FFF70BF8FB68E4
:102300001B681846FEF7BCFF00BF1437BD46BDEC86
:10231000028B90BD90010020809F0008909F0008D4
:10232000B0B584B000AF786039607B682C33FB6057
:10233000FB689B691846FEF7F5F804460D463868B9
:10234000FEF7F0F84FF00002264BFEF78FFA024638
:102350000B4620462946FEF75FF902460B4610461B
:102360001946FEF7F3FB0246FB685A61FB685B689F
:10237000B3F5805F28D0B3F5805F2ED8B3F5807FAA
:1023800019D0B3F5807F28D8012B02D0102B09D0AB
:1023900023E0FB681A68FB685B6919461046FFF783
:1023A000AFF81BE0FB681A68FB685B6919461046CA
:1023B000FFF7B4F812E0FB681A68FB685B6919461E
:1023C0001046FFF7B9F809E0FB681A68FB685B691B
:1023D00019461046FFF7BEF800E000BF00BF1037F7
:1023E000BD46B0BD0000594080B582B000AF0023AB
:1023F000BB71BB1D1946032000F09AFEBB7983F028
:102400000103DBB2002B40F0CE806B4B93F84930D8
:10241000022B00F0C080022B00F3C780002B02D0FB
:10242000012B49D0C1E0644BB3F85030002B11D1DF
:1024300005220021614805F011FF05215E4800F0EA
:1024400043FA5D4BB3F8503001339AB25A4BA3F8BC
:102450005020ADE0584BB3F85030B3F57A6F08D246
:10246000554BB3F8503001339AB2534BA3F8502078
:102470009EE00023FB7114E04F4B59884E4BD86C03
:10248000FA7913465B0013445B0003445B8899426E
:1024900004D8494AFB7982F8523008E0FB790133CD
:1024A000FB71454B93F85330FA799A42E4D3424B8F
:1024B000012283F849207BE07B1D1946002000F0B3
:1024C00037FE7B79022B72D1BB1C1946012000F02C
:1024D0002FFE394BDA6C384B93F8523019460B46C5
:1024E0005B000B445B0013441A887B889A4230D20D
:1024F000314BDA6C304B93F8523019460B465B0087
:102500000B445B0013441B791A4600212B4805F04D
:10251000A5FE294BDA6C284B93F8523019460B462E
:102520005B000B445B0013441B881946224800F0F3
:10253000CBF901237B717B1D1946002000F01AFEA8
:102540001D4B93F852300133DAB21B4B83F8522003
:102550002EE0194BDA6C184B93F8523019460B46A3
:102560005B000B445B0013441B791A46002113489F
:1025700005F074FE7B8819460F4800F0A5F9012389
:102580007B717B1D1946002000F0F4FD0A4B0222EE
:1025900083F849200CE07B1D1946002000F0C8FD9F
:1025A0007B79022B01E000BF02E000BF00E000BF2A
:1025B0000837BD4680BD00BFC0000020C800002015
:1025C00080B582B000AF0023FB71FB1D19460420CB
:1025D00000F0AEFDFB7983F00103DBB2002B15D1D7
:1025E0000C4B5B88142B12D80B4B1B680B491846FD
:1025F00006F048FA00210020FFF7FAFA0423BB7125
:10260000BB1D1946002000F0B5FD00E000BF0837F3
:10261000BD4680BDC0000020240200208C97000829
:1026200080B582B000AF0023BB71BB1D19460A20E4
:1026300000F07EFDBB7983F00103DBB2002B40F09C
:10264000D1806C4B93F84930032B00F2CD8001A26E
:1026500052F823F065260008F7260008D527000861
:10266000E9270008634BB3F85030002B11D1052245
:102670000021614805F0F2FD05215E4800F024F9D3
:102680005C4BB3F8503001339AB25A4BA3F8502048
:10269000ADE0584BB3F85030B3F57A6F08D2554BD4
:1026A000B3F8503001339AB2524BA3F850209EE059
:1026B0000023FB7114E04F4B59884E4BD86CFA79CC
:1026C00013465B0013445B0003445B88994204D8C3
:1026D000484AFB7982F8523008E0FB790133FB71FC
:1026E000444B93F85330FA799A42E4D3414B012298
:1026F00083F849207BE07B1D1946072000F018FD78
:102700007B79022B72D1BB1C1946082000F010FD0A
:10271000384BDA6C374B93F8523019460B465B0056
:102720000B445B0013441A887B889A4230D2314BA9
:10273000DA6C304B93F8523019460B465B000B4471
:102740005B0013441B791A4600212B4805F086FDD7
:10275000284BDA6C274B93F8523019460B465B0036
:102760000B445B0013441B881946224800F0ACF868
:1027700001237B717B1D1946072000F0FBFC1D4BDC
:1027800093F852300133DAB21A4B83F852202EE01C
:10279000184BDA6C174B93F8523019460B465B0016
:1027A0000B445B0013441B791A460021124805F0C4
:1027B00055FD7B8819460F4800F086F801237B7190
:1027C0007B1D1946072000F0D5FC0A4B022283F836
:1027D00049200CE07B1D1946072000F0A9FC7B79FD
:1027E000022B04E000BF02E000BF00E000BF08379A
:1027F000BD4680BD200100202801002080B582B0A8
:1028000000AF0023FB71FB1D19460B2000F090FC6C
:10281000FB7983F00103DBB2002B15D10C4B5B88F5
:102820003C2B12D80B4B1B680B49184606F02AF9B3
:1028300000210120FFF7DCF90423BB71BB1D194601
:10284000072000F097FC00E000BF0837BD4680BDC0
:102850002001002024020020B097000880B483B03B
:1028600000AF78600B467B807B8807EE903AF8EEED
:10287000E76A7B6893ED167AC6EE877AFCEEE77A14
:1028800017EE903A9BB218460C37BD465DF8047BB4
:10289000704780B483B000AF78600B467B807B8844
:1028A00007EE903AB8EEE77A7B68D3ED167A67EEDA
:1028B000277AFCEEE77A17EE903A9BB218460C376F
:1028C000BD465DF8047B704780B582B000AF78608C
:1028D0000B467B807B8819467868FFF7BFFF03466D
:1028E0001A467B689A8000BF0837BD4680BD00004D
:1028F00080B400AFBFF34F8F00BF064BDB6803F41B
:10290000E0620449044B1343CB60BFF34F8F00BF19
:1029100000BFFDE700ED00E00400FA0580B588B0D7
:1029200000AFF860B9607A6007F11403074A0A2122
:10293000184606F0E9F907F114031946F86803F0A0
:10294000E1FD00BF2037BD4680BD00BFC49900082F
:1029500080B584B000AFF860B9607A60FFF7C8FF57
:1029600080B588B000AFF860B9607A60B86803F0ED
:10297000CDFE0346BB61BB69012B04DC3249F8681C
:1029800003F0C0FD5DE0BB69022B04DD2F49F86850
:1029900003F0B8FD55E00121B86803F081FE03465D
:1029A000184606F028F903463B610221B86803F097
:1029B00077FE0346184606F01EF903467B613B6925
:1029C000B3F5AF7F02DC3B69002B04DA2049F868DD
:1029D00003F098FD35E07B693C2B02DC7B69002B22
:1029E00004DA1B49F86803F08DFD2AE00023FB7729
:1029F0000020FFF7C5F90346002B05D01549F868FC
:102A000003F080FD0123FB770120FFF7B9F90346AE
:102A1000002B05D01049F86803F074FD0123FB7703
:102A2000FB7F012B0CD03B699BB27A6992B21146B5
:102A30001846FFF750F80949F86803F063FD00E015
:102A400000BF2037BD4680BDCC990008E89900083A
:102A5000049A00081C9A0008609A0008A49A0008CA
:102A600080B586B000AFF860B9607A60B86803F0EE
:102A70004DFE03467B617B69002B04DC1D49F86831
:102A800003F040FD32E07B69012B04DD1A49F86850
:102A900003F038FD2AE00121B86803F001FE034687
:102AA000184606F0A8F838613B69B3F5AF7F02DC41
:102AB0003B69002B04DA1149F86803F023FD15E0A7
:102AC0000020FFF75DF90346002B04D00C49F8689D
:102AD00003F018FD0AE03B699BB219460020FEF79F
:102AE000DDFF0849F86803F00DFD00BF1837BD464B
:102AF00080BD00BFCC990008B49A0008049A000871
:102B00001C9A0008A49A000880B586B000AFF8604F
:102B1000B9607A60B86803F0F9FD03467B617B69B0
:102B2000002B04DC1C49F86803F0ECFC31E07B6905
:102B3000012B04DD1949F86803F0E4FC29E00121C8
:102B4000B86803F0ADFD0346184606F054F8386146
:102B50003B693C2B02DC3B69002B04DA1049F86826
:102B600003F0D0FC15E00120FFF70AF90346002B23
:102B700004D00C49F86803F0C5FC0AE03B699BB23D
:102B800019460120FEF78AFF0749F86803F0BAFCEE
:102B900000BF1837BD4680BDCC990008B49A000824
:102BA000049A0008609A0008A49A000880B58AB0C8
:102BB00000AFF860B9607A60B86803F0A7FD03461B
:102BC0003B623B6A012B04DC4349F86803F09AFC42
:102BD0007EE03B6A022B04DD4049F86803F092FC7A
:102BE00076E00121B86803F05BFD0346184606F065
:102BF00002F803467B610221B86803F051FD0346E9
:102C0000184605F0F8FF0346BB617B69012B02DC27
:102C10007B69002B04DA3249F86803F073FC57E053
:102C2000BB69012B02DCBB69002B04DA2C49F86874
:102C300003F068FC4CE0002387F827307B69012B08
:102C400014D10020FFF77DF80346FB830020FFF737
:102C5000D5F80346BB83FA8BBB8B9A4206D2214937
:102C6000F86803F04FFC012387F82730BB69012B7C
:102C700014D10120FFF765F80346FB830120FFF71D
:102C8000BDF80346BB83FA8BBB8B9A4206D216492A
:102C9000F86803F037FC012387F8273097F82730CE
:102CA000012B14D07B69002B14BF01230023D8B261
:102CB000BB69002B14BF01230023D9B201230122D9
:102CC000FEF720FF0949F86803F01CFC00E000BF94
:102CD0002837BD4680BD00BFCC990008B49A0008D3
:102CE000049A0008D09A0008249B0008A49A0008BF
:102CF00080B588B000AFF860B9607A60B86803F05A
:102D000005FD0346FB61FB69012B04DC2749F868DC
:102D100003F0F8FB46E0FB69022B04DD2449F86868
:102D200003F0F0FB3EE00121B86803F0B9FC034674
:102D3000184605F060FF03467B610221B86803F086
:102D4000AFFC0346184605F056FF0346BB617B699E
:102D5000012B02DC7B69002B04DA1649F86803F0CA
:102D6000D1FB1FE0BB69012B02DCBB69002B04DA3D
:102D70001049F86803F0C6FB14E07B69002B14BF10
:102D800001230023DAB2BB69002B14BF0123002307
:102D9000DBB219461046FEF782FF0749F86803F0D8
:102DA000B1FB00BF2037BD4680BD00BFCC990008F5
:102DB000B49A0008049A0008789B000880B596B081
:102DC00000AFF860B9607A60B86803F09FFC034612
:102DD0007B657B6D002B04D01149F86803F092FBF2
:102DE0001AE00020FEF7ADFF0346A7F8523001209D
:102DF000FEF7A7FF0346A7F85030B7F85220B7F800
:102E0000503007F11000074905F0B4FF07F1100337
:102E10001946F86803F076FB5837BD4680BD00BF01
:102E2000B49A0008889B000880B586B000AFF860AF
:102E3000B9607A60B86803F069FC03467B617B691E
:102E4000002B04D01249F86803F05CFB1DE0002061
:102E5000FEF796FF0346002B04D00E49F86803F0F6
:102E600051FB03E00C49F86803F04CFB0120FEF72E
:102E700087FF0346002B04D00849F86803F042FBA3
:102E800003E00749F86803F03DFB1837BD4680BDF5
:102E9000B49A0008BC9B0008D49B0008F09B000873
:102EA000089C000880B586B000AFF860B9607A6011
:102EB000B86803F02BFC03467B617B69002B04D0D0
:102EC0001249F86803F01EFB1DE00020FEF777FFB3
:102ED0000346002B04D00E49F86803F013FB03E00F
:102EE0000C49F86803F00EFB0120FEF768FF03466B
:102EF000002B04D00849F86803F004FB03E00749FD
:102F0000F86803F0FFFA1837BD4680BDB49A000890
:102F1000249C0008409C0008609C00087C9C0008E1
:102F200080B5A0B000AFF860B9607A60B86803F00F
:102F3000EDFB0346FB67FB6F002B04D02F49F868BD
:102F400003F0E0FA56E00020FEF7FBFE0346A7F888
:102F50007A300120FEF7F5FE0346A7F87830B7F87F
:102F60007A20B7F8783007F11400254905F002FF00
:102F700007F114031946F86803F0C4FA0020FEF7BD
:102F8000FFFE0346002B04D01E49F86803F0BAFA8E
:102F900003E01D49F86803F0B5FA0120FEF7F0FEE2
:102FA0000346002B04D01949F86803F0ABFA03E09C
:102FB0001749F86803F0A6FA0020FEF700FF034661
:102FC000002B04D01349F86803F09CFA03E012497F
:102FD000F86803F097FA0120FEF7F1FE0346002B94
:102FE00004D00E49F86803F08DFA03E00C49F86844
:102FF00003F088FA8037BD4680BD00BFB49A000850
:10300000889B0008BC9B0008D49B0008F09B00082C
:10301000089C0008249C0008409C0008609C000854
:103020007C9C000880B400AF024B1846BD465DF89A
:10303000047B7047D09D000880B400AF0C23184675
:10304000BD465DF8047B704780B584B004AF4FF493
:10305000007303934FF4007302930E4B01930E4BD6
:10306000009347230D4A0E490E4805F092FC4FF499
:1030700000620D490B4803F05BF803460B4A1360EE
:103080000B49084805F0FEFC0A4B064A1A6000BFCF
:10309000BD4680BD9404002094020020001401402D
:1030A000A09C00082802002094060020940E002016
:1030B000AC9C00082402002080B584B000AF78608A
:1030C0000BE00D4805F0AAFC0346FB730B4B1B6895
:1030D000FA7B1146184603F061F9074805F008FD30
:1030E0000346002BEDD1054B1B68184603F079F918
:1030F00000BF1037BD4680BD28020020940E00207E
:1031000080B500AF16220021084805F06FFE074B7E
:1031100000221A70054B00229A80044B00229A72FA
:10312000024B0022DA8100BF80BD00BF980E002054
:1031300080B582B000AF03463960FB71FB790F2B7D
:1031400002D83B68002B01D100230DE0FB79084A2F
:1031500052F83310FB79064ADB0013445B681A46C9
:10316000386805F097FE012318460837BD4680BD34
:10317000F09E000880B582B000AF03463960FB7155
:10318000FB790F2B02D83B68002B01D100230DE007
:10319000FB79084A52F83300FB79064ADB001344F6
:1031A0005B681A46396805F075FE01231846083732
:1031B000BD4680BDF09E000880B58CB000AFAB4B23
:1031C0001B681B780D2B00F2658201A252F823F0D8
:1031D00009320008A53200081333000881330008C3
:1031E00021340008E5350008A735000869350008D6
:1031F000AB3400089536000895360008953600086F
:10320000753400083F3600080023BB7207F10B033A
:1032100019460320FFF78CFF07F10A0319460A201D
:10322000FFF786FFFB7A002B02D1BB7A002B0CD074
:103230008F4B1B6800221A708D4B1B6800225A703E
:10324000022000F02FFA002325E2884B1B685B78F0
:103250001BB21B021AB2854B1B689B781BB213432F
:103260001BB2FB81814B1B68DB781BB21B021AB2BD
:103270007E4B1B681B791BB213431BB2BB81BA89FF
:10328000FB8911461846FEF726FC794B1B68002285
:103290001A70774B1B6801225A70022000F002FA64
:1032A0000123F8E100237B7207F10903194603208B
:1032B000FFF73EFF7B7A002B0CD06D4B1B68012281
:1032C0001A706B4B1B6800225A70022000F0EAF95A
:1032D0000023E0E1654B1B685B781BB21B021AB24E
:1032E000624B1B689B781BB213431BB23B823B8A29
:1032F00019460020FEF7D2FB5D4B1B6801221A70B5
:103300005B4B1B6801225A70022000F0CBF90123AD
:10331000C1E100233B7207F1080319460A20FFF7B9
:1033200007FF3B7A002B0CD0514B1B6802221A700E
:103330004F4B1B6800225A70022000F0B3F90023A3
:10334000A9E14A4B1B685B781BB21B021AB2474BC0
:103350001B689B781BB213431BB27B827B8A194686
:103360000120FEF79BFB424B1B6802221A70404B68
:103370001B6801225A70022000F094F901238AE1AF
:103380000023FB800023BB80BB1D19460120FFF7F3
:10339000CFFE3B1D19460820FFF7CAFE0020FEF7AE
:1033A0002DFD03463B830120FEF728FD0346FB82EB
:1033B000FB883A8B9A4203D2BB88FA8A9A420CD392
:1033C0002B4B1B6803221A70294B1B6800225A7072
:1033D000022000F067F900235DE1244B1B685B7855
:1033E000002B14BF012300237B75204B1B689B78A7
:1033F000002B14BF012300233B75397D787D012309
:103400000122FEF77FFB1A4B1B6803221A70184B30
:103410001B6801225A70022000F044F901233AE1AE
:10342000124B1B685B78FB76104B1B689B78BB7656
:10343000FB7E002B14BF01230023DAB2BB7E002BDE
:1034400014BF01230023DBB219461046FEF727FC08
:10345000074B1B6804221A70054B1B6801225A7027
:10346000022000F01FF9012315E100BF8C010020AC
:1034700088010020FB1C19460520FFF759FEBB1CE4
:1034800019460C20FFF754FE854B1B680C221A705E
:10349000FA78834B1B685A70BA78814B1B689A7014
:1034A000032000F0FFF80123F5E000237B850023D3
:1034B00087F82930002387F828300020FEF741FCE8
:1034C0000346FB840120FEF73CFC03467B8500207D
:1034D000FEF756FC034687F825300020FEF76FFC08
:1034E000034687F829300120FEF74AFC034687F897
:1034F00024300120FEF763FC034687F82830684B30
:103500001B6808221A70FB8C1B0A9AB2644B1B685A
:10351000D2B25A70624B1B68FA8CD2B29A707B8D11
:103520001B0A9AB25E4B1B68D2B2DA705C4B1B6806
:103530007A8DD2B21A715A4B1B6897F825205A71AE
:10354000574B1B6897F82920DA71554B1B6897F881
:1035500024209A71524B1B6897F828201A72092070
:1035600000F0A0F8012396E00020FEF709FC0346D6
:1035700087F823300120FEF703FC034687F822304A
:10358000474B1B6807221A70454B1B6897F823208E
:103590005A70434B1B6897F822209A70032000F062
:1035A00081F8012377E00020FEF709FC034687F845
:1035B00021300120FEF703FC034687F82030384B0A
:1035C0001B6806221A70364B1B6897F821205A7028
:1035D000334B1B6897F820209A70032000F062F8A4
:1035E000012358E00023FB830020FEF7AAFB0346DB
:1035F000BB830120FEF7A5FB0346FB83284B1B681A
:1036000005221A70BB8B1B0A9AB2254B1B68D2B2DB
:103610005A70234B1B68BA8BD2B29A70FB8B1B0A71
:103620009AB21F4B1B68D2B2DA701D4B1B68FA8B23
:10363000D2B21A71052000F035F801232BE00020EA
:10364000FEF7DCFB0346FB850120FEF7D7FB0346B4
:10365000BB85134B1B680D221A70FB8D1B0A9AB297
:103660000F4B1B68D2B25A700D4B1B68FA8DD2B249
:103670009A70BB8D1B0A9AB2094B1B68D2B2DA70E2
:10368000074B1B68BA8DD2B21A71052000F00AF8F8
:10369000012300E0002318463037BD4680BD00BF3F
:1036A0008801002080B58AB000AF0346FB711F4B34
:1036B000CA221A701E4B1A781C4B5A701B4B0222DE
:1036C0009A701A4AFB79D370184B07221A71174B5C
:1036D000EF2283F80021154BDB7804331A46154995
:1036E000002004F099F903469AB2104BA3F8FE208B
:1036F00007F10C0300221A605A609A60DA601A61BE
:103700005A611A7607F10B0207F10C0319460748B4
:1037100004F0CEF9FA7A07F10C031946064805F0D1
:10372000C9F900BF2837BD4680BD00BF1C1000206E
:10373000D01200201D100020B00E002080B584B0F3
:1037400004AF8023039380230293124B0193124B07
:1037500000932523114A1249124805F01AF9124B19
:10376000124A5A60104B80221A800F4B00221A8195
:103770000D4B1B88002B06D00B4B5B6804220021ED
:10378000184605F033FB012004F082F900BFBD4666
:1037900080BD00BF9C0F00201C0F002000100140C6
:1037A000B49C0008B00E002024120020301200202B
:1037B00080B584B000AF78600023FB733223FB73C5
:1037C00047E02A4805F02AF90346DAB2284B9A72F4
:1037D000274B9B7ADBB2CA2B03D1254B00221A81DF
:1037E00034E0234B9B7ADBB2EF2B14D1204B5B6888
:1037F0001F4A128992B2D1B21E4A184604F08EFABC
:103800000346BB73BB7B012B01D1FFF7D5FC184BE3
:1038100000221A811AE0164B5B68154A128992B28F
:103820001344134A927AD2B21A70114B1B899BB27D
:1038300001339AB20E4B1A810D4B1B899AB20C4B75
:103840001B889A4202D90A4B00221A81FB7B013B5A
:10385000FB73064805F04CF90346002B02D0FB7BB6
:10386000002BAED100BF1037BD4680BDB00E00208A
:10387000241200202011002080B485B000AF7860B1
:103880007B6803F00703FB600C4BDB68BB60BA6826
:103890004FF6FF031340BB60FB681A02BB6813437B
:1038A00043F0BF6343F40033BB60044ABB68D3609A
:1038B00000BF1437BD465DF8047B704700ED00E0A3
:1038C00080B400AF044BDB681B0A03F00703184603
:1038D000BD465DF8047B704700ED00E080B483B026
:1038E00000AF0346FB7197F90730002B0BDBFB7928
:1038F00003F01F02074997F907305B09012000FA1E
:1039000002F241F8232000BF0C37BD465DF8047B6E
:10391000704700BF00E100E080B483B000AF034611
:103920003960FB7197F90730002B0ADB3B68DAB28C
:103930000C4997F907301201D2B20B4483F80023E7
:103940000AE03B68DAB20849FB7903F00F03043B55
:103950001201D2B20B441A7600BF0C37BD465DF897
:10396000047B704700E100E000ED00E080B489B026
:1039700000AFF860B9607A60FB6803F00703FB6191
:10398000FB69C3F10703042B28BF0423BB61FB6958
:103990000433062B02D9FB69033B00E000237B6163
:1039A0004FF0FF32BB6902FA03F3DA43BB681A40F7
:1039B0007B699A404FF0FF317B6901FA03F3D943E9
:1039C0007B680B40134318462437BD465DF8047BE3
:1039D000704780B489B000AFF860B9607A60FB6866
:1039E0002C331946BB6803F440734FF440727A617C
:1039F0007A6992FAA2F23A613A69BA61BA69002A1E
:103A000001D1202203E0BA69B2FA82F2D2B2D340E5
:103A10009B000B44FB61FB691A68BB6803F01F0342
:103A20001F2101FA03F3DB431A407B6803F01F01F7
:103A3000BB6803F01F0301FA03F31A43FB691A6022
:103A400000BF2437BD465DF8047B704780B483B067
:103A500000AF786039607B689B6823F480623B68C4
:103A60001A437B689A6000BF0C37BD465DF8047B43
:103A7000704780B48FB000AFF860B9607A60FB68BF
:103A80000C331946BB6803F000734FF000727A6183
:103A90007A6992FAA2F23A613A69BA61BA69002A7D
:103AA00001D1202203E0BA69B2FA82F2D2B2D34045
:103AB0009B000B447B637B6B1A68BB6803F0F87355
:103AC0004FF0F8713962396A91FAA1F1F961F96937
:103AD0007962796A002901D1202103E0796AB1FA7B
:103AE00081F1C9B2CB40072101FA03F3DB431A404D
:103AF000BB6803F0F8734FF0F871F962F96A91FA54
:103B0000A1F1B962B96A3963396B002901D1202169
:103B100003E0396BB1FA81F1C9B2CB40796801FA9F
:103B200003F31A437B6B1A6000BF3C37BD465DF858
:103B3000047B704780B400AF054B1B68044A43F414
:103B40008033136000BFBD465DF8047B704700BF43
:103B50000038024080B400AF074B1B6803F4003309
:103B6000B3F5003F0CBF01230023DBB21846BD466E
:103B70005DF8047B704700BF0038024080B483B01A
:103B800000AF7860064B9B6823F0030204497B6812
:103B900013438B6000BF0C37BD465DF8047B704754
:103BA0000038024080B400AF044B9B6803F00C0364
:103BB0001846BD465DF8047B704700BF00380240E0
:103BC00080B483B000AF7860064B9B6823F0F002AE
:103BD00004497B6813438B6000BF0C37BD465DF81A
:103BE000047B70470038024080B483B000AF786037
:103BF000064B9B6823F4E05204497B6813438B60B7
:103C000000BF0C37BD465DF8047B704700380240AA
:103C100080B483B000AF7860064B9B6823F46042A9
:103C200004497B6813438B6000BF0C37BD465DF8C9
:103C3000047B70470038024080B400AF054B1B681E
:103C4000044A43F08073136000BFBD465DF8047BF7
:103C5000704700BF0038024080B400AF074B1B68BC
:103C600003F00073B3F1007F0CBF01230023DBB22C
:103C70001846BD465DF8047B704700BF003802401F
:103C800080B485B000AFF860B9607A603B600D4BDE
:103C90005A680D4B1340F968BA6811437A6892016B
:103CA0000A43084913434B60064B5B6823F44032D8
:103CB00004493B6813434B6000BF1437BD465DF8B1
:103CC000047B7047003802400080BFFF80B485B09D
:103CD00000AF7860084B1A6B07497B6813430B638E
:103CE000054B1A6B7B681340FB60FB6800BF143701
:103CF000BD465DF8047B70470038024080B485B053
:103D000000AF7860084B1A6C07497B6813430B645B
:103D1000054B1A6C7B681340FB60FB6800BF1437CF
:103D2000BD465DF8047B70470038024080B485B022
:103D300000AF7860084B5A6C07497B6813434B64AB
:103D4000054B5A6C7B681340FB60FB6800BF14375F
:103D5000BD465DF8047B70470038024080B487B0F0
:103D600000AF78603960174A3B68DBB2023352F823
:103D700023203B681B0CDB4302EA03013B681B0C5E
:103D80003B613B6993FAA3F3FB60FB687B617B6952
:103D9000002B01D1202303E07B69B3FA83F3DBB26C
:103DA0001A467B6803FA02F206483B68DBB20A4314
:103DB000023340F8232000BF1C37BD465DF8047B6A
:103DC000704700BF0038014080B483B000AF786016
:103DD000064B1B6823F0070204497B6813430B6002
:103DE00000BF0C37BD465DF8047B7047003C0240C5
:103DF00080B400AF044B1B6803F007031846BD46B0
:103E00005DF8047B704700BF003C024080B483B083
:103E100000AF7860064B1B6823F4804204497B683E
:103E200013430B6000BF0C37BD465DF8047B704741
:103E30000070004080B400AF074B5B6803F4804320
:103E4000B3F5804F0CBF01230023DBB21846BD46FB
:103E50005DF8047B704700BF0070004080B483B001
:103E600000AF78607B681B6823F080027B681A6073
:103E700000BF0C37BD465DF8047B704780B485B049
:103E800000AF786039603B68012B1CD03B68042B85
:103E900017D03B68102B12D03B68402B0DD03B68ED
:103EA000B3F5807F07D03B68B3F5806F01D1052360
:103EB0000AE0062308E0042306E0032304E00223CB
:103EC00002E0012300E00023FB737B6818331946EE
:103ED000FB7B0B4AD35C0B44BB60BB681A68FB7B63
:103EE0000849CB5C194604238B40DB431A40BB686E
:103EF0001A6000BF1437BD465DF8047B704700BFF1
:103F0000709F0008789F000880B485B000AF78608B
:103F100039603B68012B1CD03B68042B17D03B68F1
:103F2000102B12D03B68402B0DD03B68B3F5807F3F
:103F300007D03B68B3F5806F01D105230AE0062363
:103F400008E0042306E0032304E0022302E0012347
:103F500000E00023FB737B6818331946FB7B0A4A99
:103F6000D35C0B44BB60BB681A68FB7B0749CB5C26
:103F7000194608238B401A43BB681A6000BF1437E8
:103F8000BD465DF8047B7047709F0008789F00086D
:103F900080B483B000AF786039607B685B6823F0E1
:103FA00070023B681A437B685A6000BF0C37BD46FD
:103FB0005DF8047B704780B483B000AF78607B68A5
:103FC0009B6823F080027B689A6000BF0C37BD4677
:103FD0005DF8047B704780B483B000AF78607B6885
:103FE000DB6843F400527B68DA6000BF0C37BD46E3
:103FF0005DF8047B704780B483B000AF78607B6865
:104000001B6923F490427B681A617B685B6923F02B
:104010002A027B685A6100BF0C37BD465DF8047BFD
:10402000704780B48BB000AFF860B9607A60FB680D
:104030001A68BB687B617B6993FAA3F33B613B69B8
:10404000BB61BB69002B01D1202303E0BB69B3FA3C
:1040500083F3DBB25B00032101FA03F3DB431A4075
:10406000BB683B623B6A93FAA3F3FB61FB697B622B
:104070007B6A002B01D1202303E07B6AB3FA83F330
:10408000DBB25B00796801FA03F31A43FB681A603C
:1040900000BF2C37BD465DF8047B704780B48BB001
:1040A00000AFF860B9607A60FB68DA68BB687B6172
:1040B0007B6993FAA3F33B613B69BB61BB69002B4E
:1040C00001D1202303E0BB69B3FA83F3DBB25B00C9
:1040D000032101FA03F3DB431A40BB683B623B6AEE
:1040E00093FAA3F3FB61FB697B627B6A002B01D12E
:1040F000202303E07B6AB3FA83F3DBB25B007968C9
:1041000001FA03F31A43FB68DA6000BF2C37BD469F
:104110005DF8047B704780B483B000AF786039608D
:104120003B681A047B689A6100BF0C37BD465DF896
:10413000047B704780B500AF4FF48040FFF7F6FD79
:104140004FF08050FFF7DAFD0320FFF795FBFFF7F4
:10415000B7FB034600220F211846FFF707FC034672
:1041600019464FF0FF30FFF7D7FB00F011F800F0D1
:104170009DFA00F055F800F0D7F800F06BF900F068
:1041800035FA00F0D3F9FCF797FE00BFFDE7000019
:1041900080B500AF0120FFF717FE00BFFFF728FE34
:1041A0000346012BFAD14FF48040FFF72FFEFFF7B3
:1041B000C1FC00BFFFF7CEFC0346012BFAD1002360
:1041C000482204214FF48000FFF75AFDFFF734FD29
:1041D00000BFFFF741FD0346012BFAD100BFFFF7F7
:1041E00029FE0346002BFAD08020FFF7E9FC0020CF
:1041F000FFF7FAFC0020FFF70BFD0220FFF7BEFCE3
:1042000000BFFFF7CFFC0346082BFAD1034801F0AB
:104210005DFF024801F068FF00BF80BD005125022C
:1042200080B592B000AF07F13C0300221A605A60DB
:104230009A6007F1280300221A605A609A60DA60D7
:104240001A6107F1180300221A605A609A60DA6056
:104250003B4600221A605A609A60DA601A615A611D
:104260004FF48070FFF762FD0420FFF72FFD052358
:104270003B6003237B6000233B613B461946274894
:1042800000F032FFFFF71CFB034600220321184613
:10429000FFF76CFB034619461220FFF73DFB122087
:1042A000FFF71CFB0023FB6300233B6400237B64BC
:1042B00007F13C0319461A4800F046FC0023BB6294
:1042C0000023FB6200233B6300237B630023BB636B
:1042D00007F128031946124800F062FC4FF4806190
:1042E0000F48FFF7B3FB4FF48033BB610023FB6142
:1042F00007F1180319460B4800F0DEFB0A224FF4C1
:1043000000710748FFF765FB00220A210448FFF708
:10431000B0FB00BF4837BD4680BD00BF000802406B
:10432000002001400023014080B59AB000AF07F1A2
:10433000540300221A605A609A60DA601A6107F129
:10434000340320220021184604F050FD07F11C031D
:1043500000221A605A609A60DA601A615A613B1D45
:1043600000221A605A609A60DA601A615A6101206C
:10437000FFF7DCFC0023A7F854300023BB654FF6A1
:10438000FF73FB6500233B6600237B6607F1540344
:1043900019462E4801F0D6F82C48FFF75FFD4FF480
:1043A00080512A48FFF7B0FD60237B630023BB6385
:1043B0000023FB6300233B6400237B640023FB6436
:1043C00000233B6507F134031A464FF480511F4820
:1043D00001F052F94FF480511C48FFF74FFD0021C6
:1043E0001A48FFF7D5FD1948FFF7E5FD0023FB61EB
:1043F00000233B6200237B62002387F828300023E0
:104400007B854FF40053FB6200233B6307F11C03E1
:1044100019460E4801F071F90120FFF757FC4FF4DF
:1044200000637B600223BB600023FB6000233B61D1
:1044300000237B610123BB613B1D1946044800F04A
:1044400053FE00BF6837BD4680BD00BF000001407D
:104450000000024080B594B000AF07F13C03002299
:104460001A605A609A60DA601A6107F11C03202210
:104470000021184604F0BAFC3B1D00221A605A6065
:104480009A60DA601A615A610220FFF737FC002354
:10449000BB8700233B644FF6FF737B640023BB6440
:1044A00007F13C0319461F4801F04CF81D48FFF77F
:1044B000D5FC10211B48FFF727FD6023FB6100237B
:1044C0003B6200237B620023BB620023FB6207F197
:1044D0001C031A461021134801F0CEF81021114890
:1044E000FFF7CCFC00210F48FFF752FD0D48FFF706
:1044F00062FD0220FFF7EAFB20237B600223BB6002
:104500000023FB6000233B6100237B610223BB612E
:104510003B1D1946044800F0E7FD00BF5037BD467B
:1045200080BD00BF000400400004024080B58EB092
:1045300000AF07F11C0300221A605A609A60DA602B
:104540001A615A619A613B1D00221A605A609A6092
:10455000DA601A615A611020FFF7E8FB0220FFF7CA
:10456000B5FBC0237B600223BB600323FB600023F9
:104570003B6100237B610723BB613B1D1946194842
:1045800000F0B2FDFFF79CF9034600220421184613
:10459000FFF7ECF9034619462520FFF7BDF9252062
:1045A000FFF79CF94FF4E133FB6100233B620023EA
:1045B0007B620023BB620C23FB6200233B6300236E
:1045C0007B6307F11C031946074801F0E5FC064828
:1045D000FFF711FD0448FFF7FEFC00BF3837BD466A
:1045E00080BD00BF000402400010014080B58EB0C5
:1045F00000AF07F11C0300221A605A609A60DA606B
:104600001A615A619A613B1D00221A605A609A60D1
:10461000DA601A615A612020FFF788FB0420FFF757
:1046200055FBC0237B600223BB600323FB60002398
:104630003B6100237B610823BB613B1D1946194880
:1046400000F052FDFFF73CF9034600220621184610
:10465000FFF78CF9034619464720FFF75DF947201D
:10466000FFF73CF94FF4E133FB6100233B62002389
:104670007B620023BB620C23FB6200233B630023AD
:104680007B6307F11C031946074801F085FC0648C7
:10469000FFF7B1FC0448FFF79EFC00BF3837BD466A
:1046A00080BD00BF000802400014014080B588B002
:1046B00000AF07F1180300221A605A603B4600223F
:1046C0001A605A609A60DA601A615A618020FFF7B6
:1046D000FDFA0420FFF7FAFA0120FFF7F7FA0820A5
:1046E000FFF7F4FA0220FFF7F1FA4FF4C0615348E4
:1046F000FFF711FD04215248FFF70DFD102151482D
:10470000FFF709FD4FF470010220FFF727FB4FF080
:1047100070410220FFF722FB0223BB6101233B779C
:1047200000237B770123BB7707F11803184600F0BD
:1047300011FB0823BB6101233B7700237B77012317
:10474000BB7707F11803184600F004FB0022022192
:104750003D48FFF7A3FC002208213B48FFF79EFCE1
:10476000002202213848FFF75CFC0022082136486D
:10477000FFF757FC4FF4C0633B6001237B600023CD
:10478000BB600023FB6000233B613B4619462B487E
:1047900000F0AAFC4FF4E0533B6002237B6003234C
:1047A000BB600023FB6000233B6106237B613B462B
:1047B0001946254800F098FC04233B6001237B60E8
:1047C0000023BB600023FB6000233B613B4619468E
:1047D0001B4800F089FC10233B6001237B60002311
:1047E000BB600023FB6000233B613B461946154834
:1047F00000F07AFCFFF764F8034600220521184612
:10480000FFF7B4F8034619460720FFF785F807209D
:10481000FFF764F8FFF754F8034600220521184615
:10482000FFF7A4F8034619460920FFF775F8092099
:10483000FFF754F800BF2037BD4680BD000002409E
:10484000000C0240000402400008024080B483B023
:1048500000AF7860074B5A697B6813407A689A42C8
:104860000CBF01230023DBB218460C37BD465DF8B0
:10487000047B7047003C014080B483B000AF786097
:10488000044A7B68536100BF0C37BD465DF8047B6A
:10489000704700BF003C014080B400AF00BFFDE79F
:1048A00080B400AF00BFFDE780B400AF00BFFDE7FC
:1048B00080B400AF00BFFDE780B400AF00BFFDE7EC
:1048C00080B400AF00BFBD465DF8047B704780B484
:1048D00000AF00BFBD465DF8047B704780B400AFF9
:1048E00000BFBD465DF8047B704780B500AF03F0A4
:1048F000A7FD00BF80BD80B582B000AF0220FFF7EA
:10490000A5FF0346002B09D00220FFF7B5FF0123C6
:10491000FB71FB1D19460C20FEF72CFC00BF08376D
:10492000BD4680BD80B582B000AF0820FFF78EFF86
:104930000346002B09D00820FFF79EFF0123FB71DF
:10494000FB1D19460520FEF715FC00BF0837BD46C4
:1049500080BD80B500AFFDF793FA00BF80BD0000B9
:1049600080B500AF024804F0D1F800BF80BD00BFA1
:10497000B00E002080B500AF024804F0C7F800BFB9
:1049800080BD00BF2802002080B586B000AF7860EF
:10499000144A154BD31A7B617B693B61134B1B682F
:1049A000002B02D1114B124A1A60104B1A687B6817
:1049B00013443A699A4207D204F040FA03460C22A3
:1049C0001A604FF0FF3309E0084B1B68FB60074B90
:1049D0001A687B681344054A1360FB681846183749
:1049E000BD4680BD0000022000040000B01200207F
:1049F0002014002080B400AF064BD3F88830054A5D
:104A000043F47003C2F8883000BFBD465DF8047BF4
:104A1000704700BF00ED00E0DFF834D0FFF7EAFF99
:104A20000C480D490D4A002302E0D458C450043309
:104A3000C4188C42F9D30A4A0A4C002301E01360DF
:104A40000432A242FBD304F0FFF9FFF773FB704777
:104A5000000002200000002004020020DCA000086A
:104A60000402002020140020FEE780B483B000AFD1
:104A7000786039607B68DB6A23F470023B681A4314
:104A80007B68DA6200BF0C37BD465DF8047B704777
:104A900080B483B000AF78607B689B6803F001034B
:104AA000012B0CBF01230023DBB218460C37BD4697
:104AB0005DF8047B7047000090B585B000AF78606A
:104AC00039600023FB731C48FFF7E2FF04461B48D4
:104AD000FFF7DEFF03461C431948FFF7D9FF0346E3
:104AE0002343002B20D13B685B68002B12D07B68EE
:104AF0005A68144B13403A6811683A685268114377
:104B00003A68926811433A68D2680A431A437B684C
:104B10005A600BE07B685A680A4B13403A68126887
:104B20001A437B685A6001E00123FB73FB7B184644
:104B30001437BD4690BD00BF002001400021014058
:104B400000220140E010FCFF80B584B000AF786027
:104B500039600023FB737868FFF79AFF0346002B48
:104B600017D17B685B6823F0407323F480733A6845
:104B700011683A6892680A431A437B685A607B68F6
:104B80009B6823F400623B685B681A437B689A6009
:104B900001E00123FB73FB7B18461037BD4680BD47
:104BA00080B584B000AF786039600023FB7378680B
:104BB000FFF76EFF0346002B2BD13B685B68002B91
:104BC00009D07B685B6823F468423B689B681A43A2
:104BD0007B685A6005E07B685B6823F468427B6809
:104BE0005A607B689A680E4B13403A68126802F06C
:104BF00070613A68D26811433A6812690A431A43ED
:104C00007B689A603B685B6819467868FFF72DFF00
:104C100001E00123FB73FB7B18461037BD4680BDC6
:104C2000FDFCFFC080B483B000AF7860054B1A680C
:104C300004497B6813430B6000BF0C37BD465DF829
:104C4000047B7047003C014080B483B000AF7860C3
:104C5000064B1A687B68DB43044913400B6000BFB6
:104C60000C37BD465DF8047B704700BF003C014037
:104C700080B483B000AF7860054B5A6804497B6804
:104C800013434B6000BF0C37BD465DF8047B704793
:104C9000003C014080B483B000AF7860064B5A6896
:104CA0007B68DB43044913404B6000BF0C37BD46B3
:104CB0005DF8047B704700BF003C014080B483B0C6
:104CC00000AF7860054B9A6804497B6813438B609A
:104CD00000BF0C37BD465DF8047B7047003C0140C7
:104CE00080B483B000AF7860064B9A687B68DB4382
:104CF000044913408B6000BF0C37BD465DF8047B50
:104D0000704700BF003C014080B483B000AF7860C2
:104D1000054BDA6804497B681343CB6000BF0C374E
:104D2000BD465DF8047B7047003C014080B483B011
:104D300000AF7860064BDA687B68DB4304491340B8
:104D4000CB6000BF0C37BD465DF8047B704700BFE9
:104D5000003C014080B584B000AF78600023FB7355
:104D60007B681B79002B65D07B681B68002B6BD0A0
:104D70007B685B79022B1CD0022B25DC002B02D038
:104D8000012B0BD020E07B681B681846FFF782FFE1
:104D90007B681B681846FFF745FF18E07B681B68B7
:104DA0001846FFF751FF7B681B681846FFF760FF46
:104DB0000DE07B681B681846FFF734FF7B681B68B3
:104DC0001846FFF755FF02E00123FB7300BF7B6825
:104DD0009B79002B38D07B689B79032B1CD0032B4D
:104DE00025DC012B02D0022B0BD020E07B681B6856
:104DF0001846FFF79BFF7B681B681846FFF75EFFAE
:104E000022E07B681B681846FFF76AFF7B681B6817
:104E10001846FFF779FF17E07B681B681846FFF715
:104E20004DFF7B681B681846FFF76EFF0CE00123FF
:104E3000FB7309E07B681B681846FFF705FF7B687A
:104E40001B681846FFF726FFFB7B18461037BD4648
:104E500080BD80B48BB000AFF860B9607A60FB6849
:104E60001A68BB687B617B6993FAA3F33B613B697A
:104E7000BB61BB69002B01D1202303E0BB69B3FAFE
:104E800083F3DBB25B00032101FA03F3DB431A4037
:104E9000BB683B623B6A93FAA3F3FB61FB697B62ED
:104EA0007B6A002B01D1202303E07B6AB3FA83F3F2
:104EB000DBB25B00796801FA03F31A43FB681A60FE
:104EC00000BF2C37BD465DF8047B704780B485B0C9
:104ED00000AFF860B9607A60FB685A68BB68DB4372
:104EE0001A40BB68796801FB03F31A43FB685A60F8
:104EF00000BF1437BD465DF8047B704780B48BB0AB
:104F000000AFF860B9607A60FB689A68BB687B6143
:104F10007B6993FAA3F33B613B69BB61BB69002BDF
:104F200001D1202303E0BB69B3FA83F3DBB25B005A
:104F3000032101FA03F3DB431A40BB683B623B6A7F
:104F400093FAA3F3FB61FB697B627B6A002B01D1BF
:104F5000202303E07B6AB3FA83F3DBB25B0079685A
:104F600001FA03F31A43FB689A6000BF2C37BD4671
:104F70005DF8047B704780B48BB000AFF860B96017
:104F80007A60FB68DA68BB687B617B6993FAA3F39C
:104F90003B613B69BB61BB69002B01D1202303E06E
:104FA000BB69B3FA83F3DBB25B00032101FA03F3BD
:104FB000DB431A40BB683B623B6A93FAA3F3FB6195
:104FC000FB697B627B6A002B01D1202303E07B6AB3
:104FD000B3FA83F3DBB25B00796801FA03F31A4397
:104FE000FB68DA6000BF2C37BD465DF8047B704774
:104FF00080B48BB000AFF860B9607A60FB681A6A61
:10500000BB687B617B6993FAA3F33B613B69BB613E
:10501000BB69002B01D1202303E0BB69B3FA83F302
:10502000DBB29B000F2101FA03F3DB431A40BB689C
:105030003B623B6A93FAA3F3FB61FB697B627B6A89
:10504000002B01D1202303E07B6AB3FA83F3DBB2A8
:105050009B00796801FA03F31A43FB681A6200BFE8
:105060002C37BD465DF8047B704780B48BB000AF31
:10507000F860B9607A60FB685A6ABB681B0A7B619A
:105080007B6993FAA3F33B613B69BB61BB69002B6E
:1050900001D1202303E0BB69B3FA83F3DBB29B00A9
:1050A0000F2101FA03F3DB431A40BB681B0A3B6282
:1050B0003B6A93FAA3F3FB61FB697B627B6A002B7B
:1050C00001D1202303E07B6AB3FA83F3DBB29B00B8
:1050D000796801FA03F31A43FB685A6200BF2C3760
:1050E000BD465DF8047B704780B58AB000AF78603C
:1050F000396000237B6200233B623B681B68BB6115
:10510000BB6993FAA3F37B617B69FB61FB69002BAD
:1051100001D1202303E0FB69B3FA83F3DBB27B62A6
:1051200057E03B681A6801217B6A01FA03F31340D8
:105130003B623B6A002B49D03B685B68012B03D084
:105140003B685B68022B0DD13B689B681A46396A45
:105150007868FFF7D3FE3B68DB681A46396A7868DF
:10516000FFF7B4FE3B681B691A46396A7868FFF797
:1051700002FF3B685B68022B21D13B6AFB60FB6846
:1051800093FAA3F3BB60BB683B613B69002B01D181
:10519000202303E03B69B3FA83F3DBB2072B07D884
:1051A0003B685B691A46396A7868FFF721FF06E0B9
:1051B0003B685B691A46396A7868FFF756FF3B68B7
:1051C0005B681A46396A7868FFF743FE7B6A0133E9
:1051D0007B623B681A687B6A22FA03F3002BA0D13A
:1051E000002318462837BD4680BD000080B400AFBC
:1051F000044B9B6803F00C031846BD465DF8047B26
:10520000704700BF0038024080B400AF044B9B6879
:1052100003F0F0031846BD465DF8047B704700BFFD
:105220000038024080B400AF044B9B6803F4E053A5
:105230001846BD465DF8047B704700BF0038024049
:1052400080B400AF044B9B6803F460431846BD462E
:105250005DF8047B704700BF0038024080B400AFA7
:10526000044B5B6803F480031846BD465DF8047B7D
:10527000704700BF0038024080B400AF044B5B6849
:105280009B09C3F308031846BD465DF8047B7047CD
:105290000038024080B400AF044B5B6803F4403335
:1052A0001846BD465DF8047B704700BF00380240D9
:1052B00080B400AF044B5B6803F03F031846BD4663
:1052C0005DF8047B704700BF0038024080B582B0B3
:1052D00000AF786000F020F802467B681A607B68B7
:1052E0001B68184600F040F802467B685A607B68ED
:1052F0005B68184600F04EF802467B689A607B684F
:105300005B68184600F05AF802467B68DA6000BF16
:105310000837BD4680BD000080B582B000AF0023D5
:105320007B60FFF763FF0346082B0CD0082B0FD8D8
:10533000002B02D0042B03D00AE0094B7B600AE06B
:10534000084B7B6007E0082000F04CF8786002E032
:10535000034B7B6000BF7B6818460837BD4680BDA5
:105360000024F40000127A0080B582B000AF7860AB
:10537000FFF74AFF03461B0903F00F03044AD35CFF
:105380001A467B68D34018460837BD4680BD00BF2B
:10539000809F000880B582B000AF7860FFF742FFC1
:1053A00003469B0A044AD35C1A467B68D3401846DE
:1053B0000837BD4680BD00BF909F000880B582B011
:1053C00000AF7860FFF73CFF03465B0B044AD35CF9
:1053D0001A467B68D34018460837BD4680BD00BFDB
:1053E000909F000890B587B000AF786000237B6184
:1053F0000023FB6000233B61FFF730FFF860FB6890
:10540000002B04D0FB68B3F5800F03D005E0124BEE
:105410007B6105E0114B7B6102E00F4B7B6100BFBC
:105420007B68082B13D1FFF743FF02467B69B3FB70
:10543000F2F4FFF721FF034603FB04F4FFF72AFF12
:1054400003461B0C01335B00B4FBF3F33B613B6988
:1054500018461C37BD4690BD0024F40000127A00A7
:1054600080B483B000AF786039607B683A689A6234
:1054700000BF0C37BD465DF8047B704780B483B035
:1054800000AF786039607B683A68DA6200BF0C3739
:10549000BD465DF8047B704780B483B000AF786090
:1054A00039607B683A681A6300BF0C37BD465DF807
:1054B000047B704780B483B000AF786039607B684C
:1054C0003A685A6300BF0C37BD465DF8047B7047ED
:1054D00080B483B000AF786039607B683A689A63C3
:1054E00000BF0C37BD465DF8047B704780B483B0C5
:1054F00000AF786039607B683A68DA6300BF0C37C8
:10550000BD465DF8047B704780B483B000AF78601F
:1055100039607B683A681A6400BF0C37BD465DF895
:10552000047B704780B483B000AF78607B685B69B0
:1055300043F001027B685A6100BF0C37BD465DF83D
:10554000047B704780B584B000AF786039607B68B9
:105550001B68FB607B683D4A934213D07B68B3F1C4
:10556000804F0FD07B683A4A93420BD07B68394A10
:10557000934207D07B68384A934203D07B68374A0E
:10558000934206D1FB6823F070023B685B681343CB
:10559000FB607B682D4A93422BD07B68B3F1804F30
:1055A00027D07B682A4A934223D07B68294A9342BA
:1055B0001FD07B68284A93421BD07B68274A9342BE
:1055C00017D07B68264A934213D07B68254A9342C2
:1055D0000FD07B68244A93420BD07B68234A9342C6
:1055E00007D07B68224A934203D07B68214A9342CA
:1055F00006D1FB6823F440723B68DB681343FB6011
:105600007B68FA681A603B689B6819467868FFF700
:1056100035FF3B681B8819467868FFF721FF7B68D8
:105620000A4A934203D07B680C4A934205D13B68F7
:105630001B6919467868FFF72FFF7868FFF772FF3C
:10564000002318461037BD4680BD00BF0000014052
:105650000004004000080040000C0040000401402D
:105660000040014000440140004801400018004053
:10567000001C00400020004080B586B000AFF860FC
:10568000B9607A600123FB75BB68B3F5805F27D0F2
:10569000BB68B3F5805F2AD8BB68B3F5807F18D0AC
:1056A000BB68B3F5807F22D8BB68012B03D0BB68F1
:1056B000102B07D01BE07968F86800F061F803460A
:1056C000FB7515E07968F86800F0C6F80346FB75CD
:1056D0000EE07968F86800F02FF90346FB7507E0E3
:1056E0007968F86800F098F90346FB7500E000BFA0
:1056F000FB7D18461837BD4680BD80B485B000AF2D
:10570000786039600023FB60FB6823F0FF033A6890
:10571000127B1343FB60FB6823F440723B689B6879
:105720001343FB60FB6823F480623B685B681343B0
:10573000FB60FB6823F400623B681B681343FB605B
:10574000FB6823F480533A68D2891343FB60FB68FB
:1057500023F400523B681B691343FB60FB6823F48E
:1057600080423B685B691343FB607B68FA685A645C
:10577000002318461437BD465DF8047B70470000CF
:1057800080B586B000AF786039607B681B6A23F013
:1057900001027B681A627B681B6A7B617B685B68BD
:1057A0003B617B689B69FB60FB6823F00303FB6044
:1057B000FB6823F070023B681B681343FB607B6946
:1057C00023F002023B681B6913437B617B6923F072
:1057D00001023B685B6813437B617B681C4A934210
:1057E00003D07B681B4A93421ED17B6923F00802D9
:1057F0003B685B699B0013437B617B6923F0040278
:105800003B689B689B0013437B613B6923F4807278
:105810003B689B6913433B613B6923F400723B681F
:10582000DB695B0013433B617B683A695A607B68C4
:10583000FA689A613B68DB6819467868FFF73AFEB8
:105840007B687A691A62002318461837BD4680BD06
:10585000000001400004014080B586B000AF7860D0
:1058600039607B681B6A23F010027B681A627B68D0
:105870001B6A7B617B685B683B617B689B69FB6043
:10588000FB6823F44073FB60FB6823F4E0423B6851
:105890001B681B021343FB607B6923F020023B68FB
:1058A0001B691B0113437B617B6923F010023B687A
:1058B0005B681B0113437B617B681D4A934203D0E5
:1058C0007B681C4A93421FD17B6923F080023B68AE
:1058D0005B699B0113437B617B6923F040023B685A
:1058E0009B689B0113437B613B6923F480623B68A7
:1058F0009B699B0013433B613B6923F400623B6857
:10590000DB69DB0013433B617B683A695A607B6863
:10591000FA689A613B68DB6819467868FFF7D8FD3A
:105920007B687A691A62002318461837BD4680BD25
:10593000000001400004014080B586B000AF7860EF
:1059400039607B681B6A23F480727B681A627B680B
:105950001B6A7B617B685B683B617B68DB69FB6022
:10596000FB6823F00303FB60FB6823F070023B68D5
:105970001B681343FB607B6923F400723B681B695F
:105980001B0213437B617B6923F480723B685B6875
:105990001B0213437B617B681D4A934203D07B68E3
:1059A0001C4A93421FD17B6923F400623B685B6908
:1059B0009B0213437B617B6923F480623B689B6895
:1059C0009B0213437B613B6923F480523B689B69D4
:1059D0001B0113433B613B6923F400523B68DB69C5
:1059E0005B0113433B617B683A695A607B68FA68E4
:1059F000DA613B68DB6819467868FFF777FD7B68FA
:105A00007A691A62002318461837BD4680BD00BF68
:105A1000000001400004014080B586B000AF78600E
:105A200039607B681B6A23F480527B681A627B684A
:105A30001B6A3B617B685B687B617B68DB69FB6041
:105A4000FB6823F44073FB60FB6823F4E0423B688F
:105A50001B681B021343FB603B6923F400523B6845
:105A60001B691B0313433B613B6923F480523B6872
:105A70005B681B0313433B617B68114A934203D06D
:105A80007B68104A934207D17B6923F480423B68CC
:105A90009B699B0113437B617B687A695A607B68D1
:105AA000FA68DA613B68DB6819467868FFF72CFD15
:105AB0007B683A691A62002318461837BD4680BDD4
:105AC000000001400004014080B483B000AF786062
:105AD0007B68DB6803F40053B3F5005F0CBF012360
