:020000040800F2
:100000000000022029630008AD610008B561000806
:10001000BD610008C5610008CD6100080000000056
:10002000000000000000000000000000D561000892
:10003000E361000800000000F1610008FF610008B2
:100040007963000879630008796300087963000820
:100050007963000879630008796300080B6200087F
:100060002962000847620008796300087963000884
:1000700079630008796300087963000879630008F0
:1000800079630008796300086562000879630008F5
:1000900079630008796300087963000879630008D0
:1000A00079630008796300087963000879630008C0
:1000B00079630008796300087963000879630008B0
:1000C00079630008796300087963000879630008A0
:1000D0007963000871620008796300087963000899
:1000E0007963000879630008796300087963000880
:1000F0007963000879630008796300087963000870
:10010000796300087963000879630008796300085F
:10011000796300087963000879630008796300084F
:10012000796300087963000879630008796300083F
:1001300079630008000000000000000079630008F7
:10014000796300087963000879630008796300081F
:100150007963000879630008796300088562000804
:1001600079630008796300087963000879630008FF
:1001700079630008796300080000000000000000B7
:080180007963000879630008AF
:1001900010B5054C237833B9044B13B10448AFF3C1
:1001A00000800123237010BD3402002000000000F5
:1001B0003CDB000808B5034B1BB103490348AFF310
:1001C000008008BD00000000380200203CDB000871
:1001D00010F8012B11F8013B012A28BF9A42F7D0F1
:1001E000D01A7047034613F8012B002AFBD1181AC6
:1001F000013870470000000000000000000000000F
:1002000001F0FF01102A2BDB10F0070F08D010F8C7
:10021000013B013A8B422DD010F0070F42B3F6D1CB
:10022000F0B441EA012141EA014122F007047FF0E4
:1002300000070023F0E80256083C85EA010586EA3B
:10024000010685FA47F5A3FA87F586FA47F6A5FA77
:1002500087F68EB9EED1F0BC01F0FF0102F0070283
:1002600032B110F8013B013A83EA010313B1F8D12E
:100270000020704701387047002D06BF354603380F
:10028000073815F0010F07D1013015F4807F02BF48
:10029000013015F4C03F0130F0BC0138704700BF99
:1002A00081F0004102E000BF83F0004330B54FEA27
:1002B00041044FEA430594EA050F08BF90EA020F94
:1002C0001FBF54EA000C55EA020C7FEA645C7FEA27
:1002D000655C00F0E2804FEA5454D4EB5555B8BF4A
:1002E0006D420CDD2C4480EA020281EA030382EABB
:1002F000000083EA010180EA020281EA0303362D4D
:1003000088BF30BD11F0004F4FEA01314FF4801C1F
:100310004CEA113102D0404261EB410113F0004F31
:100320004FEA03334CEA133302D0524263EB4303E8
:1003300094EA050F00F0A780A4F10104D5F1200E86
:100340000DDB02FA0EFC22FA05F2801841F10001E1
:1003500003FA0EF2801843FA05F359410EE0A5F1B5
:1003600020050EF1200E012A03FA0EFC28BF4CF0E6
:10037000020C43FA05F3C01851EBE37101F000459C
:1003800007D54FF0000EDCF1000C7EEB00006EEBA9
:100390000101B1F5801F1BD3B1F5001F0CD3490833
:1003A0005FEA30004FEA3C0C04F101044FEA44528A
:1003B00012F5800F80F09A80BCF1004F08BF5FEA11
:1003C000500C50F1000041EB045141EA050130BDF1
:1003D0005FEA4C0C404141EB0101013C28BFB1F503
:1003E000801FE9D291F0000F04BF01460020B1FA4E
:1003F00081F308BF2033A3F10B03B3F120020CDA21
:100400000C3208DD02F1140CC2F10C0201FA0CF0FE
:1004100021FA02F10CE002F11402D8BFC2F1200C63
:1004200001FA02F120FA0CFCDCBF41EA0C01904019
:10043000E41AA2BF01EB0451294330BD6FEA040462
:100440001F3C1CDA0C340EDC04F11404C4F120024D
:1004500020FA04F001FA02F340EA030021FA04F35F
:1004600045EA030130BDC4F10C04C4F1200220FAB6
:1004700002F001FA04F340EA0300294630BD21FAF4
:1004800004F0294630BD94F0000F83F4801306BFBA
:1004900081F480110134013D4EE77FEA645C18BFAE
:1004A0007FEA655C29D094EA050F08BF90EA020F45
:1004B00005D054EA000C04BF1946104630BD91EA3D
:1004C000030F1EBF0021002030BD5FEA545C05D140
:1004D0004000494128BF41F0004130BD14F580047F
:1004E0003CBF01F5801130BD01F0004545F0FE41F3
:1004F00041F470014FF0000030BD7FEA645C1ABF28
:10050000194610467FEA655C1CBF0B46024650EA5E
:10051000013406BF52EA033591EA030F41F400218A
:1005200030BD00BF90F0000F04BF0021704730B510
:100530004FF4806404F132044FF000054FF00001E5
:1005400050E700BF90F0000F04BF0021704730B5A6
:100550004FF4806404F1320410F0004548BF40427B
:100560004FF000013EE700BF42004FEAE2014FEAD0
:1005700031014FEA02701FBF12F07F4393F07F4FAB
:1005800081F06051704732F07F4208BF704793F0AE
:100590007F4F04BF41F40021704730B54FF46074C1
:1005A00001F0004521F000411CE700BF50EA0102C4
:1005B00008BF704730B54FF000050AE050EA01026D
:1005C00008BF704730B511F0004502D5404261EBDD
:1005D00041014FF4806404F132045FEA915C3FF41E
:1005E000D8AE4FF003025FEADC0C18BF03325FEABB
:1005F000DC0C18BF033202EBDC02C2F1200300FA6C
:1006000003FC20FA02F001FA03FE40EA0E0021FA90
:1006100002F11444BDE600BF70B54FF0FF0C4CF47E
:10062000E06C1CEA11541DBF1CEA135594EA0C0F30
:1006300095EA0C0F00F0DEF82C4481EA030621EA6B
:100640004C5123EA4C5350EA013518BF52EA0335A6
:1006500041F4801143F4801338D0A0FB02CE4FF058
:100660000005E1FB02E506F00042E0FB03E54FF088
:100670000006E1FB03569CF0000F18BF4EF0010E80
:10068000A4F1FF04B6F5007F64F5407404D25FEA7C
:100690004E0E6D4146EB060642EAC62141EA55512F
:1006A0004FEAC52040EA5E504FEACE2EB4F1FD0C71
:1006B00088BFBCF5E06F1ED8BEF1004F08BF5FEAEF
:1006C000500E50F1000041EB045170BD06F00046A1
:1006D00046EA010140EA020081EA0301B4EB5C044E
:1006E000C2BFD4EB0C0541EA045170BD41F4801146
:1006F0004FF0000E013C00F3AB8014F1360FDEBF6B
:10070000002001F0004170BDC4F10004203C35DA46
:100710000C341BDC04F11404C4F1200500FA05F3C9
:1007200020FA04F001FA05F240EA020001F000426A
:1007300021F0004110EBD37021FA04F642EB0601E0
:100740005EEA430E08BF20EAD37070BDC4F10C040A
:10075000C4F1200500FA04F320FA05F001FA04F2CE
:1007600040EA020001F0004110EBD37041F10001BA
:100770005EEA430E08BF20EAD37070BDC4F12005C5
:1007800000FA05F24EEA020E20FA04F301FA05F22D
:1007900043EA020321FA04F001F0004121FA04F2D5
:1007A00020EA020000EBD3705EEA430E08BF20EAA5
:1007B000D37070BD94F0000F0FD101F000464000DF
:1007C00041EB010111F4801F08BF013CF7D041EA61
:1007D000060195F0000F18BF704703F00046520065
:1007E00043EB030313F4801F08BF013DF7D043EA36
:1007F0000603704794EA0C0F0CEA135518BF95EAEC
:100800000C0F0CD050EA410618BF52EA4306D1D172
:1008100081EA030101F000414FF0000070BD50EA91
:10082000410606BF1046194652EA430619D094EA1B
:100830000C0F02D150EA013613D195EA0C0F05D105
:1008400052EA03361CBF104619460AD181EA030159
:1008500001F0004141F0FE4141F470014FF0000011
:1008600070BD41F0FE4141F4780170BD70B54FF0AC
:10087000FF0C4CF4E06C1CEA11541DBF1CEA13552C
:1008800094EA0C0F95EA0C0F00F0A7F8A4EB05040E
:1008900081EA030E52EA03354FEA013100F0888005
:1008A0004FEA03334FF0805545EA131343EA1263CE
:1008B0004FEA022245EA111545EA10654FEA002683
:1008C0000EF000419D4208BF964244F1FD0404F53C
:1008D000407402D25B084FEA3202B61A65EB030598
:1008E0005B084FEA32024FF480104FF4002CB6EB55
:1008F000020E75EB030E22BFB61A754640EA0C00D5
:100900005B084FEA3202B6EB020E75EB030E22BF14
:10091000B61A754640EA5C005B084FEA3202B6EB55
:10092000020E75EB030E22BFB61A754640EA9C0014
:100930005B084FEA3202B6EB020E75EB030E22BFE4
:10094000B61A754640EADC0055EA060E18D04FEAA2
:10095000051545EA16754FEA06164FEAC30343EA42
:1009600052734FEAC2025FEA1C1CC0D111F4801F0F
:100970000BD141EA00014FF000004FF0004CB6E708
:1009800011F4801F04BF01430020B4F1FD0C88BFA7
:10099000BCF5E06F3FF6AFAEB5EB030C04BFB6EBB2
:1009A000020C5FEA500C50F1000041EB045170BDA5
:1009B0000EF0004E4EEA113114EB5C04C2BFD4EBD2
:1009C0000C0541EA045170BD41F480114FF0000E56
:1009D000013C90E645EA060E8DE60CEA135594EAD2
:1009E0000C0F08BF95EA0C0F3FF43BAF94EA0C0FD5
:1009F0000AD150EA01347FF434AF95EA0C0F7FF44A
:100A000025AF104619462CE795EA0C0F06D152EA9D
:100A100003353FF4FDAE1046194622E750EA410681
:100A200018BF52EA43067FF4C5AE50EA41047FF492
:100A30000DAF52EA43057FF4EBAE12E74FF0FF3CF7
:100A400006E000BF4FF0010C02E000BF4FF0010CC8
:100A50004DF804CD4FEA410C7FEA6C5C4FEA430C41
:100A600018BF7FEA6C5C1BD001B050EA410C0CBF90
:100A700052EA430C91EA030F02BF90EA020F0020F2
:100A8000704710F1000F91EA030F58BF994208BF59
:100A900090422CBFD8176FEAE37040F00100704716
:100AA0004FEA410C7FEA6C5C02D150EA013C07D16D
:100AB0004FEA430C7FEA6C5CD6D152EA033CD3D0B8
:100AC0005DF8040B704700BF8446104662468C46B2
:100AD0001946634600E000BF01B5FFF7B7FF0028E5
:100AE00048BF10F1000F01BD4DF808EDFFF7F4FF0E
:100AF0000CBF012000205DF808FB00BF4DF808ED99
:100B0000FFF7EAFF34BF012000205DF808FB00BFBB
:100B10004DF808EDFFF7E0FF94BF012000205DF8DD
:100B200008FB00BF4DF808EDFFF7CEFF94BF012092
:100B300000205DF808FB00BF4DF808EDFFF7C4FF8B
:100B400034BF012000205DF808FB00BF4A0011D22D
:100B500012F5001211D20DD56FF47873B3EB625217
:100B60000ED44FEAC12343F0004343EA505323FA23
:100B700002F070474FF00000704750EA013002D198
:100B80004FF0FF3070474FF0000070474FEA4102CE
:100B9000B2F1E04324BFB3F5001CDCF1FE5C0DD9DB
:100BA00001F0004C4FEAC0024CEA5070B2F1004F25
:100BB00040EB830008BF20F00100704711F0804F28
:100BC00021D113F13872BCBF01F00040704741F4ED
:100BD00080114FEA5252C2F11802C2F1200C10FAF1
:100BE0000CF320FA02F018BF40F001004FEAC123D5
:100BF0004FEAD32303FA0CFC40EA0C0023FA02F379
:100C00004FEA4303CCE77FEA625307D150EA01334E
:100C10001EBF4FF0FE4040F44000704701F000401E
:100C200040F0FE4040F40000704700BF53B94AB99D
:100C3000002908BF00281CBF4FF0FF314FF0FF30E4
:100C400000F088B9ADF1080C6DE904CE00F006F8AB
:100C5000DDF804E0DDE9022304B070472DE9F04738
:100C6000089D8E4604468846002B4AD18A42174684
:100C700062D9B2FA82F64EB1C6F1200301FA06F843
:100C800020FA03F3B74043EA0808B4404FEA174E8E
:100C90001FFA87FCB8FBFEF1230C0EFB118843EA18
:100CA000084301FB0CF29A4209D9FB1801F1FF300D
:100CB00080F0EA809A4240F2E78002393B449A1A77
:100CC000A3B2B2FBFEF00EFB102243EA024300FB8C
:100CD0000CFC9C4509D9FB1800F1FF3280F0D6804E
:100CE0009C4540F2D3803B44023840EA0140A3EBEC
:100CF0000C0300211DB1F3400022C5E90032BDE81C
:100D0000F0878B4205D90DB1C5E9000100210846E5
:100D1000F5E7B3FA83F1002946D1734502D3824245
:100D200000F20581841A6EEB030201209046002D2B
:100D3000E5D0C5E90048E2E7002A00F09080B2FA69
:100D400082F6002E40F0A4808A1A030C4FEA174E58
:100D500080B2BCB20121B2FBFEFC0EFB1C2243EAB6
:100D6000024304FB0CF29A4207D9FB180CF1FF383E
:100D700002D29A4200F2E080C4469B1AB3FBFEF214
:100D80000EFB123340EA034302FB04F49C4207D9F2
:100D9000FB1802F1FF3002D29C4200F2CA800246E8
:100DA0001B1B42EA0C40A5E7C1F120068B4022FA4A
:100DB00006F71F430EFA01F420FA06F32EFA06FE98
:100DC0004FEA1749234300FA01F81FFA87FCBEFBDC
:100DD000F9F01C0C09FB10EE44EA0E4400FB0CFE7B
:100DE000A64502FA01F209D93C1900F1FF3A80F058
:100DF0009C80A64540F2998002383C44A4EB0E0446
:100E00001FFA83FEB4FBF9F309FB13444EEA0444D2
:100E100003FB0CFCA44508D93C1903F1FF3E80F00C
:100E20008280A4457FD9023B3C4443EA0040A4EBC6
:100E30000C04A0FB02EC64457346E14662D35FD02C
:100E40005DB1B8EB030264EB090404FA06F622FA7A
:100E500001F31E43CC40C5E9006400214FE7B1FB1C
:100E6000F2FC010C41EA0E4180B240EA01423B46ED
:100E700038463C46B846BE462026B1FBF7F1A2EB09
:100E8000080241EA0C4166E7014618E710462CE7E4
:100E9000C6F120022EFA02F3B740B14020FA02F266
:100EA0004FEA174E0A43B3FBFEF8BCB20EFB1833F1
:100EB000110C41EA034108FB04F9B04089454FEAAF
:100EC000104380B23ED9791808F1FF3C01D2894520
:100ED0001FD8A1EB0901B1FBFEF909FB04F80EFBD9
:100EE000191192B242EA0142424529D2BA1809F1D7
:100EF000FF31C4D24245C2D2A9F102013A44BEE751
:100F0000F0459DD2BEEB02036CEB070C0138E146C5
:100F100096E7A7EB09094944A8F1020CB1FBFEF9D9
:100F200009FB04F8DBE773467FE7504666E70846AF
:100F3000FDE63B44023A33E7ACF1020C3B441CE7CC
:100F400049469CE7A1EB0901C446B1FBFEF909FB48
:100F500004F8C4E7704700BF80B500AF02F08AF91B
:100F600003F048FB00F00AFC03F0E4FB03F008FC8C
:100F700003F074FC42F210700BF0CCF80BF0ECF8BC
:100F8000FCE7000080B500AF094B1B78012B0DD1A9
:100F9000084B1B680F221A70012000F00FF8044B59
:100FA00000221A700021044809F042FA00BF80BDF7
:100FB00050020020B80100204C4E002080B58CB0BB
:100FC00000AF0346FB711E4BCA221A701D4B1A78E4
:100FD0001B4B5A701A4B02229A70194AFB79D37034
:100FE000174B07221A71164BEF2283F80021144B7E
:100FF000DB780433DBB21A461349002009F086FC83
:1010000003461A460E4BA3F8FE2007F10C032322D9
:10101000002118460BF046FD07F10B0207F10C0307
:101020001946074809F0BEFCFA7A07F10C03194685
:1010300006480BF09BFB00BF3037BD4680BD00BFAC
:101040004C470020DC4E00204D470020E01E0020D1
:1010500080B483B000AF786039607B685B6823F44C
:1010600080723B681A437B685A6000BF0C37BD46EC
:101070005DF8047B704780B483B000AF786039605E
:101080007B689B6823F070623B6803F070631A43CF
:101090007B689A6000BF0C37BD465DF8047B7047E3
:1010A00080B483B000AF786039607B68DB6A23F47A
:1010B00070023B681A437B68DA6200BF0C37BD469A
:1010C0005DF8047B704780B489B000AFF860B96008
:1010D0007A60FB682C331946BB6803F440734FF405
:1010E00040727A617A6992FAA2F23A613A69BA6117
:1010F000BA69002A01D1202203E0BA69B2FA82F269
:10110000D2B2D3409B000B44FB61FB691A68BB68F9
:1011100003F01F031F2101FA03F3DB431A407B682E
:1011200003F01F01BB6803F01F0301FA03F31A4326
:10113000FB691A6000BF2437BD465DF8047B704729
:1011400080B483B000AF786039607B689B6823F01F
:1011500002023B681A437B689A6000BF0C37BD46A9
:101160005DF8047B704780B483B000AF786039606D
:101170007B689B6823F480623B681A437B689A60B3
:1011800000BF0C37BD465DF8047B704780B48FB05C
:1011900000AFF860B9607A60FB680C331946BB6831
:1011A00003F000734FF000727A617A6992FAA2F24A
:1011B0003A613A69BA61BA69002A01D1202203E092
:1011C000BA69B2FA82F2D2B2D3409B000B447B637D
:1011D0007B6B1A68BB6803F0F8734FF0F8713962E3
:1011E000396A91FAA1F1F961F9697962796A00299C
:1011F00001D1202103E0796AB1FA81F1C9B2CB4073
:10120000072101FA03F3DB431A40BB6803F0F873CC
:101210004FF0F871F962F96A91FAA1F1B962B96A0D
:101220003963396B002901D1202103E0396BB1FA10
:1012300081F1C9B2CB40796801FA03F31A437B6BA1
:101240001A6000BF3C37BD465DF8047B704780B430
:1012500083B000AF78607B689B6843F001027B68D5
:101260009A6000BF0C37BD465DF8047B704780B4C0
:1012700083B000AF78607B689B6823F001027B68D5
:101280009A6000BF0C37BD465DF8047B704780B4A0
:1012900083B000AF78607B689B6843F080427B68D6
:1012A0009A6000BF0C37BD465DF8047B704780B480
:1012B00083B000AF78607B68DB6C9BB218460C375C
:1012C000BD465DF8047B704780B483B000AF7860A2
:1012D0007B681B6803F00203022B0CBF0123002371
:1012E000DBB218460C37BD465DF8047B704780B40E
:1012F00083B000AF78607B681B6803F02003202B6D
:101300000CBF01230023DBB218460C37BD465DF845
:10131000047B704780B483B000AF78607B686FF067
:1013200002021A6000BF0C37BD465DF8047B7047AF
:1013300080B483B000AF78607B686FF020021A60E1
:1013400000BF0C37BD465DF8047B704780B483B0A6
:1013500000AF78607B685B6843F020027B685A606E
:1013600000BF0C37BD465DF8047B704780B483B086
:1013700000AF78607B685B6843F080627B685A608E
:1013800000BF0C37BD465DF8047B704780B483B066
:1013900000AF786039607B683A689A6100BF0C37AB
:1013A000BD465DF8047B704780B483B000AF7860C1
:1013B00039603B681A047B689A6100BF0C37BD46F0
:1013C0005DF8047B704780B483B000AF78607B68C1
:1013D0001B6843F001027B681A6000BF0C37BD46F2
:1013E0005DF8047B704780B483B000AF78607B68A1
:1013F0001B6823F002027B681A6000BF0C37BD46F1
:101400005DF8047B704780B483B000AF78607B6880
:101410001B6843F002027B681A6000BF0C37BD46B0
:101420005DF8047B704780B483B000AF78607B6860
:101430001B6843F080027B681A6000BF0C37BD4612
:101440005DF8047B704780B483B000AF786039608A
:101450007B683A689A6200BF0C37BD465DF8047B32
:10146000704780B483B000AF78607B689B6A184691
:101470000C37BD465DF8047B704780B483B000AF85
:10148000786039607B683A68DA6200BF0C37BD4625
:101490005DF8047B704780B483B000AF786039603A
:1014A0007B681A6A3B681A437B681A6200BF0C3774
:1014B000BD465DF8047B704780B487B000AFF8602C
:1014C000B9607A60BB68012B1CD0BB68042B17D0B5
:1014D000BB68102B12D0BB68402B0DD0BB68B3F596
:1014E000807F07D0BB68B3F5806F01D105230AE088
:1014F000062308E0042306E0032304E0022302E0BD
:10150000012300E00023FB75FB6818331946FB7DBF
:101510000E4AD35C0B443B613B691A68FB7D0C4966
:10152000CB5C194673238B40DB431A40FB7D084993
:10153000CB5C19467B688B401A433B691A6000BF3D
:101540001C37BD465DF8047B704700BF60E20008B1
:1015500068E2000880B487B000AFF860B9607A60D4
:10156000BB68012B1CD0BB68042B17D0BB68102BA9
:1015700012D0BB68402B0DD0BB68B3F5807F07D07D
:10158000BB68B3F5806F01D105230AE0062308E0AC
:10159000042306E0032304E0022302E0012300E029
:1015A0000023FB75FB681A6AFB7D0B49CB5C19466F
:1015B00002238B40DB431A40FB7D0749CB5C194675
:1015C0007B688B401A43FB681A6200BF1C37BD461C
:1015D0005DF8047B704700BF70E2000880B485B0FE
:1015E00000AF786039603B68012B1CD03B68042B4E
:1015F00017D03B68102B12D03B68402B0DD03B68B6
:10160000B3F5807F07D03B68B3F5806F01D1052328
:101610000AE0062308E0042306E0032304E0022393
:1016200002E0012300E00023FB737B6818331946B6
:10163000FB7B0A4AD35C0B44BB60BB681A68FB7B2C
:101640000749CB5C194608238B401A43BB681A60D4
:1016500000BF1437BD465DF8047B704760E20008A8
:1016600068E2000880B483B000AF786039607B68BE
:101670003A685A6300BF0C37BD465DF8047B70477B
:1016800080B483B000AF786039607B683A689A6351
:1016900000BF0C37BD465DF8047B704780B483B053
:1016A00000AF786039607B683A68DA6300BF0C3756
:1016B000BD465DF8047B704780B483B000AF7860AE
:1016C00039607B683A681A6400BF0C37BD465DF824
:1016D000047B704780B485B000AFF860B9607A6071
:1016E000FB685B6C23F44062B9687B680B431A4368
:1016F000FB685A6400BF1437BD465DF8047B704731
:1017000080B483B000AF78607B685B6C23F4804268
:101710007B685A6400BF0C37BD465DF8047B704798
:1017200080B483B000AF78607B685B6C43F40042A8
:101730007B685A6400BF0C37BD465DF8047B704778
:1017400080B483B000AF78607B68DB6823F001026F
:101750007B68DA6000BF0C37BD465DF8047B7047DC
:1017600080B400AF044B9B6803F4E0531846BD46B9
:101770005DF8047B704700BF00380240B0B5A4B0EC
:1017800000AF624B08332422002118460BF08AF97F
:101790005E4B01221A725D4B01225A725B4B5C4A0E
:1017A000DA605A4B4FF07C521A61584B594A9A6191
:1017B000564B594ADA61554B584A1A62534B192213
:1017C0005A85574B08332422002118460BF06AF93A
:1017D000534B01221A72524B01225A72504B4C4AFF
:1017E000DA604F4B4FF07C521A614D4B4D4A9A6173
:1017F0004B4B4D4ADA614A4B4C4A1A62484B0A221B
:101800005A85424B4A4A03F12C0415460FCD0FC4AA
:1018100095E8070084E80700414B464A03F12C0491
:1018200015460FCD0FC495E8070084E8070001F0C6
:101830007DFD0723C7F88830D7F8880000F030FC1A
:101840003D4BC7F884303C4BC7F88030D7F8801048
:10185000D7F8840000F06EFC00F034FD002387F818
:101860008F301DE0294BD96C97F88F2013465B0011
:1018700013445B000B441888244BD96C97F88F20D5
:1018800013465B0013445B00CC1801461F4801F06F
:10189000A9F80346638097F88F30013387F88F30BB
:1018A0001A4B93F8533097F88F209A42DAD30023DB
:1018B00087F88E301DE01A4BD96C97F88E201346AE
:1018C0005B0013445B000B441888154BD96C97F8E8
:1018D0008E2013465B0013445B00CC180146104871
:1018E00001F080F80346638097F88E30013387F863
:1018F0008E300B4B93F8533097F88E209A42DAD300
:1019000000BF00BF9037BD46B0BD00BFF000002053
:101910009A99993EF200002038010020F40000203E
:1019200050010020520100209801002054010020A5
:1019300054DB000870DB000870110100000000009B
:10194000B0B586B000AF78600023FB750023BB758F
:1019500000237B7500237B8207F1170319460320C0
:1019600001F0FCFC07F116031946042001F0F6FC17
:1019700007F115031946052001F0F0FC07F11203E9
:101980001946012001F0EAFCFB7D002B22D05A4BC6
:101990005B881846FEF7D6FD04460D46564B9B88DD
:1019A0001846FEF7CFFD52A3D3E90023FEF734FE1D
:1019B00002460B4620462946FFF7B4F80346002BA3
:1019C00016D00223FB7207F10B031946002001F029
:1019D000E7FC0DE0FB7D83F00103DBB2002B07D0B9
:1019E000454B002283F848200021434800F05CFD6D
:1019F000BB7D002B05D04FF480614048FFF7C6FC4B
:101A00000AE0BB7D83F00103DBB2002B04D04FF46E
:101A100080613A48FFF7C8FC00237B7400233B74C5
:101A20000023FB730023BB8107F1110319460A2031
:101A300001F094FC07F1100319460B2001F08EFC15
:101A400007F10F0319460C2001F088FC07F10C0385
:101A50001946082001F082FC7B7C002B22D0284B09
:101A60005B881846FEF76EFD04460D46244B9B88A6
:101A70001846FEF767FD1EA3D3E90023FEF7CCFD51
:101A800002460B4620462946FFF74CF80346002B3A
:101A900016D00223BB7207F10A031946072001F092
:101AA0007FFC0DE07B7C83F00103DBB2002B07D0D1
:101AB000134B002283F848200021114800F0F4FC69
:101AC0003B7C002B04D010210E48FFF75FFC09E09F
:101AD0003B7C83F00103DBB2002B03D010210948CB
:101AE000FFF762FC00BF1837BD46B0BDAFF3008002
:101AF000AE47E17A14AEEF3FF00000200000024054
:101B0000500100200004024080B582B000AF786030
:101B100000F02EFD00F018FE00F046FE00F032FF4F
:101B200000BF0837BD4680BD80B582B000AF034618
:101B30000A46FB711346BB80FB79002B05D13B1D88
:101B40001946012001F02CFC07E0FB79012B04D1A0
:101B50003B1D1946082001F023FC00BF0837BD4695
:101B600080BD80B582B000AF03460A46FB801346B5
:101B7000BB80BB1D1946012001F012FC3B1D19461C
:101B8000082001F00DFC00BF0837BD4680BD0000F5
:101B900090B585B000AF0446084611461A46234664
:101BA000FB710346BB710B467B7113463B710023EF
:101BB000FB73FB79002B10D00023FB7307F10F039D
:101BC0001946042001F0ECFB0123BB7307F10E035F
:101BD0001946002001F0E4FB07E00023BB7307F186
:101BE0000E031946002001F0DBFB00237B73BB7959
:101BF000002B10D000237B7307F10D0319460B2037
:101C000001F0CEFB01233B7307F10C0319460720BB
:101C100001F0C6FB07E000233B7307F10C031946F4
:101C2000072001F0BDFBFB1D1946032001F0B8FBA6
:101C3000BB1D19460A2001F0B3FB0E4B0022A3F88E
:101C400050200D4B0022A3F850200A4B002283F8AD
:101C50004920094B002283F84920064A7B7982F803
:101C60005C30054A3B7982F85C3000BF1437BD46D2
:101C700090BD00BFF00000205001002080B584B06E
:101C800000AF03460A46FB711346BB710023FB738A
:101C9000FB79002B26D1BB79002B15D00023FB73D9
:101CA00007F10F031946032001F07AFB0323BB73EE
:101CB00007F10E031946002001F072FB05220021F6
:101CC0001F480AF028F907E00023BB7307F10E0351
:101CD0001946002001F064FBBB1D1946042001F0E9
:101CE0005FFB28E0FB79012B25D1BB79002B15D0B8
:101CF0000023FB7307F10F0319460A2001F050FB84
:101D00000323BB7307F10E031946072001F048FBBC
:101D1000052200210B480AF0FEF807E00023BB7300
:101D200007F10E031946072001F03AFBBB1D1946C7
:101D30000B2001F035FB00BF1037BD4680BD00BF52
:101D4000F80000205801002080B584B000AF0346A1
:101D50000A46FB711346BB710023FB73FB79002B12
:101D600015D00023FB7307F10F031946032001F080
:101D700017FB0323BB7307F10E031946002001F084
:101D80000FFB052200211E480AF0C5F807E00023DA
:101D9000BB7307F10E031946002001F001FBFB1D88
:101DA0001946042001F0FCFA00237B73BB79002B59
:101DB00015D000237B7307F10D0319460A2001F0AB
:101DC000EFFA03233B7307F10C031946072001F0D8
:101DD000E7FA052200210B480AF09DF807E00023EE
:101DE0003B7307F10C031946072001F0D9FABB1D1C
:101DF00019460B2001F0D4FA00BF1037BD4680BD54
:101E0000F80000205801002080B584B000AF0346E0
:101E1000FB710023FB81FB79002B06D107F10E0338
:101E20001946012001F09AFA08E0FB79012B05D14F
:101E300007F10E031946082001F090FAFB891846B5
:101E40001037BD4680BD80B584B000AF0346FB713E
:101E50000023FB73FB79002B06D107F10F03194612
:101E6000032001F07BFA08E0FB79012B05D107F193
:101E70000F0319460A2001F071FAFB7B1846103750
:101E8000BD4680BD80B584B000AF0346FB71002322
:101E9000FB73FB79002B06D107F10F0319460420D1
:101EA00001F05CFA08E0FB79012B05D107F10F0383
:101EB00019460B2001F052FAFB7B18461037BD463D
:101EC00080BD000080B586B000AF0346FB710023E3
:101ED000FB824FF00003FB60FB79002B14D11A4BFF
:101EE0003B61194B5B88FB82FB8A1946164800F060
:101EF00094FDF0EE407AC7ED037A07F10C03194622
:101F0000022001F04DFA16E0FB79012B13D10F4BA3
:101F10003B610E4B5B88FB82FB8A19460B4800F045
:101F20007CFDF0EE407AC7ED037A07F10C03194609
:101F3000092001F035FAFB6807EE903AB0EE670A27
:101F40001837BD4680BD00BFF000002050010020C2
:101F500098B500AF2148FFF7CAF90346012B14D109
:101F60001E48FFF7E5F91E4B00221A701B48FFF7C9
:101F70007EF900BF00BF00BF00BF00BF00BF174811
:101F8000FFF765F91548FFF782F91448FFF79CF948
:101F90000346012B20D11148FFF7BCF9104B1B78E9
:101FA000DBB21A460F4B53F822400C48FFF77FF97B
:101FB000034663800A4B1B78DBB21A46094B53F881
:101FC0002230184600F090F9054B1B78DBB283F005
:101FD0000103DAB2024B1A7000BF98BD0020014025
:101FE00051020020B001002080B582B000AF012373
:101FF000FB71FB1D1946052001F0D2F90F4B0022A1
:1020000083F8482000210D4800F04EFA01210020FD
:10201000FFF734FE0A4B1B680B221A70FA79084B43
:102020001B685A70064B1B6800229A70032000F050
:102030001FFD00BF0837BD4680BD00BFF000002077
:10204000B801002080B582B000AF0123FB71FB1DF9
:1020500019460C2001F0A4F90F4B002283F8482008
:1020600000210D4800F020FA01210120FFF706FEB3
:102070000A4B1B680B221A70084B1B6800225A700F
:10208000FA79064B1B689A70032000F0F1FC00BF40
:102090000837BD4680BD00BF50010020B8010020B8
:1020A00080B582B000AF78601F4B00221A704FF4E9
:1020B00080111E48FEF7F4FF1D4A4FF400711B48C3
:1020C000FFF701F80A2240F205211848FEF7FBFF4E
:1020D0007A6817491548FFF759F87A680A211348B2
:1020E000FFF754F84FF480711048FEF7B1FF02215A
:1020F0000E48FFF725F80D48FFF738F90B48FFF7B2
:1021000025F94FF480610948FFF72DF80748FFF7DC
:102110009EF800210548FEF7AEFF0448FFF7B7F828
:1021200000BF0837BD4680BD51020020002001409D
:102130000C00600080B582B000AF786039605A480A
:1021400009F0A5FD594BDB6A584A116B602218460D
:10215000FFF7B2F9554BDB6A544A116B002218465F
:10216000FFF7F8F9514BDB6A504A126B11461846DB
:10217000FFF734FA4D4BDB6A4C4A126B1146184696
:10218000FFF789F9494BDB6A4FF400624FF4806135
:102190001846FFF79FFA454BDB6A1846FFF7B0FA7F
:1021A000424BDB6A1846FFF7BBFA404BDB6A002163
:1021B0001846FFF748F93D4BDB6A1846FFF733F93D
:1021C00079683A4800F01CF9384BDB6A1846FFF78B
:1021D000B7FA374809F05BFD364BDB6A354A116BBD
:1021E00060221846FFF768F9324BDB6A314A116BFF
:1021F00000221846FFF7AEF92E4BDB6A2D4A126B10
:1022000011461846FFF7EAF92A4BDB6A294A126B96
:1022100011461846FFF73FF9264BDB6A4FF4006280
:102220004FF480611846FFF755FA224BDB6A1846D7
:10223000FFF766FA1F4BDB6A1846FFF771FA1D4B72
:10224000DB6A00211846FFF7FEF81A4BDB6A1846D6
:10225000FFF7E9F83968174800F0D2F8154BDB6A48
:102260001846FFF76DFA4FF400711348FFF78EF828
:1022700004211248FFF78AF84FF480610E48FFF7F7
:1022800093F810210E48FFF78FF8084BDB6A1846C9
:10229000FFF799F8074BDB6A1846FFF794F800BF81
:1022A0000837BD4680BD00BFF8000020F0000020C8
:1022B000580100205001002000000240000C0240A4
:1022C0000004024080B500AF4FF480610448FFF77E
:1022D0006BF810210348FFF767F800BF80BD00BF0F
:1022E0000000024000040240B0B586B000AF786044
:1022F0000023FB737B683F4A934206D107F10F032B
:1023000019460A2001F02AF809E07B683A4A93420C
:1023100005D107F10F031946032001F01FF8FB7BDD
:10232000002B62D07B680833184609F006FD7B68F5
:102330002C337B617B6893F84830DBB23B617B696F
:102340009B691846FEF7EEF804460D463869FEF71D
:10235000E9F84FF00002294BFEF788FA02460B46D7
:1023600020462946FEF758F902460B461046194604
:10237000FEF7ECFB02467B695A617B695B68B3F54B
:10238000805F28D0B3F5805F2ED8B3F5807F19D059
:10239000B3F5807F28D8012B02D0102B09D023E081
:1023A0007B691A687B695B6919461046FFF75AF921
:1023B0001BE07B691A687B695B6919461046FFF769
:1023C0005FF912E07B691A687B695B691946104600
:1023D000FFF764F909E07B691A687B695B69194654
:1023E0001046FFF769F900E000BF00BF1837BD468F
:1023F000B0BD00BF50010020F00000200000594097
:1024000090B52DED028B85B000AF786039607B68A8
:102410002C33FB60FB681B681846FEF7F4FF1F4B6C
:102420001B681F4A127823FA02F4FFF799F9034652
:102430009B0A1C4AD35C24FA03F307EE903AB8EEE9
:10244000678AFB681B681846FFF70BF803460133E1
:1024500007EE903AB8EE677A3B6807EE903AF8EEEE
:10246000677A27EE277AC8EE077AFCEEE77A17EE4E
:10247000902AFB689A61FB681A68FB689B69194699
:102480001046FEF7FAFFFB681B681846FEF7ABFF25
:1024900000BF1437BD46BDEC028B90BDC0010020CB
:1024A00028E4000838E40008B0B584B000AF7860D4
:1024B00039607B682C33FB60FB689B691846FEF72C
:1024C00031F804460D463868FEF72CF84FF000024C
:1024D000264BFEF7CBF902460B4620462946FEF76F
:1024E0009BF802460B4610461946FEF72FFB0246A4
:1024F000FB685A61FB685B68B3F5805F28D0B3F571
:10250000805F2ED8B3F5807F19D0B3F5807F28D8AF
:10251000012B02D0102B09D023E0FB681A68FB685E
:102520005B6919461046FFF79DF81BE0FB681A68C7
:10253000FB685B6919461046FFF7A2F812E0FB68DA
:102540001A68FB685B6919461046FFF7A7F809E0AF
:10255000FB681A68FB685B6919461046FFF7ACF820
:1025600000E000BF00BF1037BD46B0BD00005940BD
:1025700080B582B000AF0023BB71BB1D194603209C
:1025800000F0ECFEBB7983F00103DBB2002B40F0DE
:10259000CE806B4B93F84930022B00F0C080022BA9
:1025A00000F3C780002B02D0012B49D0C1E0644B5F
:1025B000B3F85030002B11D105220021614809F0F9
:1025C000AAFC05215E4800F03FFA5D4BB3F850309D
:1025D00001339AB25A4BA3F85020ADE0584BB3F8F0
:1025E0005030B3F57A6F08D2554BB3F85030013301
:1025F0009AB2534BA3F850209EE00023FB7114E0E5
:102600004F4B59884E4BD86CFA7913465B001344F4
:102610005B0003445B88994204D8494AFB7982F8FD
:10262000523008E0FB790133FB71454B93F853308E
:10263000FA799A42E4D3424B012283F849207BE0A5
:102640007B1D1946002000F089FE7B79022B72D198
:10265000BB1C1946012000F081FE394BDA6C384B67
:1026600093F8523019460B465B000B445B00134451
:102670001A887B889A4230D2314BDA6C304B93F80F
:10268000523019460B465B000B445B0013441B7928
:102690001A4600212B4809F03EFC294BDA6C284BE6
:1026A00093F8523019460B465B000B445B00134411
:1026B0001B881946224800F0C7F901237B717B1D56
:1026C0001946002000F06CFE1D4B93F85230013388
:1026D000DAB21B4B83F852202EE0194BDA6C184B00
:1026E00093F8523019460B465B000B445B001344D1
:1026F0001B791A460021134809F00DFC7B88194606
:102700000F4800F0A1F901237B717B1D19460020C1
:1027100000F046FE0A4B022283F849200CE07B1DA4
:102720001946002000F01AFE7B79022B01E000BF61
:1027300002E000BF00E000BF0837BD4680BD00BF1B
:10274000F0000020F800002080B582B000AF002328
:10275000FB71FB1D1946042000F000FEFB7983F09D
:102760000103DBB2002B15D10C4B5B88142B12D864
:102770000B4B1B680B49184609F0E0FF00210020B5
:10278000FFF77CFA0423BB71BB1D1946002000F043
:1027900007FE00E000BF0837BD4680BDF000002006
:1027A000540200208CDB000880B582B000AF00230B
:1027B000BB71BB1D19460A2000F0D0FDBB7983F028
:1027C0000103DBB2002B40F0D1806C4B93F8493011
:1027D000032B00F2CD8001A252F823F0ED27000870
:1027E0007F2800085D29000871290008634BB3F8B1
:1027F0005030002B11D105220021614809F08BFBDC
:1028000005215E4800F020F95C4BB3F850300133ED
:102810009AB25A4BA3F85020ADE0584BB3F8503061
:10282000B3F57A6F08D2554BB3F8503001339AB2F2
:10283000524BA3F850209EE00023FB7114E04F4B55
:1028400059884E4BD86CFA7913465B0013445B00F1
:1028500003445B88994204D8484AFB7982F8523095
:1028600008E0FB790133FB71444B93F85330FA795C
:102870009A42E4D3414B012283F849207BE07B1D3F
:102880001946072000F06AFD7B79022B72D1BB1C30
:102890001946082000F062FD384BDA6C374B93F88C
:1028A000523019460B465B000B445B0013441A88F8
:1028B0007B889A4230D2314BDA6C304B93F85230ED
:1028C00019460B465B000B445B0013441B791A4608
:1028D00000212B4809F01FFB284BDA6C274B93F89B
:1028E000523019460B465B000B445B0013441B88B7
:1028F0001946224800F0A8F801237B717B1D194678
:10290000072000F04DFD1D4B93F852300133DAB231
:102910001A4B83F852202EE0184BDA6C174B93F8C1
:10292000523019460B465B000B445B0013441B7985
:102930001A460021124809F0EEFA7B8819460F4822
:1029400000F082F801237B717B1D1946072000F0FF
:1029500027FD0A4B022283F849200CE07B1D194613
:10296000072000F0FBFC7B79022B04E000BF02E0B3
:1029700000BF00E000BF0837BD4680BD5001002009
:102980005801002080B582B000AF0023FB71FB1D11
:1029900019460B2000F0E2FCFB7983F00103DBB267
:1029A000002B15D10C4B5B883C2B12D80B4B1B68B2
:1029B0000B49184609F0C2FE00210120FFF75EF91D
:1029C0000423BB71BB1D1946072000F0E9FC00E0A1
:1029D00000BF0837BD4680BD5001002054020020D2
:1029E000B0DB000880B483B000AF78600B467B801A
:1029F0007B8807EE903AF8EEE76A7B6893ED167AEB
:102A0000C6EE877AFCEEE77A17EE903A9BB218464C
:102A10000C37BD465DF8047B704780B483B000AFCF
:102A200078600B467B807B8807EE903AB8EEE77AB9
:102A30007B68D3ED167A67EE277AB0EE670A0C371B
:102A4000BD465DF8047B704780B582B000AF78600A
:102A50000B467B807B8819467868FFF7C3FF0346E7
:102A60001A467B689A8000BF0837BD4680BD0000CB
:102A700080B58AB000AF0346FB711F4BCA221A70A3
:102A80001E4B1A781C4B5A701B4B02229A701A4A22
:102A9000FB79D370184B07221A71174BEF2283F87A
:102AA0000021154BDB780433DBB21A4614490020B1
:102AB00007F02CFF03461A460F4BA3F8FE2007F140
:102AC0000C0300221A605A609A60DA601A615A6137
:102AD0001A7607F10B0207F10C031946064807F0B6
:102AE00061FFFA7A07F10C031946064809F03EFE29
:102AF00000BF2837BD4680BD4C470020DC4E00207B
:102B00004D470020E01E002080B400AFBFF34F8F80
:102B100000BF064BDB6803F4E0620449044B134337
:102B2000CB60BFF34F8F00BF00BFFDE700ED00E0BB
:102B30000400FA0580B588B000AFF860B9607A602B
:102B400007F11403074A0A21184609F039FF07F173
:102B500014031946F86805F00BFB00BF2037BD468B
:102B600080BD00BFC4DD000880B584B000AFF86050
:102B7000B9607A60FFF7C8FF80B588B000AFF86031
:102B8000B9607A60B86805F0F7FB0346BB61BB69C2
:102B9000012B04DC3249F86805F0EAFA5DE0BB6914
:102BA000022B04DD2F49F86805F0E2FA55E0012117
:102BB000B86805F0ABFB0346184609F078FE0346FB
:102BC0003B610221B86805F0A1FB0346184609F0F5
:102BD0006EFE03467B613B69B3F5AF7F02DC3B6968
:102BE000002B04DA2049F86805F0C2FA35E07B6969
:102BF0003C2B02DC7B69002B04DA1B49F86805F0EA
:102C0000B7FA2AE00023FB770020FFF71CF9034600
:102C1000002B05D01549F86805F0AAFA0123FB77C7
:102C20000120FFF710F90346002B05D01049F86882
:102C300005F09EFA0123FB77FB7F012B0CD03B694B
:102C40009BB27A6992B211461846FEF78AFF09498B
:102C5000F86805F08DFA00E000BF2037BD4680BD62
:102C6000CCDD0008E8DD000804DE00081CDE0008FA
:102C700060DE0008A4DE000880B586B000AFF86012
:102C8000B9607A60B86805F077FB03467B617B69C1
:102C9000002B04DC1D49F86805F06AFA32E07B6914
:102CA000012B04DD1A49F86805F062FA2AE00121D7
:102CB000B86805F02BFB0346184609F0F8FD3861AB
:102CC0003B69B3F5AF7F02DC3B69002B04DA1149A5
:102CD000F86805F04DFA15E00020FFF7B4F8034658
:102CE000002B04D00C49F86805F042FA0AE03B6971
:102CF0009BB219460020FEF717FF0849F86805F057
:102D000037FA00BF1837BD4680BD00BFCCDD0008D4
:102D1000B4DE000804DE00081CDE0008A4DE0008A3
:102D200080B586B000AFF860B9607A60B86805F029
:102D300023FB03467B617B69002B04DC1C49F8689C
:102D400005F016FA31E07B69012B04DD1949F868BA
:102D500005F00EFA29E00121B86805F0D7FA03461C
:102D6000184609F0A4FD38613B693C2B02DC3B6945
:102D7000002B04DA1049F86805F0FAF915E0012093
:102D8000FFF761F80346002B04D00C49F86805F002
:102D9000EFF90AE03B699BB219460120FEF7C4FE39
:102DA0000749F86805F0E4F900BF1837BD4680BD53
:102DB000CCDD0008B4DE000804DE000860DE000898
:102DC000A4DE000880B58AB000AFF860B9607A6010
:102DD000B86805F0D1FA03463B623B6A012B04DC7C
:102DE0004849F86805F0C4F988E03B6A022B04DD25
:102DF0004549F86805F0BCF980E00121B86805F0A4
:102E000085FA0346184609F052FD03467B6102210C
:102E1000B86805F07BFA0346184609F048FD0346FA
:102E2000BB617B69012B02DC7B69002B04DA37492B
:102E3000F86805F09DF961E0BB69012B02DCBB6914
:102E4000002B04DA3149F86805F092F956E00023C6
:102E500087F827307B69012B19D10020FEF7D4FFBA
:102E60000346FB830020FFF72DF8F0EE407AFCEEDE
:102E7000E77A17EE903ABB83FA8BBB8B9A4206D265
:102E80002349F86805F074F9012387F82730BB69F6
:102E9000012B19D10120FEF7B7FF0346FB83012068
:102EA000FFF710F8F0EE407AFCEEE77A17EE903A72
:102EB000BB83FA8BBB8B9A4206D21649F86805F0A1
:102EC00057F9012387F8273097F82730012B14D0C2
:102ED0007B69002B14BF01230023D8B2BB69002BF0
:102EE00014BF01230023D9B201230122FEF750FEB3
:102EF0000949F86805F03CF900E000BF2837BD46F5
:102F000080BD00BFCCDD0008B4DE000804DE000890
:102F1000D0DE000824DF0008A4DE000880B588B0F9
:102F200000AFF860B9607A60B86805F025FA03462A
:102F3000FB61FB69012B04DC2749F86805F018F9EF
:102F400046E0FB69022B04DD2449F86805F010F91E
:102F50003EE00121B86805F0D9F90346184609F0AA
:102F6000A6FC03467B610221B86805F0CFF9034651
:102F7000184609F09CFC0346BB617B69012B02DC0F
:102F80007B69002B04DA1649F86805F0F1F81FE0B8
:102F9000BB69012B02DCBB69002B04DA1049F8681D
:102FA00005F0E6F814E07B69002B14BF0123002331
:102FB000DAB2BB69002B14BF01230023DBB2194630
:102FC0001046FEF7C1FE0749F86805F0D1F800BFCA
:102FD0002037BD4680BD00BFCCDD0008B4DE000850
:102FE00004DE000878DF000880B596B000AFF86016
:102FF000B9607A60B86805F0BFF903467B657B6D00
:10300000002B04D01149F86805F0B2F81AE000204E
:10301000FEF7FAFE0346A7F852300120FEF7F4FE51
:103020000346A7F85030B7F85220B7F8503007F1F0
:103030001000074909F0FAFC07F110031946F86877
:1030400005F096F85837BD4680BD00BFB4DE0008D5
:1030500088DF000880B586B000AFF860B9607A609C
:10306000B86805F089F903467B617B69002B04D0C1
:103070001249F86805F07CF81DE00020FEF7E3FE39
:103080000346002B04D00E49F86805F071F803E000
:103090000C49F86805F06CF80120FEF7D4FE0346F1
:1030A000002B04D00849F86805F062F803E00749EE
:1030B000F86805F05DF81837BD4680BDB4DE00083D
:1030C000BCDF0008D4DF0008F0DF000808E00008DB
:1030D00080B586B000AFF860B9607A60B86805F076
:1030E0004BF903467B617B69002B04D01249F868D9
:1030F00005F03EF81DE00020FEF7C4FE0346002B5D
:1031000004D00E49F86805F033F803E00C49F8687C
:1031100005F02EF80120FEF7B5FE0346002B04D083
:103120000849F86805F024F803E00749F86805F055
:103130001FF81837BD4680BDB4DE000824E0000843
:1031400040E0000860E000087CE0000880B5A0B026
:1031500000AFF860B9607A60B86805F00DF9034611
:10316000FB67FB6F002B04D02F49F86805F000F8CF
:1031700056E00020FEF748FE0346A7F87A3001200B
:10318000FEF742FE0346A7F87830B7F87A20B7F882
:10319000783007F11400254909F048FC07F11403C1
:1031A0001946F86804F0E4FF0020FEF74CFE0346E1
:1031B000002B04D01E49F86804F0DAFF03E01D4933
:1031C000F86804F0D5FF0120FEF73DFE0346002B12
:1031D00004D01949F86804F0CBFF03E01749F868F8
:1031E00004F0C6FF0020FEF74DFE0346002B04D07E
:1031F0001349F86804F0BCFF03E01249F86804F0D2
:10320000B7FF0120FEF73EFE0346002B04D00E4917
:10321000F86804F0ADFF03E00C49F86804F0A8FF7B
:103220008037BD4680BD00BFB4DE000888DF0008DF
:10323000BCDF0008D4DF0008F0DF000808E0000869
:1032400024E0000840E0000860E000087CE000089E
:1032500080B400AF024B1846BD465DF8047B704752
:1032600078E2000880B400AF0C231846BD465DF834
:10327000047B704780B584B004AF4FF48053039350
:103280004FF4806302930E4B01930E4B0093472340
:103290000D4A0E490E4809F0D8F94FF400620D4965
:1032A0000B4804F07BFD03460B4A13600B490848AA
:1032B00009F044FA0A4B064A1A6000BFBD4680BDB9
:1032C000C4060020C4020020001401409CE0000855
:1032D00058020020C4160020C41E0020A8E00008E8
:1032E0005402002080B584B000AF78600BE00D4838
:1032F00009F0F0F90346FB730B4B1B68FA7B114690
:10330000184604F081FE074809F04EFA0346002BE8
:10331000EDD1054B1B68184604F099FE00BF10372D
:10332000BD4680BD58020020C41E002080B500AFFD
:1033300016220021084809F0B5FB074B00221A703D
:10334000054B02229A80044B00229A72024B022201
:10335000DA8100BF80BD00BFC81E002080B582B0EA
:1033600000AF03463960FB71FB790F2B02D83B6835
:10337000002B01D100230DE0FB79084A52F83310ED
:10338000FB79064ADB0013445B681A46386809F08B
:10339000DDFB012318460837BD4680BD98E30008D1
:1033A00080B582B000AF03463960FB71FB790F2B0B
:1033B00002D83B68002B01D100230DE0FB79084ABD
:1033C00052F83300FB79064ADB0013445B681A4667
:1033D000396809F0BBFB012318460837BD4680BD9C
:1033E00098E3000880B400AFBFF34F8F00BF064BD7
:1033F000DB6803F4E0620449044B1343CB60BFF382
:103400004F8F00BF00BFFDE700ED00E00400FA05AC
:1034100080B5B0B000AFAB4B1B681B78222B01F21C
:10342000948001A252F823F0B53400085D350008FD
:10343000D7350008513600083537000891370008A5
:103440004B4500086739000827390008E7380008AD
:1034500027380008EB37000815430008934300089D
:103460001F4400084B450008DD3900089744000858
:103470008D3A0008713B0008693C00084F3E000887
:10348000AF3E0008213F0008813F0008814000084E
:10349000814100081542000889420008CF42000817
:1034A000094500084B4500084B4500083945000810
:1034B0003D4500080023BB7707F11F031946032091
:1034C000FFF74CFF07F11E0319460A20FFF746FFDE
:1034D000FB7F002B02D1BB7F002B0DD07A4B1B68EA
:1034E00000221A70784B1B6800225A70022001F0EB
:1034F00037F8002301F02BB8724B1B685B781BB2C6
:103500001B021AB26F4B1B689B781BB213431BB292
:103510007B846C4B1B68DB781BB21B021AB2694BB5
:103520001B681B791BB213431BB23B843A8C7B8C08
:1035300011461846FEF715FB634B1B6800221A70F4
:10354000614B1B6801225A70022001F009F85F49A3
:103550005F4809F0F3F8012300F0F9BF00237B77FF
:1035600007F11D0319460320FFF7F8FE7B7F002BB0
:103570000DD0554B1B6801221A70534B1B6800225B
:103580005A70022000F0ECFF002300F0E0BF4D4B2A
:103590001B685B781BB21B021AB24A4B1B689B78F4
:1035A0001BB213431BB2BB84BB8C19460020FEF731
:1035B000BBFA454B1B6801221A70434B1B68012262
:1035C0005A70022000F0CCFF4249414809F0B6F899
:1035D000012300F0BCBF00233B7707F11C03194611
:1035E0000A20FFF7BBFE3B7F002B0DD0364B1B683C
:1035F00002221A70344B1B6800225A70022000F01D
:10360000AFFF002300F0A3BF2E4B1B685B781BB2FB
:103610001B021AB22B4B1B689B781BB213431BB2C5
:10362000FB84FB8C19460120FEF77EFA264B1B68B3
:1036300002221A70244B1B6801225A70022000F0EB
:103640008FFF2549224809F079F8012300F07FBF58
:1036500000237B8300233B8307F11A0319460120D3
:10366000FFF77CFE07F1180319460820FFF776FEE6
:103670000020FEF727FCF0EE407AFCEEE77A17EE2A
:10368000903ABB850120FEF71DFCF0EE407AFCEE7F
:10369000E77A17EE903A7B857B8BBA8D9A4203D2FC
:1036A0003B8B7A8D9A4219D3074B1B6803221A7001
:1036B000054B1B6800225A70022000F051FF0023C6
:1036C00000F045BFBC010020B8010020B0E00008B8
:1036D00058020020D4E00008F0E00008B94B1B6855
:1036E0005B78002B14BF0123002387F82930B54BEA
:1036F0001B689B78002B14BF0123002387F8283018
:1037000097F8281097F8290001230122FEF740FAC4
:10371000AD4B1B6803221A70AB4B1B6801225A7019
:10372000022000F01DFFA949A94809F007F801236C
:1037300000F00DBFA34B1B685B7887F82F30A14BBF
:103740001B689B7887F82E3097F82F30002B14BF1A
:1037500001230023DAB297F82E30002B14BF012387
:103760000023DBB219461046FEF7EEFA964B1B68B3
:1037700004221A70944B1B6801225A70022000F038
:10378000EFFE9449924808F0D9FF012300F0DFBE14
:103790008C4B1B685B78002B14BF01230023DBB22A
:1037A000FB75884B1B689B78002B14BF01230023FB
:1037B000DBB2BB75FB7D83F00103DBB2002B05D0D0
:1037C00007F1170319460520FFF7EAFDBB7D83F0DB
:1037D0000103DBB2002B05D007F1160319460C20BC
:1037E000FFF7DEFD012300F0B2BE07F11503194615
:1037F0000520FFF7B3FD07F1140319460C20FFF76E
:10380000ADFD714B1B680B221A707A7D6E4B1B68E5
:103810005A703A7D6C4B1B689A70032000F0A0FE32
:10382000012300F094BE0023FB87002387F83D307E
:10383000002387F83C300020FEF7E6FA03467B873A
:103840000120FEF7E1FA0346FB870020FEF7FBFAB2
:10385000034687F839300020FEF714FB034687F84B
:103860003D300120FEF7EFFA034687F8383001209B
:10387000FEF708FB034687F83C30534B1B680A22CF
:103880001A707B8F1B0A9AB24F4B1B68D2B25A70C8
:103890004D4B1B687A8FD2B29A70FB8F1B0A9AB27B
:1038A000494B1B68D2B2DA70474B1B68FA8FD2B211
:1038B0001A71454B1B6897F839205A71424B1B68A7
:1038C00097F83D20DA71404B1B6897F838209A71C1
:1038D0003D4B1B6897F83C201A72092000F040FE0F
:1038E000012300F034BE0020FEF7ADFA034687F84E
:1038F00037300120FEF7A7FA034687F83630324BFF
:103900001B6809221A70304B1B6897F837205A70D1
:103910002D4B1B6897F836209A70032000F020FE8C
:10392000012300F014BE0020FEF7ACFA034687F82E
:1039300035300120FEF7A6FA034687F83430224BD3
:103940001B6808221A70204B1B6897F835205A70A4
:103950001D4B1B6897F834209A70032000F000FE7E
:10396000012300F0F4BD00237B860020FEF74CFA13
:1039700003463B860120FEF747FA03467B86124B3F
:103980001B6807221A703B8E1B0A9AB20E4B1B68EB
:10399000D2B25A700C4B1B683A8ED2B29A707B8EA0
:1039A0001B0A9AB2084B1B68D2B2DA70064B1B682E
:1039B0007A8ED2B21A71052000F0D2FD012300F0F8
:1039C000C6BD00BFBC010020B80100200CE100080A
:1039D0005802002028E1000800007A440020FEF789
:1039E00071FAF0EE407A1FED047A67EE877AC7ED40
:1039F000187A0120FEF766FAF0EE407A1FED0A7A97
:103A000067EE877AC7ED177AD7ED187AFCEEE77A7A
:103A100017EE903ABB65D7ED177AFCEEE77A17EE12
:103A2000903AA7F856308B4B1B6810221A70894BBE
:103A30001B68BA6DD2B25A70BB6D1A0A854B1B68EF
:103A4000D2B29A70BB6D1A0C824B1B68D2B2DA707C
:103A5000BB6D1A0E7F4B1B68D2B21A717D4B1B686F
:103A6000B7F85620D2B25A71B7F856301B0A9AB23C
:103A7000784B1B68D2B29A71072000F071FD76492D
:103A8000764808F05BFE012300F061BD744BD3ED76
:103A9000087A9FED747A67EE877AFDEEE77A17EE83
:103AA000903AFB666E4BD3ED097A9FED6E7A67EE26
:103AB000877AFDEEE77A17EE903ABB66684BD3ED56
:103AC0000A7A9FED687A67EE877AFDEEE77A17EE5D
:103AD000903A7B665F4B1B6812221A705D4B1B6825
:103AE000FA6ED2B25A70FB6E1A125A4B1B68D2B2DF
:103AF0009A70FB6E1A14574B1B68D2B2DA70FB6EC9
:103B00001A16544B1B68D2B21A71524B1B68BA6E0C
:103B1000D2B25A71BB6E1A124E4B1B68D2B29A7156
:103B2000BB6E1A144B4B1B68D2B2DA71BB6E1A16FD
:103B3000484B1B68D2B21A72464B1B687A6ED2B2DF
:103B40005A727B6E1A12434B1B68D2B29A727B6E0A
:103B50001A14404B1B68D2B2DA727B6E1A163D4BB8
:103B60001B68D2B21A730D2000F0FAFC00F0EEBC14
:103B70003B4BD3ED057A9FED3B7A67EE877AFDEEFE
:103B8000E77A17EE903ABB67354BD3ED067A9FED97
:103B9000357A67EE877AFDEEE77A17EE903A7B6723
:103BA0002F4BD3ED077A9FED2F7A67EE877AFDEEE4
:103BB000E77A17EE903A3B67264B1B6813221A7080
:103BC000244B1B68BA6FD2B25A73BB6F1A12214BC7
:103BD0001B68D2B29A73BB6F1A141E4B1B68D2B209
:103BE000DA73BB6F1A161B4B1B68D2B21A74194BCF
:103BF0001B687A6FD2B25A747B6F1A12154B1B680E
:103C0000D2B29A747B6F1A14124B1B68D2B2DA7458
:103C10007B6F1A160F4B1B68D2B21A750D4B1B68BF
:103C20003A6FD2B25A753B6F1A120A4B1B68D2B266
:103C30009A753B6F1A14074B1B68D2B2DA753B6F4B
:103C40001A16044B1B68D2B21A76192000F088FCB1
:103C500000F07CBCB801002048E1000858020020B8
:103C6000B04D002000007A44A94BD3ED087A9FEDB7
:103C7000A97A67EE877AFDEEE77A17EE903AC7F8F1
:103C80009030A34BD3ED097A9FEDA27A67EE877A45
:103C9000FDEEE77A17EE903AC7F88C309C4BD3EDE7
:103CA0000A7A9FED9C7A67EE877AFDEEE77A17EE47
:103CB000903AC7F88830964BD3ED057A9FED957A08
:103CC00067EE877AFDEEE77A17EE903AC7F8843010
:103CD0008F4BD3ED067A9FED8F7A67EE877AFDEEF4
:103CE000E77A17EE903AC7F88030894BD3ED077A20
:103CF0009FED887A67EE877AFDEEE77A17EE903AC5
:103D0000FB67854B1B6814221A70834B1B68D7F81E
:103D10009020D2B25A70D7F890301A127E4B1B689E
:103D2000D2B29A70D7F890301A147B4B1B68D2B27B
:103D3000DA70D7F890301A16774B1B68D2B21A7126
:103D4000754B1B68D7F88C20D2B25A71D7F88C30DB
:103D50001A12714B1B68D2B29A71D7F88C301A14B0
:103D60006D4B1B68D2B2DA71D7F88C301A166A4BD9
:103D70001B68D2B21A72684B1B68D7F88820D2B27F
:103D80005A72D7F888301A12634B1B68D2B29A72F3
:103D9000D7F888301A14604B1B68D2B2DA72D7F8A1
:103DA00088301A165C4B1B68D2B21A735A4B1B68C8
:103DB000D7F88420D2B25A73D7F884301A12564BEF
:103DC0001B68D2B29A73D7F884301A14524B1B680E
:103DD000D2B2DA73D7F884301A164F4B1B68D2B2BE
:103DE0001A744D4B1B68D7F88020D2B25A74D7F89A
:103DF00080301A12484B1B68D2B29A74D7F88030C0
:103E00001A14454B1B68D2B2DA74D7F880301A16F0
:103E1000414B1B68D2B21A753F4B1B68FA6FD2B286
:103E20005A75FB6F1A123C4B1B68D2B29A75FB6F26
:103E30001A14394B1B68D2B2DA75FB6F1A16364B5F
:103E40001B68D2B21A76192000F08AFB7EE3334B4E
:103E5000D3ED177A9FED2F7A67EE877AFDEEE77A3A
:103E600017EE903AC7F894302B4B1B6815221A7046
:103E7000294B1B68D7F89420D2B25A70D7F89430E7
:103E80001A12254B1B68D2B29A70D7F894301A14C4
:103E9000214B1B68D2B2DA70D7F894301A161E4B39
:103EA0001B68D2B21A710D2000F05AFB4EE31B4B77
:103EB000D3ED187A9FED177A67EE877AFDEEE77AF1
:103EC00017EE903AC7F89830134B1B6816221A70F9
:103ED000114B1B68D7F89820D2B25A71D7F8983096
:103EE0001A120D4B1B68D2B29A71D7F898301A1477
:103EF000094B1B68D2B2DA71D7F898301A16064B04
:103F00001B68D2B21A720D2000F02AFB1EE300BF1C
:103F1000B04D002000007A44B8010020DC4D0020A4
:103F2000B74BD3ED197A9FEDB77A67EE877AFDEE3E
:103F3000E77A17EE903AC7F89C30B34B1B6817220C
:103F40001A70B14B1B68D7F89C20D2B25A72D7F8BE
:103F50009C301A12AC4B1B68D2B29A72D7F89C30C4
:103F60001A14A94B1B68D2B2DA72D7F89C301A1611
:103F7000A54B1B68D2B21A730D2000F0F1FAE5E2EE
:103F80009F4BD3ED177A9FED9F7A67EE877AFDEE10
:103F9000E77A17EE903AC7F8A830994BD3ED187A24
:103FA0009FED987A67EE877AFDEEE77A17EE903A02
:103FB000C7F8A430924BD3ED197A9FED927A67EE51
:103FC000877AFDEEE77A17EE903AC7F8A0308E4B6D
:103FD0001B6818221A708C4B1B68D7F8A820D2B225
:103FE0005A70D7F8A8301A12874B1B68D2B29A7051
:103FF000D7F8A8301A14844B1B68D2B2DA70D7F8FD
:10400000A8301A16804B1B68D2B21A717E4B1B68FF
:10401000D7F8A420D2B25A71D7F8A4301A127A4B2A
:104020001B68D2B29A71D7F8A4301A14764B1B6869
:10403000D2B2DA71D7F8A4301A16734B1B68D2B219
:104040001A72714B1B68D7F8A020D2B25A72D7F8F7
:10405000A0301A126C4B1B68D2B29A72D7F8A030FB
:104060001A14694B1B68D2B2DA72D7F8A0301A164C
:10407000654B1B68D2B21A730D2000F071FA65E22D
:10408000624BD3ED057A9FED5F7A67EE877AFDEE9E
:10409000E77A17EE903AC7F8B4305C4BD3ED067A66
:1040A0009FED587A67EE877AFDEEE77A17EE903A41
:1040B000C7F8B030554BD3ED077A9FED527A67EED3
:1040C000877AFDEEE77A17EE903AC7F8AC304E4BA0
:1040D0001B6819221A704C4B1B68D7F8B420D2B257
:1040E0005A70D7F8B4301A12474B1B68D2B29A7084
:1040F000D7F8B4301A14444B1B68D2B2DA70D7F830
:10410000B4301A16404B1B68D2B21A713E4B1B6872
:10411000D7F8B020D2B25A71D7F8B0301A123A4B51
:104120001B68D2B29A71D7F8B0301A14364B1B689C
:10413000D2B2DA71D7F8B0301A16334B1B68D2B24C
:104140001A72314B1B68D7F8AC20D2B25A72D7F82A
:10415000AC301A122C4B1B68D2B29A72D7F8AC3022
:104160001A14294B1B68D2B2DA72D7F8AC301A167F
:10417000254B1B68D2B21A730D2000F0F1F9E5E16E
:10418000002387F8BF30224B1B685B7887F8B83074
:1041900097F8B830012B07D100211C4805F08CFF9F
:1041A000034687F8BF3016E097F8B830022B07D1E6
:1041B0001021164805F080FF034687F8BF300AE05B
:1041C00097F8B830042B06D13021104805F074FF61
:1041D000034687F8BF300C4B1B681A221A7097F8F9
:1041E000BF30002B04D0084B1B6800229A7003E0FC
:1041F000054B1B6801229A70032000F0B1F9A5E17C
:10420000DC4D002000007A44B80100204C4E002014
:10421000BC010020002387F8B9300023FB7407F1AC
:1042200013031946AF4805F091FF034687F8B930EC
:10423000AD4B1B681B221A7097F8B930002B04D0C5
:10424000A94B1B6800229A7003E0A74B1B68012250
:104250009A70FB7C002B04D1A34B1B6801225A707F
:104260000EE0FB7C102B04D19F4B1B6802225A707E
:1042700006E0FB7C302B03D19B4B1B6804225A7059
:10428000032000F06DF961E1984BD3ED037A9FEDC7
:10429000987A67EE877AFCEEE77A17EE903AA7F8FD
:1042A000BA30914B1B681C221A70B7F8BA301B0A3F
:1042B0009AB28D4B1B68D2B25A708B4B1B68B7F801
:1042C000BA20D2B29A70032000F04AF93EE1894B3D
:1042D000D3ED037A9FED867A67EE877AFCEEE77A74
:1042E00017EE903AA7F8BC307F4B1B681D221A705E
:1042F000B7F8BC301B0A9AB27B4B1B68D2B25A701B
:10430000794B1B68B7F8BC20D2B29A70032000F03A
:1043100027F91BE1002387F84B30774B1B685B7B49
:104320001A46754B1B689B7B1B021A43724B1B681A
:10433000DB7B1B041A43704B1B681B7C1B0613435F
:104340007B647B6C07EE903AB8EEE77ADFED6B6A40
:10435000C7EE267AC7ED107A97ED100A614805F08E
:1043600089FF034687F84B305F4B1B680C221A709D
:1043700097F84B30002B04D05B4B1B6800225A741B
:1043800003E0594B1B6801225A74122000F0E8F830
:10439000DCE0002387F853304FF00003FB6007F1A7
:1043A0000C0319464F4805F0DDFF034687F85330EC
:1043B000D7ED037A9FED517A67EE877AFDEEE77AC3
:1043C00017EE903AFB64484B1B680D221A7097F861
:1043D0005330002B04D0444B1B6800225A701AE063
:1043E000414B1B6801225A703F4B1B68FA6CD2B2DA
:1043F0009A73FB6C1A123C4B1B68D2B2DA73FB6CDB
:104400001A14394B1B68D2B21A74FB6C1A16364B4D
:104410001B68D2B25A74122000F0A2F896E0002372
:1044200087F85530344B1B685B78002B14BF012391
:10443000002387F8543097F85430002B03D0304BCA
:1044400001221A7009E097F8543083F00103DBB2BF
:10445000002B02D02A4B00221A7097F854301946CC
:10446000204805F0E5FF034687F855301E4B1B68D2
:104470000E221A7097F85530002B04D01A4B1B6887
:1044800000229A7003E0184B1B6801229A700320E7
:1044900000F066F85AE0144B1B6811221A70124B98
:1044A0001B68184A92785A700F4B1B68154A12788D
:1044B0009A700D4B1B68134A5278DA700A4B1B68CE
:1044C000104AD2781A71084B1B680E4A12795A7139
:1044D000054B1B680B4A52799A71072000F040F88F
:1044E00034E000BF4C4E0020B8010020984E002060
:1044F0000000C842A84E0020BC01002000007A4401
:1045000050020020604D0020134B1B681E221A70C1
:10451000124BD3ED067AB2EE047A67EE877A0E4B31
:104520001B68FCEEE77AC7ED017A3A79D2B25A708D
:10453000022000F015F809E0FEF754FF064B1B6857
:1045400022221A70012000F00BF800BF0123184648
:10455000C037BD4680BD00BFB8010020704E0020AE
:1045600080B58CB000AF0346FB711E4BCA221A7097
:104570001D4B1A781B4B5A701A4B02229A70194A1B
:10458000FB79D370174B07221A71164BEF2283F871
:104590000021144BDB780433DBB21A4613490020A8
:1045A00006F0B4F903461A460E4BA3F8FE2007F1B5
:1045B0000C0323220021184608F074FA07F10B02BD
:1045C00007F10C031946074806F0ECF9FA7A07F1EF
:1045D0000C031946064808F0C9F800BF3037BD463D
:1045E00080BD00BF4C470020DC4E00204D4700201E
:1045F000E01E002080B584B004AF4FF4A0530393B5
:104600004FF4A0530293124B0193124B00932523B6
:10461000114A1249124808F018F8124B124A5A600F
:10462000104B4FF480621A800E4B00221A810D4B02
:104630001B88002B06D00B4B5B6804220021184618
:1046400008F030FA012006F09DF900BFBD4680BD9C
:104650004C3300204C1F0020001001405CE100089A
:10466000E01E0020544900206049002080B584B03D
:1046700000AF78600023FB733223FB7347E02A48C6
:1046800008F028F80346DAB2284B9A72274B9B7A37
:10469000DBB2CA2B03D1254B00221A8134E0234B15
:1046A0009B7ADBB2EF2B14D1204B5B681F4A128937
:1046B00092B2D1B21E4A184606F0AAFA0346BB735C
:1046C000BB7B012B01D1FEF7A3FE184B00221A8100
:1046D0001AE0164B5B68154A128992B21344134ACA
:1046E000927AD2B21A70114B1B899BB201339AB2E3
:1046F0000E4B1A810D4B1B899AB20C4B1B889A42A8
:1047000002D90A4B00221A81FB7B013BFB7306484E
:1047100008F04AF80346002B02D0FB7B002BAED1F9
:1047200000BF1037BD4680BDE01E00205449002068
:104730005048002080B500AF9FED0A0A0A4A0B4995
:104740000B4806F055F80B4B0122DA709FED050A75
:10475000094A0649094806F04BF8064B01221A712E
:1047600000BF80BD00404E450F00F0000021014019
:10477000A84E0020604D00200E00C000984E002082
:1047800080B584B002AF0023FB714FF40073009337
:10479000274B4FF480722649264807F0F7F94FF46B
:1047A00000730093244B4FF480722449244807F08F
:1047B000EDF9C82003F0A8FA22491E4806F097FD3B
:1047C00021491F4806F093FD1A49204805F097FE3D
:1047D0000346FB71FB79002B03D11D4B01221A709C
:1047E00002E01B4B00221A7015491A4805F034FBF1
:1047F0000346FB71FB79002B03D1154B01229A7004
:1048000002E0134B00229A700A49134805F0FEFBA0
:104810000346FB71FB79002B03D10D4B01225A702B
:1048200002E00B4B00225A7000BF0837BD4680BD26
:1048300000040240684D00200008024000000240D1
:10484000804D002000540040005C0040B04D00202E
:10485000604D0020DC4D00204C4E002080B584B01F
:1048600002AF4FF400630093114B4FF48062104984
:10487000104807F08BF91049104806F038FDC820A1
:1048800003F042FA0123FB710C490D4804F0FAFED3
:104890000346FB71FB79002B03D10A4B01225A71AD
:1048A00002E0084B00225A7100BF0837BD4680BDA8
:1048B00000040240804D002000580040984D002028
:1048C000704E0020604D002080B582B000AF78604F
:1048D000094805F0E9FFF0EE407A074BC3ED037A93
:1048E000064805F0E1FFF0EE407A044BC3ED037A91
:1048F00000BF0837BD4680BD984E0020A84E00205E
:1049000080B586B002AF78600023FB73514B1B78F3
:10491000042B00F2968001A252F823F031490008DE
:10492000B549000873490008F74900081D4A000806
:10493000494B1B78002B18D0484805F01BFE034656
:10494000FB73FB7B002B0DD0454B1B780133DAB298
:10495000434B1A70424B1B78032B06D93D4B032265
:104960001A7072E03E4B00221A703A4B02221A7003
:104970006BE0394B9B78002B18D03A4805F0D1FA00
:104980000346FB73FB7B002B0DD0374B1B780133A9
:10499000DAB2354B1A70344B1B78012B06D92D4BEC
:1049A00004221A7051E0304B00221A70294B012268
:1049B0001A704AE0284B5B78002B18D02B4805F082
:1049C000E5FB0346FB73FB7B002B0DD0244B1B78D0
:1049D0000133DAB2224B1A70214B1B78032B06D914
:1049E0001C4B03221A7030E01D4B00221A70194B29
:1049F00000221A7029E04FF4007300931C4B4FF40F
:104A000080721B491B4807F0C1F800F039FE144BB7
:104A100000221A700F4B02221A7016E04FF4007336
:104A20000093154B4FF480721449154807F0AEF807
:104A300000F032FE0C4B00221A70064B01221A7055
:104A400003E0044B00221A7000BF00BF1037BD46C0
:104A500080BD00BF664D0020604D0020B04D00209D
:104A6000B84E0020DC4D0020B94E00204C4E0020F6
:104A700000040240684D002000080240000002408F
:104A8000804D00200000000080B586B002AF786045
:104A9000A14B5B79002B00F02B810023FB739F4B14
:104AA0001B78062B00F2318101A252F823F000BFDF
:104AB000CD4A0008294B0008A14B0008FB4B000819
:104AC000374C00088F4C0008CB4C00088023009323
:104AD0004FF480734FF400724FF48041904804F01B
:104AE000F5FD0346FB73FB7B002B04D18C4804F0DF
:104AF00035FE0346FB73FB7B002B0ED0894B1B78E6
:104B00000133DAB2874B1A70864B1B78012B40F2C7
:104B1000F180824B06221A70ECE0824B00221A7060
:104B20007E4B01221A70E5E04FF00003BB6007F1F5
:104B3000080319467A4804F06BFE0346FB73D7ED71
:104B4000027A9FED797AC7EE876A16EE900AFBF734
:104B50000BFD6FA3D3E90023FBF75EFD02460B4676
:104B600010461946FCF712F803466D4A9361FB7B29
:104B7000002B0ED06B4B1B780133DAB2694B1A70E5
:104B8000684B1B78012B40F2B780644B06221A70E9
:104B9000B2E0644B00221A70604B02221A70ABE044
:104BA000802300934FF4807300224FF4A0415C48AF
:104BB00004F08CFD0346FB73FB7B002B04D15848AB
:104BC00004F0CCFD0346FB73FB7B002B0ED0554B52
:104BD0001B780133DAB2534B1A70524B1B78012BFE
:104BE00040F28C804D4B06221A7087E04D4B00221C
:104BF0001A704A4B03221A7080E04C49484804F06E
:104C000007FE0346FB73FB7B002B0DD0454B1B7847
:104C10000133DAB2434B1A70424B1B78012B6FD928
:104C20003E4B06221A706BE03E4B00221A703B4B43
:104C300004221A7064E0802300934FF480730022F2
:104C40004FF4C041364804F041FD0346FB73FB7B43
:104C5000002B04D1324804F081FD0346FB73FB7B3B
:104C6000002B0DD02F4B1B780133DAB22D4B1A706D
:104C70002C4B1B78012B45D9284B06221A7041E09A
:104C8000284B00221A70254B05221A703AE0284959
:104C9000234804F0BDFD0346FB73FB7B002B0DD0C6
:104CA000204B1B780133DAB21E4B1A701D4B1B7858
:104CB000012B29D9194B06221A7025E0194B002225
:104CC0001A70164B00221A701EE04FF40063009316
:104CD000184B4FF480621749174806F057FF00F051
:104CE000D5FC104B00221A700C4B00221A700CE0FD
:104CF00000BF0AE000BF08E000BF06E000BF04E01C
:104D000000BF02E000BF00E000BF1037BD4680BD1D
:104D10004C1AA37554551140604D0020674D00207A
:104D2000704E0020BA4E002000007A448C4E0020C5
:104D3000904E002000040240984D002080B485B0C1
:104D400000AF78607B6803F00703FB600C4BDB6807
:104D5000BB60BA684FF6FF031340BB60FB681A02E2
:104D6000BB68134343F0BF6343F40033BB60044AA2
:104D7000BB68D36000BF1437BD465DF8047B704745
:104D800000ED00E080B400AF044BDB681B0A03F0C9
:104D900007031846BD465DF8047B704700ED00E050
:104DA00080B483B000AF0346FB7197F90730002B46
:104DB0000BDBFB7903F01F02074997F907305B090A
:104DC000012000FA02F241F8232000BF0C37BD4653
:104DD0005DF8047B704700BF00E100E080B483B061
:104DE00000AF03463960FB7197F90730002B0ADBEF
:104DF0003B68DAB20C4997F907301201D2B20B4482
:104E000083F800230AE03B68DAB20849FB7903F033
:104E10000F03043B1201D2B20B441A7600BF0C37C9
:104E2000BD465DF8047B704700E100E000ED00E066
:104E300080B489B000AFF860B9607A60FB6803F0B5
:104E40000703FB61FB69C3F10703042B28BF04239D
:104E5000BB61FB690433062B02D9FB69033B00E00D
:104E600000237B614FF0FF32BB6902FA03F3DA43A0
:104E7000BB681A407B699A404FF0FF317B6901FAA9
:104E800003F3D9437B680B40134318462437BD46D0
:104E90005DF8047B704780B489B000AFF860B960FA
:104EA0007A60FB682C331946BB6803F440734FF4F7
:104EB00040727A617A6992FAA2F23A613A69BA6109
:104EC000BA69002A01D1202203E0BA69B2FA82F25B
:104ED000D2B2D3409B000B44FB61FB691A68BB68EC
:104EE00003F01F031F2101FA03F3DB431A407B6821
:104EF00003F01F01BB6803F01F0301FA03F31A4319
:104F0000FB691A6000BF2437BD465DF8047B70471B
:104F100080B483B000AF786039607B689B6823F40D
:104F200080623B681A437B689A6000BF0C37BD46BD
:104F30005DF8047B704780B48FB000AFF860B96053
:104F40007A60FB680C331946BB6803F000734FF0BE
:104F500000727A617A6992FAA2F23A613A69BA61A8
:104F6000BA69002A01D1202203E0BA69B2FA82F2BA
:104F7000D2B2D3409B000B447B637B6B1A68BB6847
:104F800003F0F8734FF0F8713962396A91FAA1F1C0
:104F9000F961F9697962796A002901D1202103E078
:104FA000796AB1FA81F1C9B2CB40072101FA03F362
:104FB000DB431A40BB6803F0F8734FF0F871F962F5
:104FC000F96A91FAA1F1B962B96A3963396B0029BA
:104FD00001D1202103E0396BB1FA81F1C9B2CB4094
:104FE000796801FA03F31A437B6B1A6000BF3C3700
:104FF000BD465DF8047B704780B483B000AF786035
:105000007B681B6823F080027B681A6000BF0C3746
:10501000BD465DF8047B704780B483B000AF786014
:105020007B681B6823F040027B681A6000BF0C3766
:10503000BD465DF8047B704780B483B000AF7860F4
:1050400039607B68DB6823F0FE023B681A437B68AB
:10505000DA6000BF0C37BD465DF8047B704780B452
:1050600083B000AF78607B68DB6823F001027B6867
:10507000DA6000BF0C37BD465DF8047B7047000066
:1050800080B400AF054B1B68044A43F480331360BF
:1050900000BFBD465DF8047B704700BF003802408A
:1050A00080B400AF074B1B6803F40033B3F5003F37
:1050B0000CBF01230023DBB21846BD465DF8047B1C
:1050C000704700BF0038024080B483B000AF786002
:1050D000064B9B6823F0030204497B6813438B60F3
:1050E00000BF0C37BD465DF8047B704700380240B6
:1050F00080B400AF044B9B6803F00C031846BD4618
:105100005DF8047B704700BF0038024080B483B074
:1051100000AF7860064B9B6823F0F00204497B687F
:1051200013438B6000BF0C37BD465DF8047B7047AE
:105130000038024080B483B000AF7860064B9B68B3
:1051400023F4E05204497B6813438B6000BF0C37A3
:10515000BD465DF8047B70470038024080B483B0E0
:1051600000AF7860064B9B6823F4604204497B687B
:1051700013438B6000BF0C37BD465DF8047B70475E
:105180000038024080B400AF054B1B68044A43F06E
:105190008073136000BFBD465DF8047B704700BF9D
:1051A0000038024080B400AF074B1B6803F0007367
:1051B000B3F1007F0CBF01230023DBB21846BD46CC
:1051C0005DF8047B704700BF0038024080B485B0B2
:1051D00000AFF860B9607A603B600D4B5A680D4BC8
:1051E0001340F968BA6811437A6892010A43084982
:1051F00013434B60064B5B6823F4403204493B6821
:1052000013434B6000BF1437BD465DF8047B704705
:10521000003802400080BFFF80B485B000AF7860E6
:10522000084B1A6B07497B6813430B63054B1A6BDA
:105230007B681340FB60FB6800BF1437BD465DF818
:10524000047B70470038024080B485B000AF7860BE
:10525000084B1A6C07497B6813430B64054B1A6CA7
:105260007B681340FB60FB6800BF1437BD465DF8E8
:10527000047B70470038024080B485B000AF78608E
:10528000084B5A6C07497B6813434B64054B5A6CB7
:105290007B681340FB60FB6800BF1437BD465DF8B8
:1052A000047B70470038024080B487B000AF78605C
:1052B0003960174A3B68DBB2023352F823203B685F
:1052C0001B0CDB4302EA03013B681B0C3B613B699F
:1052D00093FAA3F3FB60FB687B617B69002B01D130
:1052E000202303E07B69B3FA83F3DBB21A467B68C1
:1052F00003FA02F206483B68DBB20A43023340F885
:10530000232000BF1C37BD465DF8047B704700BFFB
:105310000038014080B483B000AF7860064B1B6852
:1053200023F0070204497B6813430B6000BF0C376E
:10533000BD465DF8047B7047003C024080B400AF7E
:10534000044B1B6803F007031846BD465DF8047B59
:10535000704700BF003C024080B483B000AF78606B
:10536000064B1B6823F4804204497B6813430B609F
:1053700000BF0C37BD465DF8047B704700700040ED
:1053800080B400AF074B5B6803F48043B3F5804FF4
:105390000CBF01230023DBB21846BD465DF8047B39
:1053A000704700BF0070004080B483B000AF7860E9
:1053B0007B681B6823F080027B681A6000BF0C3793
:1053C000BD465DF8047B704780B485B000AF78605F
:1053D00039603B68012B1CD03B68042B17D03B681D
:1053E000102B12D03B68402B0DD03B68B3F5807F6B
:1053F00007D03B68B3F5806F01D105230AE006238F
:1054000008E0042306E0032304E0022302E0012372
:1054100000E00023FB737B6818331946FB7B0B4AC3
:10542000D35C0B44BB60BB681A68FB7B0849CB5C50
:10543000194604238B40DB431A40BB681A6000BF47
:105440001437BD465DF8047B704700BF18E40008C0
:1054500020E4000880B485B000AF786039603B6814
:10546000012B1CD03B68042B17D03B68102B12D0AB
:105470003B68402B0DD03B68B3F5807F07D03B687D
:10548000B3F5806F01D105230AE0062308E0042369
:1054900006E0032304E0022302E0012300E00023EE
:1054A000FB737B6818331946FB7B0A4AD35C0B44B9
:1054B000BB60BB681A68FB7B0749CB5C19460823B5
:1054C0008B401A43BB681A6000BF1437BD465DF8B5
:1054D000047B704718E4000820E4000880B483B01F
:1054E00000AF786039607B685B6823F070023B68CE
:1054F0001A437B685A6000BF0C37BD465DF8047BD9
:10550000704780B483B000AF78607B689B6823F0FD
:1055100080027B689A6000BF0C37BD465DF8047B53
:10552000704780B483B000AF78607B68DB6843F479
:1055300000527B68DA6000BF0C37BD465DF8047B23
:10554000704780B483B000AF78607B681B6923F438
:1055500090427B681A617B685B6923F02A027B6852
:105560005A6100BF0C37BD465DF8047B704780B4BC
:105570008BB000AFF860B9607A60FB681A68BB68EE
:105580007B617B6993FAA3F33B613B69BB61BB69B8
:10559000002B01D1202303E0BB69B3FA83F3DBB214
:1055A0005B00032101FA03F3DB431A40BB683B6253
:1055B0003B6A93FAA3F3FB61FB697B627B6A002B76
:1055C00001D1202303E07B6AB3FA83F3DBB25B00F3
:1055D000796801FA03F31A43FB681A6000BF2C379D
:1055E000BD465DF8047B704780B48BB000AFF860B7
:1055F000B9607A60FB68DA68BB687B617B6993FAA3
:10560000A3F33B613B69BB61BB69002B01D1202344
:1056100003E0BB69B3FA83F3DBB25B00032101FA59
:1056200003F3DB431A40BB683B623B6A93FAA3F384
:10563000FB61FB697B627B6A002B01D1202303E0C5
:105640007B6AB3FA83F3DBB25B00796801FA03F398
:105650001A43FB68DA6000BF2C37BD465DF8047B57
:10566000704780B483B000AF786039603B681A043B
:105670007B689A6100BF0C37BD465DF8047B7047BC
:1056800080B500AF00F082F900BF80BD80B500AFEB
:1056900000F0D4F900BF80BD80B500AF00F026FA5D
:1056A00000BF80BD80B500AF4FF48040FFF7E4FD40
:1056B0004FF08050FFF7C8FD0320FFF73FFBFFF7D7
:1056C00061FB034600220F211846FFF7B1FB03469A
:1056D00019464FF0FF30FFF781FB00F019F800F09A
:1056E00055FC00F05DF800F06FFA00F003FB00F0ED
:1056F000DDFB00F06BFB00F049F900F0F7F900F07A
:10570000D3F800F09BF9FBF727FC00BFFDE7000092
:1057100080B500AF0120FFF7FDFD00BFFFF70EFED3
:105720000346012BFAD14FF48040FFF715FEFFF737
:10573000A7FC00BFFFF7B4FC0346012BFAD10023FE
:10574000482204214FF48000FFF740FDFFF71AFDC7
:1057500000BFFFF727FD0346012BFAD100BFFFF77B
:105760000FFE0346002BFAD08020FFF7CFFC00206D
:10577000FFF7E0FC0020FFF7F1FC0220FFF7A4FC9C
:1057800000BFFFF7B5FC0346082BFAD1034802F02F
:10579000ADFA024802F0DEFA00BF80BD00512502DA
:1057A00080B592B000AF07F13C0300221A605A6046
:1057B0009A6007F1280300221A605A609A60DA6042
:1057C0001A6107F1180300221A605A609A60DA60C1
:1057D0003B4600221A605A609A60DA601A615A6188
:1057E0004FF48070FFF748FD0420FFF715FD0523F7
:1057F0003B6003237B6000233B613B4619462748FF
:1058000001F0FAF8FFF7BEFA03460022032118461A
:10581000FFF70EFB034619461220FFF7DFFA1220AE
:10582000FFF7BEFA0023FB6300233B6400237B6485
:1058300007F13C0319461A4800F00EFE0023BB6234
:105840000023FB6200233B6300237B630023BB63D5
:1058500007F128031946124800F02AFE4FF4806130
:105860000F48FFF755FB4FF48033BB610023FB610A
:1058700007F1180319460B4800F0A6FD0A224FF461
:1058800000710748FFF707FB00220A210448FFF7D1
:1058900052FB00BF4837BD4680BD00BF0008024034
:1058A000002001400023014080B58EB000AF07F119
:1058B0002C0300221A605A609A6007F11803002234
:1058C0001A605A609A60DA601A613B4600221A60D8
:1058D0005A609A60DA601A615A614FF40070FFF7FB
:1058E000CBFC0420FFF798FC30233B6003237B6054
:1058F00000233B613B461946214801F07DF8FFF744
:1059000041FA0346002203211846FFF791FA0346A5
:1059100019461220FFF762FA1220FFF741FA00231E
:10592000FB6200233B6300237B6307F12C031946D2
:10593000144800F091FD0023BB610023FB610023AC
:105940003B6200237B620023BB6207F11803194608
:105950000C4800F0ADFD4FF480610A48FFF7D8FA1B
:10596000094A4FF400710748FFF795FA00220649EB
:105970000448FFF7E0FA00BF3837BD4680BD00BFDE
:1059800000080240002101400E00C00080B58CB02C
:1059900000AF07F1180300221A605A609A60DA60BB
:1059A0001A615A613B4600221A605A609A60DA60B6
:1059B0001A615A610220FFF72FFC4FF440733B60DD
:1059C00002237B600323BB600123FB6000233B6158
:1059D00004237B613B461946164801F00DF84FF44D
:1059E0000010FFF731FC1448FFF739FB1248FFF7AE
:1059F00013FB1148FFF700FB0023BB614CF250334F
:105A0000FB6100233B6200237B624FF48063BB6237
:105A10004FF48043FB6207F118031946064801F072
:105A2000C3F900210448FFF707FB00BF3037BD462C
:105A300080BD00BF000402400054004080B58CB01F
:105A400000AF07F1180300221A605A609A60DA600A
:105A50001A615A613B4600221A605A609A60DA6005
:105A60001A615A610220FFF7D7FB4FF440633B6095
:105A700002237B600323BB600123FB6000233B61A7
:105A800004237B613B461946154800F0B5FF4FF4EF
:105A90008000FFF7D9FB1348FFF7E1FA1148FFF741
:105AA000BBFA1048FFF7A8FA0023BB610E4BFB615D
:105AB00000233B6200237B624FF48063BB624FF4A0
:105AC0008043FB6207F118031946064801F06CF9A0
:105AD00000210448FFF7B0FA00BF3037BD4680BD53
