:020000040800F2
:1000000000000220215A0008915800089958000861
:10001000A1580008A9580008B158000800000000C5
:10002000000000000000000000000000B9580008B7
:10003000C758000800000000D5580008E55800081F
:10004000715A0008715A0008715A0008715A000864
:10005000715A0008715A0008715A000801590008C5
:100060001F5900083D590008715A0008715A0008CC
:10007000715A0008715A0008715A0008715A000834
:10008000715A0008715A00085B590008715A00083B
:10009000715A0008715A0008715A0008715A000814
:1000A000715A0008715A0008715A0008715A000804
:1000B000715A0008715A0008715A0008715A0008F4
:1000C000715A0008715A0008715A0008715A0008E4
:1000D000715A000869590008715A0008715A0008DD
:1000E000715A0008715A0008715A0008715A0008C4
:1000F000715A0008715A0008715A0008715A0008B4
:10010000715A0008715A0008715A0008715A0008A3
:10011000715A0008715A0008715A0008715A000893
:10012000715A0008715A0008715A0008715A000883
:10013000715A00080000000000000000715A000819
:10014000715A0008715A0008715A0008715A000863
:10015000715A0008715A0008715A00087D59000848
:10016000715A0008715A0008715A0008715A000843
:10017000715A0008715A00080000000000000000D9
:08018000715A0008715A0008D1
:1001900010B5054C237833B9044B13B10448AFF3C1
:1001A00000800123237010BD4002002000000000E9
:1001B00038C4000808B5034B1BB103490348AFF32B
:1001C000008008BD000000004402002038C4000880
:1001D00010F8012B11F8013B012A28BF9A42F7D0F1
:1001E000D01A7047034613F8012B002AFBD1181AC6
:1001F000013870470000000000000000000000000F
:1002000001F0FF01102A2BDB10F0070F08D010F8C7
:10021000013B013A8B422DD010F0070F42B3F6D1CB
:10022000F0B441EA012141EA014122F007047FF0E4
:1002300000070023F0E80256083C85EA010586EA3B
:10024000010685FA47F5A3FA87F586FA47F6A5FA77
:1002500087F68EB9EED1F0BC01F0FF0102F0070283
:1002600032B110F8013B013A83EA010313B1F8D12E
:100270000020704701387047002D06BF354603380F
:10028000073815F0010F07D1013015F4807F02BF48
:10029000013015F4C03F0130F0BC0138704700BF99
:1002A00081F0004102E000BF83F0004330B54FEA27
:1002B00041044FEA430594EA050F08BF90EA020F94
:1002C0001FBF54EA000C55EA020C7FEA645C7FEA27
:1002D000655C00F0E2804FEA5454D4EB5555B8BF4A
:1002E0006D420CDD2C4480EA020281EA030382EABB
:1002F000000083EA010180EA020281EA0303362D4D
:1003000088BF30BD11F0004F4FEA01314FF4801C1F
:100310004CEA113102D0404261EB410113F0004F31
:100320004FEA03334CEA133302D0524263EB4303E8
:1003300094EA050F00F0A780A4F10104D5F1200E86
:100340000DDB02FA0EFC22FA05F2801841F10001E1
:1003500003FA0EF2801843FA05F359410EE0A5F1B5
:1003600020050EF1200E012A03FA0EFC28BF4CF0E6
:10037000020C43FA05F3C01851EBE37101F000459C
:1003800007D54FF0000EDCF1000C7EEB00006EEBA9
:100390000101B1F5801F1BD3B1F5001F0CD3490833
:1003A0005FEA30004FEA3C0C04F101044FEA44528A
:1003B00012F5800F80F09A80BCF1004F08BF5FEA11
:1003C000500C50F1000041EB045141EA050130BDF1
:1003D0005FEA4C0C404141EB0101013C28BFB1F503
:1003E000801FE9D291F0000F04BF01460020B1FA4E
:1003F00081F308BF2033A3F10B03B3F120020CDA21
:100400000C3208DD02F1140CC2F10C0201FA0CF0FE
:1004100021FA02F10CE002F11402D8BFC2F1200C63
:1004200001FA02F120FA0CFCDCBF41EA0C01904019
:10043000E41AA2BF01EB0451294330BD6FEA040462
:100440001F3C1CDA0C340EDC04F11404C4F120024D
:1004500020FA04F001FA02F340EA030021FA04F35F
:1004600045EA030130BDC4F10C04C4F1200220FAB6
:1004700002F001FA04F340EA0300294630BD21FAF4
:1004800004F0294630BD94F0000F83F4801306BFBA
:1004900081F480110134013D4EE77FEA645C18BFAE
:1004A0007FEA655C29D094EA050F08BF90EA020F45
:1004B00005D054EA000C04BF1946104630BD91EA3D
:1004C000030F1EBF0021002030BD5FEA545C05D140
:1004D0004000494128BF41F0004130BD14F580047F
:1004E0003CBF01F5801130BD01F0004545F0FE41F3
:1004F00041F470014FF0000030BD7FEA645C1ABF28
:10050000194610467FEA655C1CBF0B46024650EA5E
:10051000013406BF52EA033591EA030F41F400218A
:1005200030BD00BF90F0000F04BF0021704730B510
:100530004FF4806404F132044FF000054FF00001E5
:1005400050E700BF90F0000F04BF0021704730B5A6
:100550004FF4806404F1320410F0004548BF40427B
:100560004FF000013EE700BF42004FEAE2014FEAD0
:1005700031014FEA02701FBF12F07F4393F07F4FAB
:1005800081F06051704732F07F4208BF704793F0AE
:100590007F4F04BF41F40021704730B54FF46074C1
:1005A00001F0004521F000411CE700BF50EA0102C4
:1005B00008BF704730B54FF000050AE050EA01026D
:1005C00008BF704730B511F0004502D5404261EBDD
:1005D00041014FF4806404F132045FEA915C3FF41E
:1005E000D8AE4FF003025FEADC0C18BF03325FEABB
:1005F000DC0C18BF033202EBDC02C2F1200300FA6C
:1006000003FC20FA02F001FA03FE40EA0E0021FA90
:1006100002F11444BDE600BF70B54FF0FF0C4CF47E
:10062000E06C1CEA11541DBF1CEA135594EA0C0F30
:1006300095EA0C0F00F0DEF82C4481EA030621EA6B
:100640004C5123EA4C5350EA013518BF52EA0335A6
:1006500041F4801143F4801338D0A0FB02CE4FF058
:100660000005E1FB02E506F00042E0FB03E54FF088
:100670000006E1FB03569CF0000F18BF4EF0010E80
:10068000A4F1FF04B6F5007F64F5407404D25FEA7C
:100690004E0E6D4146EB060642EAC62141EA55512F
:1006A0004FEAC52040EA5E504FEACE2EB4F1FD0C71
:1006B00088BFBCF5E06F1ED8BEF1004F08BF5FEAEF
:1006C000500E50F1000041EB045170BD06F00046A1
:1006D00046EA010140EA020081EA0301B4EB5C044E
:1006E000C2BFD4EB0C0541EA045170BD41F4801146
:1006F0004FF0000E013C00F3AB8014F1360FDEBF6B
:10070000002001F0004170BDC4F10004203C35DA46
:100710000C341BDC04F11404C4F1200500FA05F3C9
:1007200020FA04F001FA05F240EA020001F000426A
:1007300021F0004110EBD37021FA04F642EB0601E0
:100740005EEA430E08BF20EAD37070BDC4F10C040A
:10075000C4F1200500FA04F320FA05F001FA04F2CE
:1007600040EA020001F0004110EBD37041F10001BA
:100770005EEA430E08BF20EAD37070BDC4F12005C5
:1007800000FA05F24EEA020E20FA04F301FA05F22D
:1007900043EA020321FA04F001F0004121FA04F2D5
:1007A00020EA020000EBD3705EEA430E08BF20EAA5
:1007B000D37070BD94F0000F0FD101F000464000DF
:1007C00041EB010111F4801F08BF013CF7D041EA61
:1007D000060195F0000F18BF704703F00046520065
:1007E00043EB030313F4801F08BF013DF7D043EA36
:1007F0000603704794EA0C0F0CEA135518BF95EAEC
:100800000C0F0CD050EA410618BF52EA4306D1D172
:1008100081EA030101F000414FF0000070BD50EA91
:10082000410606BF1046194652EA430619D094EA1B
:100830000C0F02D150EA013613D195EA0C0F05D105
:1008400052EA03361CBF104619460AD181EA030159
:1008500001F0004141F0FE4141F470014FF0000011
:1008600070BD41F0FE4141F4780170BD70B54FF0AC
:10087000FF0C4CF4E06C1CEA11541DBF1CEA13552C
:1008800094EA0C0F95EA0C0F00F0A7F8A4EB05040E
:1008900081EA030E52EA03354FEA013100F0888005
:1008A0004FEA03334FF0805545EA131343EA1263CE
:1008B0004FEA022245EA111545EA10654FEA002683
:1008C0000EF000419D4208BF964244F1FD0404F53C
:1008D000407402D25B084FEA3202B61A65EB030598
:1008E0005B084FEA32024FF480104FF4002CB6EB55
:1008F000020E75EB030E22BFB61A754640EA0C00D5
:100900005B084FEA3202B6EB020E75EB030E22BF14
:10091000B61A754640EA5C005B084FEA3202B6EB55
:10092000020E75EB030E22BFB61A754640EA9C0014
:100930005B084FEA3202B6EB020E75EB030E22BFE4
:10094000B61A754640EADC0055EA060E18D04FEAA2
:10095000051545EA16754FEA06164FEAC30343EA42
:1009600052734FEAC2025FEA1C1CC0D111F4801F0F
:100970000BD141EA00014FF000004FF0004CB6E708
:1009800011F4801F04BF01430020B4F1FD0C88BFA7
:10099000BCF5E06F3FF6AFAEB5EB030C04BFB6EBB2
:1009A000020C5FEA500C50F1000041EB045170BDA5
:1009B0000EF0004E4EEA113114EB5C04C2BFD4EBD2
:1009C0000C0541EA045170BD41F480114FF0000E56
:1009D000013C90E645EA060E8DE60CEA135594EAD2
:1009E0000C0F08BF95EA0C0F3FF43BAF94EA0C0FD5
:1009F0000AD150EA01347FF434AF95EA0C0F7FF44A
:100A000025AF104619462CE795EA0C0F06D152EA9D
:100A100003353FF4FDAE1046194622E750EA410681
:100A200018BF52EA43067FF4C5AE50EA41047FF492
:100A30000DAF52EA43057FF4EBAE12E74FF0FF3CF7
:100A400006E000BF4FF0010C02E000BF4FF0010CC8
:100A50004DF804CD4FEA410C7FEA6C5C4FEA430C41
:100A600018BF7FEA6C5C1BD001B050EA410C0CBF90
:100A700052EA430C91EA030F02BF90EA020F0020F2
:100A8000704710F1000F91EA030F58BF994208BF59
:100A900090422CBFD8176FEAE37040F00100704716
:100AA0004FEA410C7FEA6C5C02D150EA013C07D16D
:100AB0004FEA430C7FEA6C5CD6D152EA033CD3D0B8
:100AC0005DF8040B704700BF8446104662468C46B2
:100AD0001946634600E000BF01B5FFF7B7FF0028E5
:100AE00048BF10F1000F01BD4DF808EDFFF7F4FF0E
:100AF0000CBF012000205DF808FB00BF4DF808ED99
:100B0000FFF7EAFF34BF012000205DF808FB00BFBB
:100B10004DF808EDFFF7E0FF94BF012000205DF8DD
:100B200008FB00BF4DF808EDFFF7CEFF94BF012092
:100B300000205DF808FB00BF4DF808EDFFF7C4FF8B
:100B400034BF012000205DF808FB00BF4A0011D22D
:100B500012F5001211D20DD56FF47873B3EB625217
:100B60000ED44FEAC12343F0004343EA505323FA23
:100B700002F070474FF00000704750EA013002D198
:100B80004FF0FF3070474FF00000704753B94AB93B
:100B9000002908BF00281CBF4FF0FF314FF0FF3085
:100BA00000F088B9ADF1080C6DE904CE00F006F84C
:100BB000DDF804E0DDE9022304B070472DE9F047D9
:100BC000089D8E4604468846002B4AD18A42174625
:100BD00062D9B2FA82F64EB1C6F1200301FA06F8E4
:100BE00020FA03F3B74043EA0808B4404FEA174E2F
:100BF0001FFA87FCB8FBFEF1230C0EFB118843EAB9
:100C0000084301FB0CF29A4209D9FB1801F1FF30AD
:100C100080F0EA809A4240F2E78002393B449A1A17
:100C2000A3B2B2FBFEF00EFB102243EA024300FB2C
:100C30000CFC9C4509D9FB1800F1FF3280F0D680EE
:100C40009C4540F2D3803B44023840EA0140A3EB8C
:100C50000C0300211DB1F3400022C5E90032BDE8BC
:100C6000F0878B4205D90DB1C5E900010021084686
:100C7000F5E7B3FA83F1002946D1734502D38242E6
:100C800000F20581841A6EEB030201209046002DCC
:100C9000E5D0C5E90048E2E7002A00F09080B2FA0A
:100CA00082F6002E40F0A4808A1A030C4FEA174EF9
:100CB00080B2BCB20121B2FBFEFC0EFB1C2243EA57
:100CC000024304FB0CF29A4207D9FB180CF1FF38DF
:100CD00002D29A4200F2E080C4469B1AB3FBFEF2B5
:100CE0000EFB123340EA034302FB04F49C4207D993
:100CF000FB1802F1FF3002D29C4200F2CA80024689
:100D00001B1B42EA0C40A5E7C1F120068B4022FAEA
:100D100006F71F430EFA01F420FA06F32EFA06FE38
:100D20004FEA1749234300FA01F81FFA87FCBEFB7C
:100D3000F9F01C0C09FB10EE44EA0E4400FB0CFE1B
:100D4000A64502FA01F209D93C1900F1FF3A80F0F8
:100D50009C80A64540F2998002383C44A4EB0E04E6
:100D60001FFA83FEB4FBF9F309FB13444EEA044473
:100D700003FB0CFCA44508D93C1903F1FF3E80F0AD
:100D80008280A4457FD9023B3C4443EA0040A4EB67
:100D90000C04A0FB02EC64457346E14662D35FD0CD
:100DA0005DB1B8EB030264EB090404FA06F622FA1B
:100DB00001F31E43CC40C5E9006400214FE7B1FBBD
:100DC000F2FC010C41EA0E4180B240EA01423B468E
:100DD00038463C46B846BE462026B1FBF7F1A2EBAA
:100DE000080241EA0C4166E7014618E710462CE785
:100DF000C6F120022EFA02F3B740B14020FA02F207
:100E00004FEA174E0A43B3FBFEF8BCB20EFB183391
:100E1000110C41EA034108FB04F9B04089454FEA4F
:100E2000104380B23ED9791808F1FF3C01D28945C0
:100E30001FD8A1EB0901B1FBFEF909FB04F80EFB79
:100E4000191192B242EA0142424529D2BA1809F177
:100E5000FF31C4D24245C2D2A9F102013A44BEE7F1
:100E6000F0459DD2BEEB02036CEB070C0138E14666
:100E700096E7A7EB09094944A8F1020CB1FBFEF97A
:100E800009FB04F8DBE773467FE7504666E7084650
:100E9000FDE63B44023A33E7ACF1020C3B441CE76D
:100EA00049469CE7A1EB0901C446B1FBFEF909FBE9
:100EB00004F8C4E7704700BF80B500AF02F0E8F95E
:100EC00000F016FC03F03EFA42F2107009F0A0FDAB
:100ED00009F0C0FDFCE7000080B483B000AF78608B
:100EE000054B1B680133044A136000BF0C37BD4635
:100EF0005DF8047B704700BF5C02002080B500AF46
:100F0000094B1B78012B0CD1084B1B680F221A7060
:100F1000012000F00DF8044B00221A70002008F0A8
:100F20008FFA00BF80BD00BF60020020B00100202A
:100F300080B58CB000AF0346FB711E4BCA221A70FD
:100F40001D4B1A781B4B5A701A4B02229A70194A81
:100F5000FB79D370174B07221A71164BEF2283F8D7
:100F60000021144BDB780433DBB21A46134900200E
:100F700008F0BCFC03461A460E4BA3F8FE2007F10E
:100F80000C032322002118460AF00AFA07F10B028B
:100F900007F10C031946074808F0F4FCFA7A07F148
:100FA0000C03194606480AF05FF800BF3037BD460B
:100FB00080BD00BF60130020651800206113002071
:100FC000F40E002080B483B000AF786039607B6895
:100FD0005B6823F480723B681A437B685A6000BFE9
:100FE0000C37BD465DF8047B704780B483B000AF1A
:100FF000786039607B689B6823F070623B6803F01F
:1010000070631A437B689A6000BF0C37BD465DF879
:10101000047B704780B483B000AF786039607B6830
:10102000DB6A23F470023B681A437B68DA6200BF14
:101030000C37BD465DF8047B704780B489B000AFC3
:10104000F860B9607A60FB682C331946BB6803F41A
:1010500040734FF440727A617A6992FAA2F23A616F
:101060003A69BA61BA69002A01D1202203E0BA695B
:10107000B2FA82F2D2B2D3409B000B44FB61FB690F
:101080001A68BB6803F01F031F2101FA03F3DB4357
:101090001A407B6803F01F01BB6803F01F0301FACD
:1010A00003F31A43FB691A6000BF2437BD465DF89D
:1010B000047B704780B483B000AF786039607B6890
:1010C0009B6823F002023B681A437B689A6000BF6A
:1010D0000C37BD465DF8047B704780B483B000AF29
:1010E000786039607B689B6823F480623B681A43B0
:1010F0007B689A6000BF0C37BD465DF8047B704783
:1011000080B48FB000AFF860B9607A60FB680C33D0
:101110001946BB6803F000734FF000727A617A6978
:1011200092FAA2F23A613A69BA61BA69002A01D127
:10113000202203E0BA69B2FA82F2D2B2D3409B0015
:101140000B447B637B6B1A68BB6803F0F8734FF04A
:10115000F8713962396A91FAA1F1F961F969796234
:10116000796A002901D1202103E0796AB1FA81F17D
:10117000C9B2CB40072101FA03F3DB431A40BB6835
:1011800003F0F8734FF0F871F962F96A91FAA1F17E
:10119000B962B96A3963396B002901D1202103E0B2
:1011A000396BB1FA81F1C9B2CB40796801FA03F326
:1011B0001A437B6B1A6000BF3C37BD465DF8047B69
:1011C000704780B483B000AF78607B689B6843F061
:1011D00001027B689A6000BF0C37BD465DF8047B56
:1011E000704780B483B000AF78607B689B6823F061
:1011F00001027B689A6000BF0C37BD465DF8047B36
:10120000704780B483B000AF78607B689B6843F020
:1012100080427B689A6000BF0C37BD465DF8047B56
:10122000704780B483B000AF78607B68DB6C9BB2A2
:1012300018460C37BD465DF8047B704780B483B018
:1012400000AF78607B681B6803F00203022B0CBFC1
:1012500001230023DBB218460C37BD465DF8047B42
:10126000704780B483B000AF78607B681B6803F080
:101270002003202B0CBF01230023DBB218460C37C0
:10128000BD465DF8047B704780B483B000AF7860E2
:101290007B686FF002021A6000BF0C37BD465DF834
:1012A000047B704780B483B000AF78607B686FF0D8
:1012B00020021A6000BF0C37BD465DF8047B704702
:1012C00080B483B000AF78607B685B6843F0200235
:1012D0007B685A6000BF0C37BD465DF8047B7047E1
:1012E00080B483B000AF78607B685B6843F0806255
:1012F0007B685A6000BF0C37BD465DF8047B7047C1
:1013000080B483B000AF786039607B683A689A61D6
:1013100000BF0C37BD465DF8047B704780B483B0D6
:1013200000AF786039603B681A047B689A6100BF3F
:101330000C37BD465DF8047B704780B483B000AFC6
:1013400078607B681B6843F001027B681A6000BF0D
:101350000C37BD465DF8047B704780B483B000AFA6
:1013600078607B681B6823F002027B681A6000BF0C
:101370000C37BD465DF8047B704780B483B000AF86
:1013800078607B681B6843F002027B681A6000BFCC
:101390000C37BD465DF8047B704780B483B000AF66
:1013A00078607B681B6843F080027B681A6000BF2E
:1013B0000C37BD465DF8047B704780B483B000AF46
:1013C000786039607B683A689A6200BF0C37BD4626
:1013D0005DF8047B704780B483B000AF78607B68B1
:1013E0009B6A18460C37BD465DF8047B704780B495
:1013F00083B000AF786039607B683A68DA6200BF1A
:101400000C37BD465DF8047B704780B483B000AFF5
:10141000786039607B681A6A3B681A437B681A6295
:1014200000BF0C37BD465DF8047B704780B487B0C1
:1014300000AFF860B9607A60BB68012B1CD0BB6854
:10144000042B17D0BB68102B12D0BB68402B0DD0DB
:10145000BB68B3F5807F07D0BB68B3F5806F01D15F
:1014600005230AE0062308E0042306E0032304E042
:10147000022302E0012300E00023FB75FB68183320
:101480001946FB7D0E4AD35C0B443B613B691A68ED
:10149000FB7D0C49CB5C194673238B40DB431A4020
:1014A000FB7D0849CB5C19467B688B401A433B693E
:1014B0001A6000BF1C37BD465DF8047B704700BF53
:1014C00070CB000878CB000880B487B000AFF8601C
:1014D000B9607A60BB68012B1CD0BB68042B17D0A5
:1014E000BB68102B12D0BB68402B0DD0BB68B3F586
:1014F000807F07D0BB68B3F5806F01D105230AE078
:10150000062308E0042306E0032304E0022302E0AC
:10151000012300E00023FB75FB681A6AFB7D0B4981
:10152000CB5C194602238B40DB431A40FB7D074905
:10153000CB5C19467B688B401A43FB681A6200BF7C
:101540001C37BD465DF8047B704700BF80CB0008A8
:1015500080B485B000AF786039603B68012B1CD047
:101560003B68042B17D03B68102B12D03B68402BF4
:101570000DD03B68B3F5807F07D03B68B3F5806F33
:1015800001D105230AE0062308E0042306E0032333
:1015900004E0022302E0012300E00023FB737B68E8
:1015A00018331946FB7B0A4AD35C0B44BB60BB680B
:1015B0001A68FB7B0749CB5C194608238B401A430A
:1015C000BB681A6000BF1437BD465DF8047B7047E6
:1015D00070CB000878CB000880B483B000AF78608F
:1015E00039607B683A685A6300BF0C37BD465DF8C6
:1015F000047B704780B483B000AF786039607B684B
:101600003A689A6300BF0C37BD465DF8047B7047AB
:1016100080B483B000AF786039607B683A68DA6381
:1016200000BF0C37BD465DF8047B704780B483B0C3
:1016300000AF786039607B683A681A6400BF0C3785
:10164000BD465DF8047B704780B485B000AFF8609C
:10165000B9607A60FB685B6C23F44062B9687B68B0
:101660000B431A43FB685A6400BF1437BD465DF84C
:10167000047B704780B483B000AF78607B685B6C9C
:1016800023F480427B685A6400BF0C37BD465DF886
:10169000047B704780B483B000AF78607B685B6C7C
:1016A00043F400427B685A6400BF0C37BD465DF8C6
:1016B000047B704780B483B000AF78607B68DB68E0
:1016C00023F001027B68DA6000BF0C37BD465DF88D
:1016D000047B704780B400AF044B9B6803F4E05375
:1016E0001846BD465DF8047B704700BF00380240D5
:1016F000B0B5A4B000AF624B0833242200211846D5
:1017000009F04EFE5E4B01221A725D4B01225A72A5
:101710005B4B5C4ADA605A4B4FF07C521A61584B73
:10172000594A9A61564B594ADA61554B584A1A62DE
:10173000534B19225A85574B08332422002118464F
:1017400009F02EFE534B01221A72524B01225A729B
:10175000504B4C4ADA604F4B4FF07C521A614D4B64
:101760004D4A9A614B4B4D4ADA614A4B4C4A1A62D8
:10177000484B0A225A85424B4A4A03F12C0415462B
:101780000FCD0FC495E8070084E80700414B464A97
:1017900003F12C0415460FCD0FC495E8070084E82B
:1017A000070001F0D1FD0723C7F88830D7F888007B
:1017B00000F084FC3D4BC7F884303C4BC7F88030C8
:1017C000D7F88010D7F8840000F0C2FC00F088FD44
:1017D000002387F88F301DE0294BD96C97F88F20B4
:1017E00013465B0013445B000B441888244BD96CF0
:1017F00097F88F2013465B0013445B00CC1801461A
:101800001F4801F003F90346638097F88F300133D6
:1018100087F88F301A4B93F8533097F88F209A42FD
:10182000DAD3002387F88E301DE01A4BD96C97F875
:101830008E2013465B0013445B000B441888154B45
:10184000D96C97F88E2013465B0013445B00CC18CC
:101850000146104801F0DAF80346638097F88E30AD
:10186000013387F88E300B4B93F8533097F88E2066
:101870009A42DAD300BF00BF9037BD46B0BD00BF6B
:10188000E80000209A99993EEA00002030010020EB
:10189000EC000020480100204A01002090010020B7
:1018A0004C01002050C400086CC4000870110100F5
:1018B000B0B5A6B000AF7860002387F8973000235A
:1018C00087F89630002387F895300023A7F89230E8
:1018D00007F197031946032001F04EFD07F1960327
:1018E0001946042001F048FD07F19503194605202B
:1018F00001F042FD07F192031946012001F03CFD81
:1019000097F89730002B42D0814B5B881846FEF742
:1019100019FE04460D467E4B9B881846FEF712FEC4
:1019200079A3D3E90023FEF777FE02460B46204653
:101930002946FFF7F7F80346002B37D0744B93F88E
:101940004930022B19D1724B93F85C30002B14D024
:10195000B7F892301A4607F108036E49184609F0A5
:10196000E3FC6D4B1B6807F108021146184609F0AD
:1019700063FB674B002283F85C20022387F88B30DF
:1019800007F18B031946002001F018FD0EE097F8CF
:10199000973083F00103DBB2002B07D05C4B0022B1
:1019A00083F8482000215A4800F08CFD97F89630C3
:1019B000002B05D04FF480615848FFF7A1FC0BE0E5
:1019C00097F8963083F00103DBB2002B04D04FF47C
:1019D00080615248FFF7A2FC97F89530002B002356
:1019E00087F89130002387F89030002387F88F30F4
:1019F0000023A7F88C3007F1910319460A2001F063
:101A0000BBFC07F1900319460B2001F0B5FC07F170
:101A10008F0319460C2001F0AFFC07F18C03194627
:101A2000082001F0A9FC97F89130002B42D03C4BE4
:101A30005B881846FEF786FD04460D46384B9B88AA
:101A40001846FEF77FFD30A3D3E90023FEF7E4FD3F
:101A500002460B4620462946FFF764F80346002B52
:101A600037D02F4B93F84930022B19D12C4B93F8D8
:101A70005C30002B14D0B7F88C301A4607F10803FD
:101A80002849184609F050FC234B1B6807F108024F
:101A90001146184609F0D0FA214B002283F85C2049
:101AA000022387F88A3007F18A031946072001F0DC
:101AB00085FC0EE097F8913083F00103DBB2002B38
:101AC00007D0174B002283F848200021144800F06B
:101AD000F9FC97F89030002B04D010211248FFF742
:101AE0000FFC0AE097F8903083F00103DBB2002B83
:101AF00003D010210C48FFF711FC97F88F30002B12
:101B000000BF9837BD46B0BDAE47E17A14AEEF3F97
:101B1000E800002088C4000868020020000002409D
:101B200048010020ACC400080004024080B582B027
:101B300000AF786000F02AFD00F01AFE00F048FEC9
:101B400000F034FF00BF0837BD4680BD80B582B0CD
:101B500000AF03460A46FB711346BB80FB79002B9E
:101B600005D13B1D1946012001F028FC07E0FB7957
:101B7000012B04D13B1D1946082001F01FFC00BFBA
:101B80000837BD4680BD80B582B000AF03460A4627
:101B9000FB801346BB80BB1D1946012001F00EFCE3
:101BA0003B1D1946082001F009FC00BF0837BD465F
:101BB00080BD000090B585B000AF044608461146D0
:101BC0001A462346FB710346BB710B467B711346D5
:101BD0003B710023FB73FB79002B10D00023FB73B8
:101BE00007F10F031946042001F0E8FB0123BB7342
:101BF00007F10E031946002001F0E0FB07E0002387
:101C0000BB7307F10E031946002001F0D7FB002338
:101C10007B73BB79002B10D000237B7307F10D037E
:101C200019460B2001F0CAFB01233B7307F10C039B
:101C30001946072001F0C2FB07E000233B7307F1C0
:101C40000C031946072001F0B9FBFB1D19460320C0
:101C500001F0B4FBBB1D19460A2001F0AFFB0E4B8F
:101C60000022A3F850200D4B0022A3F850200A4B6D
:101C7000002283F84920094B002283F84920064AB4
:101C80007B7982F85C30054A3B7982F85C3000BF92
:101C90001437BD4690BD00BFE80000204801002079
:101CA00080B584B000AF03460A46FB711346BB7192
:101CB0000023FB73FB79002B26D1BB79002B15D0B9
:101CC0000023FB7307F10F031946032001F076FB95
:101CD0000323BB7307F10E031946002001F06EFBCE
:101CE000052200211F4808F094FD07E00023BB7384
:101CF00007F10E031946002001F060FBBB1D1946D9
:101D0000042001F05BFB28E0FB79012B25D1BB7996
:101D1000002B15D00023FB7307F10F0319460A208F
:101D200001F04CFB0323BB7307F10E031946072098
:101D300001F044FB052200210B4808F06AFD07E092
:101D40000023BB7307F10E031946072001F036FB91
:101D5000BB1D19460B2001F031FB00BF1037BD46FB
:101D600080BD00BFF00000205001002080B584B08D
:101D700000AF03460A46FB711346BB710023FB7399
:101D8000FB79002B15D00023FB7307F10F031946D5
:101D9000032001F013FB0323BB7307F10E03194665
:101DA000002001F00BFB052200211E4808F031FD48
:101DB00007E00023BB7307F10E031946002001F072
:101DC000FDFAFB1D1946042001F0F8FA00237B738D
:101DD000BB79002B15D000237B7307F10D03194647
:101DE0000A2001F0EBFA03233B7307F10C031946B9
:101DF000072001F0E3FA052200210B4808F009FD55
:101E000007E000233B7307F10C031946072001F09C
:101E1000D5FABB1D19460B2001F0D0FA00BF1037D0
:101E2000BD4680BDF00000205001002080B584B088
:101E300000AF0346FB710023FB81FB79002B06D129
:101E400007F10E031946012001F096FA08E0FB792C
:101E5000012B05D107F10E031946082001F08CFA79
:101E6000FB8918461037BD4680BD80B584B000AFF1
:101E70000346FB710023FB73FB79002B06D107F1AE
:101E80000F031946032001F077FA08E0FB79012BD4
:101E900005D107F10F0319460A2001F06DFAFB7B0B
:101EA00018461037BD4680BD80B584B000AF0346EC
:101EB000FB710023FB73FB79002B06D107F10F03A5
:101EC0001946042001F058FA08E0FB79012B05D1EE
:101ED00007F10F0319460B2001F04EFAFB7B184661
:101EE0001037BD4680BD000080B586B000AF034608
:101EF000FB710023FB820023FB81FB79002B12D1B5
:101F0000184B3B61174B5B88FB82FB8A19461548CF
:101F100000F097FD0346FB8107F10E0319460220EE
:101F200001F04CFA14E0FB79012B11D10E4B3B610F
:101F30000D4B5B88FB82FB8A19460B4800F081FD44
:101F40000346FB8107F10E031946092001F036FA1A
:101F5000FB8A1946386900F074FD034618461837A5
:101F6000BD4680BDE80000204801002098B500AFC4
:101F70002148FFF776F90346012B14D11E48FFF7DD
:101F800091F91E4B00221A701B48FFF72AF900BF77
:101F900000BF00BF00BF00BF00BF1748FFF711F927
:101FA0001548FFF72EF91448FFF748F90346012BAF
:101FB00020D11148FFF768F9104B1B78DBB21A46A5
:101FC0000F4B53F822400C48FFF72BF90346638070
:101FD0000A4B1B78DBB21A46094B53F822301846DD
:101FE00000F090F9054B1B78DBB283F00103DAB205
:101FF000024B1A7000BF98BD002001406102002012
:10200000A801002080B582B000AF0123FB71FB1D49
:102010001946052001F0D2F90F4B002283F8482021
:1020200000210D4800F04EFA01210020FFF738FE94
:102030000A4B1B680B221A70FA79084B1B685A70FE
:10204000064B1B6800229A70032000F029FD00BF98
:102050000837BD4680BD00BFE8000020B001002069
:1020600080B582B000AF0123FB71FB1D19460C2027
:1020700001F0A4F90F4B002283F8482000210D48FD
:1020800000F020FA01210120FFF70AFE0A4B1B682D
:102090000B221A70084B1B6800225A70FA79064B03
:1020A0001B689A70032000F0FBFC00BF0837BD4698
:1020B00080BD00BF48010020B001002080B582B083
:1020C00000AF78601F4B00221A704FF480111E4839
:1020D000FEF7A0FF1D4A4FF400711B48FEF7ADFF4D
:1020E0000A2240F205211848FEF7A7FF7A6817492F
:1020F0001548FFF705F87A680A211348FFF700F83A
:102100004FF480711048FEF75DFF02210E48FEF784
:10211000D1FF0D48FFF7E4F80B48FFF7D1F84FF473
:1021200080610948FEF7D9FF0748FFF74AF8002108
:102130000548FEF75AFF0448FFF763F800BF083769
:10214000BD4680BD61020020002001400C006000FF
:1021500080B582B000AF786039605A4808F015FA4F
:10216000594BDB6A584A116B60221846FFF75EF93B
:10217000554BDB6A544A116B00221846FFF7A4F94D
:10218000514BDB6A504A126B11461846FFF7E0F9D3
:102190004D4BDB6A4C4A126B11461846FFF735F976
:1021A000494BDB6A4FF400624FF480611846FFF739
:1021B0004BFA454BDB6A1846FFF75CFA424BDB6A89
:1021C0001846FFF767FA404BDB6A00211846FFF715
:1021D000F4F83D4BDB6A1846FFF7DFF879683A48B8
:1021E00000F01CF9384BDB6A1846FFF763FA3748F2
:1021F00008F0CBF9364BDB6A354A116B6022184682
:10220000FFF714F9324BDB6A314A116B0022184692
:10221000FFF75AF92E4BDB6A2D4A126B114618460E
:10222000FFF796F92A4BDB6A294A126B11461846CA
:10223000FFF7EBF8264BDB6A4FF400624FF4806146
:102240001846FFF701FA224BDB6A1846FFF712FA2D
:102250001F4BDB6A1846FFF71DFA1D4BDB6A002196
:102260001846FFF7AAF81A4BDB6A1846FFF795F8ED
:102270003968174800F0D2F8154BDB6A1846FFF7AB
:1022800019FA4FF400711348FFF73AF80421124885
:10229000FFF736F84FF480610E48FFF73FF8102142
:1022A0000E48FFF73BF8084BDB6A1846FFF745F886
:1022B000074BDB6A1846FFF740F800BF0837BD46FA
:1022C00080BD00BFF0000020E80000205001002089
:1022D0004801002000000240000C024000040240BF
:1022E00080B500AF4FF480610448FFF717F8102164
:1022F0000348FFF713F800BF80BD00BF0000024095
:1023000000040240B0B586B000AF78600023FB73D4
:102310007B683F4A934206D107F10F0319460A2012
:1023200001F02AF809E07B683A4A934205D107F1A7
:102330000F031946032001F01FF8FB7B002B62D02E
:102340007B680833184608F076F97B682C337B618C
:102350007B6893F84830DBB23B617B699B69184628
:10236000FEF7E0F804460D463869FEF7DBF84FF05B
:102370000002294BFEF77AFA02460B462046294610
:10238000FEF74AF902460B4610461946FEF7DEFBF9
:1023900002467B695A617B695B68B3F5805F28D030
:1023A000B3F5805F2ED8B3F5807F19D0B3F5807F69
:1023B00028D8012B02D0102B09D023E07B691A68A2
:1023C0007B695B6919461046FFF706F91BE07B69DC
:1023D0001A687B695B6919461046FFF70BF912E032
:1023E0007B691A687B695B6919461046FFF710F92B
:1023F00009E07B691A687B695B6919461046FFF73B
:1024000015F900E000BF00BF1837BD46B0BD00BFE2
:1024100048010020E80000200000594090B52DED53
:10242000028B85B000AF786039607B682C33FB602D
:10243000FB681B681846FEF7A0FF1F4B1B681F4A6E
:10244000127823FA02F4FFF745F903469B0A1C4A67
:10245000D35C24FA03F307EE903AB8EE678AFB6880
:102460001B681846FEF7B7FF0346013307EE903AA4
:10247000B8EE677A3B6807EE903AF8EE677A27EE97
:10248000277AC8EE077AFCEEE77A17EE902AFB6807
:102490009A61FB681A68FB689B6919461046FEF74B
:1024A000A6FFFB681B681846FEF757FF00BF1437EE
:1024B000BD46BDEC028B90BDB801002038CD0008B0
:1024C00048CD0008B0B584B000AF786039607B6853
:1024D0002C33FB60FB689B691846FEF723F8044623
:1024E0000D463868FEF71EF84FF00002264BFEF747
:1024F000BDF902460B4620462946FEF78DF80246F6
:102500000B4610461946FEF721FB0246FB685A614E
:10251000FB685B68B3F5805F28D0B3F5805F2ED889
:10252000B3F5807F19D0B3F5807F28D8012B02D076
:10253000102B09D023E0FB681A68FB685B69194619
:102540001046FFF749F81BE0FB681A68FB685B69F7
:1025500019461046FFF74EF812E0FB681A68FB6850
:102560005B6919461046FFF753F809E0FB681A68E3
:10257000FB685B6919461046FFF758F800E000BF9A
:1025800000BF1037BD46B0BD0000594080B582B0D5
:1025900000AF744B1B680133724A13600023BB7198
:1025A000BB1D1946032000F0E7FEBB7983F0010351
:1025B000DBB2002B40F0CE806B4B93F84930022BFE
:1025C00000F0C080022B00F3C780002B02D0012B4B
:1025D00049D0C1E0644BB3F85030002B11D1052233
:1025E0000021624808F015F905215F4800F044FA1F
:1025F0005D4BB3F8503001339AB25B4BA3F85020D7
:10260000ADE0594BB3F85030B3F57A6F08D2564B62
:10261000B3F8503001339AB2534BA3F850209EE0E8
:102620000023FB7114E0504B59884F4BD86CFA795A
:1026300013465B0013445B0003445B88994204D853
:10264000494AFB7982F8523008E0FB790133FB718B
:10265000454B93F85330FA799A42E4D3424B012226
:1026600083F849207BE07B1D1946002000F084FEA2
:102670007B79022B72D1BB1C1946012000F07CFE35
:10268000394BDA6C384B93F8523019460B465B00E5
:102690000B445B0013441A887B889A4230D2324B39
:1026A000DA6C314B93F8523019460B465B000B4401
:1026B0005B0013441B791A4600212C4808F0A9F846
:1026C000294BDA6C284B93F8523019460B465B00C5
:1026D0000B445B0013441B881946234800F0CCF9D7
:1026E00001237B717B1D1946002000F067FE1E4B05
:1026F00093F852300133DAB21B4B83F852202EE0AC
:10270000194BDA6C184B93F8523019460B465B00A4
:102710000B445B0013441B791A460021134808F050
:1027200078F87B881946104800F0A6F901237B71E0
:102730007B1D1946002000F041FE0B4B022283F85E
:1027400049200CE07B1D1946002000F015FE7B7926
:10275000022B01E000BF02E000BF00E000BF08372D
:10276000BD4680BD64020020E8000020F00000208B
:1027700080B582B000AF0023FB71FB1D1946042019
:1027800000F0FAFDFB7983F00103DBB2002B15D1D9
:102790000C4B5B88142B12D80B4B1B680B4918464B
:1027A00008F04AFC00210020FFF77AFA0423BB71ED
:1027B000BB1D1946002000F001FE00E000BF0837F5
:1027C000BD4680BDE800002068020020D0C400089B
:1027D00080B582B000AF0023BB71BB1D19460A2033
:1027E00000F0CAFDBB7983F00103DBB2002B40F09F
:1027F000D1806C4B93F84930032B00F2CD8001A2BD
:1028000052F823F015280008A72800088529000899
:1028100099290008634BB3F85030002B11D10522E1
:102820000021614807F0F5FF05215E4800F024F91A
:102830005C4BB3F8503001339AB25A4BA3F8502096
:10284000ADE0584BB3F85030B3F57A6F08D2554B22
:10285000B3F8503001339AB2524BA3F850209EE0A7
:102860000023FB7114E04F4B59884E4BD86CFA791A
:1028700013465B0013445B0003445B88994204D811
:10288000484AFB7982F8523008E0FB790133FB714A
:10289000444B93F85330FA799A42E4D3414B0122E6
:1028A00083F849207BE07B1D1946072000F064FD7A
:1028B0007B79022B72D1BB1C1946082000F05CFD0D
:1028C000384BDA6C374B93F8523019460B465B00A5
:1028D0000B445B0013441A887B889A4230D2314BF8
:1028E000DA6C304B93F8523019460B465B000B44C0
:1028F0005B0013441B791A4600212B4807F089FF1F
:10290000284BDA6C274B93F8523019460B465B0084
:102910000B445B0013441B881946224800F0ACF8B6
:1029200001237B717B1D1946072000F047FD1D4BDD
:1029300093F852300133DAB21A4B83F852202EE06A
:10294000184BDA6C174B93F8523019460B465B0064
:102950000B445B0013441B791A460021124807F010
:1029600058FF7B8819460F4800F086F801237B71D9
:102970007B1D1946072000F021FD0A4B022283F837
:1029800049200CE07B1D1946072000F0F5FC7B79FF
:10299000022B04E000BF02E000BF00E000BF0837E8
:1029A000BD4680BD480100205001002080B582B0A6
:1029B00000AF0023FB71FB1D19460B2000F0DCFC6F
:1029C000FB7983F00103DBB2002B15D10C4B5B8844
:1029D0003C2B12D80B4B1B680B49184608F02CFBFC
:1029E00000210120FFF75CF90423BB71BB1D1946D0
:1029F000072000F0E3FC00E000BF0837BD4680BDC3
:102A00004801002068020020F4C4000880B483B0AC
:102A100000AF78600B467B807B8807EE903AF8EE3B
:102A2000E76A7B6893ED167AC6EE877AFCEEE77A62
:102A300017EE903A9BB218460C37BD465DF8047B02
:102A4000704780B483B000AF78600B467B807B8892
:102A500007EE903AB8EEE77A7B68D3ED167A67EE28
:102A6000277AFCEEE77A17EE903A9BB218460C37BD
:102A7000BD465DF8047B704780B582B000AF7860DA
:102A80000B467B807B8819467868FFF7BFFF0346BB
:102A90001A467B689A8000BF0837BD4680BD00009B
:102AA00080B58AB000AF0346FB711F4BCA221A7073
:102AB0001E4B1A781C4B5A701B4B02229A701A4AF2
:102AC000FB79D370184B07221A71174BEF2283F84A
:102AD0000021154BDB780433DBB21A461449002081
:102AE00006F004FF03461A460F4BA3F8FE2007F139
:102AF0000C0300221A605A609A60DA601A615A6107
:102B00001A7607F10B0207F10C031946064806F086
:102B100039FFFA7A07F10C031946064808F0A4FABF
:102B200000BF2837BD4680BD601300206518002017
:102B300061130020F40E002080B400AFBFF34F8F6C
:102B400000BF064BDB6803F4E0620449044B134307
:102B5000CB60BFF34F8F00BF00BFFDE700ED00E08B
:102B60000400FA0580B588B000AFF860B9607A60FB
:102B700007F11403074A0A21184608F09FFB07F1E2
:102B800014031946F86804F0E9FD00BF2037BD467C
:102B900080BD00BF08C7000880B584B000AFF860F2
:102BA000B9607A60FFF7C8FF80B588B000AFF86001
:102BB000B9607A60B86804F0D5FE0346BB61BB69B2
:102BC000012B04DC3249F86804F0C8FD5DE0BB6904
:102BD000022B04DD2F49F86804F0C0FD55E0012107
:102BE000B86804F089FE0346184608F0DEFA03468A
:102BF0003B610221B86804F07FFE0346184608F0E6
:102C0000D4FA03467B613B69B3F5AF7F02DC3B69D5
:102C1000002B04DA2049F86804F0A0FD35E07B6958
:102C20003C2B02DC7B69002B04DA1B49F86804F0BA
:102C300095FD2AE00023FB770020FFF716F90346F5
:102C4000002B05D01549F86804F088FD0123FB77B7
:102C50000120FFF70AF90346002B05D01049F86858
:102C600004F07CFD0123FB77FB7F012B0CD03B693B
:102C70009BB27A6992B211461846FEF784FF094961
:102C8000F86804F06BFD00E000BF2037BD4680BD52
:102C900010C700082CC7000848C7000860C7000814
:102CA000A4C70008E8C7000880B586B000AFF86088
:102CB000B9607A60B86804F055FE03467B617B69B1
:102CC000002B04DC1D49F86804F048FD32E07B6904
:102CD000012B04DD1A49F86804F040FD2AE00121C7
:102CE000B86804F009FE0346184608F05EFA386139
:102CF0003B69B3F5AF7F02DC3B69002B04DA114975
:102D0000F86804F02BFD15E00020FFF7AEF803464D
:102D1000002B04D00C49F86804F020FD0AE03B6960
:102D20009BB219460020FEF711FF0849F86804F02D
:102D300015FD00BF1837BD4680BD00BF10C7000895
:102D4000F8C7000848C7000860C70008E8C70008BF
:102D500080B586B000AFF860B9607A60B86804F0FA
:102D600001FE03467B617B69002B04DC1C49F8688B
:102D700004F0F4FC31E07B69012B04DD1949F868AB
:102D800004F0ECFC29E00121B86804F0B5FD03462D
:102D9000184608F00AFA38613B693C2B02DC3B69B3
:102DA000002B04DA1049F86804F0D8FC15E0012083
:102DB000FFF75BF80346002B04D00C49F86804F0D9
:102DC000CDFC0AE03B699BB219460120FEF7BEFE2E
:102DD0000749F86804F0C2FC00BF1837BD4680BD43
:102DE00010C70008F8C7000848C70008A4C70008B3
:102DF000E8C7000880B58AB000AFF860B9607A60B3
:102E0000B86804F0AFFD03463B623B6A012B04DC6B
:102E10004349F86804F0A2FC7EE03B6A022B04DD23
:102E20004049F86804F09AFC76E00121B86804F0A3
:102E300063FD0346184608F0B8F903467B6102219A
:102E4000B86804F059FD0346184608F0AEF9034689
:102E5000BB617B69012B02DC7B69002B04DA324900
:102E6000F86804F07BFC57E0BB69012B02DCBB690E
:102E7000002B04DA2C49F86804F070FC4CE00023C5
:102E800087F827307B69012B14D10020FEF7CEFF95
:102E90000346FB830020FFF727F80346BB83FA8B2A
:102EA000BB8B9A4206D22149F86804F057FC0123F3
:102EB00087F82730BB69012B14D10120FEF7B6FF3C
:102EC0000346FB830120FFF70FF80346BB83FA8B11
:102ED000BB8B9A4206D21649F86804F03FFC0123E6
:102EE00087F8273097F82730012B14D07B69002B07
:102EF00014BF01230023D8B2BB69002B14BF0123E8
:102F00000023D9B201230122FEF754FE0949F868D3
:102F100004F024FC00E000BF2837BD4680BD00BFA0
:102F200010C70008F8C7000848C7000814C8000800
:102F300068C80008E8C7000880B588B000AFF8602E
:102F4000B9607A60B86804F00DFD0346FB61FB6967
:102F5000012B04DC2749F86804F000FC46E0FB691B
:102F6000022B04DD2449F86804F0F8FB3EE001215F
:102F7000B86804F0C1FC0346184608F016F9034689
:102F80007B610221B86804F0B7FC0346184608F0DC
:102F90000CF90346BB617B69012B02DC7B69002BCA
:102FA00004DA1649F86804F0D9FB1FE0BB69012B6D
:102FB00002DCBB69002B04DA1049F86804F0CEFB90
:102FC00014E07B69002B14BF01230023DAB2BB6934
:102FD000002B14BF01230023DBB219461046FEF775
:102FE000C5FE0749F86804F0B9FB00BF2037BD46AD
:102FF00080BD00BF10C70008F8C7000848C7000818
:10300000BCC8000880B596B000AFF860B9607A60BF
:10301000B86804F0A7FC03467B657B6D002B04D0E9
:103020001149F86804F09AFB1AE00020FEF7FEFE52
:103030000346A7F852300120FEF7F8FE0346A7F832
:103040005030B7F85220B7F8503007F11000074958
:1030500008F06AF907F110031946F86804F07EFBDE
:103060005837BD4680BD00BFF8C70008CCC800086F
:1030700080B586B000AFF860B9607A60B86804F0D7
:1030800071FC03467B617B69002B04D01249F86810
:1030900004F064FB1DE00020FEF7E7FE0346002B72
:1030A00004D00E49F86804F059FB03E00C49F868B5
:1030B00004F054FB0120FEF7D8FE0346002B04D099
:1030C0000849F86804F04AFB03E00749F86804F08F
:1030D00045FB1837BD4680BDF8C7000800C9000889
:1030E00018C9000834C900084CC9000880B586B06A
:1030F00000AFF860B9607A60B86804F033FC03464A
:103100007B617B69002B04D01249F86804F026FB30
:103110001DE00020FEF7C8FE0346002B04D00E4938
:10312000F86804F01BFB03E00C49F86804F016FB98
:103130000120FEF7B9FE0346002B04D00849F868C9
:1031400004F00CFB03E00749F86804F007FB1837AC
:10315000BD4680BDF8C7000868C9000884C90008DA
:10316000A4C90008C0C9000880B5A0B000AFF860CD
:10317000B9607A60B86804F0F5FB0346FB67FB6F43
:10318000002B04D02F49F86804F0E8FA56E000203C
:10319000FEF74CFE0346A7F87A300120FEF746FE04
:1031A0000346A7F87830B7F87A20B7F8783007F1F7
:1031B0001400254908F0B8F807F114031946F86817
:1031C00004F0CCFA0020FEF750FE0346002B04D09A
:1031D0001E49F86804F0C2FA03E01D49F86804F0DB
:1031E000BDFA0120FEF741FE0346002B04D0194929
:1031F000F86804F0B3FA03E01749F86804F0AEFA8F
:103200000020FEF751FE0346002B04D01349F86856
:1032100004F0A4FA03E01249F86804F09FFA0120D0
:10322000FEF742FE0346002B04D00E49F86804F076
:1032300095FA03E00C49F86804F090FA8037BD462F
:1032400080BD00BFF8C70008CCC8000800C900084E
:1032500018C9000834C900084CC9000868C900082A
:1032600084C90008A4C90008C0C9000880B400AF20
:10327000024B1846BD465DF8047B704788CB0008BA
:1032800080B400AF0C231846BD465DF8047B704740
:1032900080B584B004AF4FF4007303934FF4007310
:1032A00002930E4B01930E4B009347230D4A0E4998
:1032B0000E4807F048FE4FF400620D490B4804F039
:1032C00063F803460B4A13600B49084807F0B4FE45
:1032D0000A4B064A1A6000BFBD4680BDD8040020D4
:1032E000D802002000140140E0C900086C02002050
:1032F000D8060020D80E0020ECC900086802002083
:1033000080B584B000AF78600BE00D4807F060FE38
:103310000346FB730B4B1B68FA7B1146184604F0FF
:1033200069F9074807F0BEFE0346002BEDD1054BB7
:103330001B68184604F081F900BF1037BD4680BDF8
:103340006C020020D80E002080B500AF16220021AC
:10335000084808F025F8074B00221A70054B022296
:103360009A80044B00229A72024B0222DA8100BF3B
:1033700080BD00BFDC0E002080B582B000AF0346E8
:103380003960FB71FB790F2B02D83B68002B01D110
:1033900000230DE0FB79084A52F83310FB79064A06
:1033A000DB0013445B681A46386808F04DF80123C7
:1033B00018460837BD4680BDA8CC000880B582B04D
:1033C00000AF03463960FB71FB790F2B02D83B68D5
:1033D000002B01D100230DE0FB79084A52F833009D
:1033E000FB79064ADB0013445B681A46396808F02B
:1033F0002BF8012318460837BD4680BDA8CC00082D
:1034000080B5A8B000AFB44B1B681B781C2B00F232
:10341000398701A252F823F08D34000835350008B1
:10342000AF35000829360008F53600084137000896
:10343000854200080F390008CF3800088F3800088F
:10344000CF3700089737000899410008E14100088C
:1034500043420008854200086B390008D93900084A
:10346000BB3A0008A93B00085D3D0008B33D0008D9
:10347000193E00086F3E00086F3F00086F400008CB
:10348000AB4000080D410008534100080023BB7306
:1034900007F10F0319460320FFF76EFF07F10E0334
:1034A00019460A20FFF768FFFB7B002B02D1BB7B8C
:1034B000002B0DD0894B1B6800221A70874B1B68AC
:1034C00000225A70022000F0F3FE002300F0DEBE5E
:1034D000814B1B685B781BB21B021AB27E4B1B68C8
:1034E0009B781BB213431BB27B827B4B1B68DB7840
:1034F0001BB21B021AB2784B1B681B791BB2134319
:103500001BB23B823A8A7B8A11461846FEF73BFB88
:10351000724B1B6800221A70704B1B6801225A7094
:10352000022000F0C5FE6E496E4807F085FD0123BC
:1035300000F0ACBE00237B7307F10D031946032096
:10354000FFF71AFF7B7B002B0DD0644B1B68012219
:103550001A70624B1B6800225A70022000F0A8FE0D
:10356000002300F093BE5C4B1B685B781BB21B0210
:103570001AB2594B1B689B781BB213431BB2BB8218
:10358000BB8A19460020FEF7E1FA544B1B68012262
:103590001A70524B1B6801225A70022000F088FEFC
:1035A0005149504807F048FD012300F06FBE002349
:1035B0003B7307F10C0319460A20FFF7DDFE3B7B46
:1035C000002B0DD0454B1B6802221A70434B1B6821
:1035D00000225A70022000F06BFE002300F056BE5D
:1035E0003D4B1B685B781BB21B021AB23A4B1B683F
:1035F0009B781BB213431BB2FB82FB8A1946012046
:10360000FEF7A4FA354B1B6802221A70334B1B6875
:1036100001225A70022000F04BFE3449314807F075
:103620000BFD012300F032BE00237B8100233B8190
:1036300007F10A0319460120FFF79EFE07F1080370
:1036400019460820FFF798FE0020FEF74DFC0346C0
:10365000BB830120FEF748FC03467B837B89BA8B42
:103660009A4203D23B897A8B9A420DD31B4B1B683B
:1036700003221A70194B1B6800225A70022000F0B6
:1036800017FE002300F002BE134B1B685B78002B73
:1036900014BF012300237B760F4B1B689B78002B04
:1036A00014BF012300233B76397E787E012301225B
:1036B000FEF780FA094B1B6803221A70074B1B6840
:1036C00001225A70022000F0F3FD0949054807F075
:1036D000B3FC012300F0DABDB4010020B0010020EA
:1036E000F4C900086C02002018CA000834CA000897
:1036F00050CA0008B64B1B685B78FB77B44B1B685D
:103700009B78BB77FB7F002B14BF01230023DAB229
:10371000BB7F002B14BF01230023DBB219461046E8
:10372000FEF724FBAB4B1B6804221A70A94B1B68E5
:1037300001225A70022000F0BBFD012300F0A6BD5B
:10374000A34B1B685B78002B14BF01230023DBB263
:10375000FB719F4B1B689B78002B14BF0123002338
:10376000DBB2BB71FB7983F00103DBB2002B04D029
:10377000FB1D19460520FFF721FEBB7983F00103ED
:10378000DBB2002B04D0BB1D19460C20FFF716FE40
:10379000012300F07BBD7B1D19460520FFF7ECFDE2
:1037A0003B1D19460C20FFF7E7FD8A4B1B680B22D7
:1037B0001A707A79874B1B685A703A79854B1B6867
:1037C0009A70032000F074FD012300F05FBD002318
:1037D000FB85002387F82D30002387F82C3000204C
:1037E000FEF724FB03467B850120FEF71FFB034603
:1037F000FB850020FEF739FB034687F829300020BF
:10380000FEF752FB034687F82D300120FEF72DFB13
:10381000034687F828300120FEF746FB034687F869
:103820002C306C4B1B680A221A707B8D1B0A9AB2D3
:10383000684B1B68D2B25A70664B1B687A8DD2B245
:103840009A70FB8D1B0A9AB2624B1B68D2B2DA7077
:10385000604B1B68FA8DD2B21A715E4B1B6897F8E9
:1038600029205A715B4B1B6897F82D20DA71594B50
:103870001B6897F828209A71564B1B6897F82C20E4
:103880001A72092000F014FD012300F0FFBC002093
:10389000FEF7EBFA034687F827300120FEF7E5FA3A
:1038A000034687F826304B4B1B6809221A70494B98
:1038B0001B6897F827205A70464B1B6897F82620FC
:1038C0009A70032000F0F4FC012300F0DFBC00201C
:1038D000FEF7EAFA034687F825300120FEF7E4FAFE
:1038E000034687F824303B4B1B6808221A70394B7B
:1038F0001B6897F825205A70364B1B6897F82420D0
:103900009A70032000F0D4FC012300F0BFBC002318
:103910007B840020FEF78AFA03463B840120FEF7F1
:1039200085FA03467B842B4B1B6807221A703B8C5D
:103930001B0A9AB2274B1B68D2B25A70254B1B68E0
:103940003A8CD2B29A707B8C1B0A9AB2214B1B68BC
:10395000D2B2DA701F4B1B687A8CD2B21A71052072
:1039600000F0A6FC012300F091BC0020FEF7BCFA99
:103970000346A7F842300120FEF7B6FA0346A7F83F
:103980004030144B1B6810221A70B7F842301B0AE3
:103990009AB2104B1B68D2B25A700E4B1B68B7F824
:1039A0004220D2B29A70B7F840301B0A9AB2094B43
:1039B0001B68D2B2DA70074B1B68B7F84020D2B24E
:1039C0001A71052000F074FC012300F05FBC00BFF9
:1039D000B4010020B0010020704BD3ED037A9FEDBD
:1039E000707A67EE877AFDEEE77A17EE903AFB641D
:1039F0006A4BD3ED047A9FED6A7A67EE877AFDEE23
:103A0000E77A17EE903ABB64644BD3ED057A9FEDED
:103A1000647A67EE877AFDEEE77A17EE903A7B6478
:103A2000604B1B6811221A705E4B1B68FA6CD2B295
:103A30005A70FB6C1A125B4B1B68D2B29A70FB6C0B
:103A40001A14584B1B68D2B2DA70FB6C1A16554B1D
:103A50001B68D2B21A71534B1B68BA6CD2B25A713E
:103A6000BB6C1A124F4B1B68D2B29A71BB6C1A1402
:103A70004C4B1B68D2B2DA71BB6C1A16494B1B68EF
:103A8000D2B21A72474B1B687A6CD2B25A727B6CF4
:103A90001A12444B1B68D2B29A727B6C1A14414BB7
:103AA0001B68D2B2DA727B6C1A163E4B1B68D2B21C
:103AB0001A730D2000F0FCFBE7E3384BD3ED007ADE
:103AC0009FED377A67EE877AFDEEE77A17EE903A48
:103AD000BB65324BD3ED017A9FED317A67EE877A81
:103AE000FDEEE77A17EE903A7B652C4BD3ED027A28
:103AF0009FED2B7A67EE877AFDEEE77A17EE903A24
:103B00003B65284B1B6812221A70264B1B68BA6D46
:103B1000D2B25A73BB6D1A12224B1B68D2B29A737F
:103B2000BB6D1A141F4B1B68D2B2DA73BB6D1A1629
:103B30001C4B1B68D2B21A741A4B1B687A6DD2B236
:103B40005A747B6D1A12174B1B68D2B29A747B6D34
:103B50001A14144B1B68D2B2DA747B6D1A16114B0F
:103B60001B68D2B21A750F4B1B683A6DD2B25A75E8
:103B70003B6D1A120B4B1B68D2B29A753B6D1A142F
:103B8000084B1B68D2B2DA753B6D1A16054B1B68E1
:103B9000D2B21A76192000F08BFB76E39C17002036
:103BA00000007A44B0010020974BD3ED037A9FEDDB
:103BB000977A67EE877AFDEEE77A17EE903A3B67E1
:103BC000914BD3ED047A9FED917A67EE877AFDEE03
:103BD000E77A17EE903AFB668B4BD3ED057A9FEDB3
:103BE0008B7A67EE877AFDEEE77A17EE903ABB663E
:103BF000854BD3ED007A9FED857A67EE877AFDEEEF
:103C0000E77A17EE903A7B667F4BD3ED017A9FED12
:103C10007F7A67EE877AFDEEE77A17EE903A3B6699
:103C2000794BD3ED027A9FED797A67EE877AFDEED4
:103C3000E77A17EE903AFB65754B1B6813221A70F2
:103C4000734B1B683A6FD2B25A703B6F1A12704BAB
:103C50001B68D2B29A703B6F1A146D4B1B68D2B2BC
:103C6000DA703B6F1A166A4B1B68D2B21A71684B36
:103C70001B68FA6ED2B25A71FB6E1A12644B1B6843
:103C8000D2B29A71FB6E1A14614B1B68D2B2DA7110
:103C9000FB6E1A165E4B1B68D2B21A725C4B1B6825
:103CA000BA6ED2B25A72BB6E1A12594B1B68D2B29C
:103CB0009A72BB6E1A14564B1B68D2B2DA72BB6E84
:103CC0001A16534B1B68D2B21A73514B1B687A6E8B
:103CD000D2B25A737B6E1A124D4B1B68D2B29A73D2
:103CE0007B6E1A144A4B1B68D2B2DA737B6E1A16BB
:103CF000474B1B68D2B21A74454B1B683A6ED2B25E
:103D00005A743B6E1A12424B1B68D2B29A743B6EC5
:103D10001A143F4B1B68D2B2DA743B6E1A163C4B36
:103D20001B68D2B21A753A4B1B68FA6DD2B25A753B
:103D3000FB6D1A12364B1B68D2B29A75FB6D1A14C2
:103D4000334B1B68D2B2DA75FB6D1A16304B1B6809
:103D5000D2B21A76192000F0ABFA96E22D4BD3EDD1
:103D6000007A9FED2A7A67EE877AFDEEE77A17EE02
:103D7000903A7B67264B1B6814221A70244B1B68F1
:103D80007A6FD2B25A707B6F1A12214B1B68D2B273
:103D90009A707B6F1A141E4B1B68D2B2DA707B6F5D
:103DA0001A161B4B1B68D2B21A710D2000F080FA54
:103DB0006BE2184BD3ED017A9FED147A67EE877AA8
:103DC000FDEEE77A17EE903ABB67114B1B681522A0
:103DD0001A700F4B1B68BA6FD2B25A71BB6F1A12AE
:103DE0000B4B1B68D2B29A71BB6F1A14084B1B683D
:103DF000D2B2DA71BB6F1A16054B1B68D2B21A72B7
:103E00000D2000F055FA40E29C17002000007A4493
:103E1000B0010020C0170020B74BD3ED027A9FED10
:103E2000B77A67EE877AFDEEE77A17EE903AFB678E
:103E3000B34B1B6816221A70B14B1B68FA6FD2B2D3
:103E40005A72FB6F1A12AE4B1B68D2B29A72FB6F9A
:103E50001A14AB4B1B68D2B2DA72FB6F1A16A84B5E
:103E60001B68D2B21A730D2000F022FA0DE2A24BA9
:103E7000D3ED007A9FEDA17A67EE877AFDEEE77ABF
:103E800017EE903AC7F888309B4BD3ED017A9FED3F
:103E90009B7A67EE877AFDEEE77A17EE903AC7F8DD
:103EA0008430954BD3ED027A9FED947A67EE877A52
:103EB000FDEEE77A17EE903AC7F88030904B1B681A
:103EC00017221A708E4B1B68D7F88820D2B25A700E
:103ED000D7F888301A128A4B1B68D2B29A70D7F87A
:103EE00088301A14864B1B68D2B2DA70D7F8883043
:103EF0001A16834B1B68D2B21A71814B1B68D7F814
:103F00008420D2B25A71D7F884301A127C4B1B68C5
:103F1000D2B29A71D7F884301A14794B1B68D2B296
:103F2000DA71D7F884301A16754B1B68D2B21A7240
:103F3000734B1B68D7F88020D2B25A72D7F8803002
:103F40001A126F4B1B68D2B29A72D7F880301A14CB
:103F50006B4B1B68D2B2DA72D7F880301A16684BF6
:103F60001B68D2B21A730D2000F0A2F98DE1654BE7
:103F7000D3ED007A9FED617A67EE877AFDEEE77AFE
:103F800017EE903AC7F894305E4BD3ED017A9FED6F
:103F90005B7A67EE877AFDEEE77A17EE903AC7F81C
:103FA0009030584BD3ED027A9FED547A67EE877AC2
:103FB000FDEEE77A17EE903AC7F88C30504B1B684D
:103FC00018221A704E4B1B68D7F89420D2B25A7040
:103FD000D7F894301A124A4B1B68D2B29A70D7F8AD
:103FE00094301A14464B1B68D2B2DA70D7F894306A
:103FF0001A16434B1B68D2B21A71414B1B68D7F893
:104000009020D2B25A71D7F890301A123C4B1B68EC
:10401000D2B29A71D7F890301A14394B1B68D2B2C9
:10402000DA71D7F890301A16354B1B68D2B21A7273
:10403000334B1B68D7F88C20D2B25A72D7F88C3029
:104040001A122F4B1B68D2B29A72D7F88C301A14FE
:104050002B4B1B68D2B2DA72D7F88C301A16284B69
:104060001B68D2B21A730D2000F022F90DE1264B25
:104070001B685B7887F89A3097F89A30012B03D148
:10408000002004F0DFFFFFE097F89A30022B03D105
:10409000102004F0D7FFF7E097F89A30042B40F097
:1040A000F380302004F0CEFFEEE005F011F8034677
:1040B00087F89B30124B1B681A221A7097F89B30B6
:1040C000002B04D10E4B1B6801225A7010E097F8A8
:1040D0009B30102B04D10A4B1B6802225A7007E058
:1040E00097F89B30302B03D1054B1B6804225A7084
:1040F000022000F0DDF8C8E0C017002000007A447C
:10410000B0010020B4170020B4010020614BD3EDB2
:10411000037A9FED617A67EE877AFCEEE77A17EE15
:10412000903AA7F89C305D4B1B681B221A70B7F8B9
:104130009C301B0A9AB2594B1B68D2B25A70574B2B
:104140001B68B7F89C20D2B29A70032000F0B0F838
:104150009BE0534BD3ED037A9FED4F7A67EE877A5E
:10416000FCEEE77A17EE903AA7F89E304B4B1B68AF
:104170001C221A70B7F89E301B0A9AB2474B1B6874
:10418000D2B25A70454B1B68B7F89E20D2B29A70D3
:10419000032000F08DF878E0424B1B685B7B1A46E9
:1041A000404B1B689B7B1B021A433E4B1B68DB7B0F
:1041B0001B041A433B4B1B681B7C1B0613437B638E
:1041C0007B6B07EE903AB8EEE77ADFED376AC7EE21
:1041D000267AC7ED0C7A97ED0C0A05F055F854E0F5
:1041E0004FF000033B603B46184605F0C3F8D7ED9F
:1041F000007A9FED2D7A67EE877AFDEEE77A17EE6B
:10420000903ABB63254B1B680D221A70234B1B6829
:10421000BA6BD2B25A73BB6B1A12204B1B68D2B264
:104220009A73BB6B1A141D4B1B68D2B2DA73BB6B4B
:104230001A161A4B1B68D2B21A74112000F038F803
:1042400023E0184B1B685B78002B14BF012300236D
:1042500087F83F3097F83F30002B03D0134B0122F3
:104260001A7009E097F83F3083F00103DBB2002BAE
:1042700002D00E4B00221A7097F83F30184605F016
:10428000DFF802E0002301E000BF01231846A03759
:10429000BD4680BD7C1700200000C842B001002050
:1042A0008C170020B401002000007A446002002036
:1042B00080B58CB000AF0346FB711E4BCA221A704A
:1042C0001D4B1A781B4B5A701A4B02229A70194ACE
:1042D000FB79D370174B07221A71164BEF2283F824
:1042E0000021144BDB780433DBB21A46134900205B
:1042F00005F0FCFA03461A460E4BA3F8FE2007F120
:104300000C0323220021184607F04AF807F10B029C
:1043100007F10C031946074805F034FBFA7A07F158
:104320000C031946064806F09FFE00BF3037BD4615
:1043300080BD00BF601300206518002061130020BD
:10434000F40E002080B584B004AF4FF400730393E3
:104350004FF400730293124B0193124B00932523E9
:10436000114A1249124806F0EEFD124B124A5A60E9
:10437000104B4FF400721A800E4B00221A810D4B25
:104380001B88002B06D00B4B5B68042200211846CB
:1043900007F006F8012005F0E5FA00BFBD4680BD34
:1043A00060110020600F0020001001406CCA00085E
:1043B000F40E0020681500207415002080B584B02C
:1043C00000AF78602F4B1B6801332E4A1360002327
:1043D000FB733223FB7347E02B4806F0F9FD0346DD
:1043E000DAB22A4B9A72294B9B7ADBB2CA2B03D1E1
:1043F000264B00221A8134E0244B9B7ADBB2EF2B50
:1044000014D1224B5B68214A128992B2D1B2204A60
:10441000184605F0EDFB0346BB73BB7B012B01D1B6
:10442000FEF7EEFF194B00221A811AE0174B5B686A
:10443000164A128992B21344144A927AD2B21A706E
:10444000124B1B899BB201339AB2104B1A810F4B4E
:104450001B899AB20D4B1B889A4202D90B4B002242
:104460001A81FB7B013BFB73074806F01BFE0346EA
:10447000002B02D0FB7B002BAED100BF1037BD4616
:1044800080BD00BF74170020F40E002068150020C6
:104490006414002080B582B000AF7860134B1B78A5
:1044A000022B14D0022B19DC002B02D0012B07D0D9
:1044B00014E00F4804F0A6FE0C4B01221A7011E024
:1044C0000C4805F059F8094B02221A700AE00A4814
:1044D00004F058FD054B00221A7003E0034B002244
:1044E0001A7000BF00BF0837BD4680BD7817002096
:1044F000B41700209C170020C017002080B582B0A0
:1045000000AF7860094805F0BFF9F0EE407A074B3C
:10451000C3ED037A064805F0B7F9F0EE407A044B94
:10452000C3ED037A00BF0837BD4680BD7C1700206D
:104530008C17002080B485B000AF78607B6803F0F2
:104540000703FB600C4BDB68BB60BA684FF6FF03E8
:104550001340BB60FB681A02BB68134343F0BF63A0
:1045600043F40033BB60044ABB68D36000BF143718
:10457000BD465DF8047B704700ED00E080B400AFFD
:10458000044BDB681B0A03F007031846BD465DF8C1
:10459000047B704700ED00E080B483B000AF0346B9
:1045A000FB7197F90730002B0BDBFB7903F01F023F
:1045B000074997F907305B09012000FA02F241F838
:1045C000232000BF0C37BD465DF8047B704700BF59
:1045D00000E100E080B483B000AF03463960FB71B6
:1045E00097F90730002B0ADB3B68DAB20C4997F9E0
:1045F00007301201D2B20B4483F800230AE03B6873
:10460000DAB20849FB7903F00F03043B1201D2B27E
:104610000B441A7600BF0C37BD465DF8047B70472B
:1046200000E100E000ED00E080B489B000AFF86088
:10463000B9607A60FB6803F00703FB61FB69C3F1B3
:104640000703042B28BF0423BB61FB690433062B3B
:1046500002D9FB69033B00E000237B614FF0FF328E
:10466000BB6902FA03F3DA43BB681A407B699A40DC
:104670004FF0FF317B6901FA03F3D9437B680B40AC
:10468000134318462437BD465DF8047B704780B459
:1046900089B000AFF860B9607A60FB682C331946C6
:1046A000BB6803F440734FF440727A617A6992FAFE
:1046B000A2F23A613A69BA61BA69002A01D12022AC
:1046C00003E0BA69B2FA82F2D2B2D3409B000B4443
:1046D000FB61FB691A68BB6803F01F031F2101FA25
:1046E00003F3DB431A407B6803F01F01BB6803F050
:1046F0001F0301FA03F31A43FB691A6000BF243752
:10470000BD465DF8047B704780B483B000AF78602D
:1047100039607B689B6823F480623B681A437B683E
:104720009A6000BF0C37BD465DF8047B704780B4CB
:104730008FB000AFF860B9607A60FB680C3319463F
:10474000BB6803F000734FF000727A617A6992FAE5
:10475000A2F23A613A69BA61BA69002A01D120220B
:1047600003E0BA69B2FA82F2D2B2D3409B000B44A2
:104770007B637B6B1A68BB6803F0F8734FF0F871CA
:104780003962396A91FAA1F1F961F9697962796A54
:10479000002901D1202103E0796AB1FA81F1C9B27F
:1047A000CB40072101FA03F3DB431A40BB6803F057
:1047B000F8734FF0F871F962F96A91FAA1F1B962F0
:1047C000B96A3963396B002901D1202103E0396BC3
:1047D000B1FA81F1C9B2CB40796801FA03F31A4307
:1047E0007B6B1A6000BF3C37BD465DF8047B7047A9
:1047F00080B483B000AF78607B681B6823F08002D0
:104800007B681A6000BF0C37BD465DF8047B7047BB
:1048100080B483B000AF78607B681B6823F04002EF
:104820007B681A6000BF0C37BD465DF8047B70479B
:1048300080B483B000AF786039607B68DB6823F0B8
:10484000FE023B681A437B68DA6000BF0C37BD4646
:104850005DF8047B704780B483B000AF78607B68FC
:10486000DB6823F001027B68DA6000BF0C37BD46CD
:104870005DF8047B7047000080B400AF054B1B68F7
:10488000044A43F48033136000BFBD465DF8047BE7
:10489000704700BF0038024080B400AF074B1B6870
:1048A00003F40033B3F5003F0CBF01230023DBB258
:1048B0001846BD465DF8047B704700BF00380240D3
:1048C00080B483B000AF7860064B9B6823F003028E
:1048D00004497B6813438B6000BF0C37BD465DF80D
:1048E000047B70470038024080B400AF044B9B68E3
:1048F00003F00C031846BD465DF8047B704700BF0B
:104900000038024080B483B000AF7860064B9B68EB
:1049100023F0F00204497B6813438B6000BF0C371F
:10492000BD465DF8047B70470038024080B483B018
:1049300000AF7860064B9B6823F4E05204497B6823
:1049400013438B6000BF0C37BD465DF8047B704796
:104950000038024080B483B000AF7860064B9B689B
:1049600023F4604204497B6813438B6000BF0C371B
:10497000BD465DF8047B70470038024080B400AF4C
:10498000054B1B68044A43F08073136000BFBD46AB
:104990005DF8047B704700BF0038024080B400AF70
:1049A000074B1B6803F00073B3F1007F0CBF0123BA
:1049B0000023DBB21846BD465DF8047B704700BF9C
:1049C0000038024080B485B000AFF860B9607A600A
:1049D0003B600D4B5A680D4B1340F968BA681143A0
:1049E0007A6892010A43084913434B60064B5B689F
:1049F00023F4403204493B6813434B6000BF143733
:104A0000BD465DF8047B7047003802400080BFFF60
:104A100080B485B000AF7860084B1A6B07497B689B
:104A200013430B63054B1A6B7B681340FB60FB68F9
:104A300000BF1437BD465DF8047B70470038024064
:104A400080B485B000AF7860084B1A6C07497B686A
:104A500013430B64054B1A6C7B681340FB60FB68C7
:104A600000BF1437BD465DF8047B70470038024034
:104A700080B485B000AF7860084B5A6C07497B68FA
:104A800013434B64054B5A6C7B681340FB60FB6817
:104A900000BF1437BD465DF8047B70470038024004
:104AA00080B487B000AF78603960174A3B68DBB2EA
:104AB000023352F823203B681B0CDB4302EA03015C
:104AC0003B681B0C3B613B6993FAA3F3FB60FB68FB
:104AD0007B617B69002B01D1202303E07B69B3FA62
:104AE00083F3DBB21A467B6803FA02F206483B689E
:104AF000DBB20A43023340F8232000BF1C37BD4617
:104B00005DF8047B704700BF0038014080B483B07B
:104B100000AF7860064B1B6823F0070204497B68EE
:104B200013430B6000BF0C37BD465DF8047B704734
:104B3000003C024080B400AF044B1B6803F0070345
:104B40001846BD465DF8047B704700BF003C02403C
:104B500080B483B000AF7860064B1B6823F48042BA
:104B600004497B6813430B6000BF0C37BD465DF8FA
:104B7000047B70470070004080B400AF074B5B6857
:104B800003F48043B3F5804F0CBF01230023DBB255
:104B90001846BD465DF8047B704700BF00700040BA
:104BA00080B483B000AF78607B681B6823F080021C
:104BB0007B681A6000BF0C37BD465DF8047B704708
:104BC00080B485B000AF786039603B68012B1CD0A1
:104BD0003B68042B17D03B68102B12D03B68402B4E
:104BE0000DD03B68B3F5807F07D03B68B3F5806F8D
:104BF00001D105230AE0062308E0042306E003238D
:104C000004E0022302E0012300E00023FB737B6841
:104C100018331946FB7B0B4AD35C0B44BB60BB6863
:104C20001A68FB7B0849CB5C194604238B40DB43A5
:104C30001A40BB681A6000BF1437BD465DF8047B9C
:104C4000704700BF28CD000830CD000880B485B083
:104C500000AF786039603B68012B1CD03B68042BA7
:104C600017D03B68102B12D03B68402B0DD03B680F
:104C7000B3F5807F07D03B68B3F5806F01D1052382
:104C80000AE0062308E0042306E0032304E00223ED
:104C900002E0012300E00023FB737B681833194610
:104CA000FB7B0A4AD35C0B44BB60BB681A68FB7B86
:104CB0000749CB5C194608238B401A43BB681A602E
:104CC00000BF1437BD465DF8047B704728CD00084F
:104CD00030CD000880B483B000AF786039607B6865
:104CE0005B6823F070023B681A437B685A6000BF20
:104CF0000C37BD465DF8047B704780B483B000AFCD
:104D000078607B689B6823F080027B689A6000BFB4
:104D10000C37BD465DF8047B704780B483B000AFAC
:104D200078607B68DB6843F400527B68DA6000BF20
:104D30000C37BD465DF8047B704780B483B000AF8C
:104D400078607B681B6923F490427B681A617B68FA
:104D50005B6923F02A027B685A6100BF0C37BD46AD
:104D60005DF8047B704780B48BB000AFF860B96029
:104D70007A60FB681A68BB687B617B6993FAA3F36E
:104D80003B613B69BB61BB69002B01D1202303E080
:104D9000BB69B3FA83F3DBB25B00032101FA03F3CF
:104DA000DB431A40BB683B623B6A93FAA3F3FB61A7
:104DB000FB697B627B6A002B01D1202303E07B6AC5
:104DC000B3FA83F3DBB25B00796801FA03F31A43A9
:104DD000FB681A6000BF2C37BD465DF8047B704746
:104DE00080B48BB000AFF860B9607A60FB68DA68B5
:104DF000BB687B617B6993FAA3F33B613B69BB6151
:104E0000BB69002B01D1202303E0BB69B3FA83F314
:104E1000DBB25B00032101FA03F3DB431A40BB68FA
:104E20003B623B6A93FAA3F3FB61FB697B627B6A9B
:104E3000002B01D1202303E07B6AB3FA83F3DBB2BA
:104E40005B00796801FA03F31A43FB68DA6000BF7C
:104E50002C37BD465DF8047B704780B483B000AF4B
:104E6000786039603B681A047B689A6100BF0C3730
:104E7000BD465DF8047B704780B500AF4FF48040BD
:104E8000FFF7F6FD4FF08050FFF7DAFD0320FFF744
:104E900051FBFFF773FB034600220F211846FFF773
:104EA000C3FB034619464FF0FF30FFF793FB00F0BA
:104EB00017F800F0DDFB00F05BF800F017FA00F0E7
:104EC000ABFA00F075FB00F013FB00F047F900F0BF
:104ED0009DF900F0D1F8FBF7EFFF00BFFDE7000000
:104EE00080B500AF0120FFF711FE00BFFFF722FEE3
:104EF0000346012BFAD14FF48040FFF729FEFFF75C
:104F0000BBFC00BFFFF7C8FC0346012BFAD100230E
:104F1000482204214FF48000FFF754FDFFF72EFDD7
:104F200000BFFFF73BFD0346012BFAD100BFFFF79F
:104F300023FE0346002BFAD08020FFF7E3FC00207D
:104F4000FFF7F4FC0020FFF705FD0220FFF7B8FC97
:104F500000BFFFF7C9FC0346082BFAD1034802F053
:104F6000E1F9024802F0ECF900BF80BD00512502D2
:104F700080B592B000AF07F13C0300221A605A607E
:104F80009A6007F1280300221A605A609A60DA607A
:104F90001A6107F1180300221A605A609A60DA60F9
:104FA0003B4600221A605A609A60DA601A615A61C0
:104FB0004FF48070FFF75CFD0420FFF729FD052307
:104FC0003B6003237B6000233B613B461946274837
:104FD00001F08EF8FFF7D2FA0346002203211846AB
:104FE000FFF722FB034619461220FFF7F3FA1220BF
:104FF000FFF7D2FA0023FB6300233B6400237B64AA
:1050000007F13C0319461A4800F0A2FD0023BB62D9
:105010000023FB6200233B6300237B630023BB630D
:1050200007F128031946124800F0BEFD4FF48061D5
:105030000F48FFF769FB4FF48033BB610023FB612E
:1050400007F1180319460B4800F03AFD0A224FF405
:1050500000710748FFF71BFB00220A210448FFF7F5
:1050600066FB00BF4837BD4680BD00BF0008024058
:10507000002001400023014080B58EB000AF07F151
:105080002C0300221A605A609A6007F1180300226C
:105090001A605A609A60DA601A613B4600221A6010
:1050A0005A609A60DA601A615A614FF40070FFF733
:1050B000DFFC0420FFF7ACFC30233B6003237B6064
:1050C00000233B613B461946214801F011F8FFF7E8
:1050D00055FA0346002203211846FFF7A5FA0346B6
:1050E00019461220FFF776FA1220FFF755FA00232F
:1050F000FB6200233B6300237B6307F12C0319460B
:10510000144800F025FD0023BB610023FB61002350
:105110003B6200237B620023BB6207F11803194640
:105120000C4800F041FD4FF480610A48FFF7ECFAAB
:10513000094A4FF400710748FFF7A9FA002206490F
:105140000448FFF7F4FA00BF3837BD4680BD00BF02
:1051500000080240002101400E00C00080B58CB064
:1051600000AF07F1180300221A605A609A60DA60F3
:105170001A615A613B4600221A605A609A60DA60EE
:105180001A615A610220FFF743FC4FF440733B6001
:1051900002237B600323BB600123FB6000233B6190
:1051A00004237B613B461946154800F0A1FF4FF4EC
:1051B0000010FFF745FC1348FFF74DFB1148FFF7C0
:1051C00027FB1048FFF714FB0023BB610E4BFB616C
:1051D00000233B6200237B624FF48063BB624FF489
:1051E0008043FB6207F118031946064801F0F8F8FE
:1051F00000210448FFF71CFB00BF3037BD4680BDCF
:105200000004024000540040A086010080B58CB02C
:1052100000AF07F1180300221A605A609A60DA6042
:105220001A615A613B4600221A605A609A60DA603D
:105230001A615A610420FFF7EBFB0120FFF7E8FB3E
:105240004FF400733B6002237B600323BB600123A8
:10525000FB6000233B6104237B613B4619461F48EA
:1052600000F046FF4FF480733B6002237B60032312
:10527000BB600123FB6000233B6104237B613B4651
:105280001946174800F034FF4FF40000FFF7D8FB31
:105290001448FFF7E0FA1348FFF7BAFA1148FFF78E
:1052A000A7FA0023BB61104BFB6100233B62002384
:1052B0007B624FF48063BB624FF48043FB6207F173
:1052C00018031946074801F08BF800210548FFF73D
:1052D000AFFA00BF3037BD4680BD00BF00080240B6
:1052E00000000240005C0040A086010080B59AB03A
:1052F00000AF07F1540300221A605A609A60DA6026
:105300001A6107F1340320220021184606F048F8FC
:1053100007F11C0300221A605A609A60DA601A6171
:105320005A613B1D00221A605A609A60DA601A6165
:105330005A610120FFF79CFB0023A7F8543000239B
:10534000BB654FF6FF73FB6500233B6600237B665E
:1053500007F1540319462E4801F020FA2C48FFF7B4
:105360001FFC4FF480512A48FFF770FC60237B63D9
:105370000023BB630023FB6300233B6400237B64A7
:105380000023FB6400233B6507F134031A464FF406
:1053900080511F4801F09CFA4FF480511C48FFF7E0
:1053A0000FFC00211A48FFF795FC1948FFF7A5FCF0
:1053B0000023FB6100233B6200237B62002387F80C
:1053C000283000237B854FF40053FB6200233B63AE
:1053D00007F11C0319460E4801F0BBFA0120FFF744
:1053E00017FB4FF400637B600223BB600023FB606C
:1053F00000233B6100237B610123BB613B1D1946F8
:10540000044800F075FE00BF6837BD4680BD00BF90
:10541000000001400000024080B594B000AF07F1E9
:105420003C0300221A605A609A60DA601A6107F140
:105430001C0320220021184605F0B2FF3B1D00226C
:105440001A605A609A60DA601A615A610220FFF7A6
:10545000F7FA0023BB8700233B644FF6FF737B649E
:105460000023BB6407F13C0319461F4801F096F97D
:105470001D48FFF795FB10211B48FFF7E7FB602352
:10548000FB6100233B6200237B620023BB6200239D
:10549000FB6207F11C031A461021134801F018FAA9
:1054A00010211148FFF78CFB00210F48FFF712FC79
:1054B0000D48FFF722FC0220FFF7AAFA20237B60A9
:1054C0000223BB600023FB6000233B6100237B6160
:1054D0000223BB613B1D1946044800F009FE00BFD2
:1054E0005037BD4680BD00BF0004004000040240AC
:1054F00080B58EB000AF07F11C0300221A605A601D
:105500009A60DA601A615A619A613B1D00221A6042
:105510005A609A60DA601A615A611020FFF7A8FA9F
:105520000220FFF775FAC0237B600223BB600323D0
:10553000FB6000233B6100237B610723BB613B1DB4
:105540001946194800F0D4FDFFF718F80346002269
:1055500002211846FFF768F8034619462520FFF791
:1055600039F82520FFF718F84FF4E133FB610023E9
:105570003B6200237B620023BB620C23FB6200239F
:105580003B6300237B6307F11C031946074801F0C6
:105590002FFE0648FFF7D1FB0448FFF7BEFB00BF14
:1055A0003837BD4680BD00BF0004024000100140F6
:1055B00080B58EB000AF07F11C0300221A605A605C
:1055C0009A60DA601A615A619A613B1D00221A6082
:1055D0005A609A60DA601A615A612020FFF748FA2F
:1055E0000420FFF715FAC0237B600223BB6003236E
:1055F000FB6000233B6100237B610823BB613B1DF3
:105600001946194800F074FDFEF7B8FF0346002262
:1056100006211846FFF708F8034619464720FEF70B
:10562000D9FF4720FEF7B8FF4FF4E133FB610023B9
:105630003B6200237B620023BB620C23FB620023DE
:105640003B6300237B6307F11C031946074801F005
:10565000CFFD0648FFF771FB0448FFF75EFB00BF74
:105660003837BD4680BD00BF00080240001401402D
:1056700080B588B000AF07F1180300221A605A60A5
:105680003B4600221A605A609A60DA601A615A61D9
:105690008020FFF7BDF90420FFF7BAF90220FFF7D9
:1056A000B7F90120FFF7B4F90820FFF7B1F91B2182
:1056B0006048FFF7D2FB4FF4C0615F48FFF7CDFBB6
:1056C00004215E48FFF7C9FB4FF470010220FFF789
:1056D000E7F94FF070410220FFF7E2F94FF07061F7
:1056E0000120FFF7DDF90223BB6101233B77002393
:1056F0007B770123BB7707F11803184600F02EFBD8
:105700000823BB6101233B7700237B770123BB7711
:1057100007F11803184600F021FB0423BB610123A5
:105720003B7700237B770223BB7707F118031846EA
:1057300000F014FB002202214148FFF751FB002238
:1057400008213F48FFF74CFB002204213948FFF7AE
:1057500047FB002202213A48FFF705FB00220821FF
:105760003748FFF700FB002204213248FFF7FBFA1D
:105770001B233B6001237B600023BB600023FB6095
:1057800000233B613B4619462A4800F0B1FC4FF428
:10579000C0633B6001237B600023BB600023FB6090
:1057A00000233B613B461946234800F0A1FC04233B
:1057B0003B6001237B600023BB600023FB60002370
:1057C0003B613B4619461D4800F092FCFEF7D6FEB1
:1057D0000346002201211846FEF726FF034619461C
:1057E0000720FEF7F7FE0720FEF7D6FEFEF7C6FEFF
:1057F0000346002203211846FEF716FF034619460A
:105800000820FEF7E7FE0820FEF7C6FEFEF7B6FE0C
:105810000346002201211846FEF706FF03461946FB
:105820000920FEF7D7FE0920FEF7B6FE00BF20379D
:10583000BD4680BD0004024000000240000C024052
:105840000008024080B483B000AF7860074B5A690B
:105850007B6813407A689A420CBF01230023DBB2B5
:1058600018460C37BD465DF8047B7047003C01408C
:1058700080B483B000AF7860044A7B68536100BF96
:105880000C37BD465DF8047B704700BF003C01400B
:1058900080B400AF00BFFDE780B400AF00BFFDE7FC
:1058A00080B400AF00BFFDE780B400AF00BFFDE7EC
:1058B00080B400AF00BFFDE780B400AF00BFBD46BD
:1058C0005DF8047B704780B400AF00BFBD465DF853
:1058D000047B704780B400AF00BFBD465DF8047B19
:1058E0007047000080B500AF044B1B680133034ACA
:1058F000136005F07FF800BF80BD00BFCC1700200B
:1059000080B500AF0220FFF79DFF0346002B04D0B7
:105910000220FFF7ADFFFCF7A3FB00BF80BD80B501
:1059200000AF0420FFF78EFF0346002B04D00420B5
:10593000FFF79EFFFBF7E2FA00BF80BD80B500AF26
:105940000820FFF77FFF0346002B04D00820FFF755
:105950008FFFFCF757FB00BF80BD80B500AFFCF7A1
:1059600005FB00BF80BD000080B500AF024805F018
:10597000A7FB00BF80BD00BFF40E002080B500AFC4
:10598000024805F09DFB00BF80BD00BF6C020020F7
:1059900080B586B000AF7860144A154BD31A7B618E
:1059A0007B693B61134B1B68002B02D1114B124AE0
:1059B0001A60104B1A687B6813443A699A4207D2FE
:1059C00005F016FD03460C221A604FF0FF3309E084
:1059D000084B1B68FB60074B1A687B681344054A39
:1059E0001360FB6818461837BD4680BD00000220D2
:1059F00000040000D0170020B819002080B400AFC8
:105A0000064BD3F88830054A43F47003C2F8883057
:105A100000BFBD465DF8047B704700BF00ED00E0AD
:105A2000DFF834D0FFF7EAFF0C480D490D4A002398
:105A300002E0D458C4500433C4188C42F9D30A4A43
:105A40000A4C002301E013600432A242FBD305F0AC
:105A5000D5FCFFF711FA704700000220000000207B
:105A600040020020ACCE000840020020B419002003
:105A7000FEE780B483B000AF786039607B68DB6A92
:105A800023F470023B681A437B68DA6200BF0C376C
:105A9000BD465DF8047B704780B483B000AF78608A
:105AA0007B689B6803F00103012B0CBF01230023DB
:105AB000DBB218460C37BD465DF8047B704700002A
:105AC00090B585B000AF786039600023FB731C4847
:105AD000FFF7E2FF04461B48FFF7DEFF03461C43C7
